{"abi":[{"type":"function","name":"EVM_EXTRA_ARGS_V1_TAG","inputs":[],"outputs":[{"name":"","type":"bytes4","internalType":"bytes4"}],"stateMutability":"view"},{"type":"function","name":"EVM_EXTRA_ARGS_V2_TAG","inputs":[],"outputs":[{"name":"","type":"bytes4","internalType":"bytes4"}],"stateMutability":"view"}],"bytecode":{"object":"0x6080806040523460175760a49081601d823930815050f35b600080fdfe6080806040526004361015601257600080fd5b60003560e01c9081633ab8c0d01460545750638113c57814603257600080fd5b6000366003190112604f57604051630181dcf160e41b8152602090f35b600080fd5b6000366003190112604f576397a657c960e01b8152602090f3fea26469706673582212209c1247f6df051d26fae36309c55aa5f6c73b8822e272a770301d9ca39580072164736f6c634300081a0033","linkReferences":{}},"methodIdentifiers":{"EVM_EXTRA_ARGS_V1_TAG()":"3ab8c0d0","EVM_EXTRA_ARGS_V2_TAG()":"8113c578"},"id":1}