{"abi":[{"type":"constructor","inputs":[{"name":"name","type":"string","internalType":"string"},{"name":"symbol","type":"string","internalType":"string"}],"stateMutability":"nonpayable"},{"type":"function","name":"acceptOwnership","inputs":[],"outputs":[],"stateMutability":"nonpayable"},{"type":"function","name":"allowance","inputs":[{"name":"owner","type":"address","internalType":"address"},{"name":"spender","type":"address","internalType":"address"}],"outputs":[{"name":"","type":"uint256","internalType":"uint256"}],"stateMutability":"view"},{"type":"function","name":"approve","inputs":[{"name":"spender","type":"address","internalType":"address"},{"name":"amount","type":"uint256","internalType":"uint256"}],"outputs":[{"name":"","type":"bool","internalType":"bool"}],"stateMutability":"nonpayable"},{"type":"function","name":"balanceOf","inputs":[{"name":"account","type":"address","internalType":"address"}],"outputs":[{"name":"","type":"uint256","internalType":"uint256"}],"stateMutability":"view"},{"type":"function","name":"burn","inputs":[{"name":"amount","type":"uint256","internalType":"uint256"}],"outputs":[],"stateMutability":"nonpayable"},{"type":"function","name":"burn","inputs":[{"name":"account","type":"address","internalType":"address"},{"name":"amount","type":"uint256","internalType":"uint256"}],"outputs":[],"stateMutability":"nonpayable"},{"type":"function","name":"burnFrom","inputs":[{"name":"account","type":"address","internalType":"address"},{"name":"amount","type":"uint256","internalType":"uint256"}],"outputs":[],"stateMutability":"nonpayable"},{"type":"function","name":"decimals","inputs":[],"outputs":[{"name":"","type":"uint8","internalType":"uint8"}],"stateMutability":"view"},{"type":"function","name":"decreaseAllowance","inputs":[{"name":"spender","type":"address","internalType":"address"},{"name":"subtractedValue","type":"uint256","internalType":"uint256"}],"outputs":[{"name":"","type":"bool","internalType":"bool"}],"stateMutability":"nonpayable"},{"type":"function","name":"decreaseApproval","inputs":[{"name":"spender","type":"address","internalType":"address"},{"name":"subtractedValue","type":"uint256","internalType":"uint256"}],"outputs":[{"name":"success","type":"bool","internalType":"bool"}],"stateMutability":"nonpayable"},{"type":"function","name":"drip","inputs":[{"name":"to","type":"address","internalType":"address"}],"outputs":[],"stateMutability":"nonpayable"},{"type":"function","name":"getBurners","inputs":[],"outputs":[{"name":"","type":"address[]","internalType":"address[]"}],"stateMutability":"view"},{"type":"function","name":"getMinters","inputs":[],"outputs":[{"name":"","type":"address[]","internalType":"address[]"}],"stateMutability":"view"},{"type":"function","name":"grantBurnRole","inputs":[{"name":"burner","type":"address","internalType":"address"}],"outputs":[],"stateMutability":"nonpayable"},{"type":"function","name":"grantMintAndBurnRoles","inputs":[{"name":"burnAndMinter","type":"address","internalType":"address"}],"outputs":[],"stateMutability":"nonpayable"},{"type":"function","name":"grantMintRole","inputs":[{"name":"minter","type":"address","internalType":"address"}],"outputs":[],"stateMutability":"nonpayable"},{"type":"function","name":"increaseAllowance","inputs":[{"name":"spender","type":"address","internalType":"address"},{"name":"addedValue","type":"uint256","internalType":"uint256"}],"outputs":[{"name":"","type":"bool","internalType":"bool"}],"stateMutability":"nonpayable"},{"type":"function","name":"increaseApproval","inputs":[{"name":"spender","type":"address","internalType":"address"},{"name":"addedValue","type":"uint256","internalType":"uint256"}],"outputs":[],"stateMutability":"nonpayable"},{"type":"function","name":"isBurner","inputs":[{"name":"burner","type":"address","internalType":"address"}],"outputs":[{"name":"","type":"bool","internalType":"bool"}],"stateMutability":"view"},{"type":"function","name":"isMinter","inputs":[{"name":"minter","type":"address","internalType":"address"}],"outputs":[{"name":"","type":"bool","internalType":"bool"}],"stateMutability":"view"},{"type":"function","name":"maxSupply","inputs":[],"outputs":[{"name":"","type":"uint256","internalType":"uint256"}],"stateMutability":"view"},{"type":"function","name":"mint","inputs":[{"name":"account","type":"address","internalType":"address"},{"name":"amount","type":"uint256","internalType":"uint256"}],"outputs":[],"stateMutability":"nonpayable"},{"type":"function","name":"name","inputs":[],"outputs":[{"name":"","type":"string","internalType":"string"}],"stateMutability":"view"},{"type":"function","name":"owner","inputs":[],"outputs":[{"name":"","type":"address","internalType":"address"}],"stateMutability":"view"},{"type":"function","name":"revokeBurnRole","inputs":[{"name":"burner","type":"address","internalType":"address"}],"outputs":[],"stateMutability":"nonpayable"},{"type":"function","name":"revokeMintRole","inputs":[{"name":"minter","type":"address","internalType":"address"}],"outputs":[],"stateMutability":"nonpayable"},{"type":"function","name":"supportsInterface","inputs":[{"name":"interfaceId","type":"bytes4","internalType":"bytes4"}],"outputs":[{"name":"","type":"bool","internalType":"bool"}],"stateMutability":"pure"},{"type":"function","name":"symbol","inputs":[],"outputs":[{"name":"","type":"string","internalType":"string"}],"stateMutability":"view"},{"type":"function","name":"totalSupply","inputs":[],"outputs":[{"name":"","type":"uint256","internalType":"uint256"}],"stateMutability":"view"},{"type":"function","name":"transfer","inputs":[{"name":"to","type":"address","internalType":"address"},{"name":"amount","type":"uint256","internalType":"uint256"}],"outputs":[{"name":"","type":"bool","internalType":"bool"}],"stateMutability":"nonpayable"},{"type":"function","name":"transferAndCall","inputs":[{"name":"to","type":"address","internalType":"address"},{"name":"amount","type":"uint256","internalType":"uint256"},{"name":"data","type":"bytes","internalType":"bytes"}],"outputs":[{"name":"success","type":"bool","internalType":"bool"}],"stateMutability":"nonpayable"},{"type":"function","name":"transferFrom","inputs":[{"name":"from","type":"address","internalType":"address"},{"name":"to","type":"address","internalType":"address"},{"name":"amount","type":"uint256","internalType":"uint256"}],"outputs":[{"name":"","type":"bool","internalType":"bool"}],"stateMutability":"nonpayable"},{"type":"function","name":"transferOwnership","inputs":[{"name":"to","type":"address","internalType":"address"}],"outputs":[],"stateMutability":"nonpayable"},{"type":"event","name":"Approval","inputs":[{"name":"owner","type":"address","indexed":true,"internalType":"address"},{"name":"spender","type":"address","indexed":true,"internalType":"address"},{"name":"value","type":"uint256","indexed":false,"internalType":"uint256"}],"anonymous":false},{"type":"event","name":"BurnAccessGranted","inputs":[{"name":"burner","type":"address","indexed":true,"internalType":"address"}],"anonymous":false},{"type":"event","name":"BurnAccessRevoked","inputs":[{"name":"burner","type":"address","indexed":true,"internalType":"address"}],"anonymous":false},{"type":"event","name":"MintAccessGranted","inputs":[{"name":"minter","type":"address","indexed":true,"internalType":"address"}],"anonymous":false},{"type":"event","name":"MintAccessRevoked","inputs":[{"name":"minter","type":"address","indexed":true,"internalType":"address"}],"anonymous":false},{"type":"event","name":"OwnershipTransferRequested","inputs":[{"name":"from","type":"address","indexed":true,"internalType":"address"},{"name":"to","type":"address","indexed":true,"internalType":"address"}],"anonymous":false},{"type":"event","name":"OwnershipTransferred","inputs":[{"name":"from","type":"address","indexed":true,"internalType":"address"},{"name":"to","type":"address","indexed":true,"internalType":"address"}],"anonymous":false},{"type":"event","name":"Transfer","inputs":[{"name":"from","type":"address","indexed":true,"internalType":"address"},{"name":"to","type":"address","indexed":true,"internalType":"address"},{"name":"value","type":"uint256","indexed":false,"internalType":"uint256"},{"name":"data","type":"bytes","indexed":false,"internalType":"bytes"}],"anonymous":false},{"type":"event","name":"Transfer","inputs":[{"name":"from","type":"address","indexed":true,"internalType":"address"},{"name":"to","type":"address","indexed":true,"internalType":"address"},{"name":"value","type":"uint256","indexed":false,"internalType":"uint256"}],"anonymous":false},{"type":"error","name":"MaxSupplyExceeded","inputs":[{"name":"supplyAfterMint","type":"uint256","internalType":"uint256"}]},{"type":"error","name":"SenderNotBurner","inputs":[{"name":"sender","type":"address","internalType":"address"}]},{"type":"error","name":"SenderNotMinter","inputs":[{"name":"sender","type":"address","internalType":"address"}]}],"bytecode":{"object":"0x60c0604052346200039957620020df803803806200001d816200039e565b928339810190604081830312620003995780516001600160401b03919082811162000399578362000050918301620003c4565b906020938482015184811162000399576200006c9201620003c4565b91815181811162000299576003908154906001948583811c931680156200038e575b8884101462000378578190601f9384811162000322575b508890848311600114620002bb57600092620002af575b505060001982851b1c191690851b1782555b8451928311620002995760049485548581811c911680156200028e575b8882101462000279578281116200022e575b5086918411600114620001c357938394918492600095620001b7575b50501b92600019911b1c19161781555b33156200017557600580546001600160a01b031916331790556012608052600060a052604051611ca8908162000437823960805181610d79015260a0518181816103430152610ab30152f35b6064916040519162461bcd60e51b8352820152601860248201527f43616e6e6f7420736574206f776e657220746f207a65726f00000000000000006044820152fd5b01519350388062000119565b9190601f198416928660005284886000209460005b8a89838310620002165750505010620001fb575b50505050811b01815562000129565b01519060f884600019921b161c1916905538808080620001ec565b868601518955909701969485019488935001620001d8565b86600052876000208380870160051c8201928a88106200026f575b0160051c019086905b82811062000262575050620000fd565b6000815501869062000252565b9250819262000249565b602287634e487b7160e01b6000525260246000fd5b90607f1690620000eb565b634e487b7160e01b600052604160045260246000fd5b015190503880620000bc565b90879350601f19831691866000528a6000209260005b8c8282106200030b5750508411620002f2575b505050811b018255620000ce565b015160001983871b60f8161c19169055388080620002e4565b8385015186558b97909501949384019301620002d1565b90915084600052886000208480850160051c8201928b86106200036e575b918991869594930160051c01915b8281106200035e575050620000a5565b600081558594508991016200034e565b9250819262000340565b634e487b7160e01b600052602260045260246000fd5b92607f16926200008e565b600080fd5b6040519190601f01601f191682016001600160401b038111838210176200029957604052565b919080601f84011215620003995782516001600160401b0381116200029957602090620003fa601f8201601f191683016200039e565b92818452828287010111620003995760005b8181106200042257508260009394955001015290565b85810183015184820184015282016200040c56fe60806040908082526004918236101561001757600080fd5b600092833560e01c92836301ffc9a7146111355750826306fdde031461103e578263095ea7b314610f5357826318160ddd14610f3457826323b872dd14610d9d578263313ce56714610d5f5782633950935114610d3f5782634000aea014610bb457826340c10f1914610a6557826342966c6814610a135782634334614a146109d65782634f5632f814610973578263661884631461050f57826367a5cd06146108aa5782636b32810b1461083057826370a08231146107f957826379ba50971461074857826379cc67901461051457826386fe8b43146106c45782638da5cb5b1461069b57826395d89b411461057e5782639dc29fac14610514578263a457c2d71461050f578263a9059cbb146104e6578263aa271e1a146104a0578263c2e3273d1461043d578263c630948d146103c9578263c64d0ebc14610366578263d5abeb011461032b578263d73dd62314610302578263dd62ed3e146102b5578263f2fde38b146101f757505063f81094f31461019257600080fd5b346101f45760203660031901126101f4576101ab6111f8565b6101b36117ca565b6001600160a01b03166101c581611a96565b6101cd575080f35b7fed998b960f6340d045f620c119730f7aa7995e7425c2401d3a5b64ff998a59e98280a280f35b80fd5b909150346102b15760203660031901126102b1576102136111f8565b9061021c6117ca565b6001600160a01b039182169233841461026e575050600680546001600160a01b03191683179055600554167fed8889f560326eb138920d842192f0eb3dd22b4f139c87a2c57538e05bae12788380a380f35b906020606492519162461bcd60e51b8352820152601760248201527f43616e6e6f74207472616e7366657220746f2073656c660000000000000000006044820152fd5b8280fd5b8382346102fe57806003193601126102fe57806020926102d36111f8565b6102db611213565b6001600160a01b0391821683526001865283832091168252845220549051908152f35b5080fd5b8382346102fe573660031901126101f45761032761031e6111f8565b60243590611426565b5080f35b8382346102fe57816003193601126102fe57602090517f00000000000000000000000000000000000000000000000000000000000000008152f35b83346101f45760203660031901126101f4576103806111f8565b6103886117ca565b6001600160a01b031661039a81611ba5565b6103a2575080f35b7f92308bb7573b2a3d17ddb868b39d8ebec433f3194421abc22d084f89658c9bad8280a280f35b83346101f45760203660031901126101f4576103e36111f8565b6103eb6117ca565b6001600160a01b03166103fd81611b3f565b610413575b61040a6117ca565b61039a81611ba5565b807fe46fef8bbff1389d9010703cf8ebb363fb3daf5bf56edc27080b67bc8d9251ea8380a2610402565b83346101f45760203660031901126101f4576104576111f8565b61045f6117ca565b6001600160a01b031661047181611b3f565b610479575080f35b7fe46fef8bbff1389d9010703cf8ebb363fb3daf5bf56edc27080b67bc8d9251ea8280a280f35b8382346102fe5760203660031901126102fe576020906104dd6001600160a01b036104c96111f8565b166000526008602052604060002054151590565b90519015158152f35b8382346102fe57806003193601126102fe576020906104dd6105066111f8565b60243590611515565b611261565b8390346102fe57826003193601126102fe5761052e6111f8565b6024359161054933600052600a602052604060002054151590565b156105675750906105649161055f823383611679565b61181c565b80f35b60249085519063c820b10b60e01b82523390820152fd5b9083346101f457806003193601126101f4578151918184549260018460011c9160018616958615610691575b602096878510811461067e579087899a92868b999a9b5291826000146106545750506001146105f9575b85886105f5896105e6848a0385611229565b519282849384528301906111b8565b0390f35b815286935091907f8a35acfbc15ff81a39ae7d344fd709f28e8600b4aa8c65c6b64bfe7fe36bd19b5b82841061063c57505050820101816105e66105f5886105d4565b8054848a018601528895508794909301928101610622565b60ff19168882015294151560051b870190940194508593506105e692506105f591508990506105d4565b634e487b7160e01b835260228a52602483fd5b92607f16926105aa565b8382346102fe57816003193601126102fe5760055490516001600160a01b039091168152602090f35b5082346101f457806003193601126101f4578151918291600954808552602080950194600983527f6e1540171b6c0c960b71a7020d9f60077f6af931a8bbf590da0223dacf75c7af92905b828210610731576105f58686610727828b0383611229565b51918291826113be565b83548752958601956001938401939091019061070f565b9150346102b157826003193601126102b157600654916001600160a01b039182841633036107bd575050600554916bffffffffffffffffffffffff60a01b903382851617600555166006553391167f8be0079c531659141344cd1fd0a4f28419497f9722a3daafe3b4186f6b6457e08380a380f35b906020606492519162461bcd60e51b8352820152601660248201527526bab9ba10313290383937b837b9b2b21037bbb732b960511b6044820152fd5b8382346102fe5760203660031901126102fe5760209181906001600160a01b036108216111f8565b16815280845220549051908152f35b5082346101f457806003193601126101f4578151918291600754808552602080950194600783527fa66cc928b5edb82af9bd49922954155ab7b0942694bea4ce44661d9a8736c68892905b828210610893576105f58686610727828b0383611229565b83548752958601956001938401939091019061087b565b909150346102b15760203660031901126102b1576001600160a01b036108ce6111f8565b1691821561093057600254670de0b6b3a76400009283820180921161091d57508492600080516020611c338339815191529260209260025585855284835280852082815401905551908152a380f35b634e487b7160e01b865260119052602485fd5b906020606492519162461bcd60e51b8352820152601f60248201527f45524332303a206d696e7420746f20746865207a65726f2061646472657373006044820152fd5b83346101f45760203660031901126101f45761098d6111f8565b6109956117ca565b6001600160a01b03166109a781611995565b6109af575080f35b7f0a675452746933cefe3d74182e78db7afe57ba60eaa4234b5d85e9aa41b0610c8280a280f35b8382346102fe5760203660031901126102fe576020906104dd6001600160a01b036109ff6111f8565b16600052600a602052604060002054151590565b9150346102b15760203660031901126102b157610a3d33600052600a602052604060002054151590565b15610a4e575061056490353361181c565b60249250519063c820b10b60e01b82523390820152fd5b9150346102b157806003193601126102b157610a7f6111f8565b9060243591610a9b336000526008602052604060002054151590565b15610b9e576001600160a01b031692308414610b9a577f00000000000000000000000000000000000000000000000000000000000000008015159081610b85575b50610b64578315610b225750602082600080516020611c3383398151915292610b088795600254611403565b60025585855284835280852082815401905551908152a380f35b6020606492519162461bcd60e51b8352820152601f60248201527f45524332303a206d696e7420746f20746865207a65726f2061646472657373006044820152fd5b90610b73602493600254611403565b905163cbbf111360e01b815291820152fd5b9050610b9384600254611403565b1138610adc565b8480fd5b815163e2c8c9d560e01b81523381860152602490fd5b909150346102b15760603660031901126102b157610bd06111f8565b9260249182356044359567ffffffffffffffff91828811610b9a5736602389011215610b9a5787840135838111610d2d57875198610c18601f8301601f19166020018b611229565b818a5236888383010111610d29578187928960209301838d01378a010152610c408183611515565b508651818152602081018890526001600160a01b0383169290839033907fe19260aff97b920c7df27010903aeb9c8d2be5d310a2c67824cf3f15396e4c169080610c8c818e018f6111b8565b0390a33b610c9f575b6020875160018152f35b819695963b15610b9a579684918798838899610ce09951998a9586948593635260769b60e11b8552338c8601528401526060604484015260648301906111b8565b03925af18015610d1f57610cf6575b8080610c95565b8311610d0d57505060209250815238808080610cef565b634e487b7160e01b8252604190528390fd5b85513d85823e3d90fd5b8680fd5b634e487b7160e01b8652604185528686fd5b8382346102fe57806003193601126102fe576020906104dd61031e6111f8565b8382346102fe57816003193601126102fe576020905160ff7f0000000000000000000000000000000000000000000000000000000000000000168152f35b9083346101f45760603660031901126101f457610db86111f8565b90610dc1611213565b60443590610dd0823386611679565b6001600160a01b0390811693308514610f305716918215610edf578315610e90578281528060205284812054828110610e3e576020965091858282600080516020611c3383398151915295878b96528286520382822055868152208181540190558551908152a35160018152f35b855162461bcd60e51b8152602081890152602660248201527f45524332303a207472616e7366657220616d6f756e7420657863656564732062604482015265616c616e636560d01b6064820152608490fd5b845162461bcd60e51b8152602081880152602360248201527f45524332303a207472616e7366657220746f20746865207a65726f206164647260448201526265737360e81b6064820152608490fd5b845162461bcd60e51b8152602081880152602560248201527f45524332303a207472616e736665722066726f6d20746865207a65726f206164604482015264647265737360d81b6064820152608490fd5b8380fd5b8382346102fe57816003193601126102fe576020906002549051908152f35b9083346101f457816003193601126101f457610f6d6111f8565b6001600160a01b031690602435903083146101f4573315611001578215610fc5576020945083829133815260018752818120858252875220558251908152600080516020611c53833981519152843392a35160018152f35b835162461bcd60e51b815260208187015260226024820152600080516020611c13833981519152604482015261737360f01b6064820152608490fd5b835162461bcd60e51b8152602081870152602480820152600080516020611bf38339815191526044820152637265737360e01b6064820152608490fd5b9083346101f457806003193601126101f457815191816003549260018460011c916001861695861561112b575b602096878510811461067e578899509688969785829a5291826000146111045750506001146110a8575b5050506105f592916105e6910385611229565b9190869350600383527fc2575a0e9e593c00f959f8c92f12db2869c3395a3b0502d05e2516446f71f85b5b8284106110ec57505050820101816105e66105f5611095565b8054848a0186015288955087949093019281016110d3565b60ff19168782015293151560051b860190930193508492506105e691506105f59050611095565b92607f169261106b565b8491346102b15760203660031901126102b1573563ffffffff60e01b81168091036102b157602092506336372b0760e01b81149081156111a7575b8115611196575b8115611185575b5015158152f35b6301ffc9a760e01b1490508361117e565b63e6599b4d60e01b81149150611177565b630200057560e51b81149150611170565b919082519283825260005b8481106111e4575050826000602080949584010152601f8019910116010190565b6020818301810151848301820152016111c3565b600435906001600160a01b038216820361120e57565b600080fd5b602435906001600160a01b038216820361120e57565b90601f8019910116810190811067ffffffffffffffff82111761124b57604052565b634e487b7160e01b600052604160045260246000fd5b3461120e5760408060031936011261120e5761127b6111f8565b90602435916000338152602093600185528382209260018060a01b03169283835285528382205481811061136c5703903083146101f457331561132e5782156112f15783829133815260018752818120858252875220558251908152600080516020611c53833981519152843392a35160018152f35b835162461bcd60e51b81526004810186905260226024820152600080516020611c13833981519152604482015261737360f01b6064820152608490fd5b835162461bcd60e51b815260048101869052602480820152600080516020611bf38339815191526044820152637265737360e01b6064820152608490fd5b845162461bcd60e51b815260048101879052602560248201527f45524332303a2064656372656173656420616c6c6f77616e63652062656c6f77604482015264207a65726f60d81b6064820152608490fd5b602090602060408183019282815285518094520193019160005b8281106113e6575050505090565b83516001600160a01b0316855293810193928101926001016113d8565b9190820180921161141057565b634e487b7160e01b600052601160045260246000fd5b90600090338252602090600182526114556040918285209560018060a01b031695868652845282852054611403565b923085146101f45733156114d757841561149a57908381600080516020611c5383398151915294933381526001855281812088825285522055519283523392a3600190565b815162461bcd60e51b81526004810184905260226024820152600080516020611c13833981519152604482015261737360f01b6064820152608490fd5b815162461bcd60e51b815260048101849052602480820152600080516020611bf38339815191526044820152637265737360e01b6064820152608490fd5b6001600160a01b03169030821461120e5733156116265781156115d557600033815280602052604081205490828210611581578260409233835282602052038282205583815220818154019055604051908152600080516020611c3383398151915260203392a3600190565b60405162461bcd60e51b815260206004820152602660248201527f45524332303a207472616e7366657220616d6f756e7420657863656564732062604482015265616c616e636560d01b6064820152608490fd5b60405162461bcd60e51b815260206004820152602360248201527f45524332303a207472616e7366657220746f20746865207a65726f206164647260448201526265737360e81b6064820152608490fd5b60405162461bcd60e51b815260206004820152602560248201527f45524332303a207472616e736665722066726f6d20746865207a65726f206164604482015264647265737360d81b6064820152608490fd5b909160018060a01b03809216916000908382526020926001845260409182842096169586845284528183205460001981036116b8575b50505050505050565b8181106117865703913086146101f457841561174857851561170b579082818387600080516020611c5383398151915297969552600186528181208982528652205551908152a3388080808080806116af565b815162461bcd60e51b81526004810185905260226024820152600080516020611c13833981519152604482015261737360f01b6064820152608490fd5b815162461bcd60e51b815260048101859052602480820152600080516020611bf38339815191526044820152637265737360e01b6064820152608490fd5b825162461bcd60e51b815260048101869052601d60248201527f45524332303a20696e73756666696369656e7420616c6c6f77616e63650000006044820152606490fd5b6005546001600160a01b031633036117de57565b60405162461bcd60e51b815260206004820152601660248201527527b7363c9031b0b63630b1363290313c9037bbb732b960511b6044820152606490fd5b6001600160a01b031680156118c2576000918183528260205260408320548181106118725781600080516020611c33833981519152926020928587528684520360408620558060025403600255604051908152a3565b60405162461bcd60e51b815260206004820152602260248201527f45524332303a206275726e20616d6f756e7420657863656564732062616c616e604482015261636560f01b6064820152608490fd5b60405162461bcd60e51b815260206004820152602160248201527f45524332303a206275726e2066726f6d20746865207a65726f206164647265736044820152607360f81b6064820152608490fd5b6009548110156119485760096000527f6e1540171b6c0c960b71a7020d9f60077f6af931a8bbf590da0223dacf75c7af0190600090565b634e487b7160e01b600052603260045260246000fd5b6007548110156119485760076000527fa66cc928b5edb82af9bd49922954155ab7b0942694bea4ce44661d9a8736c6880190600090565b6000818152600a60205260408120549091908015611a915760001990808201818111611a7d5760095490838201918211611a6957808203611a1e575b5050506009548015611a0a578101906119e982611911565b909182549160031b1b191690556009558152600a6020526040812055600190565b634e487b7160e01b84526031600452602484fd5b611a53611a2d611a3c93611911565b90549060031b1c928392611911565b819391549060031b91821b91600019901b19161790565b90558452600a60205260408420553880806119d1565b634e487b7160e01b86526011600452602486fd5b634e487b7160e01b85526011600452602485fd5b505090565b6000818152600860205260408120549091908015611a915760001990808201818111611a7d5760075490838201918211611a6957808203611b0b575b5050506007548015611a0a57810190611aea8261195e565b909182549160031b1b19169055600755815260086020526040812055600190565b611b29611b1a611a3c9361195e565b90549060031b1c92839261195e565b9055845260086020526040842055388080611ad2565b600081815260086020526040812054611ba057600754600160401b811015611b8c579082611b78611a3c8460016040960160075561195e565b905560075492815260086020522055600190565b634e487b7160e01b82526041600452602482fd5b905090565b6000818152600a6020526040812054611ba057600954600160401b811015611b8c579082611bde611a3c84600160409601600955611911565b9055600954928152600a602052205560019056fe45524332303a20617070726f76652066726f6d20746865207a65726f2061646445524332303a20617070726f766520746f20746865207a65726f206164647265ddf252ad1be2c89b69c2b068fc378daa952ba7f163c4a11628f55a4df523b3ef8c5be1e5ebec7d5bd14f71427d1e84f3dd0314c0f7b2291e5b200ac8c7c3b925a26469706673582212205d9d9b39a7cd854a5739ff388196b82003ede920b9c4d0eb47778b7792e2759f64736f6c63430008180033","linkReferences":{}},"methodIdentifiers":{"acceptOwnership()":"79ba5097","allowance(address,address)":"dd62ed3e","approve(address,uint256)":"095ea7b3","balanceOf(address)":"70a08231","burn(address,uint256)":"9dc29fac","burn(uint256)":"42966c68","burnFrom(address,uint256)":"79cc6790","decimals()":"313ce567","decreaseAllowance(address,uint256)":"a457c2d7","decreaseApproval(address,uint256)":"66188463","drip(address)":"67a5cd06","getBurners()":"86fe8b43","getMinters()":"6b32810b","grantBurnRole(address)":"c64d0ebc","grantMintAndBurnRoles(address)":"c630948d","grantMintRole(address)":"c2e3273d","increaseAllowance(address,uint256)":"39509351","increaseApproval(address,uint256)":"d73dd623","isBurner(address)":"4334614a","isMinter(address)":"aa271e1a","maxSupply()":"d5abeb01","mint(address,uint256)":"40c10f19","name()":"06fdde03","owner()":"8da5cb5b","revokeBurnRole(address)":"4f5632f8","revokeMintRole(address)":"f81094f3","supportsInterface(bytes4)":"01ffc9a7","symbol()":"95d89b41","totalSupply()":"18160ddd","transfer(address,uint256)":"a9059cbb","transferAndCall(address,uint256,bytes)":"4000aea0","transferFrom(address,address,uint256)":"23b872dd","transferOwnership(address)":"f2fde38b"},"id":29}