{"abi":[{"type":"constructor","inputs":[{"name":"_router","type":"address","internalType":"address"},{"name":"_link","type":"address","internalType":"address"}],"stateMutability":"nonpayable"},{"type":"function","name":"acceptOwnership","inputs":[],"outputs":[],"stateMutability":"nonpayable"},{"type":"function","name":"denylistChain","inputs":[{"name":"_destinationChainSelector","type":"uint64","internalType":"uint64"}],"outputs":[],"stateMutability":"nonpayable"},{"type":"function","name":"owner","inputs":[],"outputs":[{"name":"","type":"address","internalType":"address"}],"stateMutability":"view"},{"type":"function","name":"transferOwnership","inputs":[{"name":"to","type":"address","internalType":"address"}],"outputs":[],"stateMutability":"nonpayable"},{"type":"function","name":"transferTokens","inputs":[{"name":"_destinationChainSelector","type":"uint64","internalType":"uint64"},{"name":"_receiver","type":"address","internalType":"address"},{"name":"_token","type":"address","internalType":"address"},{"name":"_amount","type":"uint256","internalType":"uint256"}],"outputs":[{"name":"messageId","type":"bytes32","internalType":"bytes32"}],"stateMutability":"nonpayable"},{"type":"function","name":"whitelistChain","inputs":[{"name":"_destinationChainSelector","type":"uint64","internalType":"uint64"}],"outputs":[],"stateMutability":"nonpayable"},{"type":"function","name":"whitelistedChains","inputs":[{"name":"","type":"uint64","internalType":"uint64"}],"outputs":[{"name":"","type":"bool","internalType":"bool"}],"stateMutability":"view"},{"type":"function","name":"withdrawToken","inputs":[{"name":"_beneficiary","type":"address","internalType":"address"},{"name":"_token","type":"address","internalType":"address"}],"outputs":[],"stateMutability":"nonpayable"},{"type":"event","name":"OwnershipTransferRequested","inputs":[{"name":"from","type":"address","indexed":true,"internalType":"address"},{"name":"to","type":"address","indexed":true,"internalType":"address"}],"anonymous":false},{"type":"event","name":"OwnershipTransferred","inputs":[{"name":"from","type":"address","indexed":true,"internalType":"address"},{"name":"to","type":"address","indexed":true,"internalType":"address"}],"anonymous":false},{"type":"event","name":"TokensTransferred","inputs":[{"name":"messageId","type":"bytes32","indexed":true,"internalType":"bytes32"},{"name":"destinationChainSelector","type":"uint64","indexed":true,"internalType":"uint64"},{"name":"receiver","type":"address","indexed":false,"internalType":"address"},{"name":"token","type":"address","indexed":false,"internalType":"address"},{"name":"tokenAmount","type":"uint256","indexed":false,"internalType":"uint256"},{"name":"feeToken","type":"address","indexed":false,"internalType":"address"},{"name":"fees","type":"uint256","indexed":false,"internalType":"uint256"}],"anonymous":false},{"type":"error","name":"DestinationChainNotWhitelisted","inputs":[{"name":"destinationChainSelector","type":"uint64","internalType":"uint64"}]},{"type":"error","name":"NotEnoughBalance","inputs":[{"name":"currentBalance","type":"uint256","internalType":"uint256"},{"name":"calculatedFees","type":"uint256","internalType":"uint256"}]},{"type":"error","name":"NothingToWithdraw","inputs":[]}],"bytecode":{"object":"0x6080346100dd57601f610c3b38819003918201601f19168301916001600160401b038311848410176100e25780849260409485528339810103126100dd57610052602061004b836100f8565b92016100f8565b9033156100985760018060a01b0319913383600054161760005560018060a01b0380921683600254161760025516906003541617600355604051610b2e908161010d8239f35b60405162461bcd60e51b815260206004820152601860248201527f43616e6e6f7420736574206f776e657220746f207a65726f00000000000000006044820152606490fd5b600080fd5b634e487b7160e01b600052604160045260246000fd5b51906001600160a01b03821682036100dd5756fe6080604052600436101561001257600080fd5b60003560e01c806334625dcc1461087e5780633aeac4e11461077e578063763574f61461073e57806379ba5097146106905780638da5cb5b14610667578063d345ac7d14610621578063f2fde38b146105645763fd0384b21461007457600080fd5b346103c75760803660031901126103c75761008d6108c1565b6100956108ee565b604435906001600160a01b03821682036103c7576100b1610904565b67ffffffffffffffff92838116600052600460205260ff604060002054161561054a57604051926100e184610956565b6001845260005b6020811061052557506040516100fd81610956565b6001600160a01b0382168152606435602082015261011a856109b0565b52610124846109b0565b506040516001600160a01b03841660208083019190915281529061014782610956565b6040519461015486610972565b60008652604051956397a657c960e01b6020880152516024870152602486528560608101108760608801111761050f576003546001600160a01b0316926101008701888111606089019091101761050f57610100870160405260608701526040516101be81610972565b60008152608087015260a086015260c0850182905260e085018590526002546040516320487ded60e01b815292906001600160a01b03166020848061020a60608b018960048401610a13565b0381845afa9384156103d4576000946104db575b506040516370a0823160e01b8152306004820152602081602481865afa9081156103d4576000916104a9575b50841161042a5760405163095ea7b360e01b8082526001600160a01b039290921660048201526024810185905291602090839060449082906000905af19081156103d4576102c69260209261040d575b506002546040519182526001600160a01b03166004820152606435602482015291829081906044820190565b038160006001600160a01b0387165af180156103d457610318966020926060926103e0575b5060018060a01b0360025416906000604051809a819582946396f4e9f960e01b8452018a60048401610a13565b03925af19485156103d457600095610396575b5060209585937fc15fb748c32ba4eb29c1c311e78533f93b4425eab49ea87c6fe4279ecadca0439360a093600180861b03600354169060405198600180881b03168952600180871b03168a8901526064356040890152606088015260808701521693a3604051908152f35b90929194506020813d6020116103cc575b816103b46020938361098e565b810103126103c75751939091602061032b565b600080fd5b3d91506103a7565b6040513d6000823e3d90fd5b6103ff90843d8611610406575b6103f7818361098e565b810190610ae0565b50386102eb565b503d6103ed565b61042390833d8511610406576103f7818361098e565b503861029a565b6040516370a0823160e01b815230600482015284602082602481875afa9081156103d457600091610474575b6044925060405191634787a10360e11b835260048301526024820152fd5b90506020823d6020116104a1575b8161048f6020938361098e565b810103126103c7576044915190610456565b3d9150610482565b90506020813d6020116104d3575b816104c46020938361098e565b810103126103c757513861024a565b3d91506104b7565b9093506020813d602011610507575b816104f76020938361098e565b810103126103c75751923861021e565b3d91506104ea565b634e487b7160e01b600052604160045260246000fd5b60209060405161053481610956565b60008152600083820152828288010152016100e8565b604051632328ea8d60e11b81529084166004820152602490fd5b346103c75760203660031901126103c75761057d6108d8565b610585610904565b6001600160a01b03908116903382146105dc57816bffffffffffffffffffffffff60a01b6001541617600155600054167fed8889f560326eb138920d842192f0eb3dd22b4f139c87a2c57538e05bae1278600080a3005b60405162461bcd60e51b815260206004820152601760248201527f43616e6e6f74207472616e7366657220746f2073656c660000000000000000006044820152606490fd5b346103c75760203660031901126103c75767ffffffffffffffff6106436108c1565b61064b610904565b166000908152600460205260409020805460ff19166001179055005b346103c75760003660031901126103c7576000546040516001600160a01b039091168152602090f35b346103c75760003660031901126103c7576001546001600160a01b03808216330361070057600054916bffffffffffffffffffffffff60a01b903382851617600055166001553391167f8be0079c531659141344cd1fd0a4f28419497f9722a3daafe3b4186f6b6457e0600080a3005b60405162461bcd60e51b815260206004820152601660248201527526bab9ba10313290383937b837b9b2b21037bbb732b960511b6044820152606490fd5b346103c75760203660031901126103c75767ffffffffffffffff6107606108c1565b166000526004602052602060ff604060002054166040519015158152f35b346103c75760403660031901126103c7576107976108d8565b61079f6108ee565b6107a7610904565b6040516370a0823160e01b81523060048201526020926001600160a01b039290921691908381602481865afa9081156103d457600091610851575b50801561083f5760405163a9059cbb60e01b81526001600160a01b039290921660048301526024820152908290829060449082906000905af180156103d45761082757005b8161083d92903d10610406576103f7818361098e565b005b604051630686827b60e51b8152600490fd5b90508381813d8311610877575b610868818361098e565b810103126103c75751846107e2565b503d61085e565b346103c75760203660031901126103c75767ffffffffffffffff6108a06108c1565b6108a8610904565b166000908152600460205260409020805460ff19169055005b6004359067ffffffffffffffff821682036103c757565b600435906001600160a01b03821682036103c757565b602435906001600160a01b03821682036103c757565b6000546001600160a01b0316330361091857565b60405162461bcd60e51b815260206004820152601660248201527527b7363c9031b0b63630b1363290313c9037bbb732b960511b6044820152606490fd5b6040810190811067ffffffffffffffff82111761050f57604052565b6020810190811067ffffffffffffffff82111761050f57604052565b90601f8019910116810190811067ffffffffffffffff82111761050f57604052565b8051156109bd5760200190565b634e487b7160e01b600052603260045260246000fd5b919082519283825260005b8481106109ff575050826000602080949584010152601f8019910116010190565b6020818301810151848301820152016109de565b9067ffffffffffffffff9093929316815260406020918183820152610a43855160a08484015260e08301906109d3565b91610a5f8487015193603f1994858583030160608601526109d3565b8187015194848483030160808501528080875193848152019601926000905b838210610ab757505050505060c06080610ab4959660018060a01b0360608201511660a0850152015192828503019101526109d3565b90565b845180516001600160a01b03168952830151888401529687019693820193600190910190610a7e565b908160209103126103c7575180151581036103c7579056fea26469706673582212207f7c2733d521283dd2f5512fe3272f81f32685166d1376f32f0766d2bd159f9c64736f6c63430008130033","linkReferences":{}},"methodIdentifiers":{"acceptOwnership()":"79ba5097","denylistChain(uint64)":"34625dcc","owner()":"8da5cb5b","transferOwnership(address)":"f2fde38b","transferTokens(uint64,address,address,uint256)":"fd0384b2","whitelistChain(uint64)":"d345ac7d","whitelistedChains(uint64)":"763574f6","withdrawToken(address,address)":"3aeac4e1"},"id":14}