{"abi":[{"type":"function","name":"DEFAULT_GAS_LIMIT","inputs":[],"outputs":[{"name":"","type":"uint64","internalType":"uint64"}],"stateMutability":"view"},{"type":"function","name":"GAS_FOR_CALL_EXACT_CHECK","inputs":[],"outputs":[{"name":"","type":"uint16","internalType":"uint16"}],"stateMutability":"view"},{"type":"function","name":"ccipSend","inputs":[{"name":"destinationChainSelector","type":"uint64","internalType":"uint64"},{"name":"message","type":"tuple","internalType":"struct Client.EVM2AnyMessage","components":[{"name":"receiver","type":"bytes","internalType":"bytes"},{"name":"data","type":"bytes","internalType":"bytes"},{"name":"tokenAmounts","type":"tuple[]","internalType":"struct Client.EVMTokenAmount[]","components":[{"name":"token","type":"address","internalType":"address"},{"name":"amount","type":"uint256","internalType":"uint256"}]},{"name":"feeToken","type":"address","internalType":"address"},{"name":"extraArgs","type":"bytes","internalType":"bytes"}]}],"outputs":[{"name":"","type":"bytes32","internalType":"bytes32"}],"stateMutability":"payable"},{"type":"function","name":"getFee","inputs":[{"name":"","type":"uint64","internalType":"uint64"},{"name":"","type":"tuple","internalType":"struct Client.EVM2AnyMessage","components":[{"name":"receiver","type":"bytes","internalType":"bytes"},{"name":"data","type":"bytes","internalType":"bytes"},{"name":"tokenAmounts","type":"tuple[]","internalType":"struct Client.EVMTokenAmount[]","components":[{"name":"token","type":"address","internalType":"address"},{"name":"amount","type":"uint256","internalType":"uint256"}]},{"name":"feeToken","type":"address","internalType":"address"},{"name":"extraArgs","type":"bytes","internalType":"bytes"}]}],"outputs":[{"name":"","type":"uint256","internalType":"uint256"}],"stateMutability":"view"},{"type":"function","name":"getOnRamp","inputs":[{"name":"","type":"uint64","internalType":"uint64"}],"outputs":[{"name":"onRampAddress","type":"address","internalType":"address"}],"stateMutability":"pure"},{"type":"function","name":"getSupportedTokens","inputs":[{"name":"","type":"uint64","internalType":"uint64"}],"outputs":[{"name":"tokens","type":"address[]","internalType":"address[]"}],"stateMutability":"pure"},{"type":"function","name":"isChainSupported","inputs":[{"name":"","type":"uint64","internalType":"uint64"}],"outputs":[{"name":"supported","type":"bool","internalType":"bool"}],"stateMutability":"pure"},{"type":"function","name":"isOffRamp","inputs":[{"name":"","type":"uint64","internalType":"uint64"},{"name":"","type":"address","internalType":"address"}],"outputs":[{"name":"","type":"bool","internalType":"bool"}],"stateMutability":"pure"},{"type":"function","name":"routeMessage","inputs":[{"name":"message","type":"tuple","internalType":"struct Client.Any2EVMMessage","components":[{"name":"messageId","type":"bytes32","internalType":"bytes32"},{"name":"sourceChainSelector","type":"uint64","internalType":"uint64"},{"name":"sender","type":"bytes","internalType":"bytes"},{"name":"data","type":"bytes","internalType":"bytes"},{"name":"destTokenAmounts","type":"tuple[]","internalType":"struct Client.EVMTokenAmount[]","components":[{"name":"token","type":"address","internalType":"address"},{"name":"amount","type":"uint256","internalType":"uint256"}]}]},{"name":"gasForCallExactCheck","type":"uint16","internalType":"uint16"},{"name":"gasLimit","type":"uint256","internalType":"uint256"},{"name":"receiver","type":"address","internalType":"address"}],"outputs":[{"name":"success","type":"bool","internalType":"bool"},{"name":"retData","type":"bytes","internalType":"bytes"},{"name":"gasUsed","type":"uint256","internalType":"uint256"}],"stateMutability":"nonpayable"},{"type":"function","name":"setFee","inputs":[{"name":"feeAmount","type":"uint256","internalType":"uint256"}],"outputs":[],"stateMutability":"nonpayable"},{"type":"event","name":"MessageExecuted","inputs":[{"name":"messageId","type":"bytes32","indexed":false,"internalType":"bytes32"},{"name":"sourceChainSelector","type":"uint64","indexed":false,"internalType":"uint64"},{"name":"offRamp","type":"address","indexed":false,"internalType":"address"},{"name":"calldataHash","type":"bytes32","indexed":false,"internalType":"bytes32"}],"anonymous":false},{"type":"event","name":"MsgExecuted","inputs":[{"name":"success","type":"bool","indexed":false,"internalType":"bool"},{"name":"retData","type":"bytes","indexed":false,"internalType":"bytes"},{"name":"gasUsed","type":"uint256","indexed":false,"internalType":"uint256"}],"anonymous":false},{"type":"error","name":"InsufficientFeeTokenAmount","inputs":[]},{"type":"error","name":"InvalidAddress","inputs":[{"name":"encodedAddress","type":"bytes","internalType":"bytes"}]},{"type":"error","name":"InvalidExtraArgsTag","inputs":[]},{"type":"error","name":"InvalidMsgValue","inputs":[]},{"type":"error","name":"OnlyOffRamp","inputs":[]},{"type":"error","name":"ReceiverError","inputs":[{"name":"error","type":"bytes","internalType":"bytes"}]},{"type":"error","name":"UnsupportedDestinationChain","inputs":[{"name":"destChainSelector","type":"uint64","internalType":"uint64"}]}],"bytecode":{"object":"0x60808060405234610016576112e5908161001c8239f35b600080fdfe6080604052600436101561001257600080fd5b6000803560e01c90816320487ded146100ba575080633cf97983146100b557806369fe0e2d146100b057806383826b2b146100ab57806396f4e9f9146100a6578063a48a9058146100a1578063a8d87a3b1461009c578063d6be695a14610097578063ee18e0d3146100925763fbca3b741461008d57600080fd5b6108a0565b610883565b610865565b61083d565b610818565b61058d565b61055d565b610544565b610445565b34610104576040366003190112610104576100d3610107565b506024356001600160401b03811161010057906100f66020923690600401610336565b5054604051908152f35b5080fd5b80fd5b600435906001600160401b038216820361011d57565b600080fd5b35906001600160401b038216820361011d57565b634e487b7160e01b600052604160045260246000fd5b604081019081106001600160401b0382111761016757604052565b610136565b602081019081106001600160401b0382111761016757604052565b60a081019081106001600160401b0382111761016757604052565b606081019081106001600160401b0382111761016757604052565b60c081019081106001600160401b0382111761016757604052565b90601f801991011681019081106001600160401b0382111761016757604052565b6040519061020682610187565b565b6001600160401b03811161016757601f01601f191660200190565b92919261022f82610208565b9161023d60405193846101d8565b82948184528183011161011d578281602093846000960137010152565b9080601f8301121561011d5781602061027593359101610223565b90565b6001600160a01b0381160361011d57565b359061020682610278565b9291926001600160401b038211610167576020604092604051956102be60208360051b01886101d8565b602087838152019160061b84019381851161011d57915b8483106102e457505050505050565b858383031261011d5783869182516102fb8161014c565b853561030681610278565b815282860135838201528152019201916102d5565b9080601f8301121561011d5781602061027593359101610294565b91909160a08184031261011d5761034b6101f9565b926001600160401b03823581811161011d578261036991850161025a565b8552602083013581811161011d578261038391850161025a565b6020860152604083013581811161011d57826103a091850161031b565b60408601526103b160608401610289565b6060860152608083013590811161011d576103cc920161025a565b6080830152565b908160a091031261011d5790565b919082519283825260005b84811061040d575050826000602080949584010152601f8019910116010190565b6020818301810151848301820152016103ec565b93929161044090604092151586526060602087015260608601906103e1565b930152565b3461011d57608036600319011261011d576001600160401b0360043581811161011d576104769036906004016103d3565b60243561ffff8116810361011d576064359061049182610278565b60a08336031261011d576104a36101f9565b90833582526104b460208501610122565b6020830152604084013585811161011d576104d2903690860161025a565b6040830152606084013585811161011d576104f0903690860161025a565b6060830152608084013594851161011d57610514610522946105319636910161031b565b608083015260443591610d34565b60409391935193849384610421565b0390f35b9081602091031261011d573590565b3461011d57602036600319011261011d57600435600055005b3461011d57604036600319011261011d57610576610107565b50610582602435610278565b602060405160018152f35b60408060031936011261011d576105a2610107565b50602435906001600160401b03821161011d576105c4600492369084016103d3565b916105cf8380610917565b60209150601f190161080a576105f06105e88580610917565b810190610535565b6001600160a01b03908181118015610800575b6107d9576106113687610336565b5060005460608701836106238261097b565b166107a657503410610796575b169161063f6080860186610917565b61064891610ea7565b51908451948386018661065b8983610a09565b0396601f1997888101825261067090826101d8565b519020815133868201908152909791929190889060200103908101885261069790886101d8565b6106a388860189610917565b89830195916106b2878c610ade565b9190926106bd6101f9565b87815267de41ba4fc9d91ad98b8201529b868d015236906106dd92610223565b60608b015236906106ed92610294565b608089015260005b6106ff868b610ade565b905081101561075a57806107548b8a8a61074a8561072d8d61074461073861073360019c61072d858c610ade565b90610b13565b61097b565b6001600160a01b031690565b96610ade565b0135913390610dca565b016106f5565b50866107669189610c0c565b50939015610778578151838152602090f35b6107928492519283926302a35ba360e21b84528301610b39565b0390fd5b84516303ed377360e11b81528490fd5b346107c957906107bb6107386107c49361097b565b30903390610dca565b610630565b8651631841b4e160e01b81528690fd5b5050506107926107e98480610917565b90935193849363370d875f60e01b8552840161096a565b50600a8110610603565b506107926107e98480610917565b3461011d57602036600319011261011d57610831610107565b50602060405160018152f35b3461011d57602036600319011261011d57610856610107565b50602060405163499602d28152f35b3461011d57600036600319011261011d57602060405162030d408152f35b3461011d57600036600319011261011d5760206040516113888152f35b3461011d5760208060031936011261011d576108ba610107565b50604051906108c88261016c565b600082526040519181839283018184528251809152816040850193019160005b8281106108f757505050500390f35b83516001600160a01b0316855286955093810193928101926001016108e8565b903590601e198136030182121561011d57018035906001600160401b03821161011d5760200191813603831361011d57565b908060209392818452848401376000828201840152601f01601f1916010190565b916020610275938181520191610949565b3561027581610278565b9035601e198236030181121561011d5701602081359101916001600160401b03821161011d57813603831361011d57565b9190808252602080920192916000905b8282106109d4575050505090565b9091929360019085356109e681610278565b828060a01b031681528286013583820152604080910195019201909291926109c6565b9060208252610a2c610a1b8280610985565b60a0602086015260c0850191610949565b610a50610a3c6020840184610985565b601f19868503810160408801529391610949565b906040830135601e198436030181121561011d57830193602085359501946001600160401b03811161011d578060061b3603861361011d57610aa584610acf9261027598868660a099030160608701526109b6565b94610ac5610ab560608301610289565b6001600160a01b03166080850152565b6080810190610985565b93909282860301910152610949565b903590601e198136030182121561011d57018035906001600160401b03821161011d57602001918160061b3603831361011d57565b9190811015610b235760061b0190565b634e487b7160e01b600052603260045260246000fd5b9060206102759281815201906103e1565b60405190610b578261016c565b60008252565b9060209081835280518284015281810151916001600160401b03604093166040850152610b99604083015160a0606087015260c08601906103e1565b9360a06080610bb9606086015197601f19988986830301848701526103e1565b94015195828503019101528080855193848152019401926000905b838210610be357505050505090565b845180516001600160a01b03168752830151868401529485019493820193600190910190610bd4565b92909192833b158015610d1e575b610d09577f9b877de93ea9895756e337442c657f95a34fc68e7eb988bdfa693d5be83016b6610d0191610c7e6040519560208701976385572ffb60e01b8952610c7888610c6a8660248301610b5d565b03601f1981018a52896101d8565b87611031565b96919490977fa8b0355886b5b7a28bb97e4f0a24feb172618407402721c4012d8b7c6433102f60405180610cb48b8d8b84610421565b0390a1610ccd602085519501516001600160401b031690565b92519020604080519485526001600160401b0390931660208501523392840192909252606083019190915281906080820190565b0390a1929190565b50915050600190610d18610b4a565b90600090565b50610d2f610d2b85610f56565b1590565b610c1a565b9093919293843b158015610db8575b610da857610d0191610c7e7f9b877de93ea9895756e337442c657f95a34fc68e7eb988bdfa693d5be83016b6926040519660208801986385572ffb60e01b8a52610da289610d948760248301610b5d565b03601f1981018b528a6101d8565b886110dc565b5050915050600190610d18610b4a565b50610dc5610d2b86610f56565b610d43565b90600080610e7a9460405194602097888701956323b872dd60e01b875260018060a01b03938480921660248a0152166044880152606487015260648652610e1086610187565b169260405194610e1f8661014c565b8786527f5361666545524332303a206c6f772d6c6576656c2063616c6c206661696c656488870152519082855af13d15610e9f573d91610e5e83610208565b92610e6c60405194856101d8565b83523d60008785013e611216565b80519081610e8757505050565b8261020693610e9a938301019101611142565b61115a565b606091611216565b9060405190610eb58261016c565b60008092528015610f3e5782356001600160e01b03198181169160048410610f29575b5016636859a83760e01b01610f17578060041161010057602090830183900360031901126101045750600460405191610f108361016c565b0135815290565b604051632923fee760e11b8152600490fd5b818093508460040360031b1b16169038610ed8565b505050604051610f4d8161016c565b62030d40815290565b6040519060208083018160006301ffc9a760e01b9586845286602482015260248152610f81816101a2565b51617530938685fa933d6000519086611026575b508561101c575b5084610fb9575b50505081610faf575090565b61027591506111b9565b83945090600091839460405185810192835263ffffffff60e01b602482015260248152610fe5816101a2565b5192fa60005190913d83611011575b505081611007575b501590388080610fa3565b9050151538610ffc565b101591503880610ff4565b1515945038610f9c565b841115955038610f95565b929060405193611040856101bd565b60848552602085019360a0368637823b156110cb575a61138881106110ba576113871980820160061c909103018110156110a9576000918291825a9560208451940192f1905a9003923d90608482116110a0575b6000908287523e929190565b60849150611094565b6337c3be2960e01b60005260046000fd5b632be8ca8b60e21b60005260046000fd5b63030ed58f60e21b60005260046000fd5b60405194926110ea866101bd565b60848652602086019460a0368737833b156110cb575a908082106110ba578291038060061c900311156110a9576000918291825a9560208451940192f1905a9003923d90608482116110a0576000908287523e929190565b9081602091031261011d5751801515810361011d5790565b1561116157565b60405162461bcd60e51b815260206004820152602a60248201527f5361666545524332303a204552433230206f7065726174696f6e20646964206e6044820152691bdd081cdd58d8d9595960b21b6064820152608490fd5b6000602091604051838101906301ffc9a760e01b82526385572ffb60e01b6024820152602481526111e9816101a2565b5191617530fa6000513d8261120a575b5081611203575090565b9050151590565b602011159150386111f9565b91929015611278575081511561122a575090565b3b156112335790565b60405162461bcd60e51b815260206004820152601d60248201527f416464726573733a2063616c6c20746f206e6f6e2d636f6e74726163740000006044820152606490fd5b82519091501561128b5750805190602001fd5b60405162461bcd60e51b8152602060048201529081906107929060248301906103e156fea2646970667358221220fcfeded0c5f7aeca7d331b52fc79bfdbfa76e453518d15374e48d80ee3ecd86864736f6c63430008180033","linkReferences":{}},"methodIdentifiers":{"DEFAULT_GAS_LIMIT()":"d6be695a","GAS_FOR_CALL_EXACT_CHECK()":"ee18e0d3","ccipSend(uint64,(bytes,bytes,(address,uint256)[],address,bytes))":"96f4e9f9","getFee(uint64,(bytes,bytes,(address,uint256)[],address,bytes))":"20487ded","getOnRamp(uint64)":"a8d87a3b","getSupportedTokens(uint64)":"fbca3b74","isChainSupported(uint64)":"a48a9058","isOffRamp(uint64,address)":"83826b2b","routeMessage((bytes32,uint64,bytes,bytes,(address,uint256)[]),uint16,uint256,address)":"3cf97983","setFee(uint256)":"69fe0e2d"},"id":7}