{"abi":[{"type":"constructor","inputs":[],"stateMutability":"nonpayable"},{"type":"function","name":"configuration","inputs":[],"outputs":[{"name":"chainSelector_","type":"uint64","internalType":"uint64"},{"name":"sourceRouter_","type":"address","internalType":"contract IRouterClient"},{"name":"destinationRouter_","type":"address","internalType":"contract IRouterClient"},{"name":"wrappedNative_","type":"address","internalType":"contract WETH9"},{"name":"linkToken_","type":"address","internalType":"contract LinkToken"},{"name":"ccipBnM_","type":"address","internalType":"contract BurnMintERC677Helper"},{"name":"ccipLnM_","type":"address","internalType":"contract BurnMintERC677Helper"}],"stateMutability":"view"},{"type":"function","name":"getSupportedTokens","inputs":[{"name":"chainSelector","type":"uint64","internalType":"uint64"}],"outputs":[{"name":"tokens","type":"address[]","internalType":"address[]"}],"stateMutability":"view"},{"type":"function","name":"isChainSupported","inputs":[{"name":"chainSelector","type":"uint64","internalType":"uint64"}],"outputs":[{"name":"supported","type":"bool","internalType":"bool"}],"stateMutability":"pure"},{"type":"function","name":"requestLinkFromFaucet","inputs":[{"name":"to","type":"address","internalType":"address"},{"name":"amount","type":"uint256","internalType":"uint256"}],"outputs":[{"name":"success","type":"bool","internalType":"bool"}],"stateMutability":"nonpayable"},{"type":"function","name":"supportNewToken","inputs":[{"name":"tokenAddress","type":"address","internalType":"address"}],"outputs":[],"stateMutability":"nonpayable"}],"bytecode":{"object":"0x61012060408181523461024857610894828101926001600160401b039182851182861017610232576149f1823980600094039084f080156101f4576080528151610e85808201908282108483111761021e57908291613b6c8339039084f080156101f45760a05281516120df90818101908082108483111761021e57806100cb611a8d9385858439878152600881890190815267434349502d426e4d60c01b60208201526040019060208183039101526040906008815267434349502d426e4d60c01b60208201520190565b039086f080156102145760c052835191808301918383108584111761020057916101379184938439858152600881870190815267434349502d4c6e4d60c01b60208201526040019060208183039101526040906008815267434349502d4c6e4d60c01b60208201520190565b039084f080156101f45760e052815190611301808301918211838310176101e05790829161078c8339039083f09182156101d5575061010091825260c051610196906001600160a01b039061018d90821661024d565b60e0511661024d565b516104cb91826102c1833960805182610220015260a0518281816102480152610307015260c05182610270015260e05182610297015251816101e60152f35b9051903d90823e3d90fd5b634e487b7160e01b85526041600452602485fd5b505051903d90823e3d90fd5b634e487b7160e01b87526041600452602487fd5b84513d87823e3d90fd5b634e487b7160e01b86526041600452602486fd5b634e487b7160e01b600052604160045260246000fd5b600080fd5b6000805490680100000000000000008210156102ac576001820180825582101561029857808052602090200180546001600160a01b0319166001600160a01b03909216919091179055565b634e487b7160e01b81526032600452602490fd5b634e487b7160e01b81526041600452602490fdfe608060408181526004908136101561001657600080fd5b600092833560e01c90848263657b9a4e146102be57505080636c70bee9146101c7578063a48a905814610188578063cf838140146100dd5763fbca3b741461005d57600080fd5b346100d957602091826003193601126100d5573567ffffffffffffffff811681036100d5578361008d84926103e1565b9083519383808695860192818752855180945286019401925b8281106100b557505050500390f35b83516001600160a01b0316855286955093810193928101926001016100a6565b8380fd5b8280fd5b505034610184576020366003190112610184576100f861038e565b9082549068010000000000000000821015610171576001820180855582101561015e57507f290decd9548b62a8d60345a988386fc84ba6bc95484008f6362f93160ef3e5630180546001600160a01b0319166001600160a01b0390921691909117905580f35b634e487b7160e01b845260329052602483fd5b634e487b7160e01b845260419052602483fd5b5080fd5b5091903461018457602036600319011261018457359067ffffffffffffffff82168092036101c4575067de41ba4fc9d91ad96020925191148152f35b80fd5b83823461018457816003193601126101845760e09060018060a01b03807f00000000000000000000000000000000000000000000000000000000000000001682519267de41ba4fc9d91ad98452816020850152830152807f0000000000000000000000000000000000000000000000000000000000000000166060830152807f0000000000000000000000000000000000000000000000000000000000000000166080830152807f00000000000000000000000000000000000000000000000000000000000000001660a08301527f00000000000000000000000000000000000000000000000000000000000000001660c0820152f35b9150923461018457826003193601126101845760448460209381936102e161038e565b63a9059cbb60e01b84526001600160a01b039081169184019190915260248035908401527f0000000000000000000000000000000000000000000000000000000000000000165af1918215610384578392610343575b60208383519015158152f35b9091506020813d60201161037c575b8161035f602093836103a9565b810103126100d9575180151581036100d957602092509038610337565b3d9150610352565b81513d85823e3d90fd5b600435906001600160a01b03821682036103a457565b600080fd5b90601f8019910116810190811067ffffffffffffffff8211176103cb57604052565b634e487b7160e01b600052604160045260246000fd5b67de41ba4fc9d91ad967ffffffffffffffff8092160361047357506040518081600054808352602080930190600080527f290decd9548b62a8d60345a988386fc84ba6bc95484008f6362f93160ef3e563936000905b8282106104505750505061044d925003826103a9565b90565b85546001600160a01b031684526001958601958795509381019390910190610437565b6040519060208201908111828210176103cb576040526000815260003681379056fea2646970667358221220d77da3a51348f9e36b60023e7310f16c476329f78de96616b13eaa17bda0dbfb64736f6c6343000818003360808060405234610016576112e5908161001c8239f35b600080fdfe6080604052600436101561001257600080fd5b6000803560e01c90816320487ded146100ba575080633cf97983146100b557806369fe0e2d146100b057806383826b2b146100ab57806396f4e9f9146100a6578063a48a9058146100a1578063a8d87a3b1461009c578063d6be695a14610097578063ee18e0d3146100925763fbca3b741461008d57600080fd5b6108a0565b610883565b610865565b61083d565b610818565b61058d565b61055d565b610544565b610445565b34610104576040366003190112610104576100d3610107565b506024356001600160401b03811161010057906100f66020923690600401610336565b5054604051908152f35b5080fd5b80fd5b600435906001600160401b038216820361011d57565b600080fd5b35906001600160401b038216820361011d57565b634e487b7160e01b600052604160045260246000fd5b604081019081106001600160401b0382111761016757604052565b610136565b602081019081106001600160401b0382111761016757604052565b60a081019081106001600160401b0382111761016757604052565b606081019081106001600160401b0382111761016757604052565b60c081019081106001600160401b0382111761016757604052565b90601f801991011681019081106001600160401b0382111761016757604052565b6040519061020682610187565b565b6001600160401b03811161016757601f01601f191660200190565b92919261022f82610208565b9161023d60405193846101d8565b82948184528183011161011d578281602093846000960137010152565b9080601f8301121561011d5781602061027593359101610223565b90565b6001600160a01b0381160361011d57565b359061020682610278565b9291926001600160401b038211610167576020604092604051956102be60208360051b01886101d8565b602087838152019160061b84019381851161011d57915b8483106102e457505050505050565b858383031261011d5783869182516102fb8161014c565b853561030681610278565b815282860135838201528152019201916102d5565b9080601f8301121561011d5781602061027593359101610294565b91909160a08184031261011d5761034b6101f9565b926001600160401b03823581811161011d578261036991850161025a565b8552602083013581811161011d578261038391850161025a565b6020860152604083013581811161011d57826103a091850161031b565b60408601526103b160608401610289565b6060860152608083013590811161011d576103cc920161025a565b6080830152565b908160a091031261011d5790565b919082519283825260005b84811061040d575050826000602080949584010152601f8019910116010190565b6020818301810151848301820152016103ec565b93929161044090604092151586526060602087015260608601906103e1565b930152565b3461011d57608036600319011261011d576001600160401b0360043581811161011d576104769036906004016103d3565b60243561ffff8116810361011d576064359061049182610278565b60a08336031261011d576104a36101f9565b90833582526104b460208501610122565b6020830152604084013585811161011d576104d2903690860161025a565b6040830152606084013585811161011d576104f0903690860161025a565b6060830152608084013594851161011d57610514610522946105319636910161031b565b608083015260443591610d34565b60409391935193849384610421565b0390f35b9081602091031261011d573590565b3461011d57602036600319011261011d57600435600055005b3461011d57604036600319011261011d57610576610107565b50610582602435610278565b602060405160018152f35b60408060031936011261011d576105a2610107565b50602435906001600160401b03821161011d576105c4600492369084016103d3565b916105cf8380610917565b60209150601f190161080a576105f06105e88580610917565b810190610535565b6001600160a01b03908181118015610800575b6107d9576106113687610336565b5060005460608701836106238261097b565b166107a657503410610796575b169161063f6080860186610917565b61064891610ea7565b51908451948386018661065b8983610a09565b0396601f1997888101825261067090826101d8565b519020815133868201908152909791929190889060200103908101885261069790886101d8565b6106a388860189610917565b89830195916106b2878c610ade565b9190926106bd6101f9565b87815267de41ba4fc9d91ad98b8201529b868d015236906106dd92610223565b60608b015236906106ed92610294565b608089015260005b6106ff868b610ade565b905081101561075a57806107548b8a8a61074a8561072d8d61074461073861073360019c61072d858c610ade565b90610b13565b61097b565b6001600160a01b031690565b96610ade565b0135913390610dca565b016106f5565b50866107669189610c0c565b50939015610778578151838152602090f35b6107928492519283926302a35ba360e21b84528301610b39565b0390fd5b84516303ed377360e11b81528490fd5b346107c957906107bb6107386107c49361097b565b30903390610dca565b610630565b8651631841b4e160e01b81528690fd5b5050506107926107e98480610917565b90935193849363370d875f60e01b8552840161096a565b50600a8110610603565b506107926107e98480610917565b3461011d57602036600319011261011d57610831610107565b50602060405160018152f35b3461011d57602036600319011261011d57610856610107565b50602060405163499602d28152f35b3461011d57600036600319011261011d57602060405162030d408152f35b3461011d57600036600319011261011d5760206040516113888152f35b3461011d5760208060031936011261011d576108ba610107565b50604051906108c88261016c565b600082526040519181839283018184528251809152816040850193019160005b8281106108f757505050500390f35b83516001600160a01b0316855286955093810193928101926001016108e8565b903590601e198136030182121561011d57018035906001600160401b03821161011d5760200191813603831361011d57565b908060209392818452848401376000828201840152601f01601f1916010190565b916020610275938181520191610949565b3561027581610278565b9035601e198236030181121561011d5701602081359101916001600160401b03821161011d57813603831361011d57565b9190808252602080920192916000905b8282106109d4575050505090565b9091929360019085356109e681610278565b828060a01b031681528286013583820152604080910195019201909291926109c6565b9060208252610a2c610a1b8280610985565b60a0602086015260c0850191610949565b610a50610a3c6020840184610985565b601f19868503810160408801529391610949565b906040830135601e198436030181121561011d57830193602085359501946001600160401b03811161011d578060061b3603861361011d57610aa584610acf9261027598868660a099030160608701526109b6565b94610ac5610ab560608301610289565b6001600160a01b03166080850152565b6080810190610985565b93909282860301910152610949565b903590601e198136030182121561011d57018035906001600160401b03821161011d57602001918160061b3603831361011d57565b9190811015610b235760061b0190565b634e487b7160e01b600052603260045260246000fd5b9060206102759281815201906103e1565b60405190610b578261016c565b60008252565b9060209081835280518284015281810151916001600160401b03604093166040850152610b99604083015160a0606087015260c08601906103e1565b9360a06080610bb9606086015197601f19988986830301848701526103e1565b94015195828503019101528080855193848152019401926000905b838210610be357505050505090565b845180516001600160a01b03168752830151868401529485019493820193600190910190610bd4565b92909192833b158015610d1e575b610d09577f9b877de93ea9895756e337442c657f95a34fc68e7eb988bdfa693d5be83016b6610d0191610c7e6040519560208701976385572ffb60e01b8952610c7888610c6a8660248301610b5d565b03601f1981018a52896101d8565b87611031565b96919490977fa8b0355886b5b7a28bb97e4f0a24feb172618407402721c4012d8b7c6433102f60405180610cb48b8d8b84610421565b0390a1610ccd602085519501516001600160401b031690565b92519020604080519485526001600160401b0390931660208501523392840192909252606083019190915281906080820190565b0390a1929190565b50915050600190610d18610b4a565b90600090565b50610d2f610d2b85610f56565b1590565b610c1a565b9093919293843b158015610db8575b610da857610d0191610c7e7f9b877de93ea9895756e337442c657f95a34fc68e7eb988bdfa693d5be83016b6926040519660208801986385572ffb60e01b8a52610da289610d948760248301610b5d565b03601f1981018b528a6101d8565b886110dc565b5050915050600190610d18610b4a565b50610dc5610d2b86610f56565b610d43565b90600080610e7a9460405194602097888701956323b872dd60e01b875260018060a01b03938480921660248a0152166044880152606487015260648652610e1086610187565b169260405194610e1f8661014c565b8786527f5361666545524332303a206c6f772d6c6576656c2063616c6c206661696c656488870152519082855af13d15610e9f573d91610e5e83610208565b92610e6c60405194856101d8565b83523d60008785013e611216565b80519081610e8757505050565b8261020693610e9a938301019101611142565b61115a565b606091611216565b9060405190610eb58261016c565b60008092528015610f3e5782356001600160e01b03198181169160048410610f29575b5016636859a83760e01b01610f17578060041161010057602090830183900360031901126101045750600460405191610f108361016c565b0135815290565b604051632923fee760e11b8152600490fd5b818093508460040360031b1b16169038610ed8565b505050604051610f4d8161016c565b62030d40815290565b6040519060208083018160006301ffc9a760e01b9586845286602482015260248152610f81816101a2565b51617530938685fa933d6000519086611026575b508561101c575b5084610fb9575b50505081610faf575090565b61027591506111b9565b83945090600091839460405185810192835263ffffffff60e01b602482015260248152610fe5816101a2565b5192fa60005190913d83611011575b505081611007575b501590388080610fa3565b9050151538610ffc565b101591503880610ff4565b1515945038610f9c565b841115955038610f95565b929060405193611040856101bd565b60848552602085019360a0368637823b156110cb575a61138881106110ba576113871980820160061c909103018110156110a9576000918291825a9560208451940192f1905a9003923d90608482116110a0575b6000908287523e929190565b60849150611094565b6337c3be2960e01b60005260046000fd5b632be8ca8b60e21b60005260046000fd5b63030ed58f60e21b60005260046000fd5b60405194926110ea866101bd565b60848652602086019460a0368737833b156110cb575a908082106110ba578291038060061c900311156110a9576000918291825a9560208451940192f1905a9003923d90608482116110a0576000908287523e929190565b9081602091031261011d5751801515810361011d5790565b1561116157565b60405162461bcd60e51b815260206004820152602a60248201527f5361666545524332303a204552433230206f7065726174696f6e20646964206e6044820152691bdd081cdd58d8d9595960b21b6064820152608490fd5b6000602091604051838101906301ffc9a760e01b82526385572ffb60e01b6024820152602481526111e9816101a2565b5191617530fa6000513d8261120a575b5081611203575090565b9050151590565b602011159150386111f9565b91929015611278575081511561122a575090565b3b156112335790565b60405162461bcd60e51b815260206004820152601d60248201527f416464726573733a2063616c6c20746f206e6f6e2d636f6e74726163740000006044820152606490fd5b82519091501561128b5750805190602001fd5b60405162461bcd60e51b8152602060048201529081906107929060248301906103e156fea2646970667358221220fcfeded0c5f7aeca7d331b52fc79bfdbfa76e453518d15374e48d80ee3ecd86864736f6c6343000818003360c0604052346200039957620020df803803806200001d816200039e565b928339810190604081830312620003995780516001600160401b03919082811162000399578362000050918301620003c4565b906020938482015184811162000399576200006c9201620003c4565b91815181811162000299576003908154906001948583811c931680156200038e575b8884101462000378578190601f9384811162000322575b508890848311600114620002bb57600092620002af575b505060001982851b1c191690851b1782555b8451928311620002995760049485548581811c911680156200028e575b8882101462000279578281116200022e575b5086918411600114620001c357938394918492600095620001b7575b50501b92600019911b1c19161781555b33156200017557600580546001600160a01b031916331790556012608052600060a052604051611ca8908162000437823960805181610d79015260a0518181816103430152610ab30152f35b6064916040519162461bcd60e51b8352820152601860248201527f43616e6e6f7420736574206f776e657220746f207a65726f00000000000000006044820152fd5b01519350388062000119565b9190601f198416928660005284886000209460005b8a89838310620002165750505010620001fb575b50505050811b01815562000129565b01519060f884600019921b161c1916905538808080620001ec565b868601518955909701969485019488935001620001d8565b86600052876000208380870160051c8201928a88106200026f575b0160051c019086905b82811062000262575050620000fd565b6000815501869062000252565b9250819262000249565b602287634e487b7160e01b6000525260246000fd5b90607f1690620000eb565b634e487b7160e01b600052604160045260246000fd5b015190503880620000bc565b90879350601f19831691866000528a6000209260005b8c8282106200030b5750508411620002f2575b505050811b018255620000ce565b015160001983871b60f8161c19169055388080620002e4565b8385015186558b97909501949384019301620002d1565b90915084600052886000208480850160051c8201928b86106200036e575b918991869594930160051c01915b8281106200035e575050620000a5565b600081558594508991016200034e565b9250819262000340565b634e487b7160e01b600052602260045260246000fd5b92607f16926200008e565b600080fd5b6040519190601f01601f191682016001600160401b038111838210176200029957604052565b919080601f84011215620003995782516001600160401b0381116200029957602090620003fa601f8201601f191683016200039e565b92818452828287010111620003995760005b8181106200042257508260009394955001015290565b85810183015184820184015282016200040c56fe60806040908082526004918236101561001757600080fd5b600092833560e01c92836301ffc9a7146111355750826306fdde031461103e578263095ea7b314610f5357826318160ddd14610f3457826323b872dd14610d9d578263313ce56714610d5f5782633950935114610d3f5782634000aea014610bb457826340c10f1914610a6557826342966c6814610a135782634334614a146109d65782634f5632f814610973578263661884631461050f57826367a5cd06146108aa5782636b32810b1461083057826370a08231146107f957826379ba50971461074857826379cc67901461051457826386fe8b43146106c45782638da5cb5b1461069b57826395d89b411461057e5782639dc29fac14610514578263a457c2d71461050f578263a9059cbb146104e6578263aa271e1a146104a0578263c2e3273d1461043d578263c630948d146103c9578263c64d0ebc14610366578263d5abeb011461032b578263d73dd62314610302578263dd62ed3e146102b5578263f2fde38b146101f757505063f81094f31461019257600080fd5b346101f45760203660031901126101f4576101ab6111f8565b6101b36117ca565b6001600160a01b03166101c581611a96565b6101cd575080f35b7fed998b960f6340d045f620c119730f7aa7995e7425c2401d3a5b64ff998a59e98280a280f35b80fd5b909150346102b15760203660031901126102b1576102136111f8565b9061021c6117ca565b6001600160a01b039182169233841461026e575050600680546001600160a01b03191683179055600554167fed8889f560326eb138920d842192f0eb3dd22b4f139c87a2c57538e05bae12788380a380f35b906020606492519162461bcd60e51b8352820152601760248201527f43616e6e6f74207472616e7366657220746f2073656c660000000000000000006044820152fd5b8280fd5b8382346102fe57806003193601126102fe57806020926102d36111f8565b6102db611213565b6001600160a01b0391821683526001865283832091168252845220549051908152f35b5080fd5b8382346102fe573660031901126101f45761032761031e6111f8565b60243590611426565b5080f35b8382346102fe57816003193601126102fe57602090517f00000000000000000000000000000000000000000000000000000000000000008152f35b83346101f45760203660031901126101f4576103806111f8565b6103886117ca565b6001600160a01b031661039a81611ba5565b6103a2575080f35b7f92308bb7573b2a3d17ddb868b39d8ebec433f3194421abc22d084f89658c9bad8280a280f35b83346101f45760203660031901126101f4576103e36111f8565b6103eb6117ca565b6001600160a01b03166103fd81611b3f565b610413575b61040a6117ca565b61039a81611ba5565b807fe46fef8bbff1389d9010703cf8ebb363fb3daf5bf56edc27080b67bc8d9251ea8380a2610402565b83346101f45760203660031901126101f4576104576111f8565b61045f6117ca565b6001600160a01b031661047181611b3f565b610479575080f35b7fe46fef8bbff1389d9010703cf8ebb363fb3daf5bf56edc27080b67bc8d9251ea8280a280f35b8382346102fe5760203660031901126102fe576020906104dd6001600160a01b036104c96111f8565b166000526008602052604060002054151590565b90519015158152f35b8382346102fe57806003193601126102fe576020906104dd6105066111f8565b60243590611515565b611261565b8390346102fe57826003193601126102fe5761052e6111f8565b6024359161054933600052600a602052604060002054151590565b156105675750906105649161055f823383611679565b61181c565b80f35b60249085519063c820b10b60e01b82523390820152fd5b9083346101f457806003193601126101f4578151918184549260018460011c9160018616958615610691575b602096878510811461067e579087899a92868b999a9b5291826000146106545750506001146105f9575b85886105f5896105e6848a0385611229565b519282849384528301906111b8565b0390f35b815286935091907f8a35acfbc15ff81a39ae7d344fd709f28e8600b4aa8c65c6b64bfe7fe36bd19b5b82841061063c57505050820101816105e66105f5886105d4565b8054848a018601528895508794909301928101610622565b60ff19168882015294151560051b870190940194508593506105e692506105f591508990506105d4565b634e487b7160e01b835260228a52602483fd5b92607f16926105aa565b8382346102fe57816003193601126102fe5760055490516001600160a01b039091168152602090f35b5082346101f457806003193601126101f4578151918291600954808552602080950194600983527f6e1540171b6c0c960b71a7020d9f60077f6af931a8bbf590da0223dacf75c7af92905b828210610731576105f58686610727828b0383611229565b51918291826113be565b83548752958601956001938401939091019061070f565b9150346102b157826003193601126102b157600654916001600160a01b039182841633036107bd575050600554916bffffffffffffffffffffffff60a01b903382851617600555166006553391167f8be0079c531659141344cd1fd0a4f28419497f9722a3daafe3b4186f6b6457e08380a380f35b906020606492519162461bcd60e51b8352820152601660248201527526bab9ba10313290383937b837b9b2b21037bbb732b960511b6044820152fd5b8382346102fe5760203660031901126102fe5760209181906001600160a01b036108216111f8565b16815280845220549051908152f35b5082346101f457806003193601126101f4578151918291600754808552602080950194600783527fa66cc928b5edb82af9bd49922954155ab7b0942694bea4ce44661d9a8736c68892905b828210610893576105f58686610727828b0383611229565b83548752958601956001938401939091019061087b565b909150346102b15760203660031901126102b1576001600160a01b036108ce6111f8565b1691821561093057600254670de0b6b3a76400009283820180921161091d57508492600080516020611c338339815191529260209260025585855284835280852082815401905551908152a380f35b634e487b7160e01b865260119052602485fd5b906020606492519162461bcd60e51b8352820152601f60248201527f45524332303a206d696e7420746f20746865207a65726f2061646472657373006044820152fd5b83346101f45760203660031901126101f45761098d6111f8565b6109956117ca565b6001600160a01b03166109a781611995565b6109af575080f35b7f0a675452746933cefe3d74182e78db7afe57ba60eaa4234b5d85e9aa41b0610c8280a280f35b8382346102fe5760203660031901126102fe576020906104dd6001600160a01b036109ff6111f8565b16600052600a602052604060002054151590565b9150346102b15760203660031901126102b157610a3d33600052600a602052604060002054151590565b15610a4e575061056490353361181c565b60249250519063c820b10b60e01b82523390820152fd5b9150346102b157806003193601126102b157610a7f6111f8565b9060243591610a9b336000526008602052604060002054151590565b15610b9e576001600160a01b031692308414610b9a577f00000000000000000000000000000000000000000000000000000000000000008015159081610b85575b50610b64578315610b225750602082600080516020611c3383398151915292610b088795600254611403565b60025585855284835280852082815401905551908152a380f35b6020606492519162461bcd60e51b8352820152601f60248201527f45524332303a206d696e7420746f20746865207a65726f2061646472657373006044820152fd5b90610b73602493600254611403565b905163cbbf111360e01b815291820152fd5b9050610b9384600254611403565b1138610adc565b8480fd5b815163e2c8c9d560e01b81523381860152602490fd5b909150346102b15760603660031901126102b157610bd06111f8565b9260249182356044359567ffffffffffffffff91828811610b9a5736602389011215610b9a5787840135838111610d2d57875198610c18601f8301601f19166020018b611229565b818a5236888383010111610d29578187928960209301838d01378a010152610c408183611515565b508651818152602081018890526001600160a01b0383169290839033907fe19260aff97b920c7df27010903aeb9c8d2be5d310a2c67824cf3f15396e4c169080610c8c818e018f6111b8565b0390a33b610c9f575b6020875160018152f35b819695963b15610b9a579684918798838899610ce09951998a9586948593635260769b60e11b8552338c8601528401526060604484015260648301906111b8565b03925af18015610d1f57610cf6575b8080610c95565b8311610d0d57505060209250815238808080610cef565b634e487b7160e01b8252604190528390fd5b85513d85823e3d90fd5b8680fd5b634e487b7160e01b8652604185528686fd5b8382346102fe57806003193601126102fe576020906104dd61031e6111f8565b8382346102fe57816003193601126102fe576020905160ff7f0000000000000000000000000000000000000000000000000000000000000000168152f35b9083346101f45760603660031901126101f457610db86111f8565b90610dc1611213565b60443590610dd0823386611679565b6001600160a01b0390811693308514610f305716918215610edf578315610e90578281528060205284812054828110610e3e576020965091858282600080516020611c3383398151915295878b96528286520382822055868152208181540190558551908152a35160018152f35b855162461bcd60e51b8152602081890152602660248201527f45524332303a207472616e7366657220616d6f756e7420657863656564732062604482015265616c616e636560d01b6064820152608490fd5b845162461bcd60e51b8152602081880152602360248201527f45524332303a207472616e7366657220746f20746865207a65726f206164647260448201526265737360e81b6064820152608490fd5b845162461bcd60e51b8152602081880152602560248201527f45524332303a207472616e736665722066726f6d20746865207a65726f206164604482015264647265737360d81b6064820152608490fd5b8380fd5b8382346102fe57816003193601126102fe576020906002549051908152f35b9083346101f457816003193601126101f457610f6d6111f8565b6001600160a01b031690602435903083146101f4573315611001578215610fc5576020945083829133815260018752818120858252875220558251908152600080516020611c53833981519152843392a35160018152f35b835162461bcd60e51b815260208187015260226024820152600080516020611c13833981519152604482015261737360f01b6064820152608490fd5b835162461bcd60e51b8152602081870152602480820152600080516020611bf38339815191526044820152637265737360e01b6064820152608490fd5b9083346101f457806003193601126101f457815191816003549260018460011c916001861695861561112b575b602096878510811461067e578899509688969785829a5291826000146111045750506001146110a8575b5050506105f592916105e6910385611229565b9190869350600383527fc2575a0e9e593c00f959f8c92f12db2869c3395a3b0502d05e2516446f71f85b5b8284106110ec57505050820101816105e66105f5611095565b8054848a0186015288955087949093019281016110d3565b60ff19168782015293151560051b860190930193508492506105e691506105f59050611095565b92607f169261106b565b8491346102b15760203660031901126102b1573563ffffffff60e01b81168091036102b157602092506336372b0760e01b81149081156111a7575b8115611196575b8115611185575b5015158152f35b6301ffc9a760e01b1490508361117e565b63e6599b4d60e01b81149150611177565b630200057560e51b81149150611170565b919082519283825260005b8481106111e4575050826000602080949584010152601f8019910116010190565b6020818301810151848301820152016111c3565b600435906001600160a01b038216820361120e57565b600080fd5b602435906001600160a01b038216820361120e57565b90601f8019910116810190811067ffffffffffffffff82111761124b57604052565b634e487b7160e01b600052604160045260246000fd5b3461120e5760408060031936011261120e5761127b6111f8565b90602435916000338152602093600185528382209260018060a01b03169283835285528382205481811061136c5703903083146101f457331561132e5782156112f15783829133815260018752818120858252875220558251908152600080516020611c53833981519152843392a35160018152f35b835162461bcd60e51b81526004810186905260226024820152600080516020611c13833981519152604482015261737360f01b6064820152608490fd5b835162461bcd60e51b815260048101869052602480820152600080516020611bf38339815191526044820152637265737360e01b6064820152608490fd5b845162461bcd60e51b815260048101879052602560248201527f45524332303a2064656372656173656420616c6c6f77616e63652062656c6f77604482015264207a65726f60d81b6064820152608490fd5b602090602060408183019282815285518094520193019160005b8281106113e6575050505090565b83516001600160a01b0316855293810193928101926001016113d8565b9190820180921161141057565b634e487b7160e01b600052601160045260246000fd5b90600090338252602090600182526114556040918285209560018060a01b031695868652845282852054611403565b923085146101f45733156114d757841561149a57908381600080516020611c5383398151915294933381526001855281812088825285522055519283523392a3600190565b815162461bcd60e51b81526004810184905260226024820152600080516020611c13833981519152604482015261737360f01b6064820152608490fd5b815162461bcd60e51b815260048101849052602480820152600080516020611bf38339815191526044820152637265737360e01b6064820152608490fd5b6001600160a01b03169030821461120e5733156116265781156115d557600033815280602052604081205490828210611581578260409233835282602052038282205583815220818154019055604051908152600080516020611c3383398151915260203392a3600190565b60405162461bcd60e51b815260206004820152602660248201527f45524332303a207472616e7366657220616d6f756e7420657863656564732062604482015265616c616e636560d01b6064820152608490fd5b60405162461bcd60e51b815260206004820152602360248201527f45524332303a207472616e7366657220746f20746865207a65726f206164647260448201526265737360e81b6064820152608490fd5b60405162461bcd60e51b815260206004820152602560248201527f45524332303a207472616e736665722066726f6d20746865207a65726f206164604482015264647265737360d81b6064820152608490fd5b909160018060a01b03809216916000908382526020926001845260409182842096169586845284528183205460001981036116b8575b50505050505050565b8181106117865703913086146101f457841561174857851561170b579082818387600080516020611c5383398151915297969552600186528181208982528652205551908152a3388080808080806116af565b815162461bcd60e51b81526004810185905260226024820152600080516020611c13833981519152604482015261737360f01b6064820152608490fd5b815162461bcd60e51b815260048101859052602480820152600080516020611bf38339815191526044820152637265737360e01b6064820152608490fd5b825162461bcd60e51b815260048101869052601d60248201527f45524332303a20696e73756666696369656e7420616c6c6f77616e63650000006044820152606490fd5b6005546001600160a01b031633036117de57565b60405162461bcd60e51b815260206004820152601660248201527527b7363c9031b0b63630b1363290313c9037bbb732b960511b6044820152606490fd5b6001600160a01b031680156118c2576000918183528260205260408320548181106118725781600080516020611c33833981519152926020928587528684520360408620558060025403600255604051908152a3565b60405162461bcd60e51b815260206004820152602260248201527f45524332303a206275726e20616d6f756e7420657863656564732062616c616e604482015261636560f01b6064820152608490fd5b60405162461bcd60e51b815260206004820152602160248201527f45524332303a206275726e2066726f6d20746865207a65726f206164647265736044820152607360f81b6064820152608490fd5b6009548110156119485760096000527f6e1540171b6c0c960b71a7020d9f60077f6af931a8bbf590da0223dacf75c7af0190600090565b634e487b7160e01b600052603260045260246000fd5b6007548110156119485760076000527fa66cc928b5edb82af9bd49922954155ab7b0942694bea4ce44661d9a8736c6880190600090565b6000818152600a60205260408120549091908015611a915760001990808201818111611a7d5760095490838201918211611a6957808203611a1e575b5050506009548015611a0a578101906119e982611911565b909182549160031b1b191690556009558152600a6020526040812055600190565b634e487b7160e01b84526031600452602484fd5b611a53611a2d611a3c93611911565b90549060031b1c928392611911565b819391549060031b91821b91600019901b19161790565b90558452600a60205260408420553880806119d1565b634e487b7160e01b86526011600452602486fd5b634e487b7160e01b85526011600452602485fd5b505090565b6000818152600860205260408120549091908015611a915760001990808201818111611a7d5760075490838201918211611a6957808203611b0b575b5050506007548015611a0a57810190611aea8261195e565b909182549160031b1b19169055600755815260086020526040812055600190565b611b29611b1a611a3c9361195e565b90549060031b1c92839261195e565b9055845260086020526040842055388080611ad2565b600081815260086020526040812054611ba057600754600160401b811015611b8c579082611b78611a3c8460016040960160075561195e565b905560075492815260086020522055600190565b634e487b7160e01b82526041600452602482fd5b905090565b6000818152600a6020526040812054611ba057600954600160401b811015611b8c579082611bde611a3c84600160409601600955611911565b9055600954928152600a602052205560019056fe45524332303a20617070726f76652066726f6d20746865207a65726f2061646445524332303a20617070726f766520746f20746865207a65726f206164647265ddf252ad1be2c89b69c2b068fc378daa952ba7f163c4a11628f55a4df523b3ef8c5be1e5ebec7d5bd14f71427d1e84f3dd0314c0f7b2291e5b200ac8c7c3b925a26469706673582212205d9d9b39a7cd854a5739ff388196b82003ede920b9c4d0eb47778b7792e2759f64736f6c63430008180033608034620003f4576040906001600160401b039080830182811182821017620003de578352600f81526020906e21b430b4b72634b735902a37b5b2b760891b8282015283519084820182811085821117620003de578552600493848352634c494e4b60e01b84840152815192818411620003c9576003908154946001948587811c97168015620003be575b88881014620003a9578190601f9788811162000353575b508890888311600114620002ec57600092620002e0575b505060001982851b1c191690851b1782555b8051928311620002cb5786548481811c91168015620002c0575b87821014620002ab5785811162000260575b508590858411600114620001f557938394918492600095620001e9575b50501b92600019911b1c19161783555b3315620001aa57506002546b033b2e3c9fd0803ce8000000928382018092116200019557506000917fddf252ad1be2c89b69c2b068fc378daa952ba7f163c4a11628f55a4df523b3ef9160025533835282815284832084815401905584519384523393a351610a8b9081620003fa8239f35b601190634e487b7160e01b6000525260246000fd5b90606493519262461bcd60e51b845283015260248201527f45524332303a206d696e7420746f20746865207a65726f2061646472657373006044820152fd5b01519350388062000113565b9190601f198416928860005284886000209460005b8a898383106200024857505050106200022d575b50505050811b01835562000123565b01519060f884600019921b161c19169055388080806200021e565b8686015189559097019694850194889350016200020a565b87600052866000208680860160051c820192898710620002a1575b0160051c019085905b82811062000294575050620000f6565b6000815501859062000284565b925081926200027b565b602288634e487b7160e01b6000525260246000fd5b90607f1690620000e4565b604187634e487b7160e01b6000525260246000fd5b015190503880620000b8565b90879350601f19831691866000528a6000209260005b8c8282106200033c575050841162000323575b505050811b018255620000ca565b015160001983871b60f8161c1916905538808062000315565b8385015186558b9790950194938401930162000302565b90915084600052886000208880850160051c8201928b86106200039f575b918991869594930160051c01915b8281106200038f575050620000a1565b600081558594508991016200037f565b9250819262000371565b602289634e487b7160e01b6000525260246000fd5b96607f16966200008a565b604186634e487b7160e01b6000525260246000fd5b634e487b7160e01b600052604160045260246000fd5b600080fdfe608060408181526004918236101561001657600080fd5b600092833560e01c91826306fdde031461064857508163095ea7b31461061e57816318160ddd146105ff57816323b872dd14610535578163313ce5671461051957816339509351146104b25781634000aea01461032057816370a08231146102e957816395d89b41146101cc578163a457c2d71461012457508063a9059cbb146100f45763dd62ed3e146100a957600080fd5b346100f057806003193601126100f057806020926100c561077c565b6100cd610797565b6001600160a01b0391821683526001865283832091168252845220549051908152f35b5080fd5b50346100f057806003193601126100f05760209061011d61011361077c565b60243590336108e7565b5160018152f35b905082346101c957826003193601126101c95761013f61077c565b918360243592338152600160205281812060018060a01b03861682526020522054908282106101785760208561011d85850387336107e5565b608490602086519162461bcd60e51b8352820152602560248201527f45524332303a2064656372656173656420616c6c6f77616e63652062656c6f77604482015264207a65726f60d81b6064820152fd5b80fd5b8284346101c957806003193601126101c9578151918184549260018460011c91600186169586156102df575b60209687851081146102cc579087899a92868b999a9b5291826000146102a2575050600114610247575b858861024389610234848a03856107ad565b5192828493845283019061073c565b0390f35b815286935091907f8a35acfbc15ff81a39ae7d344fd709f28e8600b4aa8c65c6b64bfe7fe36bd19b5b82841061028a575050508201018161023461024388610222565b8054848a018601528895508794909301928101610270565b60ff19168882015294151560051b8701909401945085935061023492506102439150899050610222565b634e487b7160e01b835260228a52602483fd5b92607f16926101f8565b5050346100f05760203660031901126100f05760209181906001600160a01b0361031161077c565b16815280845220549051908152f35b9050346104ae5760603660031901126104ae5761033b61077c565b9260249182356044359567ffffffffffffffff918288116104945736602389011215610494578784013583811161049c57875198610383601f8301601f19166020018b6107ad565b818a5236888383010111610498578187928960209301838d01378a0101526103ac8183336108e7565b8651818152602081018890526001600160a01b0383169290839033907fe19260aff97b920c7df27010903aeb9c8d2be5d310a2c67824cf3f15396e4c1690806103f7818e018f61073c565b0390a33b61040a575b6020875160018152f35b819695963b1561049457968491879883889961044b9951998a9586948593635260769b60e11b8552338c86015284015260606044840152606483019061073c565b03925af1801561048a57610461575b8080610400565b83116104785750506020925081523880808061045a565b634e487b7160e01b8252604190528390fd5b85513d85823e3d90fd5b8480fd5b8680fd5b634e487b7160e01b8652604185528686fd5b8280fd5b8284346101c957816003193601126101c9576104cc61077c565b338252600160209081528383206001600160a01b03831684529052828220546024358101929083106105065760208461011d8585336107e5565b634e487b7160e01b815260118552602490fd5b5050346100f057816003193601126100f0576020905160128152f35b839150346100f05760603660031901126100f05761055161077c565b610559610797565b91846044359460018060a01b038416815260016020528181203382526020522054906000198203610593575b60208661011d8787876108e7565b8482106105bc57509183916105b16020969561011d950333836107e5565b919394819350610585565b606490602087519162461bcd60e51b8352820152601d60248201527f45524332303a20696e73756666696369656e7420616c6c6f77616e63650000006044820152fd5b5050346100f057816003193601126100f0576020906002549051908152f35b5050346100f057806003193601126100f05760209061011d61063e61077c565b60243590336107e5565b8484346100f057816003193601126100f057816003549260018460011c9160018616958615610732575b60209687851081146102cc578899509688969785829a52918260001461070b5750506001146106af575b50505061024392916102349103856107ad565b9190869350600383527fc2575a0e9e593c00f959f8c92f12db2869c3395a3b0502d05e2516446f71f85b5b8284106106f3575050508201018161023461024361069c565b8054848a0186015288955087949093019281016106da565b60ff19168782015293151560051b860190930193508492506102349150610243905061069c565b92607f1692610672565b919082519283825260005b848110610768575050826000602080949584010152601f8019910116010190565b602081830181015184830182015201610747565b600435906001600160a01b038216820361079257565b600080fd5b602435906001600160a01b038216820361079257565b90601f8019910116810190811067ffffffffffffffff8211176107cf57604052565b634e487b7160e01b600052604160045260246000fd5b6001600160a01b0390811691821561089657169182156108465760207f8c5be1e5ebec7d5bd14f71427d1e84f3dd0314c0f7b2291e5b200ac8c7c3b925918360005260018252604060002085600052825280604060002055604051908152a3565b60405162461bcd60e51b815260206004820152602260248201527f45524332303a20617070726f766520746f20746865207a65726f206164647265604482015261737360f01b6064820152608490fd5b60405162461bcd60e51b8152602060048201526024808201527f45524332303a20617070726f76652066726f6d20746865207a65726f206164646044820152637265737360e01b6064820152608490fd5b6001600160a01b03908116918215610a0257169182156109b15760008281528060205260408120549180831061095d57604082827fddf252ad1be2c89b69c2b068fc378daa952ba7f163c4a11628f55a4df523b3ef958760209652828652038282205586815220818154019055604051908152a3565b60405162461bcd60e51b815260206004820152602660248201527f45524332303a207472616e7366657220616d6f756e7420657863656564732062604482015265616c616e636560d01b6064820152608490fd5b60405162461bcd60e51b815260206004820152602360248201527f45524332303a207472616e7366657220746f20746865207a65726f206164647260448201526265737360e81b6064820152608490fd5b60405162461bcd60e51b815260206004820152602560248201527f45524332303a207472616e736665722066726f6d20746865207a65726f206164604482015264647265737360d81b6064820152608490fdfea26469706673582212202c7dd87885fc8fb1b197aab2586000cf093583ee55e9dee23cdf6fac96604d3264736f6c634300081800336080604052346100cb57600061001581546100d0565b601f81116100a1575b50601a6c2bb930b83832b21022ba3432b960991b0181556001906100436001546100d0565b90601f8211610077575b6008630ae8aa8960e31b016001556002805460ff19166012179055604051610789908161010b8239f35b60018152601f60208220920160051c8201915b828110610097575061004d565b818155830161008a565b818052601f60208320910160051c8101905b8181106100c0575061001e565b8281556001016100b3565b600080fd5b90600182811c92168015610100575b60208310146100ea57565b634e487b7160e01b600052602260045260246000fd5b91607f16916100df56fe60806040818152600480361015610065575b509050361561001f57600080fd5b33600052600360205280600020610037348254610618565b9055513481527fe1fffcc4923d04b559f4d29a8bfc6cda04eb5b0d3c460751c2402c5c5cc9109c60203392a2005b600092833560e01c90816306fdde031461048657508063095ea7b31461041857806318160ddd146103fd57806323b872dd146103cb5780632e1a7d4d14610339578063313ce5671461031757806370a08231146102df57806395d89b41146101bb578063a9059cbb14610188578063d0e30db0146101325763dd62ed3e03610011573461012e578160031936011261012e5760209282916101046105c4565b61010c6105df565b6001600160a01b03918216845291865283832091168252845220549051908152f35b8280fd5b505081600319360112610184573382526003602052808220610155348254610618565b9055513481527fe1fffcc4923d04b559f4d29a8bfc6cda04eb5b0d3c460751c2402c5c5cc9109c60203392a280f35b5080fd5b5050346101845780600319360112610184576020906101b26101a86105c4565b6024359033610625565b90519015158152f35b509190346101845781600319360112610184578051908260018054908160011c90600183169283156102d5575b60209384841081146102c2578388529081156102a65750600114610250575b505050829003601f01601f191682019267ffffffffffffffff84118385101761023d575082918261023992528261057b565b0390f35b634e487b7160e01b815260418552602490fd5b600187529192508591837fb10e2d527612073b26eecdfd717e6a320cf44b4afac2b0732d9fcbe2b7fa0cf65b8385106102925750505050830101388080610207565b80548886018301529301928490820161027c565b60ff1916878501525050151560051b8401019050388080610207565b634e487b7160e01b895260228a52602489fd5b91607f16916101e8565b5050346101845760203660031901126101845760209181906001600160a01b036103076105c4565b1681526003845220549051908152f35b50503461018457816003193601126101845760209060ff600254169051908152f35b503461012e57602036600319011261012e573590338352600360205280832080548381106103c7578361036b916105f5565b905582808380156103bd575b8280929181923390f1156103b257519081527f7fcf532c15f0a6db0bd6d0e038bea71d30d808c7d98cb3bf7268a95bf5081b6560203392a280f35b51913d9150823e3d90fd5b6108fc9150610377565b8480fd5b505034610184576060366003190112610184576020906101b26103ec6105c4565b6103f46105df565b60443591610625565b50503461018457816003193601126101845751478152602090f35b503461012e578160031936011261012e576020926104346105c4565b918360243592839233825287528181209460018060a01b0316948582528752205582519081527f8c5be1e5ebec7d5bd14f71427d1e84f3dd0314c0f7b2291e5b200ac8c7c3b925843392a35160018152f35b849150833461012e578260031936011261012e5782835460018160011c9060018316928315610571575b60209384841081146102c257838852908115610555575060011461050057505050829003601f01601f191682019267ffffffffffffffff84118385101761023d575082918261023992528261057b565b8680529192508591837f290decd9548b62a8d60345a988386fc84ba6bc95484008f6362f93160ef3e5635b8385106105415750505050830101858080610207565b80548886018301529301928490820161052b565b60ff1916878501525050151560051b8401019050858080610207565b91607f16916104b0565b6020808252825181830181905290939260005b8281106105b057505060409293506000838284010152601f8019910116010190565b81810186015184820160400152850161058e565b600435906001600160a01b03821682036105da57565b600080fd5b602435906001600160a01b03821682036105da57565b9190820391821161060257565b634e487b7160e01b600052601160045260246000fd5b9190820180921161060257565b91909160018060a01b03809116916000938385526020926003845260409183838820541061072657338614158061072a575b6106bb575b9180917fddf252ad1be2c89b69c2b068fc378daa952ba7f163c4a11628f55a4df523b3ef959493878952600386528289206106988682546105f5565b9055169687815260038552206106af838254610618565b905551908152a3600190565b858752600485528287203388528552838388205410610726579180917fddf252ad1be2c89b69c2b068fc378daa952ba7f163c4a11628f55a4df523b3ef95949387895260048652828920338a5286528289206107188682546105f5565b90559150919293945061065c565b8680fd5b506004855282872033885285526fffffffffffffffffffffffffffffffff83882054141561065756fea26469706673582212205b6cfa376775a2fb438ca5209fde46b74dde3fccfa26ccae083213b439dfe0fa64736f6c63430008180033","linkReferences":{}},"methodIdentifiers":{"configuration()":"6c70bee9","getSupportedTokens(uint64)":"fbca3b74","isChainSupported(uint64)":"a48a9058","requestLinkFromFaucet(address,uint256)":"657b9a4e","supportNewToken(address)":"cf838140"},"id":30}