{"abi":[{"type":"function","name":"DEFAULT_GAS_LIMIT","inputs":[],"outputs":[{"name":"","type":"uint64","internalType":"uint64"}],"stateMutability":"view"},{"type":"function","name":"GAS_FOR_CALL_EXACT_CHECK","inputs":[],"outputs":[{"name":"","type":"uint16","internalType":"uint16"}],"stateMutability":"view"},{"type":"function","name":"ccipSend","inputs":[{"name":"destinationChainSelector","type":"uint64","internalType":"uint64"},{"name":"message","type":"tuple","internalType":"struct Client.EVM2AnyMessage","components":[{"name":"receiver","type":"bytes","internalType":"bytes"},{"name":"data","type":"bytes","internalType":"bytes"},{"name":"tokenAmounts","type":"tuple[]","internalType":"struct Client.EVMTokenAmount[]","components":[{"name":"token","type":"address","internalType":"address"},{"name":"amount","type":"uint256","internalType":"uint256"}]},{"name":"feeToken","type":"address","internalType":"address"},{"name":"extraArgs","type":"bytes","internalType":"bytes"}]}],"outputs":[{"name":"","type":"bytes32","internalType":"bytes32"}],"stateMutability":"payable"},{"type":"function","name":"getFee","inputs":[{"name":"","type":"uint64","internalType":"uint64"},{"name":"","type":"tuple","internalType":"struct Client.EVM2AnyMessage","components":[{"name":"receiver","type":"bytes","internalType":"bytes"},{"name":"data","type":"bytes","internalType":"bytes"},{"name":"tokenAmounts","type":"tuple[]","internalType":"struct Client.EVMTokenAmount[]","components":[{"name":"token","type":"address","internalType":"address"},{"name":"amount","type":"uint256","internalType":"uint256"}]},{"name":"feeToken","type":"address","internalType":"address"},{"name":"extraArgs","type":"bytes","internalType":"bytes"}]}],"outputs":[{"name":"","type":"uint256","internalType":"uint256"}],"stateMutability":"view"},{"type":"function","name":"getOnRamp","inputs":[{"name":"","type":"uint64","internalType":"uint64"}],"outputs":[{"name":"onRampAddress","type":"address","internalType":"address"}],"stateMutability":"pure"},{"type":"function","name":"getSupportedTokens","inputs":[{"name":"","type":"uint64","internalType":"uint64"}],"outputs":[{"name":"tokens","type":"address[]","internalType":"address[]"}],"stateMutability":"pure"},{"type":"function","name":"isChainSupported","inputs":[{"name":"","type":"uint64","internalType":"uint64"}],"outputs":[{"name":"supported","type":"bool","internalType":"bool"}],"stateMutability":"pure"},{"type":"function","name":"isOffRamp","inputs":[{"name":"","type":"uint64","internalType":"uint64"},{"name":"","type":"address","internalType":"address"}],"outputs":[{"name":"","type":"bool","internalType":"bool"}],"stateMutability":"pure"},{"type":"function","name":"routeMessage","inputs":[{"name":"message","type":"tuple","internalType":"struct Client.Any2EVMMessage","components":[{"name":"messageId","type":"bytes32","internalType":"bytes32"},{"name":"sourceChainSelector","type":"uint64","internalType":"uint64"},{"name":"sender","type":"bytes","internalType":"bytes"},{"name":"data","type":"bytes","internalType":"bytes"},{"name":"destTokenAmounts","type":"tuple[]","internalType":"struct Client.EVMTokenAmount[]","components":[{"name":"token","type":"address","internalType":"address"},{"name":"amount","type":"uint256","internalType":"uint256"}]}]},{"name":"gasForCallExactCheck","type":"uint16","internalType":"uint16"},{"name":"gasLimit","type":"uint256","internalType":"uint256"},{"name":"receiver","type":"address","internalType":"address"}],"outputs":[{"name":"success","type":"bool","internalType":"bool"},{"name":"retData","type":"bytes","internalType":"bytes"},{"name":"gasUsed","type":"uint256","internalType":"uint256"}],"stateMutability":"nonpayable"},{"type":"function","name":"setFee","inputs":[{"name":"feeAmount","type":"uint256","internalType":"uint256"}],"outputs":[],"stateMutability":"nonpayable"},{"type":"event","name":"MessageExecuted","inputs":[{"name":"messageId","type":"bytes32","indexed":false,"internalType":"bytes32"},{"name":"sourceChainSelector","type":"uint64","indexed":false,"internalType":"uint64"},{"name":"offRamp","type":"address","indexed":false,"internalType":"address"},{"name":"calldataHash","type":"bytes32","indexed":false,"internalType":"bytes32"}],"anonymous":false},{"type":"event","name":"MsgExecuted","inputs":[{"name":"success","type":"bool","indexed":false,"internalType":"bool"},{"name":"retData","type":"bytes","indexed":false,"internalType":"bytes"},{"name":"gasUsed","type":"uint256","indexed":false,"internalType":"uint256"}],"anonymous":false},{"type":"error","name":"InsufficientFeeTokenAmount","inputs":[]},{"type":"error","name":"InvalidAddress","inputs":[{"name":"encodedAddress","type":"bytes","internalType":"bytes"}]},{"type":"error","name":"InvalidExtraArgsTag","inputs":[]},{"type":"error","name":"InvalidMsgValue","inputs":[]},{"type":"error","name":"OnlyOffRamp","inputs":[]},{"type":"error","name":"ReceiverError","inputs":[{"name":"error","type":"bytes","internalType":"bytes"}]},{"type":"error","name":"UnsupportedDestinationChain","inputs":[{"name":"destChainSelector","type":"uint64","internalType":"uint64"}]}],"bytecode":{"object":"0x608080604052346100165761130c908161001c8239f35b600080fdfe6080604052600436101561001257600080fd5b6000803560e01c90816320487ded146100ba575080633cf97983146100b557806369fe0e2d146100b057806383826b2b146100ab57806396f4e9f9146100a6578063a48a9058146100a1578063a8d87a3b1461009c578063d6be695a14610097578063ee18e0d3146100925763fbca3b741461008d57600080fd5b6108a4565b610887565b610869565b610841565b61081c565b61058c565b61055c565b610543565b610444565b34610104576040366003190112610104576100d3610107565b506024356001600160401b03811161010057906100f66020923690600401610335565b5054604051908152f35b5080fd5b80fd5b600435906001600160401b038216820361011d57565b600080fd5b35906001600160401b038216820361011d57565b634e487b7160e01b600052604160045260246000fd5b604081019081106001600160401b0382111761016757604052565b610136565b602081019081106001600160401b0382111761016757604052565b60a081019081106001600160401b0382111761016757604052565b606081019081106001600160401b0382111761016757604052565b60c081019081106001600160401b0382111761016757604052565b90601f801991011681019081106001600160401b0382111761016757604052565b6040519061020682610187565b565b6001600160401b03811161016757601f01601f191660200190565b92919261022f82610208565b9161023d60405193846101d8565b82948184528183011161011d578281602093846000960137010152565b9080601f8301121561011d5781602061027593359101610223565b90565b6001600160a01b0381160361011d57565b359061020682610278565b929190926001600160401b038411610167576040918251946020916102be838360051b01886101d8565b8287838152019160061b84019381851161011d57915b8483106102e357505050505050565b858383031261011d5783869182516102fa8161014c565b853561030581610278565b815282860135838201528152019201916102d4565b9080601f8301121561011d5781602061027593359101610294565b91909160a08184031261011d5761034a6101f9565b926001600160401b03823581811161011d578261036891850161025a565b8552602083013581811161011d578261038291850161025a565b6020860152604083013581811161011d578261039f91850161031a565b60408601526103b060608401610289565b6060860152608083013590811161011d576103cb920161025a565b6080830152565b908160a091031261011d5790565b919082519283825260005b84811061040c575050826000602080949584010152601f8019910116010190565b6020818301810151848301820152016103eb565b93929161043f90604092151586526060602087015260608601906103e0565b930152565b3461011d57608036600319011261011d576001600160401b0360043581811161011d576104759036906004016103d2565b60243561ffff8116810361011d576064359061049082610278565b60a08336031261011d576104a26101f9565b90833582526104b360208501610122565b6020830152604084013585811161011d576104d1903690860161025a565b6040830152606084013585811161011d576104ef903690860161025a565b6060830152608084013594851161011d57610513610521946105309636910161031a565b608083015260443591610b03565b60409391935193849384610420565b0390f35b9081602091031261011d573590565b3461011d57602036600319011261011d57600435600055005b3461011d57604036600319011261011d57610575610107565b50610581602435610278565b602060405160018152f35b60408060031936011261011d576105a1610107565b50602435906001600160401b03821161011d576105c3600492369084016103d2565b916105ce8380610b99565b60209150601f190161080e576105ef6105e78580610b99565b810190610534565b6001600160a01b03908181118015610804575b6107dd576106103687610335565b50600054606087018361062282610bfd565b166107aa5750341061079a575b169161063e6080860186610b99565b61064791610df1565b51908451948386018661065a8983610c8b565b0396601f1997888101825261066f90826101d8565b519020815133868201908152909791929190889060200103908101885261069690886101d8565b6106a288860189610b99565b89830195916106b1878c610d60565b9190926106bc6101f9565b87815267de41ba4fc9d91ad98b8201529b868d015236906106dc92610223565b60608b015236906106ec92610294565b608089015260005b6106fe868b610d60565b905081101561075e57806107548b8a8a61074a8561072d8d6107446107386107336107599c61072d858c610d60565b90610dba565b610bfd565b6001600160a01b031690565b96610d60565b0135913390610fb1565b610d95565b6106f4565b508661076a91896109db565b5093901561077c578151838152602090f35b6107968492519283926302a35ba360e21b84528301610de0565b0390fd5b84516303ed377360e11b81528490fd5b346107cd57906107bf6107386107c893610bfd565b30903390610fb1565b61062f565b8651631841b4e160e01b81528690fd5b5050506107966107ed8480610b99565b90935193849363370d875f60e01b85528401610bec565b50600a8110610602565b506107966107ed8480610b99565b3461011d57602036600319011261011d57610835610107565b50602060405160018152f35b3461011d57602036600319011261011d5761085a610107565b50602060405163499602d28152f35b3461011d57600036600319011261011d57602060405162030d408152f35b3461011d57600036600319011261011d5760206040516113888152f35b3461011d5760208060031936011261011d576108be610107565b50604051906108cc8261016c565b600082526040519181839283018184528251809152816040850193019160005b8281106108fb57505050500390f35b83516001600160a01b0316855286955093810193928101926001016108ec565b604051906109288261016c565b60008252565b906020908183528051828401526001600160401b03828201511691604092838501526109688383015160a0606087015260c08601906103e0565b9360a06080610988606086015197601f19988986830301848701526103e0565b94015195828503019101528080855193848152019401926000905b8382106109b257505050505090565b845180516001600160a01b031687528301518684015294850194938201936001909101906109a3565b92909192833b158015610aed575b610ad8577f9b877de93ea9895756e337442c657f95a34fc68e7eb988bdfa693d5be83016b6610ad091610a4d6040519560208701976385572ffb60e01b8952610a4788610a39866024830161092e565b03601f1981018a52896101d8565b87610ea0565b96919490977fa8b0355886b5b7a28bb97e4f0a24feb172618407402721c4012d8b7c6433102f60405180610a838b8d8b84610420565b0390a1610a9c602085519501516001600160401b031690565b92519020604080519485526001600160401b0390931660208501523392840192909252606083019190915281906080820190565b0390a1929190565b50915050600190610ae761091b565b90600090565b50610afe610afa8561119e565b1590565b6109e9565b9093919293843b158015610b87575b610b7757610ad091610a4d7f9b877de93ea9895756e337442c657f95a34fc68e7eb988bdfa693d5be83016b6926040519660208801986385572ffb60e01b8a52610b7189610b63876024830161092e565b03601f1981018b528a6101d8565b88610f4b565b5050915050600190610ae761091b565b50610b94610afa8661119e565b610b12565b903590601e198136030182121561011d57018035906001600160401b03821161011d5760200191813603831361011d57565b908060209392818452848401376000828201840152601f01601f1916010190565b916020610275938181520191610bcb565b3561027581610278565b9035601e198236030181121561011d5701602081359101916001600160401b03821161011d57813603831361011d57565b9190808252602080920192916000905b828210610c56575050505090565b909192936001908535610c6881610278565b828060a01b03168152828601358382015260408091019501920190929192610c48565b9060208252610cae610c9d8280610c07565b60a0602086015260c0850191610bcb565b610cd2610cbe6020840184610c07565b601f19868503810160408801529391610bcb565b906040830135601e198436030181121561011d57830193602085359501946001600160401b03811161011d578060061b3603861361011d57610d2784610d519261027598868660a09903016060870152610c38565b94610d47610d3760608301610289565b6001600160a01b03166080850152565b6080810190610c07565b93909282860301910152610bcb565b903590601e198136030182121561011d57018035906001600160401b03821161011d57602001918160061b3603831361011d57565b6000198114610da45760010190565b634e487b7160e01b600052601160045260246000fd5b9190811015610dca5760061b0190565b634e487b7160e01b600052603260045260246000fd5b9060206102759281815201906103e0565b9060405190610dff8261016c565b60008092528015610e885782356001600160e01b03198181169160048410610e73575b5016636859a83760e01b01610e61578060041161010057602090830183900360031901126101045750600460405191610e5a8361016c565b0135815290565b604051632923fee760e11b8152600490fd5b818093508460040360031b1b16169038610e22565b505050604051610e978161016c565b62030d40815290565b929060405193610eaf856101bd565b60848552602085019360a0368637823b15610f3a575a6113888110610f29576113871980820160061c90910301811015610f18576000918291825a9560208451940192f1905a9003923d9060848211610f0f575b6000908287523e929190565b60849150610f03565b6337c3be2960e01b60005260046000fd5b632be8ca8b60e21b60005260046000fd5b63030ed58f60e21b60005260046000fd5b6040519492610f59866101bd565b60848652602086019460a0368737833b15610f3a575a90808210610f29578291038060061c90031115610f18576000918291825a9560208451940192f1905a9003923d9060848211610f0f576000908287523e929190565b906000806110619460405194602097888701956323b872dd60e01b875260018060a01b03938480921660248a0152166044880152606487015260648652610ff786610187565b1692604051946110068661014c565b8786527f5361666545524332303a206c6f772d6c6576656c2063616c6c206661696c656488870152519082855af13d15611086573d9161104583610208565b9261105360405194856101d8565b83523d60008785013e611105565b8051908161106e57505050565b826102069361108193830101910161108e565b6110a6565b606091611105565b9081602091031261011d5751801515810361011d5790565b156110ad57565b60405162461bcd60e51b815260206004820152602a60248201527f5361666545524332303a204552433230206f7065726174696f6e20646964206e6044820152691bdd081cdd58d8d9595960b21b6064820152608490fd5b919290156111675750815115611119575090565b3b156111225790565b60405162461bcd60e51b815260206004820152601d60248201527f416464726573733a2063616c6c20746f206e6f6e2d636f6e74726163740000006044820152606490fd5b82519091501561117a5750805190602001fd5b60405162461bcd60e51b8152602060048201529081906107969060248301906103e0565b6040519060208083018160006301ffc9a760e01b95868452866024820152602481526111c9816101a2565b51617530938685fa933d600051908661126e575b5085611264575b5084611201575b505050816111f7575090565b6102759150611279565b83945090600091839460405185810192835263ffffffff60e01b60248201526024815261122d816101a2565b5192fa60005190913d83611259575b50508161124f575b5015903880806111eb565b9050151538611244565b10159150388061123c565b15159450386111e4565b8411159550386111dd565b6000602091604051838101906301ffc9a760e01b82526385572ffb60e01b6024820152602481526112a9816101a2565b5191617530fa6000513d826112ca575b50816112c3575090565b9050151590565b602011159150386112b956fea2646970667358221220ba9f368b9d58fdf65c0d5e7aabfcbf3b5cbb4bfe74c1ede2b93ea736d20cbe0464736f6c63430008130033","linkReferences":{}},"methodIdentifiers":{"DEFAULT_GAS_LIMIT()":"d6be695a","GAS_FOR_CALL_EXACT_CHECK()":"ee18e0d3","ccipSend(uint64,(bytes,bytes,(address,uint256)[],address,bytes))":"96f4e9f9","getFee(uint64,(bytes,bytes,(address,uint256)[],address,bytes))":"20487ded","getOnRamp(uint64)":"a8d87a3b","getSupportedTokens(uint64)":"fbca3b74","isChainSupported(uint64)":"a48a9058","isOffRamp(uint64,address)":"83826b2b","routeMessage((bytes32,uint64,bytes,bytes,(address,uint256)[]),uint16,uint256,address)":"3cf97983","setFee(uint256)":"69fe0e2d"},"id":7}