{"abi":[{"type":"constructor","inputs":[],"stateMutability":"nonpayable"},{"type":"function","name":"getNetworkDetails","inputs":[{"name":"chainId","type":"uint256","internalType":"uint256"}],"outputs":[{"name":"","type":"tuple","internalType":"struct Register.NetworkDetails","components":[{"name":"chainSelector","type":"uint64","internalType":"uint64"},{"name":"routerAddress","type":"address","internalType":"address"},{"name":"linkAddress","type":"address","internalType":"address"},{"name":"wrappedNativeAddress","type":"address","internalType":"address"},{"name":"ccipBnMAddress","type":"address","internalType":"address"},{"name":"ccipLnMAddress","type":"address","internalType":"address"}]}],"stateMutability":"view"},{"type":"function","name":"setNetworkDetails","inputs":[{"name":"chainId","type":"uint256","internalType":"uint256"},{"name":"networkDetails","type":"tuple","internalType":"struct Register.NetworkDetails","components":[{"name":"chainSelector","type":"uint64","internalType":"uint64"},{"name":"routerAddress","type":"address","internalType":"address"},{"name":"linkAddress","type":"address","internalType":"address"},{"name":"wrappedNativeAddress","type":"address","internalType":"address"},{"name":"ccipBnMAddress","type":"address","internalType":"address"},{"name":"ccipLnMAddress","type":"address","internalType":"address"}]}],"outputs":[],"stateMutability":"nonpayable"}],"bytecode":{"object":"0x60806040523461125a5761001161125f565b67de41ba4fc9d91ad98152730bf3de8c5d3e8a2b34d2beeb17abfcebaf363a59602080830191825273779877a7b0d9e8603169ddbd7836e478b4624789604080850191825273097d90c9d3e0b50ca60e1ae45f6a81010f9fb5346060860190815273fd57b4ddbf88a4e07ff4e34c487b99af2fe82a056080870190815273466d489b6d36e7e3b824ef491c225f5830e81cc160a0880190815262aa36a7600090815290955295517ff0e94d3b55389b66f693bf6a4ae0eec46a1e61342c9efeaa96ba6ada1d555ca2805496516001600160e01b03199097166001600160401b0392909216919091179590921b600160401b600160e01b0316949094179055517ff0e94d3b55389b66f693bf6a4ae0eec46a1e61342c9efeaa96ba6ada1d555ca380546001600160a01b03199081166001600160a01b039384161790915592517ff0e94d3b55389b66f693bf6a4ae0eec46a1e61342c9efeaa96ba6ada1d555ca48054851691831691909117905592517ff0e94d3b55389b66f693bf6a4ae0eec46a1e61342c9efeaa96ba6ada1d555ca580548416918516919091179055517ff0e94d3b55389b66f693bf6a4ae0eec46a1e61342c9efeaa96ba6ada1d555ca6805490921692169190911790556101e561125f565b6748810ec3e431431f815273114a20a10b43d4115e5aeef7345a1a71d2a60c57602080830191825273e4ab69c077896252fafbd49efd26b5d171a32410604080850191825273420000000000000000000000000000000000000660608601908152738af4204e30565df93352fe8e1de78925f6664da76080870190815273044a6b4b561af69d2319a2f4be5ec327a6975d0a60a0880190815262aa37dc600090815290955295517fe6c24325ceff3dbca3f8ca0376fd02e125a0b76ea472615a480da835294d6c71805496516001600160e01b03199097166001600160401b0392909216919091179590921b600160401b600160e01b0316949094179055517fe6c24325ceff3dbca3f8ca0376fd02e125a0b76ea472615a480da835294d6c7280546001600160a01b03199081166001600160a01b039384161790915592517fe6c24325ceff3dbca3f8ca0376fd02e125a0b76ea472615a480da835294d6c738054851691831691909117905592517fe6c24325ceff3dbca3f8ca0376fd02e125a0b76ea472615a480da835294d6c7480548416918516919091179055517fe6c24325ceff3dbca3f8ca0376fd02e125a0b76ea472615a480da835294d6c75805490921692169190911790556103b961125f565b67adecc60412ce25a58152731035cabc275068e0f4b745a29cedf38e13af41b1602080830191825273326c977e6efc84e512bb9c30f76e30c160ed06fb6040808501918252739c3c9283d3e44854697cd22d3faa240cfb0328896060860190815273f1e3a5842eeef51f2967b3f05d45dd4f4205ff406080870190815273c1c76a8c5bfde1be034bbcd930c668726e7c198760a0880190815262013881600090815290955295517f7bec5570ec3a0d818ba2ac8cec49a4b810dd63f3f44526b48d54cbef17dbf27b805496516001600160e01b03199097166001600160401b0392909216919091179590921b600160401b600160e01b0316949094179055517f7bec5570ec3a0d818ba2ac8cec49a4b810dd63f3f44526b48d54cbef17dbf27c80546001600160a01b03199081166001600160a01b039384161790915592517f7bec5570ec3a0d818ba2ac8cec49a4b810dd63f3f44526b48d54cbef17dbf27d8054851691831691909117905592517f7bec5570ec3a0d818ba2ac8cec49a4b810dd63f3f44526b48d54cbef17dbf27e80548416918516919091179055517f7bec5570ec3a0d818ba2ac8cec49a4b810dd63f3f44526b48d54cbef17dbf27f8054909216921691909117905561058d61125f565b67ccf0a31a221f3c9b815273f694e193200268f9a4868e4aa017a0118c9a81776020808301918252730b9d5d9136855f6fec3c0993fee6e9ce8a297846604080850191825273d00ae08403b9bbb9124bb305c09058e32c39a48c6060860190815273d21341536c5cf5eb1bcb58f6723ce26e8d8e90e4608087019081527370f5c5c40b873ea597776da2c21929a8282a3b3560a0880190815261a869600090815290955295517f87d59864ba1327a8e4317f20b859a33d394f374a576a795c55e7392317489642805496516001600160e01b03199097166001600160401b0392909216919091179590921b600160401b600160e01b0316949094179055517f87d59864ba1327a8e4317f20b859a33d394f374a576a795c55e739231748964380546001600160a01b03199081166001600160a01b039384161790915592517f87d59864ba1327a8e4317f20b859a33d394f374a576a795c55e73923174896448054851691831691909117905592517f87d59864ba1327a8e4317f20b859a33d394f374a576a795c55e739231748964580548416918516919091179055517f87d59864ba1327a8e4317f20b859a33d394f374a576a795c55e73923174896468054909216921691909117905561076061125f565b67b8159170038f96fb815273e1053ae1857476f36a3c62580ff9b016e8ee8f6f60208083019182527384b9b910527ad5c03a9ca831909e21e236ea7b06604080850191825273ae13d989dac2f0debff460ac112a837c89baa7cd6060860190815273bfa2acd33ed6eec0ed3cc06bf1ac38d22b36b9e9608087019081527379a4fc27f69323660f5bfc12dee21c3cc14f590160a088019081526061600090815290955295517fd376c0dc9e6a0a44867c5e1fefd6ecef82bbd522b0a13a792fef5100445ee323805496516001600160e01b03199097166001600160401b0392909216919091179590921b600160401b600160e01b0316949094179055517fd376c0dc9e6a0a44867c5e1fefd6ecef82bbd522b0a13a792fef5100445ee32480546001600160a01b03199081166001600160a01b039384161790915592517fd376c0dc9e6a0a44867c5e1fefd6ecef82bbd522b0a13a792fef5100445ee3258054851691831691909117905592517fd376c0dc9e6a0a44867c5e1fefd6ecef82bbd522b0a13a792fef5100445ee32680548416918516919091179055517fd376c0dc9e6a0a44867c5e1fefd6ecef82bbd522b0a13a792fef5100445ee3278054909216921691909117905561093261125f565b67304611b6affba76a8152732a9c5afb0d0e4bab2bcdae109ec4b0c4be15a165602080830191825273b1d4538b4571d411f07960ef2838ce337fe1e80e604080850191825273e591bf0a0cf924a0674d7792db046b23cebf5f346060860190815273a8c0c11bf64af62cdca6f93d3769b88bdd7cb93d6080870190815273139e99f0ab4084e14e6bb7daca289a91a2d9292760a0880190815262066eee600090815290955295517f066621a05927b604385ee46fd7d10ec678ba00697503032f09bed59d83722bd6805496516001600160e01b03199097166001600160401b0392909216919091179590921b600160401b600160e01b0316949094179055517f066621a05927b604385ee46fd7d10ec678ba00697503032f09bed59d83722bd780546001600160a01b03199081166001600160a01b039384161790915592517f066621a05927b604385ee46fd7d10ec678ba00697503032f09bed59d83722bd88054851691831691909117905592517f066621a05927b604385ee46fd7d10ec678ba00697503032f09bed59d83722bd980548416918516919091179055517f066621a05927b604385ee46fd7d10ec678ba00697503032f09bed59d83722bda80549092169216919091179055610b0661125f565b678f90b8876dee6538815273d3b06cebf099ce7da4accf578aaebfdbd6e88a93602080830191825273e4ab69c077896252fafbd49efd26b5d171a324106040808501918252734200000000000000000000000000000000000006606086019081527388a2d74f47a237a62e7a51cdda67270ce381555e6080870190815273a98fa8a008371b9408195e52734b1768c0d1cb5c60a0880190815262014a34600090815290955295517f533dd6bef96ee313c941b50d2e963b8f6457fb1fd623b2f4f3e4f590e82b1ca9805496516001600160e01b03199097166001600160401b0392909216919091179590921b600160401b600160e01b0316949094179055517f533dd6bef96ee313c941b50d2e963b8f6457fb1fd623b2f4f3e4f590e82b1caa80546001600160a01b03199081166001600160a01b039384161790915592517f533dd6bef96ee313c941b50d2e963b8f6457fb1fd623b2f4f3e4f590e82b1cab8054851691831691909117905592517f533dd6bef96ee313c941b50d2e963b8f6457fb1fd623b2f4f3e4f590e82b1cac80548416918516919091179055517f533dd6bef96ee313c941b50d2e963b8f6457fb1fd623b2f4f3e4f590e82b1cad80549092169216919091179055610cda61125f565b6780d9a45f8eaddf5b815273a8c0c11bf64af62cdca6f93d3769b88bdd7cb93d6020808301918252733580c7a817ccd41f7e02143bfa411d4eeae78093604080850191825273be3686643c05f00ec46e73da594c78098f7a9ae76060860190815273f4e4057fbbc86915f4b2d63eeffe641c03294ffc6080870190815273cb342ae3d65e3fedf8f912b0432e2b8f88514d5d60a08801908152610458600090815290955295517f1e7af0e69f4de7e49178ecdeae34a32445cfbc63c12b6fa0ced500453d62ae63805496516001600160e01b03199097166001600160401b0392909216919091179590921b600160401b600160e01b0316949094179055517f1e7af0e69f4de7e49178ecdeae34a32445cfbc63c12b6fa0ced500453d62ae6480546001600160a01b03199081166001600160a01b039384161790915592517f1e7af0e69f4de7e49178ecdeae34a32445cfbc63c12b6fa0ced500453d62ae658054851691831691909117905592517f1e7af0e69f4de7e49178ecdeae34a32445cfbc63c12b6fa0ced500453d62ae6680548416918516919091179055517f1e7af0e69f4de7e49178ecdeae34a32445cfbc63c12b6fa0ced500453d62ae6780549092169216919091179055610ead61125f565b6753227352338ed8a6815273a8c0c11bf64af62cdca6f93d3769b88bdd7cb93d602080830191825273a75cca5b404ec6f4bb6ec4853d177fe7057085c8604080850191825273420000000000000000000000000000000000000160608601908152736ac3e353d1ddda24d5a5416024d6e436b8817a4e6080870190815273835fcbb6770e1246cfcf52f83cdcec3177d0bb6b60a08801908152610936600090815290955295517f5b22d254417b401779a6c7cbebcfac4a6e2cbf745285cbd8e3c48e42550bd280805496516001600160e01b03199097166001600160401b0392909216919091179590921b600160401b600160e01b0316949094179055517f5b22d254417b401779a6c7cbebcfac4a6e2cbf745285cbd8e3c48e42550bd28180546001600160a01b03199081166001600160a01b039384161790915592517f5b22d254417b401779a6c7cbebcfac4a6e2cbf745285cbd8e3c48e42550bd2828054851691831691909117905592517f5b22d254417b401779a6c7cbebcfac4a6e2cbf745285cbd8e3c48e42550bd28380548416918516919091179055517f5b22d254417b401779a6c7cbebcfac4a6e2cbf745285cbd8e3c48e42550bd2848054909216921691909117905561108061125f565b677b1e3d29ba0098b381527319b1bac554111517831acadc0fd119d23bb14391602080830191825273dca67fd8324990792c0bfae95903b8a64097754f60408085019182527318c8a7ec7897177e4529065a7e7b0878358b3bff6060860190815273a189971a2c5aca0dfc5ee7a2c44a2ae27b3cf389608087019081527330decd269277b8094c00b0bacc3acaf3ff4da7fb60a088019081526127d8600090815290955295517fdace3ed6d8bd0cd04e3601ebbf6968bd7c090272dff68e677c50c3b490e7bbd3805496516001600160e01b03199097166001600160401b03929092169190911795831b600160401b600160e01b03169590951790945590517fdace3ed6d8bd0cd04e3601ebbf6968bd7c090272dff68e677c50c3b490e7bbd480546001600160a01b03199081166001600160a01b039384161790915593517fdace3ed6d8bd0cd04e3601ebbf6968bd7c090272dff68e677c50c3b490e7bbd58054861691831691909117905593517fdace3ed6d8bd0cd04e3601ebbf6968bd7c090272dff68e677c50c3b490e7bbd68054851691861691909117905590517fdace3ed6d8bd0cd04e3601ebbf6968bd7c090272dff68e677c50c3b490e7bbd780549093169316929092179055516102c790816112958239f35b600080fd5b6040519060c082016001600160401b0381118382101761127e57604052565b634e487b7160e01b600052604160045260246000fdfe604060808152600436101561001357600080fd5b600090813560e01c80630120615c1461017f57634b761f0f1461003557600080fd5b3461017b5760e036600319011261017b5760c036602319011261017b5761005a61025b565b67ffffffffffffffff91906024358381168103610177578152604435926001600160a01b03918285168503610173576020810194855260643593838516850361016f57808201948552608435848116810361016b576060830190815260a435918583168303610167576080840192835260c4359786891689036101635760049560a08601998a5286358b528a602052828b209551169085549268010000000000000000600160e01b039151901b169163ffffffff60e01b16171783558460018401965116956bffffffffffffffffffffffff60a01b9687825416179055846002840191511686825416179055836003830191511685825416179055019251169082541617905580f35b8980fd5b8880fd5b8780fd5b8680fd5b8580fd5b8480fd5b5080fd5b503461017b57602036600319011261017b57808260c09360a06101a061025b565b82815282602082015282858201528260608201528260808201520152600435815280602052206101ce61025b565b8154928167ffffffffffffffff85169485825260018060a01b03948593848093816020870191841c16815281806001860154169184880192835260a08260048160028a0154169860608c01998a526080836003830154169c019b8c520154169a01998a5284519b8c52511660208b01525116908801525116606086015251166080840152511660a0820152f35b6040519060c0820182811067ffffffffffffffff82111761027b57604052565b634e487b7160e01b600052604160045260246000fdfea26469706673582212208c93a77ca5e933569fa8f0dbcdfc76fd0711182fd8c79fc729fcea44132a17b264736f6c63430008180033","linkReferences":{}},"methodIdentifiers":{"getNetworkDetails(uint256)":"0120615c","setNetworkDetails(uint256,(uint64,address,address,address,address,address))":"4b761f0f"},"id":32}