{"abi":[{"type":"constructor","inputs":[{"name":"_router","type":"address","internalType":"address"},{"name":"gasLimit","type":"uint256","internalType":"uint256"}],"stateMutability":"nonpayable"},{"type":"receive","stateMutability":"payable"},{"type":"function","name":"acceptOwnership","inputs":[],"outputs":[],"stateMutability":"nonpayable"},{"type":"function","name":"addressToString","inputs":[{"name":"_address","type":"address","internalType":"address"}],"outputs":[{"name":"","type":"string","internalType":"string"}],"stateMutability":"pure"},{"type":"function","name":"allowlistDestinationChain","inputs":[{"name":"_destinationChainSelector","type":"uint64","internalType":"uint64"},{"name":"allowed","type":"bool","internalType":"bool"}],"outputs":[],"stateMutability":"nonpayable"},{"type":"function","name":"allowlistSender","inputs":[{"name":"_sender","type":"address","internalType":"address"},{"name":"allowed","type":"bool","internalType":"bool"}],"outputs":[],"stateMutability":"nonpayable"},{"type":"function","name":"allowlistSourceChain","inputs":[{"name":"_sourceChainSelector","type":"uint64","internalType":"uint64"},{"name":"allowed","type":"bool","internalType":"bool"}],"outputs":[],"stateMutability":"nonpayable"},{"type":"function","name":"allowlistedDestinationChains","inputs":[{"name":"","type":"uint64","internalType":"uint64"}],"outputs":[{"name":"","type":"bool","internalType":"bool"}],"stateMutability":"view"},{"type":"function","name":"allowlistedSenders","inputs":[{"name":"","type":"address","internalType":"address"}],"outputs":[{"name":"","type":"bool","internalType":"bool"}],"stateMutability":"view"},{"type":"function","name":"allowlistedSourceChains","inputs":[{"name":"","type":"uint64","internalType":"uint64"}],"outputs":[{"name":"","type":"bool","internalType":"bool"}],"stateMutability":"view"},{"type":"function","name":"asciiToUint","inputs":[{"name":"_asciiString","type":"string","internalType":"string"}],"outputs":[{"name":"","type":"uint256","internalType":"uint256"}],"stateMutability":"pure"},{"type":"function","name":"ccipReceive","inputs":[{"name":"message","type":"tuple","internalType":"struct Client.Any2EVMMessage","components":[{"name":"messageId","type":"bytes32","internalType":"bytes32"},{"name":"sourceChainSelector","type":"uint64","internalType":"uint64"},{"name":"sender","type":"bytes","internalType":"bytes"},{"name":"data","type":"bytes","internalType":"bytes"},{"name":"destTokenAmounts","type":"tuple[]","internalType":"struct Client.EVMTokenAmount[]","components":[{"name":"token","type":"address","internalType":"address"},{"name":"amount","type":"uint256","internalType":"uint256"}]}]}],"outputs":[],"stateMutability":"nonpayable"},{"type":"function","name":"createMessageStr","inputs":[{"name":"tokenId","type":"uint256","internalType":"uint256"},{"name":"nftOwner","type":"address","internalType":"address"},{"name":"senderContractAdd","type":"address","internalType":"address"},{"name":"receiverContractAdd","type":"address","internalType":"address"},{"name":"msgType","type":"string","internalType":"string"},{"name":"stats","type":"uint8[]","internalType":"uint8[]"}],"outputs":[{"name":"","type":"string","internalType":"string"}],"stateMutability":"pure"},{"type":"function","name":"getFeeNative","inputs":[{"name":"destinationChainSelector","type":"uint64","internalType":"uint64"},{"name":"receiver","type":"address","internalType":"address"},{"name":"_text","type":"string","internalType":"string"}],"outputs":[{"name":"fees","type":"uint256","internalType":"uint256"}],"stateMutability":"view"},{"type":"function","name":"getLastReceivedMessageDetails","inputs":[],"outputs":[{"name":"messageId","type":"bytes32","internalType":"bytes32"},{"name":"text","type":"string","internalType":"string"}],"stateMutability":"view"},{"type":"function","name":"getRouter","inputs":[],"outputs":[{"name":"","type":"address","internalType":"address"}],"stateMutability":"view"},{"type":"function","name":"nftContract","inputs":[],"outputs":[{"name":"","type":"address","internalType":"contract IRPGItemNFT"}],"stateMutability":"view"},{"type":"function","name":"owner","inputs":[],"outputs":[{"name":"","type":"address","internalType":"address"}],"stateMutability":"view"},{"type":"function","name":"readMessageStr","inputs":[{"name":"_str","type":"string","internalType":"string"}],"outputs":[{"name":"messageParts","type":"string[]","internalType":"string[]"}],"stateMutability":"pure"},{"type":"function","name":"sendAcknowledgement","inputs":[{"name":"_destinationChainSelector","type":"uint64","internalType":"uint64"},{"name":"_receiver","type":"address","internalType":"address"},{"name":"_text","type":"string","internalType":"string"}],"outputs":[{"name":"messageId","type":"bytes32","internalType":"bytes32"}],"stateMutability":"nonpayable"},{"type":"function","name":"sendMessage","inputs":[{"name":"_destinationChainSelector","type":"uint64","internalType":"uint64"},{"name":"_receiver","type":"address","internalType":"address"},{"name":"_text","type":"string","internalType":"string"}],"outputs":[{"name":"messageId","type":"bytes32","internalType":"bytes32"}],"stateMutability":"payable"},{"type":"function","name":"setGasLimit","inputs":[{"name":"_limit","type":"uint256","internalType":"uint256"}],"outputs":[],"stateMutability":"nonpayable"},{"type":"function","name":"stringToAddress","inputs":[{"name":"_string","type":"string","internalType":"string"}],"outputs":[{"name":"","type":"address","internalType":"address"}],"stateMutability":"pure"},{"type":"function","name":"supportsInterface","inputs":[{"name":"interfaceId","type":"bytes4","internalType":"bytes4"}],"outputs":[{"name":"","type":"bool","internalType":"bool"}],"stateMutability":"view"},{"type":"function","name":"transferNft","inputs":[{"name":"_tokenId","type":"uint256","internalType":"uint256"},{"name":"senderNftContractAddress","type":"address","internalType":"address"},{"name":"destinationNftContractAddress","type":"address","internalType":"address"},{"name":"destinationChainId","type":"uint64","internalType":"uint64"},{"name":"_receiver","type":"address","internalType":"address"}],"outputs":[],"stateMutability":"payable"},{"type":"function","name":"transferOwnership","inputs":[{"name":"to","type":"address","internalType":"address"}],"outputs":[],"stateMutability":"nonpayable"},{"type":"function","name":"uintToASCII","inputs":[{"name":"_number","type":"uint256","internalType":"uint256"}],"outputs":[{"name":"","type":"string","internalType":"string"}],"stateMutability":"pure"},{"type":"function","name":"withdraw","inputs":[{"name":"_beneficiary","type":"address","internalType":"address"}],"outputs":[],"stateMutability":"nonpayable"},{"type":"function","name":"withdrawToken","inputs":[{"name":"_beneficiary","type":"address","internalType":"address"},{"name":"_token","type":"address","internalType":"address"}],"outputs":[],"stateMutability":"nonpayable"},{"type":"event","name":"MessageReceived","inputs":[{"name":"messageId","type":"bytes32","indexed":true,"internalType":"bytes32"},{"name":"sourceChainSelector","type":"uint64","indexed":true,"internalType":"uint64"},{"name":"sender","type":"address","indexed":false,"internalType":"address"},{"name":"text","type":"string","indexed":false,"internalType":"string"}],"anonymous":false},{"type":"event","name":"MessageSent","inputs":[{"name":"messageId","type":"bytes32","indexed":true,"internalType":"bytes32"},{"name":"destinationChainSelector","type":"uint64","indexed":true,"internalType":"uint64"},{"name":"receiver","type":"address","indexed":false,"internalType":"address"},{"name":"text","type":"string","indexed":false,"internalType":"string"},{"name":"feeToken","type":"address","indexed":false,"internalType":"address"},{"name":"fees","type":"uint256","indexed":false,"internalType":"uint256"}],"anonymous":false},{"type":"event","name":"OwnershipTransferRequested","inputs":[{"name":"from","type":"address","indexed":true,"internalType":"address"},{"name":"to","type":"address","indexed":true,"internalType":"address"}],"anonymous":false},{"type":"event","name":"OwnershipTransferred","inputs":[{"name":"from","type":"address","indexed":true,"internalType":"address"},{"name":"to","type":"address","indexed":true,"internalType":"address"}],"anonymous":false},{"type":"error","name":"DestinationChainNotAllowlisted","inputs":[{"name":"destinationChainSelector","type":"uint64","internalType":"uint64"}]},{"type":"error","name":"FailedToWithdrawEth","inputs":[{"name":"owner","type":"address","internalType":"address"},{"name":"target","type":"address","internalType":"address"},{"name":"value","type":"uint256","internalType":"uint256"}]},{"type":"error","name":"InvalidReceiverAddress","inputs":[]},{"type":"error","name":"InvalidRouter","inputs":[{"name":"router","type":"address","internalType":"address"}]},{"type":"error","name":"NotEnoughBalance","inputs":[{"name":"currentBalance","type":"uint256","internalType":"uint256"},{"name":"calculatedFees","type":"uint256","internalType":"uint256"}]},{"type":"error","name":"NothingToWithdraw","inputs":[]},{"type":"error","name":"SenderNotAllowlisted","inputs":[{"name":"sender","type":"address","internalType":"address"}]},{"type":"error","name":"SourceChainNotAllowlisted","inputs":[{"name":"sourceChainSelector","type":"uint64","internalType":"uint64"}]}],"bytecode":{"object":"0x60a034620000fe57601f62002bf538819003918201601f19168301916001600160401b0383118484101762000103578084926040948552833981010312620000fe5780516001600160a01b03811691828203620000fe57602001519115620000e5576080523315620000a057600080546001600160a01b03191633179055600255604051612adb90816200011a82396080518181816103b001526108cf0152f35b60405162461bcd60e51b815260206004820152601860248201527f43616e6e6f7420736574206f776e657220746f207a65726f00000000000000006044820152606490fd5b6040516335fdcccd60e21b815260006004820152602490fd5b600080fd5b634e487b7160e01b600052604160045260246000fdfe608080604052600436101561001d575b50361561001b57600080fd5b005b600090813560e01c90816301ffc9a714611d8d575080630a88e1a9146119575780630eb5ad45146117e057806311388b97146116fa57806315706fdf146116ad578063263596a5146115d15780633aeac4e1146114dd5780634030d521146114a057806351cff8d9146113f55780635e57966d146113c75780636159ada11461138857806375c67c661461134b57806379ba5097146112a7578063836c74191461128757806385572ffb1461089b5780638da5cb5b1461087457806394f3a2041461083157806396d3b83d146107de578063a74329d5146104de578063aac1efda146103df578063b0f479a11461039a578063d56d229d14610371578063db04fa491461031e578063eab5b02c146102c9578063ee7d72b4146102a6578063f2fde38b146101f05763f7bfc50c0361000f57346101ed576020806003193601126101e9576004356001600160401b0381116101e55761018961018484923690600401611f59565b6124a5565b60405191838301848452825180915260408401948060408360051b870101940192955b8287106101b95785850386f35b9091929382806101d5600193603f198a82030186528851611fc3565b96019201960195929190926101ac565b8280fd5b5080fd5b80fd5b50346101ed5760203660031901126101ed5761020a611e0e565b610212612707565b6001600160a01b039081169033821461026157600180546001600160a01b031916831790558254167fed8889f560326eb138920d842192f0eb3dd22b4f139c87a2c57538e05bae12788380a380f35b60405162461bcd60e51b815260206004820152601760248201527f43616e6e6f74207472616e7366657220746f2073656c660000000000000000006044820152606490fd5b50346101ed5760203660031901126101ed576102c0612707565b60043560025580f35b50346101ed5760403660031901126101ed5761031b6102e6611e0e565b6102ee611fe8565b906102f7612707565b60018060a01b031683526008602052604083209060ff801983541691151516179055565b80f35b50346101ed5760403660031901126101ed5761031b61033b611e24565b6001600160401b0361034b611fe8565b91610354612707565b1683526007602052604083209060ff801983541691151516179055565b50346101ed57806003193601126101ed576003546040516001600160a01b039091168152602090f35b50346101ed57806003193601126101ed576040517f00000000000000000000000000000000000000000000000000000000000000006001600160a01b03168152602090f35b50346101ed5760c03660031901126101ed576103f9611de2565b90610402611df8565b606435906001600160a01b03821682036104d9576001600160401b03936084358581116104d557610437903690600401611f59565b9360a4359586116101ed57366023870112156101ed5785600401359561045c87611ff7565b9661046a6040519889611f1d565b808852602092602460208a019260051b840101923684116101e957602401915b8383106104bc576104b86104a48b8b8b8b8b6004356122b5565b604051918291602083526020830190611fc3565b0390f35b823560ff811681036101e557815291840191840161048a565b8480fd5b600080fd5b50346101ed5760603660031901126101ed576104f8611e24565b90610501611de2565b916001600160401b036044358181116107da57610522903690600401611f59565b908216918284526020936006855260ff604082205416156107c1576001600160a01b039586169182156107af5760405196838789015286885261056488611ee7565b604051878082015261058b8161057d6040820189611fc3565b03601f198101835282611f1d565b60405161059781611f02565b600081526105b5600254604051906105ae82611f02565b815261294c565b916040519a6105c38c611ecc565b8b52898b015260408a01528360608a0152608089015260405163b0f479a160e01b81528781600481305afa908115610777578491610782575b501696604051916320487ded60e01b835287838061061e8585600484016120d8565b03818c5afa928315610777578493610748575b50478311610729576040516396f4e9f960e01b815297988992899283918691839161065f91600484016120d8565b03925af195861561071e5782966106c9575b50918593917fd36445359b3c6e26c120659aef090ce0f2eb005cf9af450d11aa1225609b4f4d936106b3604051948594855260808b8601526080850190611fc3565b91604084015260608301520390a3604051908152f35b9290939195508683813d8311610717575b6106e48183611f1d565b810103126104d95791519490927fd36445359b3c6e26c120659aef090ce0f2eb005cf9af450d11aa1225609b4f4d610671565b503d6106da565b6040513d84823e3d90fd5b604051634787a10360e11b815247600482015260248101849052604490fd5b9092508781813d8311610770575b6107608183611f1d565b810103126104d957519138610631565b503d610756565b6040513d86823e3d90fd5b6107a29150883d8a116107a8575b61079a8183611f1d565b81019061200e565b386105fc565b503d610790565b60405163502ffa3f60e11b8152600490fd5b604051630a503cdb60e01b815260048101859052602490fd5b8380fd5b50346101ed5760403660031901126101ed5761031b6107fb611e24565b6001600160401b0361080b611fe8565b91610814612707565b1683526006602052604083209060ff801983541691151516179055565b50346101ed5760203660031901126101ed57600435906001600160401b0382116101ed57602061086c6108673660048601611f59565b612247565b604051908152f35b50346101ed57806003193601126101ed57546040516001600160a01b039091168152602090f35b50346101ed57600319906020368301126101ed57600435916001600160401b0383116101e95760a09083360301126101ed577f00000000000000000000000000000000000000000000000000000000000000006001600160a01b0316330361126f576040519161090a83611ecc565b8060040135835260248101356001600160401b03811681036104d957602084015260448101356001600160401b0381116101e55761094e9060043691840101611f59565b604084015260648101356001600160401b0381116101e5576109769060043691840101611f59565b60608401526084810135906001600160401b0382116101e55701366023820112156101e95760048101356109a981611ff7565b916109b76040519384611f1d565b8183526024602084019260061b820101903682116104d557602401915b81831061122a5750505060808301526001600160401b036020830151166040830151610a1060018060a01b03916020808251830101910161200e565b1690808352600760205260ff604084205416156112125750808252600860205260ff604083205416156111fa57508151600455610a5a6060830151602080825183010191016128cf565b9182516001600160401b0381116111e657610a766005546121fc565b601f8111611199575b506020601f821160011461112a5783948293949261111f575b50508160011b916000199060031b1c1916176005555b6040516000600554610abf816121fc565b80845290600181169081156110fb57506001146110ad575b509061018481610ae8930382611f1d565b610afa610af482612053565b51612247565b610b0c610b0683612060565b516121a7565b90610b28610b1984612070565b51610b226120b4565b90612992565b15610fde576001600160a01b03610b41610b0685612090565b166040516335ca3dd760e21b8152826004820152602081602481855afa908115610e9c578791610faf575b50610f5f575b835160051015610f495760ff610b8b60c0860151612247565b16845160061015610f495760ff610ba560e0870151612247565b1690855160071015610f495760ff610bc1610100880151612247565b1691865160081015610f4957889360ff610bdf6101208a0151612247565b169260405163620d1b0560e11b8152876004820152602081602481865afa908115610e9c578791610f2a575b506001600160a01b0316151580610eca575b610e0b575b813b15610e07578560c49281956040519788968795630fc785f160e31b87528c60048801528d60018060a01b0316602488015260448701526064860152608485015260a48401525af1801561071e57610df3575b505082610c94610b06610c8e610b06610cbc97612080565b92612090565b9060405193610ca285611ecc565b600485526080366020870137610cb661292d565b936122b5565b60206001600160401b038184015116610ce1604085015183808251830101910161200e565b60405163a74329d560e01b815260048101929092526001600160a01b03166024820152606060448201529182908190610d1e906064830190611fc3565b038186305af18015610de857610dbd575b505b80517fb1e312a29937cc11967b0e4a346fef1ae132424ebaba9dc6d90249dba053e87c6001600160401b0360208401511692610d916060610d7f60408401516020808251830101910161200e565b920151602080825183010191016128cf565b604080516001600160a01b039093168352602083018190528291610db791830190611fc3565b0390a380f35b602090813d8311610de1575b610dd38183611f1d565b810103126104d95738610d2f565b503d610dc9565b6040513d85823e3d90fd5b610dfc90611ea3565b6104d5578438610c76565b8580fd5b60405163620d1b0560e11b815260048101889052602081602481865afa908115610e9c578791610eab575b50823b15610ea7576040516323b872dd60e01b81526001600160a01b039182166004820152908916602482015260448101889052868160648183875af1908115610e9c578791610e88575b5050610c22565b610e9190611ea3565b610e07578538610e81565b6040513d89823e3d90fd5b8680fd5b610ec4915060203d6020116107a85761079a8183611f1d565b38610e36565b5060405163620d1b0560e11b815260048101889052602081602481865afa908115610e9c578791610f0b575b506001600160a01b0389811691161415610c1d565b610f24915060203d6020116107a85761079a8183611f1d565b38610ef6565b610f43915060203d6020116107a85761079a8183611f1d565b38610c0b565b634e487b7160e01b600052603260045260246000fd5b803b15610e0757856040516308bbefef60e01b8152836004820152816024820152818160448183875af1801561071e57610f9b575b5050610b72565b610fa490611ea3565b610e07578538610f94565b610fd1915060203d602011610fd7575b610fc98183611f1d565b81019061202d565b38610b6c565b503d610fbf565b5050610ff5610fec82612070565b51610b2261292d565b1561107157829061101d610af46001600160a01b03611016610b0685612080565b1692612053565b813b156101e55782916044839260405194859384926308bbefef60e01b8452600484015260001960248401525af1801561071e5761105d575b5050610d31565b61106690611ea3565b6101e9578138611056565b60405162461bcd60e51b8152602060048201526014602482015273556e6b6e6f776e206d657373616765207479706560601b6044820152606490fd5b9190506005600052600080516020612a86833981519152916000905b8082106110e157509091508101602001610184610ad7565b9192600181602092548385880101520191019092916110c9565b60ff191660208086019190915291151560051b840190910191506101849050610ad7565b015190503880610a98565b60058452600080516020612a8683398151915290601f198316855b81811061118157509583600195969710611168575b505050811b01600555610aae565b015160001960f88460031b161c1916905538808061115a565b9192602060018192868b015181550194019201611145565b60058452600080516020612a86833981519152601f830160051c8101602084106111df575b601f830160051c820181106111d4575050610a7f565b8581556001016111be565b50806111be565b634e487b7160e01b83526041600452602483fd5b602490604051906338c08ef960e11b82526004820152fd5b602490604051906326bfad9160e21b82526004820152fd5b6040833603126104d5576040519061124182611ee7565b8335906001600160a01b03821682036104d957826020926040945282860135838201528152019201916109d4565b6040516335fdcccd60e21b8152336004820152602490fd5b50346101ed5760203660031901126101ed576104b86104a460043561278b565b50346101ed57806003193601126101ed576001546001600160a01b03808216330361130d5782546001600160a01b03198082163390811786559316600155167f8be0079c531659141344cd1fd0a4f28419497f9722a3daafe3b4186f6b6457e08380a380f35b60405162461bcd60e51b815260206004820152601660248201527526bab9ba10313290383937b837b9b2b21037bbb732b960511b6044820152606490fd5b50346101ed5760203660031901126101ed5760ff60406020926001600160401b03611374611e24565b168152600684522054166040519015158152f35b50346101ed5760203660031901126101ed5760209060ff906040906001600160a01b036113b3611e0e565b168152600884522054166040519015158152f35b50346101ed5760203660031901126101ed576104b86104a46001600160a01b036113ef611e0e565b1661278b565b50346101ed5760203660031901126101ed5761140f611e0e565b611417612707565b4790811561148e578280808085855af13d15611489573d61143781611f3e565b906114456040519283611f1d565b81528460203d92013e5b15611458578280f35b604051639d11f56360e01b81523360048201526001600160a01b039190911660248201526044810191909152606490fd5b61144f565b604051630686827b60e51b8152600490fd5b50346101ed5760203660031901126101ed5760ff60406020926001600160401b036114c9611e24565b168152600784522054166040519015158152f35b50346101ed5760403660031901126101ed576114f7611e0e565b6114ff611de2565b611507612707565b6040516370a0823160e01b815230600482015260209290916001600160a01b039081168484602481845afa9384156115c6578694611597575b50831561148e57849286604492604051968795869463a9059cbb60e01b865216600485015260248401525af18015610de85761157a578280f35b8161159092903d10610fd757610fc98183611f1d565b5038808280f35b9093508481813d83116115bf575b6115af8183611f1d565b810103126104d957519238611540565b503d6115a5565b6040513d88823e3d90fd5b50346101ed57806003193601126101ed57600454604051600554916000916115f8846121fc565b8082526020809560019060018116908160001461168c5750600114611640575b50836104b88461162a81890382611f1d565b6040805194859485528401526040830190611fc3565b919094506005600052600080516020612a86833981519152916000925b8284106116795750505081019092019161162a846104b8611618565b805485850188015292860192810161165d565b60ff191683860152505090151560051b820101925061162a846104b8611618565b50346101ed5760203660031901126101ed57600435906001600160401b0382116101ed5760206116e86116e33660048601611f59565b6121a7565b6040516001600160a01b039091168152f35b50346101ed5761171a9061170d36611e3a565b9060029593955492612648565b60405163b0f479a160e01b81526020938482600481305afa91821561077757916117659391869386926117c1575b506040518095819482936320487ded60e01b8452600484016120d8565b03916001600160a01b03165afa9182156117b55791611788575b50604051908152f35b90508181813d83116117ae575b61179f8183611f1d565b810103126104d957513861177f565b503d611795565b604051903d90823e3d90fd5b6117d9919250843d86116107a85761079a8183611f1d565b9038611748565b506117ea36611e3a565b919392906001600160401b038216948585526020956006875260ff6040872054161561193f57506001600160a01b0393818516156107af5761182f9260025492612648565b9160405163b0f479a160e01b81528581600481305afa908115611917578591611922575b5016906040516320487ded60e01b81528581806118748786600484016120d8565b0381865afa9081156119175785916118ea575b503481116118cc57916118b3939186936040518096819582946396f4e9f960e01b8452600484016120d8565b03925af19182156117b557916117885750604051908152f35b60449060405190634787a10360e11b82523460048301526024820152fd5b90508581813d8311611910575b6119018183611f1d565b810103126104d9575138611887565b503d6118f7565b6040513d87823e3d90fd5b6119399150863d88116107a85761079a8183611f1d565b38611853565b60249060405190630a503cdb60e01b82526004820152fd5b5060a03660031901126101ed5760043561196f611de2565b90611978611df8565b6064356001600160401b0381168091036104d5576001600160a01b0360843581811694919390859003610ea75783861690816bffffffffffffffffffffffff60a01b60035416176003556040519663620d1b0560e11b885283600489015260209760249689828981885afa918215611c49578b92611d6e575b5081168015611d33576040519063e985e9c560e01b8252600482015230888201528981604481885afa908115611c49578b91611d16575b5015611cc7576040516335ca3dd760e21b81526004810186905289818981885afa908115611c49578b91611caa575b50611c5457604051633160a54560e21b815260048101869052926080848981885afa928315611c49578a938c809681908293611bd7575b50611af697608060405198611aa28a611ecc565b60048a5236908a013760ff611ab689612053565b9116905260ff611ac588612060565b9116905260ff611ad487612070565b9116905260ff611ae386612080565b91169052611aef6120b4565b92876122b5565b91611c20420190814211611bc457908891833b156101e5576044908360405195869485936308bbefef60e01b855260048501528a8401525af18015610e9c57611ba9575b5090611b6d8593926040519586948594630eb5ad4560e01b86526004860152840152606060448401526064830190611fc3565b038134305af18015610de857611b81578280f35b813d8311611ba2575b611b948183611f1d565b810103126104d95738808280f35b503d611b8a565b8593929196611bba611b6d92611ea3565b9691929350611b3a565b634e487b7160e01b895260116004528589fd5b965050505093506080833d608011611c41575b81611bf760809383611f1d565b81010312611c3d57611af69383611c0e8c95612045565b611c19868301612045565b91611c326060611c2b60408401612045565b9201612045565b919290919297611a8e565b8a80fd5b3d9150611bea565b6040513d8d823e3d90fd5b60405162461bcd60e51b8152600481018a90526029818901527f546f6b656e206973206c6f636b656420616e642063616e6e6f74206265207472604482015268185b9cd9995c9c995960ba1b6064820152608490fd5b611cc191508a3d8c11610fd757610fc98183611f1d565b38611a57565b60405162461bcd60e51b8152600481018a90526022818901527f546f6b656e206973206e6f7420617070726f76656420666f72207472616e736660448201526132b960f11b6064820152608490fd5b611d2d91508a3d8c11610fd757610fc98183611f1d565b38611a28565b60405162461bcd60e51b8152600481018b90526014818a015273151bdad95b88191bd95cc81b9bdd08195e1a5cdd60621b6044820152606490fd5b611d869192508a3d8c116107a85761079a8183611f1d565b90386119f1565b9050346101e95760203660031901126101e95760043563ffffffff60e01b81168091036101e557602092506385572ffb60e01b8114908115611dd1575b5015158152f35b6301ffc9a760e01b14905038611dca565b602435906001600160a01b03821682036104d957565b604435906001600160a01b03821682036104d957565b600435906001600160a01b03821682036104d957565b600435906001600160401b03821682036104d957565b60606003198201126104d9576001600160401b0360043581811681036104d957926024356001600160a01b03811681036104d95792604435908382116104d957806023830112156104d95781600401359384116104d957602484830101116104d9576024019190565b6001600160401b038111611eb657604052565b634e487b7160e01b600052604160045260246000fd5b60a081019081106001600160401b03821117611eb657604052565b604081019081106001600160401b03821117611eb657604052565b602081019081106001600160401b03821117611eb657604052565b90601f801991011681019081106001600160401b03821117611eb657604052565b6001600160401b038111611eb657601f01601f191660200190565b81601f820112156104d957803590611f7082611f3e565b92611f7e6040519485611f1d565b828452602083830101116104d957816000926020809301838601378301015290565b60005b838110611fb35750506000910152565b8181015183820152602001611fa3565b90602091611fdc81518092818552858086019101611fa0565b601f01601f1916010190565b6024359081151582036104d957565b6001600160401b038111611eb65760051b60200190565b908160209103126104d957516001600160a01b03811681036104d95790565b908160209103126104d9575180151581036104d95790565b519060ff821682036104d957565b805115610f495760200190565b805160011015610f495760400190565b805160021015610f495760600190565b805160031015610f495760800190565b805160041015610f495760a00190565b8051821015610f495760209160051b010190565b604051906120c182611ee7565b60088252672a2920a729a322a960c11b6020830152565b909291926001600160401b03604091168252602091604083820152612109855160a0604084015260e0830190611fc3565b916121258487015193603f199485858303016060860152611fc3565b604087015194848483030160808501528080875193848152019601926000905b83821061217e57505050505060c0608061217b959660018060a01b0360608201511660a085015201519282850301910152611fc3565b90565b845180516001600160a01b03168952830151888401529687019693820193600190910190612145565b6121b090612247565b6001600160a01b0390818110156121c5571690565b60405162461bcd60e51b815260206004820152600f60248201526e496e76616c6964206164647265737360881b6044820152606490fd5b90600182811c9216801561222c575b602083101461221657565b634e487b7160e01b600052602260045260246000fd5b91607f169161220b565b908151811015610f49570160200190565b90600091825b81518410156122b0576122608483612236565b5160f81c600a9182810292818404149015171561229a5760ff90602f190181811161229a5716810180911161229a5760019093019261224d565b634e487b7160e01b600052601160045260246000fd5b925050565b92949391909360048151036124495761217b946124346123006122f26122f96122df60299961278b565b946001600160a01b03928391821661278b565b971661278b565b991661278b565b9261231660ff61230f83612053565b511661278b565b61232460ff61230f84612060565b9061234060ff61230f61233a8261230f88612070565b95612080565b956040519b8c998a9761235f602099828b809451948593019101611fa0565b8b0199601d60f91b9a8b8a820152612380825180938c602185019101611fa0565b018a602182015261239a825180938b602285019101611fa0565b018960228201526123b4825180938a602385019101611fa0565b018860238201526123ce8251809389602485019101611fa0565b018760248201526123e88251809388602585019101611fa0565b018660258201526124028251809387602685019101611fa0565b0185602682015261241c8251809386602785019101611fa0565b01918460278401528351938491602885019101611fa0565b01906028820152036009810184520182611f1d565b60405162461bcd60e51b815260206004820152602e60248201527f5374617473206172726179206d75737420636f6e7461696e2065786163746c7960448201526d20666f757220656c656d656e747360901b6064820152608490fd5b604051906124b282611ee7565b600180918184526020601d60f91b6020860152600083945b6125ed575b506124d984611ff7565b936124e76040519586611f1d565b8085526124f6601f1991611ff7565b0160005b8181106125de57505050819060009485935b61251a575b50505050905090565b81516000199081810190811161229a578710156125d85761253c8783856129f2565b9081146125d0575b86810381811161229a5761255790612759565b96846000915b83811061259a57509050810180911161229a5761259184919561257f81612983565b9861258a828a6120a0565b52876120a0565b5095939561250c565b6001600160f81b03196125ad8288612236565b5116926125c76125bc82612983565b9460001a918c612236565b5301859061255d565b508151612544565b50612511565b606086820184015282016124fa565b8251939593600019919082810190811161229a5781101561263f576126139085856129f2565b908103612622579492946124cf565b9361262c90612983565b9385810180911161229a578593956124ca565b509492946124cf565b9290600091604080519461265b86611ecc565b6126c96060809581895281608060209a828c82015282888201528a83820152015284519960018060a01b0316898b0152888a526126978a611ee7565b8385519485928b808501528188850152848401378181018301899052601f01601f191681010384810184520182611f1d565b6126e78251936126d885611f02565b8685528351906105ae82611f02565b958251976126f489611ecc565b8852870152850152830152608082015290565b6000546001600160a01b0316330361271b57565b60405162461bcd60e51b815260206004820152601660248201527527b7363c9031b0b63630b1363290313c9037bbb732b960511b6044820152606490fd5b9061276382611f3e565b6127706040519182611f1d565b8281528092612781601f1991611f3e565b0190602036910137565b806000917a184f03e93ff9f4daa797ed6e38ed64bf6a1f010000000000000000808210156128c1575b506d04ee2d6d415b85acef8100000000808310156128b2575b50662386f26fc10000808310156128a3575b506305f5e10080831015612894575b5061271080831015612885575b506064821015612875575b600a8092101561286b575b60019081602161282360018701612759565b95860101905b612835575b5050505090565b600019019083906f181899199a1a9b1b9c1cb0b131b232b360811b8282061a83530491821561286657919082612829565b61282e565b9160010191612811565b9190606460029104910191612806565b600491939204910191386127fb565b600891939204910191386127ee565b601091939204910191386127df565b602091939204910191386127cd565b6040935081049150386127b4565b6020818303126104d9578051906001600160401b0382116104d9570181601f820112156104d957805161290181611f3e565b9261290f6040519485611f1d565b818452602082840101116104d95761217b9160208085019101611fa0565b6040519061293a82611ee7565b600382526241434b60e81b6020830152565b604051906397a657c960e01b602083015251602482015260248152606081018181106001600160401b03821117611eb65760405290565b600019811461229a5760010190565b9081518151036129eb5760009060005b83518110156129e2576001600160f81b0319806129bf8387612236565b5116906129cc8385612236565b5116036129db576001016129a2565b5050905090565b50505050600190565b5050600090565b91906001926001825103612a6f578392935b612a13575b5050505060001990565b8051841015612a6a576001600160f81b031980612a308684612236565b511690835115612a555760208401511614612a4f578280940193612a04565b50505090565b60246000634e487b7160e01b81526032600452fd5b612a09565b634e487b7160e01b600052600160045260246000fdfe036b6384b5eca791c62761152d0c79bb0604c104a5fb6f4eb0703f3154bb3db0a26469706673582212206a29024382eef855ef0a501bd200e85f721d8d57737a6c6292bc9a2221d5d47564736f6c63430008180033","linkReferences":{}},"methodIdentifiers":{"acceptOwnership()":"79ba5097","addressToString(address)":"5e57966d","allowlistDestinationChain(uint64,bool)":"96d3b83d","allowlistSender(address,bool)":"eab5b02c","allowlistSourceChain(uint64,bool)":"db04fa49","allowlistedDestinationChains(uint64)":"75c67c66","allowlistedSenders(address)":"6159ada1","allowlistedSourceChains(uint64)":"4030d521","asciiToUint(string)":"94f3a204","ccipReceive((bytes32,uint64,bytes,bytes,(address,uint256)[]))":"85572ffb","createMessageStr(uint256,address,address,address,string,uint8[])":"aac1efda","getFeeNative(uint64,address,string)":"11388b97","getLastReceivedMessageDetails()":"263596a5","getRouter()":"b0f479a1","nftContract()":"d56d229d","owner()":"8da5cb5b","readMessageStr(string)":"f7bfc50c","sendAcknowledgement(uint64,address,string)":"a74329d5","sendMessage(uint64,address,string)":"0eb5ad45","setGasLimit(uint256)":"ee7d72b4","stringToAddress(string)":"15706fdf","supportsInterface(bytes4)":"01ffc9a7","transferNft(uint256,address,address,uint64,address)":"0a88e1a9","transferOwnership(address)":"f2fde38b","uintToASCII(uint256)":"836c7419","withdraw(address)":"51cff8d9","withdrawToken(address,address)":"3aeac4e1"},"id":73}