{"abi":[{"type":"constructor","inputs":[{"name":"initialOwner","type":"address","internalType":"address"}],"stateMutability":"nonpayable"},{"type":"function","name":"approve","inputs":[{"name":"to","type":"address","internalType":"address"},{"name":"tokenId","type":"uint256","internalType":"uint256"}],"outputs":[],"stateMutability":"nonpayable"},{"type":"function","name":"balanceOf","inputs":[{"name":"owner","type":"address","internalType":"address"}],"outputs":[{"name":"","type":"uint256","internalType":"uint256"}],"stateMutability":"view"},{"type":"function","name":"getApproved","inputs":[{"name":"tokenId","type":"uint256","internalType":"uint256"}],"outputs":[{"name":"","type":"address","internalType":"address"}],"stateMutability":"view"},{"type":"function","name":"isApprovedForAll","inputs":[{"name":"owner","type":"address","internalType":"address"},{"name":"operator","type":"address","internalType":"address"}],"outputs":[{"name":"","type":"bool","internalType":"bool"}],"stateMutability":"view"},{"type":"function","name":"name","inputs":[],"outputs":[{"name":"","type":"string","internalType":"string"}],"stateMutability":"view"},{"type":"function","name":"owner","inputs":[],"outputs":[{"name":"","type":"address","internalType":"address"}],"stateMutability":"view"},{"type":"function","name":"ownerOf","inputs":[{"name":"tokenId","type":"uint256","internalType":"uint256"}],"outputs":[{"name":"","type":"address","internalType":"address"}],"stateMutability":"view"},{"type":"function","name":"renounceOwnership","inputs":[],"outputs":[],"stateMutability":"nonpayable"},{"type":"function","name":"safeMint","inputs":[{"name":"to","type":"address","internalType":"address"}],"outputs":[],"stateMutability":"nonpayable"},{"type":"function","name":"safeTransferFrom","inputs":[{"name":"from","type":"address","internalType":"address"},{"name":"to","type":"address","internalType":"address"},{"name":"tokenId","type":"uint256","internalType":"uint256"}],"outputs":[],"stateMutability":"nonpayable"},{"type":"function","name":"safeTransferFrom","inputs":[{"name":"from","type":"address","internalType":"address"},{"name":"to","type":"address","internalType":"address"},{"name":"tokenId","type":"uint256","internalType":"uint256"},{"name":"data","type":"bytes","internalType":"bytes"}],"outputs":[],"stateMutability":"nonpayable"},{"type":"function","name":"setApprovalForAll","inputs":[{"name":"operator","type":"address","internalType":"address"},{"name":"approved","type":"bool","internalType":"bool"}],"outputs":[],"stateMutability":"nonpayable"},{"type":"function","name":"supportsInterface","inputs":[{"name":"interfaceId","type":"bytes4","internalType":"bytes4"}],"outputs":[{"name":"","type":"bool","internalType":"bool"}],"stateMutability":"view"},{"type":"function","name":"symbol","inputs":[],"outputs":[{"name":"","type":"string","internalType":"string"}],"stateMutability":"view"},{"type":"function","name":"tokenURI","inputs":[{"name":"tokenId","type":"uint256","internalType":"uint256"}],"outputs":[{"name":"","type":"string","internalType":"string"}],"stateMutability":"view"},{"type":"function","name":"transferFrom","inputs":[{"name":"from","type":"address","internalType":"address"},{"name":"to","type":"address","internalType":"address"},{"name":"tokenId","type":"uint256","internalType":"uint256"}],"outputs":[],"stateMutability":"nonpayable"},{"type":"function","name":"transferOwnership","inputs":[{"name":"newOwner","type":"address","internalType":"address"}],"outputs":[],"stateMutability":"nonpayable"},{"type":"event","name":"Approval","inputs":[{"name":"owner","type":"address","indexed":true,"internalType":"address"},{"name":"approved","type":"address","indexed":true,"internalType":"address"},{"name":"tokenId","type":"uint256","indexed":true,"internalType":"uint256"}],"anonymous":false},{"type":"event","name":"ApprovalForAll","inputs":[{"name":"owner","type":"address","indexed":true,"internalType":"address"},{"name":"operator","type":"address","indexed":true,"internalType":"address"},{"name":"approved","type":"bool","indexed":false,"internalType":"bool"}],"anonymous":false},{"type":"event","name":"OwnershipTransferred","inputs":[{"name":"previousOwner","type":"address","indexed":true,"internalType":"address"},{"name":"newOwner","type":"address","indexed":true,"internalType":"address"}],"anonymous":false},{"type":"event","name":"Transfer","inputs":[{"name":"from","type":"address","indexed":true,"internalType":"address"},{"name":"to","type":"address","indexed":true,"internalType":"address"},{"name":"tokenId","type":"uint256","indexed":true,"internalType":"uint256"}],"anonymous":false},{"type":"error","name":"ERC721IncorrectOwner","inputs":[{"name":"sender","type":"address","internalType":"address"},{"name":"tokenId","type":"uint256","internalType":"uint256"},{"name":"owner","type":"address","internalType":"address"}]},{"type":"error","name":"ERC721InsufficientApproval","inputs":[{"name":"operator","type":"address","internalType":"address"},{"name":"tokenId","type":"uint256","internalType":"uint256"}]},{"type":"error","name":"ERC721InvalidApprover","inputs":[{"name":"approver","type":"address","internalType":"address"}]},{"type":"error","name":"ERC721InvalidOperator","inputs":[{"name":"operator","type":"address","internalType":"address"}]},{"type":"error","name":"ERC721InvalidOwner","inputs":[{"name":"owner","type":"address","internalType":"address"}]},{"type":"error","name":"ERC721InvalidReceiver","inputs":[{"name":"receiver","type":"address","internalType":"address"}]},{"type":"error","name":"ERC721InvalidSender","inputs":[{"name":"sender","type":"address","internalType":"address"}]},{"type":"error","name":"ERC721NonexistentToken","inputs":[{"name":"tokenId","type":"uint256","internalType":"uint256"}]},{"type":"error","name":"OwnableInvalidOwner","inputs":[{"name":"owner","type":"address","internalType":"address"}]},{"type":"error","name":"OwnableUnauthorizedAccount","inputs":[{"name":"account","type":"address","internalType":"address"}]}],"bytecode":{"object":"0x608060405234610398576114546020813803918261001c8161039d565b93849283398101031261039857516001600160a01b0381169081900361039857610046604061039d565b90600782526626bcaa37b5b2b760c91b6020830152610065604061039d565b60038152624d544b60e81b602082015282519091906001600160401b0381116102a357600054600181811c9116801561038e575b602082101461028357601f811161032a575b506020601f82116001146102c457819293946000926102b9575b50508160011b916000199060031b1c1916176000555b81516001600160401b0381116102a357600154600181811c91168015610299575b602082101461028357601f811161021e575b50602092601f82116001146101b957928192936000926101ae575b50508160011b916000199060031b1c1916176001555b801561019857600680546001600160a01b03198116831790915560405191906001600160a01b03167f8be0079c531659141344cd1fd0a4f28419497f9722a3daafe3b4186f6b6457e0600080a361109190816103c38239f35b631e4fbdf760e01b600052600060045260246000fd5b015190503880610129565b601f198216936001600052806000209160005b86811061020657508360019596106101ed575b505050811b0160015561013f565b015160001960f88460031b161c191690553880806101df565b919260206001819286850151815501940192016101cc565b60016000527fb10e2d527612073b26eecdfd717e6a320cf44b4afac2b0732d9fcbe2b7fa0cf6601f830160051c81019160208410610279575b601f0160051c01905b81811061026d575061010e565b60008155600101610260565b9091508190610257565b634e487b7160e01b600052602260045260246000fd5b90607f16906100fc565b634e487b7160e01b600052604160045260246000fd5b0151905038806100c5565b601f1982169060008052806000209160005b818110610312575095836001959697106102f9575b505050811b016000556100db565b015160001960f88460031b161c191690553880806102eb565b9192602060018192868b0151815501940192016102d6565b600080527f290decd9548b62a8d60345a988386fc84ba6bc95484008f6362f93160ef3e563601f830160051c81019160208410610384575b601f0160051c01905b81811061037857506100ab565b6000815560010161036b565b9091508190610362565b90607f1690610099565b600080fd5b6040519190601f01601f191682016001600160401b038111838210176102a35760405256fe608080604052600436101561001357600080fd5b60003560e01c90816301ffc9a714610bd05750806306fdde0314610b15578063081812fc14610ad7578063095ea7b3146109e857806323b872dd146109d157806340d097c31461076e57806342842e0e1461073e5780636352211e1461070e57806370a08231146106b8578063715018a61461065b5780638da5cb5b1461063257806395d89b411461053a578063a22cb46514610499578063b88d4fde14610403578063c87b56dd146101c4578063e985e9c5146101695763f2fde38b146100da57600080fd5b34610164576020366003190112610164576100f3610c83565b6100fb610f0a565b6001600160a01b0316801561014e57600680546001600160a01b0319811683179091556001600160a01b03167f8be0079c531659141344cd1fd0a4f28419497f9722a3daafe3b4186f6b6457e0600080a3005b631e4fbdf760e01b600052600060045260246000fd5b600080fd5b3461016457604036600319011261016457610182610c83565b61018a610c99565b9060018060a01b0316600052600560205260406000209060018060a01b0316600052602052602060ff604060002054166040519015158152f35b34610164576020366003190112610164576004356101e181610ed3565b50604051906101f1606083610ce9565b6031825260208201917f68747470733a2f2f6769746875622e636f6d2f666f756e6472792d72732f666f8352703ab732393c97b4b9b9bab2b9979b99989960791b604082015281908260009372184f03e93ff9f4daa797ed6e38ed64bf6a1f0160401b8110156103dd575b50806d04ee2d6d415b85acef8100000000600a9210156103c2575b662386f26fc100008110156103ae575b6305f5e10081101561039d575b61271081101561038e575b6064811015610380575b1015610376575b6001830191600a60216102db6102c586610d21565b956102d36040519788610ce9565b808752610d21565b602086019690601f19013688378501015b60001901916f181899199a1a9b1b9c1cb0b131b232b360811b8282061a83530490811561031b57600a906102ec565b61037261033f61035e856020898961034e8d60405197889651809287890190610c3b565b85019151809385840190610c3b565b010103601f198101835282610ce9565b604051918291602083526020830190610c5e565b0390f35b91600101916102b0565b6064600291049401936102a9565b6127106004910494019361029f565b6305f5e10060089104940193610294565b662386f26fc1000060109104940193610287565b6d04ee2d6d415b85acef810000000060209104940193610277565b6040945072184f03e93ff9f4daa797ed6e38ed64bf6a1f0160401b90049050600a61025c565b346101645760803660031901126101645761041c610c83565b610424610c99565b906044356064359267ffffffffffffffff841161016457366023850112156101645783600401359261045584610d21565b936104636040519586610ce9565b808552366024828801011161016457602081600092602461049799018389013786010152610492838383610d3d565b610f33565b005b34610164576040366003190112610164576104b2610c83565b60243590811515809203610164576001600160a01b031690811561052557336000526005602052604060002082600052602052604060002060ff1981541660ff83161790556040519081527f17307eab39ab6107e8899845ad3d59bd9653f200f220920489ca2b5937696c3160203392a3005b50630b61174360e31b60005260045260246000fd5b346101645760003660031901126101645760405160006001548060011c90600181168015610628575b602083108114610614578285529081156105f05750600114610590575b6103728361035e81850382610ce9565b91905060016000527fb10e2d527612073b26eecdfd717e6a320cf44b4afac2b0732d9fcbe2b7fa0cf6916000905b8082106105d65750909150810160200161035e610580565b9192600181602092548385880101520191019092916105be565b60ff191660208086019190915291151560051b8401909101915061035e9050610580565b634e487b7160e01b84526022600452602484fd5b91607f1691610563565b34610164576000366003190112610164576006546040516001600160a01b039091168152602090f35b3461016457600036600319011261016457610674610f0a565b600680546001600160a01b031981169091556000906001600160a01b03167f8be0079c531659141344cd1fd0a4f28419497f9722a3daafe3b4186f6b6457e08280a3005b34610164576020366003190112610164576001600160a01b036106d9610c83565b1680156106f85760005260036020526020604060002054604051908152f35b6322718ad960e21b600052600060045260246000fd5b3461016457602036600319011261016457602061072c600435610ed3565b6040516001600160a01b039091168152f35b346101645761049761074f36610caf565b906040519261075f602085610ce9565b60008452610492838383610d3d565b3461016457602036600319011261016457610787610c83565b61078f610f0a565b60075460001981146109bb57600181016007556040516020916107b28383610ce9565b600082526001600160a01b0384169384156109a55760008281526002855260018060a01b036040822054168387827fddf252ad1be2c89b69c2b068fc378daa952ba7f163c4a11628f55a4df523b3ef8115159586610971575b83815260038b5260408082208054600101905585825260028c52812080546001600160a01b0319168517905580a45061095b573b61084557005b6108809183916040519384928392630a85bd0160e11b8452336004850152600060248501526044840152608060648401526084830190610c5e565b03816000875af18091600091610916575b50906108e757503d156108e0573d6108a881610d21565b906108b66040519283610ce9565b81523d60008383013e5b805191826108dd5783633250574960e11b60005260045260246000fd5b01fd5b60606108c0565b6001600160e01b03191663757a42ff60e11b01905061090257005b633250574960e11b60005260045260246000fd5b8381813d8311610954575b61092b8183610ce9565b810103126109505751906001600160e01b03198216820361094d575084610891565b80fd5b5080fd5b503d610921565b6339e3563760e11b600052600060045260246000fd5b600085815260046020526040902080546001600160a01b031916905582815260038b5260408120805460001901905561080b565b633250574960e11b600052600060045260246000fd5b634e487b7160e01b600052601160045260246000fd5b34610164576104976109e236610caf565b91610d3d565b3461016457604036600319011261016457610a01610c83565b602435610a0d81610ed3565b33151580610ac4575b80610a96575b610a815781906001600160a01b0384811691167f8c5be1e5ebec7d5bd14f71427d1e84f3dd0314c0f7b2291e5b200ac8c7c3b925600080a4600090815260046020526040902080546001600160a01b0319166001600160a01b03909216919091179055005b63a9fbf51f60e01b6000523360045260246000fd5b506001600160a01b038116600090815260056020908152604080832033845290915290205460ff1615610a1c565b506001600160a01b038116331415610a16565b3461016457602036600319011261016457600435610af481610ed3565b506000526004602052602060018060a01b0360406000205416604051908152f35b3461016457600036600319011261016457604051600080548060011c90600181168015610bc6575b602083108114610614578285529081156105f05750600114610b69576103728361035e81850382610ce9565b60008080527f290decd9548b62a8d60345a988386fc84ba6bc95484008f6362f93160ef3e563939250905b808210610bac5750909150810160200161035e610580565b919260018160209254838588010152019101909291610b94565b91607f1691610b3d565b34610164576020366003190112610164576004359063ffffffff60e01b8216809203610164576020916380ac58cd60e01b8114908115610c2a575b8115610c19575b5015158152f35b6301ffc9a760e01b14905083610c12565b635b5e139f60e01b81149150610c0b565b60005b838110610c4e5750506000910152565b8181015183820152602001610c3e565b90602091610c7781518092818552858086019101610c3b565b601f01601f1916010190565b600435906001600160a01b038216820361016457565b602435906001600160a01b038216820361016457565b6060906003190112610164576004356001600160a01b038116810361016457906024356001600160a01b0381168103610164579060443590565b90601f8019910116810190811067ffffffffffffffff821117610d0b57604052565b634e487b7160e01b600052604160045260246000fd5b67ffffffffffffffff8111610d0b57601f01601f191660200190565b6001600160a01b03909116919082156109a5576000828152600260205260408120546001600160a01b0316938391859033151580610e3b575b507fddf252ad1be2c89b69c2b068fc378daa952ba7f163c4a11628f55a4df523b3ef9082610e06575b83815260036020526040812060018154019055848152600260205260408120846bffffffffffffffffffffffff60a01b82541617905580a46001600160a01b0316808303610dec57505050565b6364283d7b60e01b60005260045260245260445260646000fd5b600085815260046020526040902080546001600160a01b03191690558281526003602052604081208054600019019055610d9f565b915091925080610e84575b15610e55579084849238610d76565b839085610e6e57602491637e27328960e01b8252600452fd5b60449163177e802f60e01b825233600452602452fd5b503385148015610eb2575b80610e465750838152600460205260408120546001600160a01b03163314610e46565b5084815260056020908152604080832033845290915281205460ff16610e8f565b6000818152600260205260409020546001600160a01b0316908115610ef6575090565b637e27328960e01b60005260045260246000fd5b6006546001600160a01b03163303610f1e57565b63118cdaa760e01b6000523360045260246000fd5b9291813b610f42575b50505050565b604051630a85bd0160e11b81523360048201526001600160a01b0394851660248201526044810191909152608060648201529216919060209082908190610f8d906084830190610c5e565b03816000865af18091600091611018575b5090610ff757503d15610ff0573d610fb581610d21565b90610fc36040519283610ce9565b81523d6000602083013e5b80519081610feb5782633250574960e11b60005260045260246000fd5b602001fd5b6060610fce565b6001600160e01b03191663757a42ff60e11b01610902575038808080610f3c565b6020813d602011611053575b8161103160209383610ce9565b810103126109505751906001600160e01b03198216820361094d575038610f9e565b3d915061102456fea2646970667358221220844a270f326e030f16b0133f892b0d3dfa87df353a17acd8ad3a9b41350a1d7264736f6c634300081a0033","linkReferences":{}},"methodIdentifiers":{"approve(address,uint256)":"095ea7b3","balanceOf(address)":"70a08231","getApproved(uint256)":"081812fc","isApprovedForAll(address,address)":"e985e9c5","name()":"06fdde03","owner()":"8da5cb5b","ownerOf(uint256)":"6352211e","renounceOwnership()":"715018a6","safeMint(address)":"40d097c3","safeTransferFrom(address,address,uint256)":"42842e0e","safeTransferFrom(address,address,uint256,bytes)":"b88d4fde","setApprovalForAll(address,bool)":"a22cb465","supportsInterface(bytes4)":"01ffc9a7","symbol()":"95d89b41","tokenURI(uint256)":"c87b56dd","transferFrom(address,address,uint256)":"23b872dd","transferOwnership(address)":"f2fde38b"},"id":12}