{"abi":[{"type":"constructor","inputs":[{"name":"initialOwner","type":"address","internalType":"address"}],"stateMutability":"nonpayable"},{"type":"function","name":"approve","inputs":[{"name":"to","type":"address","internalType":"address"},{"name":"tokenId","type":"uint256","internalType":"uint256"}],"outputs":[],"stateMutability":"nonpayable"},{"type":"function","name":"balanceOf","inputs":[{"name":"owner","type":"address","internalType":"address"}],"outputs":[{"name":"","type":"uint256","internalType":"uint256"}],"stateMutability":"view"},{"type":"function","name":"getApproved","inputs":[{"name":"tokenId","type":"uint256","internalType":"uint256"}],"outputs":[{"name":"","type":"address","internalType":"address"}],"stateMutability":"view"},{"type":"function","name":"isApprovedForAll","inputs":[{"name":"owner","type":"address","internalType":"address"},{"name":"operator","type":"address","internalType":"address"}],"outputs":[{"name":"","type":"bool","internalType":"bool"}],"stateMutability":"view"},{"type":"function","name":"name","inputs":[],"outputs":[{"name":"","type":"string","internalType":"string"}],"stateMutability":"view"},{"type":"function","name":"owner","inputs":[],"outputs":[{"name":"","type":"address","internalType":"address"}],"stateMutability":"view"},{"type":"function","name":"ownerOf","inputs":[{"name":"tokenId","type":"uint256","internalType":"uint256"}],"outputs":[{"name":"","type":"address","internalType":"address"}],"stateMutability":"view"},{"type":"function","name":"renounceOwnership","inputs":[],"outputs":[],"stateMutability":"nonpayable"},{"type":"function","name":"safeMint","inputs":[{"name":"to","type":"address","internalType":"address"}],"outputs":[],"stateMutability":"nonpayable"},{"type":"function","name":"safeMintRPG","inputs":[],"outputs":[],"stateMutability":"nonpayable"},{"type":"function","name":"safeTransferFrom","inputs":[{"name":"from","type":"address","internalType":"address"},{"name":"to","type":"address","internalType":"address"},{"name":"tokenId","type":"uint256","internalType":"uint256"}],"outputs":[],"stateMutability":"nonpayable"},{"type":"function","name":"safeTransferFrom","inputs":[{"name":"from","type":"address","internalType":"address"},{"name":"to","type":"address","internalType":"address"},{"name":"tokenId","type":"uint256","internalType":"uint256"},{"name":"data","type":"bytes","internalType":"bytes"}],"outputs":[],"stateMutability":"nonpayable"},{"type":"function","name":"setApprovalForAll","inputs":[{"name":"operator","type":"address","internalType":"address"},{"name":"approved","type":"bool","internalType":"bool"}],"outputs":[],"stateMutability":"nonpayable"},{"type":"function","name":"supportsInterface","inputs":[{"name":"interfaceId","type":"bytes4","internalType":"bytes4"}],"outputs":[{"name":"","type":"bool","internalType":"bool"}],"stateMutability":"view"},{"type":"function","name":"symbol","inputs":[],"outputs":[{"name":"","type":"string","internalType":"string"}],"stateMutability":"view"},{"type":"function","name":"tokenURI","inputs":[{"name":"tokenId","type":"uint256","internalType":"uint256"}],"outputs":[{"name":"","type":"string","internalType":"string"}],"stateMutability":"view"},{"type":"function","name":"transferFrom","inputs":[{"name":"from","type":"address","internalType":"address"},{"name":"to","type":"address","internalType":"address"},{"name":"tokenId","type":"uint256","internalType":"uint256"}],"outputs":[],"stateMutability":"nonpayable"},{"type":"function","name":"transferOwnership","inputs":[{"name":"newOwner","type":"address","internalType":"address"}],"outputs":[],"stateMutability":"nonpayable"},{"type":"event","name":"Approval","inputs":[{"name":"owner","type":"address","indexed":true,"internalType":"address"},{"name":"approved","type":"address","indexed":true,"internalType":"address"},{"name":"tokenId","type":"uint256","indexed":true,"internalType":"uint256"}],"anonymous":false},{"type":"event","name":"ApprovalForAll","inputs":[{"name":"owner","type":"address","indexed":true,"internalType":"address"},{"name":"operator","type":"address","indexed":true,"internalType":"address"},{"name":"approved","type":"bool","indexed":false,"internalType":"bool"}],"anonymous":false},{"type":"event","name":"OwnershipTransferred","inputs":[{"name":"previousOwner","type":"address","indexed":true,"internalType":"address"},{"name":"newOwner","type":"address","indexed":true,"internalType":"address"}],"anonymous":false},{"type":"event","name":"Transfer","inputs":[{"name":"from","type":"address","indexed":true,"internalType":"address"},{"name":"to","type":"address","indexed":true,"internalType":"address"},{"name":"tokenId","type":"uint256","indexed":true,"internalType":"uint256"}],"anonymous":false},{"type":"error","name":"ERC721IncorrectOwner","inputs":[{"name":"sender","type":"address","internalType":"address"},{"name":"tokenId","type":"uint256","internalType":"uint256"},{"name":"owner","type":"address","internalType":"address"}]},{"type":"error","name":"ERC721InsufficientApproval","inputs":[{"name":"operator","type":"address","internalType":"address"},{"name":"tokenId","type":"uint256","internalType":"uint256"}]},{"type":"error","name":"ERC721InvalidApprover","inputs":[{"name":"approver","type":"address","internalType":"address"}]},{"type":"error","name":"ERC721InvalidOperator","inputs":[{"name":"operator","type":"address","internalType":"address"}]},{"type":"error","name":"ERC721InvalidOwner","inputs":[{"name":"owner","type":"address","internalType":"address"}]},{"type":"error","name":"ERC721InvalidReceiver","inputs":[{"name":"receiver","type":"address","internalType":"address"}]},{"type":"error","name":"ERC721InvalidSender","inputs":[{"name":"sender","type":"address","internalType":"address"}]},{"type":"error","name":"ERC721NonexistentToken","inputs":[{"name":"tokenId","type":"uint256","internalType":"uint256"}]},{"type":"error","name":"OwnableInvalidOwner","inputs":[{"name":"owner","type":"address","internalType":"address"}]},{"type":"error","name":"OwnableUnauthorizedAccount","inputs":[{"name":"account","type":"address","internalType":"address"}]}],"bytecode":{"object":"0x608060405234610398576114ac6020813803918261001c8161039d565b93849283398101031261039857516001600160a01b0381169081900361039857610046604061039d565b90600782526626bcaa37b5b2b760c91b6020830152610065604061039d565b60038152624d544b60e81b602082015282519091906001600160401b0381116102a357600054600181811c9116801561038e575b602082101461028357601f811161032a575b506020601f82116001146102c457819293946000926102b9575b50508160011b916000199060031b1c1916176000555b81516001600160401b0381116102a357600154600181811c91168015610299575b602082101461028357601f811161021e575b50602092601f82116001146101b957928192936000926101ae575b50508160011b916000199060031b1c1916176001555b801561019857600680546001600160a01b03198116831790915560405191906001600160a01b03167f8be0079c531659141344cd1fd0a4f28419497f9722a3daafe3b4186f6b6457e0600080a36110e990816103c38239f35b631e4fbdf760e01b600052600060045260246000fd5b015190503880610129565b601f198216936001600052806000209160005b86811061020657508360019596106101ed575b505050811b0160015561013f565b015160001960f88460031b161c191690553880806101df565b919260206001819286850151815501940192016101cc565b60016000527fb10e2d527612073b26eecdfd717e6a320cf44b4afac2b0732d9fcbe2b7fa0cf6601f830160051c81019160208410610279575b601f0160051c01905b81811061026d575061010e565b60008155600101610260565b9091508190610257565b634e487b7160e01b600052602260045260246000fd5b90607f16906100fc565b634e487b7160e01b600052604160045260246000fd5b0151905038806100c5565b601f1982169060008052806000209160005b818110610312575095836001959697106102f9575b505050811b016000556100db565b015160001960f88460031b161c191690553880806102eb565b9192602060018192868b0151815501940192016102d6565b600080527f290decd9548b62a8d60345a988386fc84ba6bc95484008f6362f93160ef3e563601f830160051c81019160208410610384575b601f0160051c01905b81811061037857506100ab565b6000815560010161036b565b9091508190610362565b90607f1690610099565b600080fd5b6040519190601f01601f191682016001600160401b038111838210176102a35760405256fe608080604052600436101561001357600080fd5b60003560e01c90816301ffc9a7146109d65750806306fdde031461091b578063081812fc146108dd578063095ea7b3146107ee57806323b872dd146107d757806340d097c3146107a657806342842e0e146107765780636352211e1461074257806370a08231146106ec578063715018a61461068f5780638da5cb5b1461066657806395d89b411461056e578063a22cb465146104cd578063b88d4fde14610439578063c87b56dd146101fa578063e985e9c51461019f578063f2fde38b146101155763f45df6df146100e557600080fd5b346101105760003660031901126101105761010e60075461010581610cef565b60075533610d4b565b005b600080fd5b346101105760203660031901126101105761012e610a89565b610136610f63565b6001600160a01b0316801561018957600680546001600160a01b0319811683179091556001600160a01b03167f8be0079c531659141344cd1fd0a4f28419497f9722a3daafe3b4186f6b6457e0600080a3005b631e4fbdf760e01b600052600060045260246000fd5b34610110576040366003190112610110576101b8610a89565b6101c0610a9f565b9060018060a01b0316600052600560205260406000209060018060a01b0316600052602052602060ff604060002054166040519015158152f35b346101105760203660031901126101105760043561021781610d14565b5060405190610227606083610aef565b6031825260208201917f68747470733a2f2f6769746875622e636f6d2f666f756e6472792d72732f666f8352703ab732393c97b4b9b9bab2b9979b99989960791b604082015281908260009372184f03e93ff9f4daa797ed6e38ed64bf6a1f0160401b811015610413575b50806d04ee2d6d415b85acef8100000000600a9210156103f8575b662386f26fc100008110156103e4575b6305f5e1008110156103d3575b6127108110156103c4575b60648110156103b6575b10156103ac575b6001830191600a60216103116102fb86610b27565b956103096040519788610aef565b808752610b27565b602086019690601f19013688378501015b60001901916f181899199a1a9b1b9c1cb0b131b232b360811b8282061a83530490811561035157600a90610322565b6103a861037561039485602089896103848d60405197889651809287890190610a41565b85019151809385840190610a41565b010103601f198101835282610aef565b604051918291602083526020830190610a64565b0390f35b91600101916102e6565b6064600291049401936102df565b612710600491049401936102d5565b6305f5e100600891049401936102ca565b662386f26fc10000601091049401936102bd565b6d04ee2d6d415b85acef8100000000602091049401936102ad565b6040945072184f03e93ff9f4daa797ed6e38ed64bf6a1f0160401b90049050600a610292565b3461011057608036600319011261011057610452610a89565b61045a610a9f565b906044356064359267ffffffffffffffff841161011057366023850112156101105783600401359261048b84610b27565b936104996040519586610aef565b808552366024828801011161011057602081600092602461010e990183890137860101526104c8838383610b43565b610f8c565b34610110576040366003190112610110576104e6610a89565b60243590811515809203610110576001600160a01b031690811561055957336000526005602052604060002082600052602052604060002060ff1981541660ff83161790556040519081527f17307eab39ab6107e8899845ad3d59bd9653f200f220920489ca2b5937696c3160203392a3005b50630b61174360e31b60005260045260246000fd5b346101105760003660031901126101105760405160006001548060011c9060018116801561065c575b6020831081146106485782855290811561062457506001146105c4575b6103a88361039481850382610aef565b91905060016000527fb10e2d527612073b26eecdfd717e6a320cf44b4afac2b0732d9fcbe2b7fa0cf6916000905b80821061060a575090915081016020016103946105b4565b9192600181602092548385880101520191019092916105f2565b60ff191660208086019190915291151560051b8401909101915061039490506105b4565b634e487b7160e01b84526022600452602484fd5b91607f1691610597565b34610110576000366003190112610110576006546040516001600160a01b039091168152602090f35b34610110576000366003190112610110576106a8610f63565b600680546001600160a01b031981169091556000906001600160a01b03167f8be0079c531659141344cd1fd0a4f28419497f9722a3daafe3b4186f6b6457e08280a3005b34610110576020366003190112610110576001600160a01b0361070d610a89565b16801561072c5760005260036020526020604060002054604051908152f35b6322718ad960e21b600052600060045260246000fd5b34610110576020366003190112610110576004356000526002602052602060018060a01b0360406000205416604051908152f35b346101105761010e61078736610ab5565b9060405192610797602085610aef565b600084526104c8838383610b43565b346101105760203660031901126101105761010e6107c2610a89565b600754906107cf82610cef565b600755610d4b565b346101105761010e6107e836610ab5565b91610b43565b3461011057604036600319011261011057610807610a89565b60243561081381610d14565b331515806108ca575b8061089c575b6108875781906001600160a01b0384811691167f8c5be1e5ebec7d5bd14f71427d1e84f3dd0314c0f7b2291e5b200ac8c7c3b925600080a4600090815260046020526040902080546001600160a01b0319166001600160a01b03909216919091179055005b63a9fbf51f60e01b6000523360045260246000fd5b506001600160a01b038116600090815260056020908152604080832033845290915290205460ff1615610822565b506001600160a01b03811633141561081c565b34610110576020366003190112610110576004356108fa81610d14565b506000526004602052602060018060a01b0360406000205416604051908152f35b3461011057600036600319011261011057604051600080548060011c906001811680156109cc575b60208310811461064857828552908115610624575060011461096f576103a88361039481850382610aef565b60008080527f290decd9548b62a8d60345a988386fc84ba6bc95484008f6362f93160ef3e563939250905b8082106109b2575090915081016020016103946105b4565b91926001816020925483858801015201910190929161099a565b91607f1691610943565b34610110576020366003190112610110576004359063ffffffff60e01b8216809203610110576020916380ac58cd60e01b8114908115610a30575b8115610a1f575b5015158152f35b6301ffc9a760e01b14905083610a18565b635b5e139f60e01b81149150610a11565b60005b838110610a545750506000910152565b8181015183820152602001610a44565b90602091610a7d81518092818552858086019101610a41565b601f01601f1916010190565b600435906001600160a01b038216820361011057565b602435906001600160a01b038216820361011057565b6060906003190112610110576004356001600160a01b038116810361011057906024356001600160a01b0381168103610110579060443590565b90601f8019910116810190811067ffffffffffffffff821117610b1157604052565b634e487b7160e01b600052604160045260246000fd5b67ffffffffffffffff8111610b1157601f01601f191660200190565b6001600160a01b0390911691908215610cd9576000828152600260205260408120546001600160a01b0316938391859033151580610c41575b507fddf252ad1be2c89b69c2b068fc378daa952ba7f163c4a11628f55a4df523b3ef9082610c0c575b83815260036020526040812060018154019055848152600260205260408120846bffffffffffffffffffffffff60a01b82541617905580a46001600160a01b0316808303610bf257505050565b6364283d7b60e01b60005260045260245260445260646000fd5b600085815260046020526040902080546001600160a01b03191690558281526003602052604081208054600019019055610ba5565b915091925080610c8a575b15610c5b579084849238610b7c565b839085610c7457602491637e27328960e01b8252600452fd5b60449163177e802f60e01b825233600452602452fd5b503385148015610cb8575b80610c4c5750838152600460205260408120546001600160a01b03163314610c4c565b5084815260056020908152604080832033845290915281205460ff16610c95565b633250574960e11b600052600060045260246000fd5b6000198114610cfe5760010190565b634e487b7160e01b600052601160045260246000fd5b6000818152600260205260409020546001600160a01b0316908115610d37575090565b637e27328960e01b60005260045260246000fd5b9060209060405190610d5d8383610aef565b600082526001600160a01b038416938415610cd95760008281526002855260018060a01b036040822054168387827fddf252ad1be2c89b69c2b068fc378daa952ba7f163c4a11628f55a4df523b3ef8115159586610f2f575b83815260038b5260408082208054600101905585825260028c52812080546001600160a01b0319168517905580a450610f19573b610df5575b50505050565b91610e3391819495936040519384928392630a85bd0160e11b8452336004850152600060248501526044840152608060648401526084830190610a64565b03816000885af18091600091610ed4575b5090610e9b5750503d15610e94573d610e5c81610b27565b90610e6a6040519283610aef565b81523d60008383013e5b80519182610e915783633250574960e11b60005260045260246000fd5b01fd5b6060610e74565b909291506001600160e01b03191663757a42ff60e11b01610ec0575038808080610def565b633250574960e11b60005260045260246000fd5b8481813d8311610f12575b610ee98183610aef565b81010312610f0e5751906001600160e01b031982168203610f0b575038610e44565b80fd5b5080fd5b503d610edf565b6339e3563760e11b600052600060045260246000fd5b600085815260046020526040902080546001600160a01b031916905582815260038b52604081208054600019019055610db6565b6006546001600160a01b03163303610f7757565b63118cdaa760e01b6000523360045260246000fd5b9291813b610f9a5750505050565b604051630a85bd0160e11b81523360048201526001600160a01b0394851660248201526044810191909152608060648201529216919060209082908190610fe5906084830190610a64565b03816000865af18091600091611070575b509061104f57503d15611048573d61100d81610b27565b9061101b6040519283610aef565b81523d6000602083013e5b805190816110435782633250574960e11b60005260045260246000fd5b602001fd5b6060611026565b6001600160e01b03191663757a42ff60e11b01610ec0575038808080610def565b6020813d6020116110ab575b8161108960209383610aef565b81010312610f0e5751906001600160e01b031982168203610f0b575038610ff6565b3d915061107c56fea2646970667358221220866a06425824d7e523183ebb009a4ce0a53a3ea49366a1e734fb42a723579fa464736f6c634300081a0033","linkReferences":{}},"methodIdentifiers":{"approve(address,uint256)":"095ea7b3","balanceOf(address)":"70a08231","getApproved(uint256)":"081812fc","isApprovedForAll(address,address)":"e985e9c5","name()":"06fdde03","owner()":"8da5cb5b","ownerOf(uint256)":"6352211e","renounceOwnership()":"715018a6","safeMint(address)":"40d097c3","safeMintRPG()":"f45df6df","safeTransferFrom(address,address,uint256)":"42842e0e","safeTransferFrom(address,address,uint256,bytes)":"b88d4fde","setApprovalForAll(address,bool)":"a22cb465","supportsInterface(bytes4)":"01ffc9a7","symbol()":"95d89b41","tokenURI(uint256)":"c87b56dd","transferFrom(address,address,uint256)":"23b872dd","transferOwnership(address)":"f2fde38b"},"id":35}