{"abi":[{"type":"constructor","inputs":[{"name":"name","type":"string","internalType":"string"},{"name":"symbol","type":"string","internalType":"string"},{"name":"decimals_","type":"uint8","internalType":"uint8"},{"name":"maxSupply_","type":"uint256","internalType":"uint256"}],"stateMutability":"nonpayable"},{"type":"function","name":"acceptOwnership","inputs":[],"outputs":[],"stateMutability":"nonpayable"},{"type":"function","name":"allowance","inputs":[{"name":"owner","type":"address","internalType":"address"},{"name":"spender","type":"address","internalType":"address"}],"outputs":[{"name":"","type":"uint256","internalType":"uint256"}],"stateMutability":"view"},{"type":"function","name":"approve","inputs":[{"name":"spender","type":"address","internalType":"address"},{"name":"amount","type":"uint256","internalType":"uint256"}],"outputs":[{"name":"","type":"bool","internalType":"bool"}],"stateMutability":"nonpayable"},{"type":"function","name":"balanceOf","inputs":[{"name":"account","type":"address","internalType":"address"}],"outputs":[{"name":"","type":"uint256","internalType":"uint256"}],"stateMutability":"view"},{"type":"function","name":"burn","inputs":[{"name":"amount","type":"uint256","internalType":"uint256"}],"outputs":[],"stateMutability":"nonpayable"},{"type":"function","name":"burn","inputs":[{"name":"account","type":"address","internalType":"address"},{"name":"amount","type":"uint256","internalType":"uint256"}],"outputs":[],"stateMutability":"nonpayable"},{"type":"function","name":"burnFrom","inputs":[{"name":"account","type":"address","internalType":"address"},{"name":"amount","type":"uint256","internalType":"uint256"}],"outputs":[],"stateMutability":"nonpayable"},{"type":"function","name":"decimals","inputs":[],"outputs":[{"name":"","type":"uint8","internalType":"uint8"}],"stateMutability":"view"},{"type":"function","name":"decreaseAllowance","inputs":[{"name":"spender","type":"address","internalType":"address"},{"name":"subtractedValue","type":"uint256","internalType":"uint256"}],"outputs":[{"name":"","type":"bool","internalType":"bool"}],"stateMutability":"nonpayable"},{"type":"function","name":"decreaseApproval","inputs":[{"name":"spender","type":"address","internalType":"address"},{"name":"subtractedValue","type":"uint256","internalType":"uint256"}],"outputs":[{"name":"success","type":"bool","internalType":"bool"}],"stateMutability":"nonpayable"},{"type":"function","name":"getBurners","inputs":[],"outputs":[{"name":"","type":"address[]","internalType":"address[]"}],"stateMutability":"view"},{"type":"function","name":"getMinters","inputs":[],"outputs":[{"name":"","type":"address[]","internalType":"address[]"}],"stateMutability":"view"},{"type":"function","name":"grantBurnRole","inputs":[{"name":"burner","type":"address","internalType":"address"}],"outputs":[],"stateMutability":"nonpayable"},{"type":"function","name":"grantMintAndBurnRoles","inputs":[{"name":"burnAndMinter","type":"address","internalType":"address"}],"outputs":[],"stateMutability":"nonpayable"},{"type":"function","name":"grantMintRole","inputs":[{"name":"minter","type":"address","internalType":"address"}],"outputs":[],"stateMutability":"nonpayable"},{"type":"function","name":"increaseAllowance","inputs":[{"name":"spender","type":"address","internalType":"address"},{"name":"addedValue","type":"uint256","internalType":"uint256"}],"outputs":[{"name":"","type":"bool","internalType":"bool"}],"stateMutability":"nonpayable"},{"type":"function","name":"increaseApproval","inputs":[{"name":"spender","type":"address","internalType":"address"},{"name":"addedValue","type":"uint256","internalType":"uint256"}],"outputs":[],"stateMutability":"nonpayable"},{"type":"function","name":"isBurner","inputs":[{"name":"burner","type":"address","internalType":"address"}],"outputs":[{"name":"","type":"bool","internalType":"bool"}],"stateMutability":"view"},{"type":"function","name":"isMinter","inputs":[{"name":"minter","type":"address","internalType":"address"}],"outputs":[{"name":"","type":"bool","internalType":"bool"}],"stateMutability":"view"},{"type":"function","name":"maxSupply","inputs":[],"outputs":[{"name":"","type":"uint256","internalType":"uint256"}],"stateMutability":"view"},{"type":"function","name":"mint","inputs":[{"name":"account","type":"address","internalType":"address"},{"name":"amount","type":"uint256","internalType":"uint256"}],"outputs":[],"stateMutability":"nonpayable"},{"type":"function","name":"name","inputs":[],"outputs":[{"name":"","type":"string","internalType":"string"}],"stateMutability":"view"},{"type":"function","name":"owner","inputs":[],"outputs":[{"name":"","type":"address","internalType":"address"}],"stateMutability":"view"},{"type":"function","name":"revokeBurnRole","inputs":[{"name":"burner","type":"address","internalType":"address"}],"outputs":[],"stateMutability":"nonpayable"},{"type":"function","name":"revokeMintRole","inputs":[{"name":"minter","type":"address","internalType":"address"}],"outputs":[],"stateMutability":"nonpayable"},{"type":"function","name":"supportsInterface","inputs":[{"name":"interfaceId","type":"bytes4","internalType":"bytes4"}],"outputs":[{"name":"","type":"bool","internalType":"bool"}],"stateMutability":"pure"},{"type":"function","name":"symbol","inputs":[],"outputs":[{"name":"","type":"string","internalType":"string"}],"stateMutability":"view"},{"type":"function","name":"totalSupply","inputs":[],"outputs":[{"name":"","type":"uint256","internalType":"uint256"}],"stateMutability":"view"},{"type":"function","name":"transfer","inputs":[{"name":"to","type":"address","internalType":"address"},{"name":"amount","type":"uint256","internalType":"uint256"}],"outputs":[{"name":"","type":"bool","internalType":"bool"}],"stateMutability":"nonpayable"},{"type":"function","name":"transferAndCall","inputs":[{"name":"to","type":"address","internalType":"address"},{"name":"amount","type":"uint256","internalType":"uint256"},{"name":"data","type":"bytes","internalType":"bytes"}],"outputs":[{"name":"success","type":"bool","internalType":"bool"}],"stateMutability":"nonpayable"},{"type":"function","name":"transferFrom","inputs":[{"name":"from","type":"address","internalType":"address"},{"name":"to","type":"address","internalType":"address"},{"name":"amount","type":"uint256","internalType":"uint256"}],"outputs":[{"name":"","type":"bool","internalType":"bool"}],"stateMutability":"nonpayable"},{"type":"function","name":"transferOwnership","inputs":[{"name":"to","type":"address","internalType":"address"}],"outputs":[],"stateMutability":"nonpayable"},{"type":"event","name":"Approval","inputs":[{"name":"owner","type":"address","indexed":true,"internalType":"address"},{"name":"spender","type":"address","indexed":true,"internalType":"address"},{"name":"value","type":"uint256","indexed":false,"internalType":"uint256"}],"anonymous":false},{"type":"event","name":"BurnAccessGranted","inputs":[{"name":"burner","type":"address","indexed":true,"internalType":"address"}],"anonymous":false},{"type":"event","name":"BurnAccessRevoked","inputs":[{"name":"burner","type":"address","indexed":true,"internalType":"address"}],"anonymous":false},{"type":"event","name":"MintAccessGranted","inputs":[{"name":"minter","type":"address","indexed":true,"internalType":"address"}],"anonymous":false},{"type":"event","name":"MintAccessRevoked","inputs":[{"name":"minter","type":"address","indexed":true,"internalType":"address"}],"anonymous":false},{"type":"event","name":"OwnershipTransferRequested","inputs":[{"name":"from","type":"address","indexed":true,"internalType":"address"},{"name":"to","type":"address","indexed":true,"internalType":"address"}],"anonymous":false},{"type":"event","name":"OwnershipTransferred","inputs":[{"name":"from","type":"address","indexed":true,"internalType":"address"},{"name":"to","type":"address","indexed":true,"internalType":"address"}],"anonymous":false},{"type":"event","name":"Transfer","inputs":[{"name":"from","type":"address","indexed":true,"internalType":"address"},{"name":"to","type":"address","indexed":true,"internalType":"address"},{"name":"value","type":"uint256","indexed":false,"internalType":"uint256"},{"name":"data","type":"bytes","indexed":false,"internalType":"bytes"}],"anonymous":false},{"type":"event","name":"Transfer","inputs":[{"name":"from","type":"address","indexed":true,"internalType":"address"},{"name":"to","type":"address","indexed":true,"internalType":"address"},{"name":"value","type":"uint256","indexed":false,"internalType":"uint256"}],"anonymous":false},{"type":"error","name":"MaxSupplyExceeded","inputs":[{"name":"supplyAfterMint","type":"uint256","internalType":"uint256"}]},{"type":"error","name":"SenderNotBurner","inputs":[{"name":"sender","type":"address","internalType":"address"}]},{"type":"error","name":"SenderNotMinter","inputs":[{"name":"sender","type":"address","internalType":"address"}]}],"bytecode":{"object":"0x60c060405234620003b05762002022803803806200001d81620003b5565b928339810190608081830312620003b05780516001600160401b039290838111620003b0578162000050918401620003db565b906020908184015190858211620003b0576200006e918501620003db565b9160408401519360ff85168503620003b05760600151948151818111620002b0576003908154906001948583811c93168015620003a5575b878410146200038f578190601f9384811162000339575b508790848311600114620002d257600092620002c6575b505060001982851b1c191690851b1782555b8551928311620002b05760049586548581811c91168015620002a5575b87821014620002905782811162000245575b5085918411600114620001da57938394918492600095620001ce575b50501b92600019911b1c19161782555b33156200018b575050600580546001600160a01b0319163317905560805260a052604051611bd490816200044e823960805181610ca5015260a05181818161033801526109df0152f35b60405162461bcd60e51b815291820152601860248201527f43616e6e6f7420736574206f776e657220746f207a65726f0000000000000000604482015260649150fd5b01519350388062000131565b9190601f198416928760005284876000209460005b89898383106200022d575050501062000212575b50505050811b01825562000141565b01519060f884600019921b161c191690553880808062000203565b868601518955909701969485019488935001620001ef565b87600052866000208380870160051c82019289881062000286575b0160051c019086905b8281106200027957505062000115565b6000815501869062000269565b9250819262000260565b602288634e487b7160e01b6000525260246000fd5b90607f169062000103565b634e487b7160e01b600052604160045260246000fd5b015190503880620000d4565b90879350601f1983169186600052896000209260005b8b82821062000322575050841162000309575b505050811b018255620000e6565b015160001983871b60f8161c19169055388080620002fb565b8385015186558b97909501949384019301620002e8565b90915084600052876000208480850160051c8201928a861062000385575b918991869594930160051c01915b82811062000375575050620000bd565b6000815585945089910162000365565b9250819262000357565b634e487b7160e01b600052602260045260246000fd5b92607f1692620000a6565b600080fd5b6040519190601f01601f191682016001600160401b03811183821017620002b057604052565b919080601f84011215620003b05782516001600160401b038111620002b05760209062000411601f8201601f19168301620003b5565b92818452828287010111620003b05760005b8181106200043957508260009394955001015290565b85810183015184820184015282016200042356fe60806040908082526004918236101561001757600080fd5b600092833560e01c92836301ffc9a7146110615750826306fdde0314610f6a578263095ea7b314610e7f57826318160ddd14610e6057826323b872dd14610cc9578263313ce56714610c8b5782633950935114610c6b5782634000aea014610ae057826340c10f191461099157826342966c681461093f5782634334614a146109025782634f5632f81461089f57826366188463146105045782636b32810b1461082557826370a08231146107ee57826379ba50971461073d57826379cc67901461050957826386fe8b43146106b95782638da5cb5b1461069057826395d89b41146105735782639dc29fac14610509578263a457c2d714610504578263a9059cbb146104db578263aa271e1a14610495578263c2e3273d14610432578263c630948d146103be578263c64d0ebc1461035b578263d5abeb0114610320578263d73dd623146102f7578263dd62ed3e146102aa578263f2fde38b146101ec57505063f81094f31461018757600080fd5b346101e95760203660031901126101e9576101a0611124565b6101a86116f6565b6001600160a01b03166101ba816119c2565b6101c2575080f35b7fed998b960f6340d045f620c119730f7aa7995e7425c2401d3a5b64ff998a59e98280a280f35b80fd5b909150346102a65760203660031901126102a657610208611124565b906102116116f6565b6001600160a01b0391821692338414610263575050600680546001600160a01b03191683179055600554167fed8889f560326eb138920d842192f0eb3dd22b4f139c87a2c57538e05bae12788380a380f35b906020606492519162461bcd60e51b8352820152601760248201527f43616e6e6f74207472616e7366657220746f2073656c660000000000000000006044820152fd5b8280fd5b8382346102f357806003193601126102f357806020926102c8611124565b6102d061113f565b6001600160a01b0391821683526001865283832091168252845220549051908152f35b5080fd5b8382346102f3573660031901126101e95761031c610313611124565b60243590611352565b5080f35b8382346102f357816003193601126102f357602090517f00000000000000000000000000000000000000000000000000000000000000008152f35b83346101e95760203660031901126101e957610375611124565b61037d6116f6565b6001600160a01b031661038f81611ad1565b610397575080f35b7f92308bb7573b2a3d17ddb868b39d8ebec433f3194421abc22d084f89658c9bad8280a280f35b83346101e95760203660031901126101e9576103d8611124565b6103e06116f6565b6001600160a01b03166103f281611a6b565b610408575b6103ff6116f6565b61038f81611ad1565b807fe46fef8bbff1389d9010703cf8ebb363fb3daf5bf56edc27080b67bc8d9251ea8380a26103f7565b83346101e95760203660031901126101e95761044c611124565b6104546116f6565b6001600160a01b031661046681611a6b565b61046e575080f35b7fe46fef8bbff1389d9010703cf8ebb363fb3daf5bf56edc27080b67bc8d9251ea8280a280f35b8382346102f35760203660031901126102f3576020906104d26001600160a01b036104be611124565b166000526008602052604060002054151590565b90519015158152f35b8382346102f357806003193601126102f3576020906104d26104fb611124565b60243590611441565b61118d565b8390346102f357826003193601126102f357610523611124565b6024359161053e33600052600a602052604060002054151590565b1561055c575090610559916105548233836115a5565b611748565b80f35b60249085519063c820b10b60e01b82523390820152fd5b9083346101e957806003193601126101e9578151918184549260018460011c9160018616958615610686575b6020968785108114610673579087899a92868b999a9b5291826000146106495750506001146105ee575b85886105ea896105db848a0385611155565b519282849384528301906110e4565b0390f35b815286935091907f8a35acfbc15ff81a39ae7d344fd709f28e8600b4aa8c65c6b64bfe7fe36bd19b5b82841061063157505050820101816105db6105ea886105c9565b8054848a018601528895508794909301928101610617565b60ff19168882015294151560051b870190940194508593506105db92506105ea91508990506105c9565b634e487b7160e01b835260228a52602483fd5b92607f169261059f565b8382346102f357816003193601126102f35760055490516001600160a01b039091168152602090f35b5082346101e957806003193601126101e9578151918291600954808552602080950194600983527f6e1540171b6c0c960b71a7020d9f60077f6af931a8bbf590da0223dacf75c7af92905b828210610726576105ea868661071c828b0383611155565b51918291826112ea565b835487529586019560019384019390910190610704565b9150346102a657826003193601126102a657600654916001600160a01b039182841633036107b2575050600554916bffffffffffffffffffffffff60a01b903382851617600555166006553391167f8be0079c531659141344cd1fd0a4f28419497f9722a3daafe3b4186f6b6457e08380a380f35b906020606492519162461bcd60e51b8352820152601660248201527526bab9ba10313290383937b837b9b2b21037bbb732b960511b6044820152fd5b8382346102f35760203660031901126102f35760209181906001600160a01b03610816611124565b16815280845220549051908152f35b5082346101e957806003193601126101e9578151918291600754808552602080950194600783527fa66cc928b5edb82af9bd49922954155ab7b0942694bea4ce44661d9a8736c68892905b828210610888576105ea868661071c828b0383611155565b835487529586019560019384019390910190610870565b83346101e95760203660031901126101e9576108b9611124565b6108c16116f6565b6001600160a01b03166108d3816118c1565b6108db575080f35b7f0a675452746933cefe3d74182e78db7afe57ba60eaa4234b5d85e9aa41b0610c8280a280f35b8382346102f35760203660031901126102f3576020906104d26001600160a01b0361092b611124565b16600052600a602052604060002054151590565b9150346102a65760203660031901126102a65761096933600052600a602052604060002054151590565b1561097a5750610559903533611748565b60249250519063c820b10b60e01b82523390820152fd5b9150346102a657806003193601126102a6576109ab611124565b90602435916109c7336000526008602052604060002054151590565b15610aca576001600160a01b031692308414610ac6577f00000000000000000000000000000000000000000000000000000000000000008015159081610ab1575b50610a90578315610a4e5750602082600080516020611b5f83398151915292610a34879560025461132f565b60025585855284835280852082815401905551908152a380f35b6020606492519162461bcd60e51b8352820152601f60248201527f45524332303a206d696e7420746f20746865207a65726f2061646472657373006044820152fd5b90610a9f60249360025461132f565b905163cbbf111360e01b815291820152fd5b9050610abf8460025461132f565b1138610a08565b8480fd5b815163e2c8c9d560e01b81523381860152602490fd5b909150346102a65760603660031901126102a657610afc611124565b9260249182356044359567ffffffffffffffff91828811610ac65736602389011215610ac65787840135838111610c5957875198610b44601f8301601f19166020018b611155565b818a5236888383010111610c55578187928960209301838d01378a010152610b6c8183611441565b508651818152602081018890526001600160a01b0383169290839033907fe19260aff97b920c7df27010903aeb9c8d2be5d310a2c67824cf3f15396e4c169080610bb8818e018f6110e4565b0390a33b610bcb575b6020875160018152f35b819695963b15610ac6579684918798838899610c0c9951998a9586948593635260769b60e11b8552338c8601528401526060604484015260648301906110e4565b03925af18015610c4b57610c22575b8080610bc1565b8311610c3957505060209250815238808080610c1b565b634e487b7160e01b8252604190528390fd5b85513d85823e3d90fd5b8680fd5b634e487b7160e01b8652604185528686fd5b8382346102f357806003193601126102f3576020906104d2610313611124565b8382346102f357816003193601126102f3576020905160ff7f0000000000000000000000000000000000000000000000000000000000000000168152f35b9083346101e95760603660031901126101e957610ce4611124565b90610ced61113f565b60443590610cfc8233866115a5565b6001600160a01b0390811693308514610e5c5716918215610e0b578315610dbc578281528060205284812054828110610d6a576020965091858282600080516020611b5f83398151915295878b96528286520382822055868152208181540190558551908152a35160018152f35b855162461bcd60e51b8152602081890152602660248201527f45524332303a207472616e7366657220616d6f756e7420657863656564732062604482015265616c616e636560d01b6064820152608490fd5b845162461bcd60e51b8152602081880152602360248201527f45524332303a207472616e7366657220746f20746865207a65726f206164647260448201526265737360e81b6064820152608490fd5b845162461bcd60e51b8152602081880152602560248201527f45524332303a207472616e736665722066726f6d20746865207a65726f206164604482015264647265737360d81b6064820152608490fd5b8380fd5b8382346102f357816003193601126102f3576020906002549051908152f35b9083346101e957816003193601126101e957610e99611124565b6001600160a01b031690602435903083146101e9573315610f2d578215610ef1576020945083829133815260018752818120858252875220558251908152600080516020611b7f833981519152843392a35160018152f35b835162461bcd60e51b815260208187015260226024820152600080516020611b3f833981519152604482015261737360f01b6064820152608490fd5b835162461bcd60e51b8152602081870152602480820152600080516020611b1f8339815191526044820152637265737360e01b6064820152608490fd5b9083346101e957806003193601126101e957815191816003549260018460011c9160018616958615611057575b6020968785108114610673578899509688969785829a529182600014611030575050600114610fd4575b5050506105ea92916105db910385611155565b9190869350600383527fc2575a0e9e593c00f959f8c92f12db2869c3395a3b0502d05e2516446f71f85b5b82841061101857505050820101816105db6105ea610fc1565b8054848a018601528895508794909301928101610fff565b60ff19168782015293151560051b860190930193508492506105db91506105ea9050610fc1565b92607f1692610f97565b8491346102a65760203660031901126102a6573563ffffffff60e01b81168091036102a657602092506336372b0760e01b81149081156110d3575b81156110c2575b81156110b1575b5015158152f35b6301ffc9a760e01b149050836110aa565b63e6599b4d60e01b811491506110a3565b630200057560e51b8114915061109c565b919082519283825260005b848110611110575050826000602080949584010152601f8019910116010190565b6020818301810151848301820152016110ef565b600435906001600160a01b038216820361113a57565b600080fd5b602435906001600160a01b038216820361113a57565b90601f8019910116810190811067ffffffffffffffff82111761117757604052565b634e487b7160e01b600052604160045260246000fd5b3461113a5760408060031936011261113a576111a7611124565b90602435916000338152602093600185528382209260018060a01b0316928383528552838220548181106112985703903083146101e957331561125a57821561121d5783829133815260018752818120858252875220558251908152600080516020611b7f833981519152843392a35160018152f35b835162461bcd60e51b81526004810186905260226024820152600080516020611b3f833981519152604482015261737360f01b6064820152608490fd5b835162461bcd60e51b815260048101869052602480820152600080516020611b1f8339815191526044820152637265737360e01b6064820152608490fd5b845162461bcd60e51b815260048101879052602560248201527f45524332303a2064656372656173656420616c6c6f77616e63652062656c6f77604482015264207a65726f60d81b6064820152608490fd5b602090602060408183019282815285518094520193019160005b828110611312575050505090565b83516001600160a01b031685529381019392810192600101611304565b9190820180921161133c57565b634e487b7160e01b600052601160045260246000fd5b90600090338252602090600182526113816040918285209560018060a01b03169586865284528285205461132f565b923085146101e95733156114035784156113c657908381600080516020611b7f83398151915294933381526001855281812088825285522055519283523392a3600190565b815162461bcd60e51b81526004810184905260226024820152600080516020611b3f833981519152604482015261737360f01b6064820152608490fd5b815162461bcd60e51b815260048101849052602480820152600080516020611b1f8339815191526044820152637265737360e01b6064820152608490fd5b6001600160a01b03169030821461113a573315611552578115611501576000338152806020526040812054908282106114ad578260409233835282602052038282205583815220818154019055604051908152600080516020611b5f83398151915260203392a3600190565b60405162461bcd60e51b815260206004820152602660248201527f45524332303a207472616e7366657220616d6f756e7420657863656564732062604482015265616c616e636560d01b6064820152608490fd5b60405162461bcd60e51b815260206004820152602360248201527f45524332303a207472616e7366657220746f20746865207a65726f206164647260448201526265737360e81b6064820152608490fd5b60405162461bcd60e51b815260206004820152602560248201527f45524332303a207472616e736665722066726f6d20746865207a65726f206164604482015264647265737360d81b6064820152608490fd5b909160018060a01b03809216916000908382526020926001845260409182842096169586845284528183205460001981036115e4575b50505050505050565b8181106116b25703913086146101e9578415611674578515611637579082818387600080516020611b7f83398151915297969552600186528181208982528652205551908152a3388080808080806115db565b815162461bcd60e51b81526004810185905260226024820152600080516020611b3f833981519152604482015261737360f01b6064820152608490fd5b815162461bcd60e51b815260048101859052602480820152600080516020611b1f8339815191526044820152637265737360e01b6064820152608490fd5b825162461bcd60e51b815260048101869052601d60248201527f45524332303a20696e73756666696369656e7420616c6c6f77616e63650000006044820152606490fd5b6005546001600160a01b0316330361170a57565b60405162461bcd60e51b815260206004820152601660248201527527b7363c9031b0b63630b1363290313c9037bbb732b960511b6044820152606490fd5b6001600160a01b031680156117ee5760009181835282602052604083205481811061179e5781600080516020611b5f833981519152926020928587528684520360408620558060025403600255604051908152a3565b60405162461bcd60e51b815260206004820152602260248201527f45524332303a206275726e20616d6f756e7420657863656564732062616c616e604482015261636560f01b6064820152608490fd5b60405162461bcd60e51b815260206004820152602160248201527f45524332303a206275726e2066726f6d20746865207a65726f206164647265736044820152607360f81b6064820152608490fd5b6009548110156118745760096000527f6e1540171b6c0c960b71a7020d9f60077f6af931a8bbf590da0223dacf75c7af0190600090565b634e487b7160e01b600052603260045260246000fd5b6007548110156118745760076000527fa66cc928b5edb82af9bd49922954155ab7b0942694bea4ce44661d9a8736c6880190600090565b6000818152600a602052604081205490919080156119bd57600019908082018181116119a957600954908382019182116119955780820361194a575b5050506009548015611936578101906119158261183d565b909182549160031b1b191690556009558152600a6020526040812055600190565b634e487b7160e01b84526031600452602484fd5b61197f6119596119689361183d565b90549060031b1c92839261183d565b819391549060031b91821b91600019901b19161790565b90558452600a60205260408420553880806118fd565b634e487b7160e01b86526011600452602486fd5b634e487b7160e01b85526011600452602485fd5b505090565b60008181526008602052604081205490919080156119bd57600019908082018181116119a9576007549083820191821161199557808203611a37575b505050600754801561193657810190611a168261188a565b909182549160031b1b19169055600755815260086020526040812055600190565b611a55611a466119689361188a565b90549060031b1c92839261188a565b90558452600860205260408420553880806119fe565b600081815260086020526040812054611acc57600754600160401b811015611ab8579082611aa46119688460016040960160075561188a565b905560075492815260086020522055600190565b634e487b7160e01b82526041600452602482fd5b905090565b6000818152600a6020526040812054611acc57600954600160401b811015611ab8579082611b0a6119688460016040960160095561183d565b9055600954928152600a602052205560019056fe45524332303a20617070726f76652066726f6d20746865207a65726f2061646445524332303a20617070726f766520746f20746865207a65726f206164647265ddf252ad1be2c89b69c2b068fc378daa952ba7f163c4a11628f55a4df523b3ef8c5be1e5ebec7d5bd14f71427d1e84f3dd0314c0f7b2291e5b200ac8c7c3b925a26469706673582212202d871e4adeea984e65e3b061d6e7ecc336d847841e5c01695587a2412a2c852264736f6c63430008180033","linkReferences":{}},"methodIdentifiers":{"acceptOwnership()":"79ba5097","allowance(address,address)":"dd62ed3e","approve(address,uint256)":"095ea7b3","balanceOf(address)":"70a08231","burn(address,uint256)":"9dc29fac","burn(uint256)":"42966c68","burnFrom(address,uint256)":"79cc6790","decimals()":"313ce567","decreaseAllowance(address,uint256)":"a457c2d7","decreaseApproval(address,uint256)":"66188463","getBurners()":"86fe8b43","getMinters()":"6b32810b","grantBurnRole(address)":"c64d0ebc","grantMintAndBurnRoles(address)":"c630948d","grantMintRole(address)":"c2e3273d","increaseAllowance(address,uint256)":"39509351","increaseApproval(address,uint256)":"d73dd623","isBurner(address)":"4334614a","isMinter(address)":"aa271e1a","maxSupply()":"d5abeb01","mint(address,uint256)":"40c10f19","name()":"06fdde03","owner()":"8da5cb5b","revokeBurnRole(address)":"4f5632f8","revokeMintRole(address)":"f81094f3","supportsInterface(bytes4)":"01ffc9a7","symbol()":"95d89b41","totalSupply()":"18160ddd","transfer(address,uint256)":"a9059cbb","transferAndCall(address,uint256,bytes)":"4000aea0","transferFrom(address,address,uint256)":"23b872dd","transferOwnership(address)":"f2fde38b"},"id":15}