{"abi":[{"type":"constructor","inputs":[],"stateMutability":"nonpayable"},{"type":"receive","stateMutability":"payable"},{"type":"function","name":"BASE_PRICE_IN_MATIC","inputs":[],"outputs":[{"name":"","type":"uint256","internalType":"uint256"}],"stateMutability":"view"},{"type":"function","name":"_ccipHandler","inputs":[],"outputs":[{"name":"","type":"address","internalType":"address"}],"stateMutability":"view"},{"type":"function","name":"_sign","inputs":[],"outputs":[{"name":"","type":"string","internalType":"string"}],"stateMutability":"view"},{"type":"function","name":"approve","inputs":[{"name":"to","type":"address","internalType":"address"},{"name":"tokenId","type":"uint256","internalType":"uint256"}],"outputs":[],"stateMutability":"nonpayable"},{"type":"function","name":"balanceOf","inputs":[{"name":"owner","type":"address","internalType":"address"}],"outputs":[{"name":"","type":"uint256","internalType":"uint256"}],"stateMutability":"view"},{"type":"function","name":"calculateUpgrade","inputs":[{"name":"previousStat","type":"tuple","internalType":"struct RPGItemUtils.StatType","components":[{"name":"stat1","type":"uint8","internalType":"uint8"},{"name":"stat2","type":"uint8","internalType":"uint8"},{"name":"specialType","type":"uint8","internalType":"uint8"},{"name":"specialPoints","type":"uint8","internalType":"uint8"}]}],"outputs":[{"name":"","type":"tuple","internalType":"struct RPGItemUtils.StatType","components":[{"name":"stat1","type":"uint8","internalType":"uint8"},{"name":"stat2","type":"uint8","internalType":"uint8"},{"name":"specialType","type":"uint8","internalType":"uint8"},{"name":"specialPoints","type":"uint8","internalType":"uint8"}]}],"stateMutability":"nonpayable"},{"type":"function","name":"changeCCIP","inputs":[{"name":"newAdd","type":"address","internalType":"address"}],"outputs":[],"stateMutability":"nonpayable"},{"type":"function","name":"getApproved","inputs":[{"name":"tokenId","type":"uint256","internalType":"uint256"}],"outputs":[{"name":"","type":"address","internalType":"address"}],"stateMutability":"view"},{"type":"function","name":"getOwner","inputs":[{"name":"tokenId","type":"uint256","internalType":"uint256"}],"outputs":[{"name":"","type":"address","internalType":"address"}],"stateMutability":"view"},{"type":"function","name":"getSpecial","inputs":[{"name":"tokenId","type":"uint256","internalType":"uint256"}],"outputs":[{"name":"","type":"uint8","internalType":"uint8"},{"name":"","type":"uint8","internalType":"uint8"}],"stateMutability":"view"},{"type":"function","name":"getStat","inputs":[{"name":"statLabel","type":"string","internalType":"string"},{"name":"tokenId","type":"uint256","internalType":"uint256"}],"outputs":[{"name":"stat","type":"uint8","internalType":"uint8"}],"stateMutability":"view"},{"type":"function","name":"getTokenStats","inputs":[{"name":"tokenId","type":"uint256","internalType":"uint256"}],"outputs":[{"name":"","type":"uint8","internalType":"uint8"},{"name":"","type":"uint8","internalType":"uint8"},{"name":"","type":"uint8","internalType":"uint8"},{"name":"","type":"uint8","internalType":"uint8"}],"stateMutability":"view"},{"type":"function","name":"isApprovedForAll","inputs":[{"name":"owner","type":"address","internalType":"address"},{"name":"operator","type":"address","internalType":"address"}],"outputs":[{"name":"","type":"bool","internalType":"bool"}],"stateMutability":"view"},{"type":"function","name":"itemImage__","inputs":[],"outputs":[{"name":"","type":"string","internalType":"string"}],"stateMutability":"view"},{"type":"function","name":"itemType","inputs":[],"outputs":[{"name":"","type":"string","internalType":"string"}],"stateMutability":"view"},{"type":"function","name":"lockStatus","inputs":[{"name":"tokenId","type":"uint256","internalType":"uint256"}],"outputs":[{"name":"","type":"bool","internalType":"bool"}],"stateMutability":"view"},{"type":"function","name":"lockedItemImage","inputs":[],"outputs":[{"name":"","type":"string","internalType":"string"}],"stateMutability":"view"},{"type":"function","name":"mint","inputs":[],"outputs":[],"stateMutability":"payable"},{"type":"function","name":"mintPrice","inputs":[],"outputs":[{"name":"","type":"uint256","internalType":"uint256"}],"stateMutability":"view"},{"type":"function","name":"name","inputs":[],"outputs":[{"name":"","type":"string","internalType":"string"}],"stateMutability":"view"},{"type":"function","name":"newStatMap","inputs":[{"name":"","type":"bytes32","internalType":"bytes32"}],"outputs":[{"name":"stat1","type":"uint8","internalType":"uint8"},{"name":"stat2","type":"uint8","internalType":"uint8"},{"name":"specialType","type":"uint8","internalType":"uint8"},{"name":"specialPoints","type":"uint8","internalType":"uint8"}],"stateMutability":"view"},{"type":"function","name":"owner","inputs":[],"outputs":[{"name":"","type":"address","internalType":"address"}],"stateMutability":"view"},{"type":"function","name":"ownerOf","inputs":[{"name":"tokenId","type":"uint256","internalType":"uint256"}],"outputs":[{"name":"","type":"address","internalType":"address"}],"stateMutability":"view"},{"type":"function","name":"renounceOwnership","inputs":[],"outputs":[],"stateMutability":"nonpayable"},{"type":"function","name":"safeTransferFrom","inputs":[{"name":"from","type":"address","internalType":"address"},{"name":"to","type":"address","internalType":"address"},{"name":"tokenId","type":"uint256","internalType":"uint256"}],"outputs":[],"stateMutability":"nonpayable"},{"type":"function","name":"safeTransferFrom","inputs":[{"name":"from","type":"address","internalType":"address"},{"name":"to","type":"address","internalType":"address"},{"name":"tokenId","type":"uint256","internalType":"uint256"},{"name":"data","type":"bytes","internalType":"bytes"}],"outputs":[],"stateMutability":"nonpayable"},{"type":"function","name":"setApprovalForAll","inputs":[{"name":"operator","type":"address","internalType":"address"},{"name":"approved","type":"bool","internalType":"bool"}],"outputs":[],"stateMutability":"nonpayable"},{"type":"function","name":"setMintPrice","inputs":[{"name":"_mintPrice","type":"uint256","internalType":"uint256"}],"outputs":[],"stateMutability":"nonpayable"},{"type":"function","name":"setSign","inputs":[{"name":"sign","type":"string","internalType":"string"}],"outputs":[],"stateMutability":"nonpayable"},{"type":"function","name":"setTokenLockStatus","inputs":[{"name":"tokenId","type":"uint256","internalType":"uint256"},{"name":"unlockTime","type":"uint256","internalType":"uint256"}],"outputs":[],"stateMutability":"nonpayable"},{"type":"function","name":"statLabels","inputs":[{"name":"","type":"uint256","internalType":"uint256"}],"outputs":[{"name":"","type":"string","internalType":"string"}],"stateMutability":"view"},{"type":"function","name":"supportsInterface","inputs":[{"name":"interfaceId","type":"bytes4","internalType":"bytes4"}],"outputs":[{"name":"","type":"bool","internalType":"bool"}],"stateMutability":"view"},{"type":"function","name":"symbol","inputs":[],"outputs":[{"name":"","type":"string","internalType":"string"}],"stateMutability":"view"},{"type":"function","name":"tokenLockedTill","inputs":[{"name":"","type":"uint256","internalType":"uint256"}],"outputs":[{"name":"","type":"uint256","internalType":"uint256"}],"stateMutability":"view"},{"type":"function","name":"tokenURI","inputs":[{"name":"tokenId","type":"uint256","internalType":"uint256"}],"outputs":[{"name":"","type":"string","internalType":"string"}],"stateMutability":"view"},{"type":"function","name":"transfer","inputs":[{"name":"to","type":"address","internalType":"address"},{"name":"tokenId","type":"uint256","internalType":"uint256"}],"outputs":[],"stateMutability":"nonpayable"},{"type":"function","name":"transferFrom","inputs":[{"name":"from","type":"address","internalType":"address"},{"name":"to","type":"address","internalType":"address"},{"name":"tokenId","type":"uint256","internalType":"uint256"}],"outputs":[],"stateMutability":"nonpayable"},{"type":"function","name":"transferOwnership","inputs":[{"name":"newOwner","type":"address","internalType":"address"}],"outputs":[],"stateMutability":"nonpayable"},{"type":"function","name":"updateStats","inputs":[{"name":"tokenId","type":"uint256","internalType":"uint256"},{"name":"newOwner","type":"address","internalType":"address"},{"name":"stat1","type":"uint8","internalType":"uint8"},{"name":"stat2","type":"uint8","internalType":"uint8"},{"name":"specialType","type":"uint8","internalType":"uint8"},{"name":"specialPoints","type":"uint8","internalType":"uint8"}],"outputs":[{"name":"","type":"bool","internalType":"bool"}],"stateMutability":"nonpayable"},{"type":"function","name":"upgrade","inputs":[{"name":"tokenId","type":"uint256","internalType":"uint256"}],"outputs":[],"stateMutability":"payable"},{"type":"function","name":"upgradeMapping","inputs":[{"name":"","type":"uint256","internalType":"uint256"}],"outputs":[{"name":"stat1","type":"uint8","internalType":"uint8"},{"name":"stat2","type":"uint8","internalType":"uint8"},{"name":"specialType","type":"uint8","internalType":"uint8"},{"name":"specialPoints","type":"uint8","internalType":"uint8"}],"stateMutability":"view"},{"type":"event","name":"Approval","inputs":[{"name":"owner","type":"address","indexed":true,"internalType":"address"},{"name":"approved","type":"address","indexed":true,"internalType":"address"},{"name":"tokenId","type":"uint256","indexed":true,"internalType":"uint256"}],"anonymous":false},{"type":"event","name":"ApprovalForAll","inputs":[{"name":"owner","type":"address","indexed":true,"internalType":"address"},{"name":"operator","type":"address","indexed":true,"internalType":"address"},{"name":"approved","type":"bool","indexed":false,"internalType":"bool"}],"anonymous":false},{"type":"event","name":"NftMinted","inputs":[{"name":"recipient","type":"address","indexed":true,"internalType":"address"},{"name":"tokenId","type":"uint256","indexed":true,"internalType":"uint256"},{"name":"timestamp","type":"uint256","indexed":true,"internalType":"uint256"}],"anonymous":false},{"type":"event","name":"OwnershipTransferred","inputs":[{"name":"previousOwner","type":"address","indexed":true,"internalType":"address"},{"name":"newOwner","type":"address","indexed":true,"internalType":"address"}],"anonymous":false},{"type":"event","name":"Transfer","inputs":[{"name":"from","type":"address","indexed":true,"internalType":"address"},{"name":"to","type":"address","indexed":true,"internalType":"address"},{"name":"tokenId","type":"uint256","indexed":true,"internalType":"uint256"}],"anonymous":false},{"type":"event","name":"Transfer","inputs":[{"name":"sender","type":"address","indexed":true,"internalType":"address"},{"name":"amount","type":"uint256","indexed":true,"internalType":"uint256"}],"anonymous":false},{"type":"error","name":"ERC721IncorrectOwner","inputs":[{"name":"sender","type":"address","internalType":"address"},{"name":"tokenId","type":"uint256","internalType":"uint256"},{"name":"owner","type":"address","internalType":"address"}]},{"type":"error","name":"ERC721InsufficientApproval","inputs":[{"name":"operator","type":"address","internalType":"address"},{"name":"tokenId","type":"uint256","internalType":"uint256"}]},{"type":"error","name":"ERC721InvalidApprover","inputs":[{"name":"approver","type":"address","internalType":"address"}]},{"type":"error","name":"ERC721InvalidOperator","inputs":[{"name":"operator","type":"address","internalType":"address"}]},{"type":"error","name":"ERC721InvalidOwner","inputs":[{"name":"owner","type":"address","internalType":"address"}]},{"type":"error","name":"ERC721InvalidReceiver","inputs":[{"name":"receiver","type":"address","internalType":"address"}]},{"type":"error","name":"ERC721InvalidSender","inputs":[{"name":"sender","type":"address","internalType":"address"}]},{"type":"error","name":"ERC721NonexistentToken","inputs":[{"name":"tokenId","type":"uint256","internalType":"uint256"}]},{"type":"error","name":"OwnableInvalidOwner","inputs":[{"name":"owner","type":"address","internalType":"address"}]},{"type":"error","name":"OwnableUnauthorizedAccount","inputs":[{"name":"account","type":"address","internalType":"address"}]}],"bytecode":{"object":"0x604060a081523462000924576200001562000929565b60059081815260206080526414dddbdc9960da1b6080518201526200003962000929565b6002815260805161535760f01b90820152815190926001600160401b038083116200090e576000926200006d845462000949565b94601f95868111620008dc575b50608051908683116001146200087157620000ae929186918362000556575b50508160011b916000199060031b1c19161790565b83555b84518181116200085d57600195620000ca875462000949565b86811162000820575b5060805190868311600114620007b957620001069291869183620005565750508160011b916000199060031b1c19161790565b85555b600680546001600160a01b031980821673b1293a8bff9323aad0419e46dd9846cc7363d44b9081179093559591906001600160a01b03167f8be0079c531659141344cd1fd0a4f28419497f9722a3daafe3b4186f6b6457e08680a36200017160105462000949565b81811162000794575b5060c360105560108452606760f81b600360805186207f68747470733a2f2f75706c6f61642e77696b696d656469612e6f72672f77696b81557f6970656469612f636f6d6d6f6e732f7468756d622f352f35352f426974636f69898201557f6e5f6c6f676f2e6a70672f36343070782d426974636f696e5f6c6f676f2e6a70600282015501556200020d60115462000949565b8181116200076f575b5060c760115560118452627a733360e81b600360805186207f68747470733a2f2f706c756d2d6c6961626c652d6d6173746f646f6e2d34353081557f2e6d7970696e6174612e636c6f75642f697066732f516d615844344e4c4e3968898201557f6e356362396a5464373866614d765533524e6d6633346776684c47736e7136376002820155015563281e140a63ffffffff19601354161760135586518781018181108482111762000662578852620002ce62000929565b60028152616c3160f01b6080518201528152620002ea62000929565b6002815261361960f11b608051820152608051820152600b9085905b6002821062000698575050506200031f600e5462000949565b81811162000676575b50600c653bb2b0b837b760d11b01600e5586516060810183811182821017620006625788526200035762000929565b600781526611b3193319331960c91b60805182015281526200037862000929565b60078152661199331933193360c91b6080518201526080518201526200039d62000929565b60078152662364656465646560c81b60805182015288820152600d546003600d5580600310620005e4575b50600d855260805185209085905b60038210620004e6575050875192608084019150811183821017620004d2578752838252600a608051830152601487830152601e606083015260075486600494600460075582600410620004a2575b5050505060078352608051832091835b868282106200047d57889073a1293a8bff9323aad0419e46dd9846cc7363d44b888888556012541617601255662386f26fc10000600855600a55516132d29081620009ec8239f35b835160805160ff600385901b81811b19909916921690971b1795909301920162000435565b620004c89360078852608051882093845463ffffffff16855501901c8201910162000986565b3880868162000425565b634e487b7160e01b85526041600452602485fd5b8051805190868211620005d057908a916200050e8262000507885462000949565b886200099f565b608051908783116001146200056257918062000543928596948d92620005565750508160011b916000199060031b1c19161790565b85555b60805101930191019091620003d6565b01519050388062000099565b868b526080518b2094929190601f1983168c5b818110620005b557509185969184879594106200059b575b505050811b01855562000546565b015160001960f88460031b161c191690553880806200058d565b83830151885560805197909601968f96938101930162000575565b634e487b7160e01b89526041600452602489fd5b600d8652876003608051882092830192015b82811062000606575050620003c8565b8762000613825462000949565b8062000625575b5050018890620005f6565b8681116001146200063c575081555b87386200061a565b8282526200065887608051842092018a1c820185830162000986565b8183555562000634565b634e487b7160e01b86526041600452602486fd5b600e8552608051852062000691918301851c81019062000986565b3862000328565b8051805190868211620005d057908a91620006b98262000507885462000949565b6080519087831160011462000701579180620006ee928596948d92620005565750508160011b916000199060031b1c19161790565b85555b6080510193019101909162000306565b868b526080518b2094929190601f1983168c5b8181106200075457509185969184879594106200073a575b505050811b018555620006f1565b015160001960f88460031b161c191690553880806200072c565b83830151885560805197909601968f96938101930162000714565b6011855260805185206200078d918301851c81019060040162000986565b3862000216565b601085526080518520620007b2918301851c81019060040162000986565b386200017a565b87865260805186208893929091601f198416885b8181106200080657508411620007ec575b505050811b01855562000109565b015160001960f88460031b161c19169055388080620007de565b8284015185556080518c97909501949384019301620007cd565b6200084c90888752608051872088808601881c820192608051871062000853575b01871c019062000986565b38620000d3565b9250819262000841565b634e487b7160e01b84526041600452602484fd5b85805260805186209190601f198416875b818110620008c25750908460019594939210620008a8575b505050811b018355620000b1565b015160001960f88460031b161c191690553880806200089a565b828401518555608051600190950194938401930162000882565b6200090790868052608051872088808601881c8201926080518710620008535701871c019062000986565b386200007a565b634e487b7160e01b600052604160045260246000fd5b600080fd5b60408051919082016001600160401b038111838210176200090e57604052565b90600182811c921680156200097b575b60208310146200096557565b634e487b7160e01b600052602260045260246000fd5b91607f169162000959565b81811062000992575050565b6000815560010162000986565b9190601f8111620009af57505050565b620009de926000526020600020906020601f840160051c83019310620009e0575b601f0160051c019062000986565b565b9091508190620009d056fe60806040526004361015610023575b361561001957600080fd5b6100216123ff565b005b60003560e01c806301ffc9a7146102ae57806302ee9785146102a957806305b1603f146102a457806306fdde031461029f578063081812fc1461029a57806308bbefef14610295578063095ea7b3146102905780631249c58b1461028b57806323b872dd1461028657806331fbbae2146102815780633e3c07401461027c57806342842e0e1461027757806345977d031461027257806346838f301461026d578063621167e6146102685780636352211e146102225780636467007b146102635780636817c76c1461025e57806368b167791461025957806370a0823114610254578063715018a61461024f5780638aa330151461024a5780638da5cb5b1461024557806395d89b4114610240578063a22cb4651461023b578063a50c8f2c14610236578063a9059cbb14610231578063ad3d47d71461022c578063b88d4fde14610227578063c41a360a14610222578063c58295141461021d578063c87b56dd14610218578063caf7226414610213578063d5784f151461020e578063d728f75c14610209578063e1d916f714610204578063e985e9c5146101ff578063f2fde38b146101fa578063f4a0a528146101f5578063f5470d7b146101f05763f759e5470361000e57611d0c565b611c5e565b611c3d565b611baf565b611b52565b611acd565b611a97565b611a4d565b61199f565b61174c565b61163d565b610dc8565b6115dd565b611583565b611517565b6114c6565b6113f2565b61134b565b611322565b611300565b6112a2565b611249565b611220565b611202565b61111d565b610d40565b610ce6565b610bcb565b610ba3565b610b60565b610a46565b61090e565b610822565b610725565b6106e6565b6106a8565b6105c5565b61053d565b6103c4565b6102ca565b6001600160e01b03198116036102c557565b600080fd5b346102c55760203660031901126102c55760206004356102e9816102b3565b63ffffffff60e01b166380ac58cd60e01b8114908115610327575b8115610316575b506040519015158152f35b6301ffc9a760e01b1490503861030b565b635b5e139f60e01b81149150610304565b602435906001600160a01b03821682036102c557565b600435906001600160a01b03821682036102c557565b6044359060ff821682036102c557565b6064359060ff821682036102c557565b6084359060ff821682036102c557565b60a4359060ff821682036102c557565b6004359060ff821682036102c557565b6024359060ff821682036102c557565b346102c55760c03660031901126102c5576004356103e0610338565b6103e8610364565b916103f1610374565b926103fa610384565b92610403610394565b9360018060a01b0361041a81601254163314611dba565b8216918215610504576104ac9661048f610486610481886104a397610499968261046861045c60609e600052600260205260018060a01b036040600020541690565b6001600160a01b031690565b156104bc575b5050506000526014602052604060002090565b611e06565b60ff9096168652565b60ff166020850152565b60ff166040830152565b019060ff169052565b60405160018152602090f35b0390f35b6104c591612428565b6000828152601560205260408120558142917ffc612aad4e70fb3e1d4832d8c65f92e4024aa87f809d131267a79bceee757f33600080a438808261046e565b60405162461bcd60e51b815260206004820152601160248201527024b73b30b634b2103732bb9037bbb732b960791b6044820152606490fd5b346102c55760203660031901126102c55760043560005260156020526020604060002054604051908152f35b60005b83811061057c5750506000910152565b818101518382015260200161056c565b906020916105a581518092818552858086019101610569565b601f01601f1916010190565b9060206105c292818152019061058c565b90565b346102c5576000806003193601126106a55760405190808054906105e882610e09565b808552916020916001918281169081156106785750600114610621575b6104b886610615818803826109b6565b604051918291826105b1565b80809550527f290decd9548b62a8d60345a988386fc84ba6bc95484008f6362f93160ef3e5635b83851061066557505050508101602001610615826104b838610605565b8054868601840152938201938101610648565b90508695506104b89693506020925061061594915060ff191682840152151560051b820101929338610605565b80fd5b346102c55760203660031901126102c5576004356106c581612571565b506000526004602052602060018060a01b0360406000205416604051908152f35b346102c55760403660031901126102c55761070c60018060a01b03601254163314611dba565b6004356000526015602052602435604060002055600080f35b346102c55760403660031901126102c55761073e61034e565b6024359061074b82612571565b3315158061080f575b806107e1575b6107c957610021926107aa9181906001600160a01b0385811691167f8c5be1e5ebec7d5bd14f71427d1e84f3dd0314c0f7b2291e5b200ac8c7c3b925600080a46000526004602052604060002090565b80546001600160a01b0319166001600160a01b03909216919091179055565b60405163a9fbf51f60e01b8152336004820152602490fd5b506001600160a01b038116600090815260056020908152604080832033845290915290205460ff161561075a565b506001600160a01b038116331415610754565b6000806003193601126106a557600854340361089f57600954600019811461089a5761085060018201600955565b61085a8133612428565b8161086f826000526015602052604060002090565b554290337ffc612aad4e70fb3e1d4832d8c65f92e4024aa87f809d131267a79bceee757f338480a480f35b611e3e565b60405162461bcd60e51b815260206004820152601260248201527124b739bab33334b1b4b2b73a1022ba3432b960711b6044820152606490fd5b60609060031901126102c5576001600160a01b039060043582811681036102c5579160243590811681036102c5579060443590565b346102c55761002161091f366108d9565b9161094260018060a01b0361093981601254163314611dba565b83161515611e54565b6125ac565b634e487b7160e01b600052604160045260246000fd5b6080810190811067ffffffffffffffff82111761097957604052565b610947565b6020810190811067ffffffffffffffff82111761097957604052565b6040810190811067ffffffffffffffff82111761097957604052565b90601f8019910116810190811067ffffffffffffffff82111761097957604052565b67ffffffffffffffff811161097957601f01601f191660200190565b929192610a00826109d8565b91610a0e60405193846109b6565b8294818452818301116102c5578281602093846000960137010152565b9080601f830112156102c5578160206105c2933591016109f4565b346102c5576020806003193601126102c55767ffffffffffffffff6004358181116102c557610a79903690600401610a2b565b91825191821161097957610a9782610a92600f54610e09565b611eac565b602090601f8311600114610ad957508190610ac993600092610ace575b50508160011b916000199060031b1c19161790565b600f55005b015190503880610ab4565b90601f19831693610b0c600f6000527f8d1108e10bcb7c27dddfc02ed9d693a074039d026cf4ea4240b40f7d581ac80290565b926000905b868210610b485750508360019510610b2f575b505050811b01600f55005b015160001960f88460031b161c19169055388080610b24565b80600185968294968601518155019501930190610b11565b346102c55760203660031901126102c557610b7961034e565b610b81612633565b601280546001600160a01b0319166001600160a01b0392909216919091179055005b346102c557610021610bb4366108d9565b9060405192610bc28461097e565b600084526120dd565b60203660031901126102c5576004356000818152600260205260408120549091610ce391610c03906001600160a01b03161515611f31565b8083526015602052610c1b6040842054421015611f73565b8083526014602052610c8b610c666040852060ff60405191610c3c8361095d565b548181168352818160081c166020840152818160101c16604084015260181c166060820152612022565b91610c7b610c7384612677565b341015611fb1565b6000526014602052604060002090565b815181546020840151604085015160609095015163ffffffff1990921660ff939093169290921760089290921b61ff00169190911760109390931b62ff0000169290921760189290921b63ff00000016919091179055565b80f35b346102c55760203660031901126102c55760043560009081526016602090815260409182902054825160ff8083168252600883901c811693820193909352601082901c83169381019390935260181c166060820152608090f35b346102c55760803660031901126102c5576080610d98604051610d628161095d565b610d6a6103a4565b8152610d746103b4565b6020820152610d81610364565b6040820152610d8e610374565b6060820152612022565b60ff6060604051928281511684528260208201511660208501528260408201511660408501520151166060820152f35b346102c55760203660031901126102c5576004356000908152600260209081526040909120546001600160a01b03166040516001600160a01b039091168152f35b90600182811c92168015610e39575b6020831014610e2357565b634e487b7160e01b600052602260045260246000fd5b91607f1691610e18565b600c5460009291610e5382610e09565b80825291602090600190818116908115610ed25750600114610e76575b50505050565b92939450600c6000527fdf6966c971051c3d54ec59162606531493a51404a002842f56009d7e5cf4a8c7926000935b858510610ebf575050506020925001019038808080610e70565b8054858501840152938201938101610ea5565b92505050602093945060ff929192191683830152151560051b01019038808080610e70565b805460009392610f0682610e09565b91828252602093600191600181169081600014610f6e5750600114610f2d575b5050505050565b90939495506000929192528360002092846000945b838610610f5a57505050500101903880808080610f26565b805485870183015294019385908201610f42565b60ff19168685015250505090151560051b010191503880808080610f26565b6040519060008260005491610fa183610e09565b8083529260209060019081811690811561102e5750600114610fce575b5050610fcc925003836109b6565b565b915092600080527f290decd9548b62a8d60345a988386fc84ba6bc95484008f6362f93160ef3e563936000925b8284106110165750610fcc9450505081016020013880610fbe565b85548885018301529485019487945092810192610ffb565b91505060209250610fcc94915060ff191682840152151560051b8201013880610fbe565b60405190600082600b549161106683610e09565b8083529260209060019081811690811561102e5750600114611090575050610fcc925003836109b6565b915092600b6000527f0175b7a638427703f0dbe7bb9bbf987a2551717b34e79f33b5b1008d1fa01db9936000925b8284106110d95750610fcc9450505081016020013880610fbe565b855488850183015294850194879450928101926110be565b60405190610fcc8261110281610e43565b03836109b6565b90610fcc6111029260405193848092610ef7565b346102c5576000806003193601126106a5576040519080826011549161114283610e09565b92838352602094600191866001821691826000146111e0575050600114611186575b5050611172925003836109b6565b6104b860405192828493845283019061058c565b90859250601182527f31ecc21a745e3968a04e9570e4425bc18fa8019c68028196b546d1669c200c685b8583106111c857505061117293508201013880611164565b805483890185015287945086939092019181016111b0565b925093505061117294915060ff191682840152151560051b8201013880611164565b346102c55760003660031901126102c5576020600854604051908152f35b346102c55760003660031901126102c5576012546040516001600160a01b039091168152602090f35b346102c55760203660031901126102c5576001600160a01b0361126a61034e565b1680156112895760005260036020526020604060002054604051908152f35b6040516322718ad960e21b815260006004820152602490fd5b346102c5576000806003193601126106a5576112bc612633565b600680546001600160a01b0319811690915581906001600160a01b03167f8be0079c531659141344cd1fd0a4f28419497f9722a3daafe3b4186f6b6457e08280a380f35b346102c55760003660031901126102c5576020604051662386f26fc100008152f35b346102c55760003660031901126102c5576006546040516001600160a01b039091168152602090f35b346102c5576000806003193601126106a5576040519080600180549061137082610e09565b8086529260209260018116908115610678575060011461139a576104b886610615818803826109b6565b9350600184527fb10e2d527612073b26eecdfd717e6a320cf44b4afac2b0732d9fcbe2b7fa0cf65b8385106113df57505050508101602001610615826104b838610605565b80548686018401529382019381016113c2565b346102c55760403660031901126102c55761140b61034e565b6024358015158082036102c5576001600160a01b038316928315611497573360009081526005602090815260408083206001600160a01b039094168352929052209060ff801983541691161790557f17307eab39ab6107e8899845ad3d59bd9653f200f220920489ca2b5937696c3160405180611492339482919091602081019215159052565b0390a3005b604051630b61174360e31b815260048101859052602490fd5b634e487b7160e01b600052603260045260246000fd5b346102c55760203660031901126102c55760043560028110156102c5576114fc6115036104b89260405192838092600b01610ef7565b03826109b6565b60405191829160208352602083019061058c565b346102c55760403660031901126102c55761153061034e565b610ce3602435600092818452600260205261157d60018060a01b0361155c816040882054161515611f31565b83865260156020526115746040872054421015611f73565b82161515611e54565b336125ac565b346102c55760203660031901126102c55760043560009081526014602090815260409182902054825160ff8083168252600883901c811693820193909352601082901c83169381019390935260181c166060820152608090f35b346102c55760803660031901126102c5576115f661034e565b6115fe610338565b6064359167ffffffffffffffff83116102c557366023840112156102c5576116336100219336906024816004013591016109f4565b91604435916120dd565b346102c55760203660031901126102c557600435600081815260026020526040902054611674906001600160a01b03161515611f31565b600052601460205260406000206040519061168e8261095d565b546104b860ff9161171d8382168086526020860194808460081c1686528060606040890198828760101c168a52019460181c16845261171261170a6116fe6116f66116ea6116e260135497878916906121ff565b9a5160ff1690565b858760081c16906121ff565b995160ff1690565b838560101c16906121ff565b945160ff1690565b9160181c16906121ff565b9060405194859485929360ff809296958160609581608089019a16885216602087015216604085015216910152565b346102c55760203660031901126102c5576104b861192a6106156118d36118f5611816611811600435600090808252600260205261179760018060a01b036040842054161515611f31565b6117ae816000526015602052604060002054421090565b918215611990576117bd612213565b915b8315611978576117cd612236565b935b8015611955576117dd612236565b915b811561193e57506117ee612236565b925b5015611936576011935b61180b611805610f8d565b95611109565b93612b32565b612f22565b6118e16040519384926118cd61189761185660208701601c907f7b226e616d65223a2022455448205761746368696e6720535647222c0000000081520190565b7f226465736372697074696f6e223a2022416e204175746f6d617465642045544881526e081d1c9858dada5b99c814d591c88b608a1b6020820152602f0190565b7f22696d616765223a2022646174613a696d6167652f7376672b786d6c3b626173815263194d8d0b60e21b602082015260240190565b90612254565b61227d60f01b815260020190565b0391611811601f19938481018352826109b6565b6040517f646174613a6170706c69636174696f6e2f6a736f6e3b6261736536342c0000006020820152938491603d83016118cd565b039081018352826109b6565b6010936117fa565b61194a61194f91612abd565b612979565b926117f0565b61197261194a61196c846119676110f1565b61226b565b60ff1690565b916117df565b61198a61194a61196c83611967611052565b936117cf565b61199982612892565b916117bf565b346102c5576000806003193601126106a557604051908082601054916119c483610e09565b92838352602094600191866001821691826000146111e05750506001146119f3575050611172925003836109b6565b90859250601082527f1b6847dc741a1b0cd08d278845f9d819d87b734759afb55fe2de5cb82a9ae6725b858310611a3557505061117293508201013880611164565b80548389018501528794508693909201918101611a1d565b346102c55760403660031901126102c55760043567ffffffffffffffff81116102c557611a8c611a836020923690600401610a2b565b6024359061226b565b60ff60405191168152f35b346102c55760203660031901126102c5576020611ac36004356000526015602052604060002054421090565b6040519015158152f35b346102c55760203660031901126102c5576104b860406004356000908082526002602052611b0760018060a01b0384842054161515611f31565b8082526015602052611b1e83832054421015611f73565b815260146020522054604051918160ff80859460181c169160101c168390929160ff60209181604085019616845216910152565b346102c55760403660031901126102c557602060ff611ba3611b7261034e565b611b7a610338565b6001600160a01b0391821660009081526005865260408082209290931681526020919091522090565b54166040519015158152f35b346102c55760203660031901126102c557611bc861034e565b611bd0612633565b6001600160a01b03908116908115611c2457600654826bffffffffffffffffffffffff60a01b821617600655167f8be0079c531659141344cd1fd0a4f28419497f9722a3daafe3b4186f6b6457e0600080a3005b604051631e4fbdf760e01b815260006004820152602490fd5b346102c55760203660031901126102c557611c56612633565b600435600855005b346102c5576000806003193601126106a557604051908082600e5491611c8383610e09565b92838352602094600191866001821691826000146111e0575050600114611cb2575050611172925003836109b6565b90859250600e82527fbb7b4a454dc3493923482f07822329ed19e8244eff582cc204f8554c3620c3fd5b858310611cf457505061117293508201013880611164565b80548389018501528794508693909201918101611cdc565b346102c5576000806003193601126106a557604051908082600f5491611d3183610e09565b92838352602094600191866001821691826000146111e0575050600114611d60575050611172925003836109b6565b90859250600f82527f8d1108e10bcb7c27dddfc02ed9d693a074039d026cf4ea4240b40f7d581ac8025b858310611da257505061117293508201013880611164565b80548389018501528794508693909201918101611d8a565b15611dc157565b60405162461bcd60e51b815260206004820152601d60248201527f43616c6c6572206973206e6f7420746865204343495020726f757465720000006044820152606490fd5b90604051611e138161095d565b606060ff8294548181168452818160081c166020850152818160101c16604085015260181c16910152565b634e487b7160e01b600052601160045260246000fd5b15611e5b57565b60405162461bcd60e51b8152602060048201526024808201527f4552433732313a207472616e7366657220746f20746865207a65726f206164646044820152637265737360e01b6064820152608490fd5b601f8111611eb8575050565b600090600f6000527f8d1108e10bcb7c27dddfc02ed9d693a074039d026cf4ea4240b40f7d581ac802906020601f850160051c83019410611f14575b601f0160051c01915b828110611f0957505050565b818155600101611efd565b9092508290611ef4565b60405190611f2b8261097e565b60008252565b15611f3857565b60405162461bcd60e51b8152602060048201526013602482015272151bdad95b881a5cc81b9bdd08135a5b9d1959606a1b6044820152606490fd5b15611f7a57565b60405162461bcd60e51b815260206004820152600f60248201526e151bdad95b881a5cc81b1bd8dad959608a1b6044820152606490fd5b15611fb857565b60405162461bcd60e51b815260206004820152601d60248201527f696e73756666696369656e742066756e6420666f7220757067726164650000006044820152606490fd5b6040519061200a8261095d565b60006060838281528260208201528260408201520152565b61202a611ffd565b50805181208060005260166020526040600020916040519261204b8461095d565b5460ff81169384815260ff8260081c169182602083015260ff808260101c169182604085015260181c1691826060820152951592836120d4575b50826120cb575b50816120c2575b5061209d57505090565b610c8b9250906120af6105c2926126bd565b9283916000526016602052604060002090565b90501538612093565b1591503861208c565b15925038612085565b9192909260018060a01b036120f781601254163314611dba565b841691612105831515611e54565b6121108286866125ac565b843b61211d575050505050565b612145926020926000604051809681958294630a85bd0160e11b9a8b85523360048601612759565b03925af1600091816121ce575b50612191578261216061278a565b805191908261218a57604051633250574960e11b81526001600160a01b0383166004820152602490fd5b9050602001fd5b6001600160e01b031916036121ab57503880808080610f26565b604051633250574960e11b81526001600160a01b03919091166004820152602490fd5b6121f191925060203d6020116121f8575b6121e981836109b6565b810190612719565b9038612152565b503d6121df565b9060ff8091169116019060ff821161089a57565b604051906122208261099a565b60078252660233830383038360cc1b6020830152565b604051906122438261099a565b60028252613f3f60f01b6020830152565b9061226760209282815194859201610569565b0190565b6000828152600260205260409020546105c2929190612294906001600160a01b03161515611f31565b8160005260156020526122ae604060002054421015611f73565b6040516000600b546122bf81610e09565b808452906020906001908181169081156123d5575060011461237b575b505050906122ef816122f59303826109b6565b82613009565b15612329575061231c6123156105c2926000526014602052604060002090565b5460ff1690565b60135460ff165b906121ff565b6040516123429161233d8261110281610e43565b613009565b156123755760ff6123606105c2926000526014602052604060002090565b5460081c1661232360135460ff9060081c1690565b50600090565b600b600090815293507f0175b7a638427703f0dbe7bb9bbf987a2551717b34e79f33b5b1008d1fa01db95b8385106123c2575050505081016020016122ef826122f56122dc565b80548686018401529382019381016123a6565b8695506122f5969350602092506122ef94915060ff191682840152151560051b82010192936122dc565b34337f69ca02dd4edd7bf0a4abb9ed3b7af3f14778db5d61921c7dc7cd545266326de2600080a3565b60409182516124368161097e565b600081526001600160a01b0383811691908215612559576124578486613062565b1661254157833b612469575050505050565b6124936000926020928798969751948580948193630a85bd0160e11b998a8452336004850161272e565b03925af160009181612520575b506124e0575050506124b061278a565b80519290836124d9578151633250574960e11b81526001600160a01b0384166004820152602490fd5b8390602001fd5b9193916001600160e01b031916036124fe5750503880808080610f26565b51633250574960e11b81526001600160a01b0391909116600482015260249150fd5b61253a91925060203d6020116121f8576121e981836109b6565b90386124a0565b84516339e3563760e11b815260006004820152602490fd5b8551633250574960e11b815260006004820152602490fd5b6000818152600260205260409020546001600160a01b0316908115612594575090565b60249060405190637e27328960e01b82526004820152fd5b906001600160a01b03908181161561261a576125c9848392613062565b1691826125e957604051637e27328960e01b815260048101859052602490fd5b16918282036125f757505050565b60649350604051926364283d7b60e01b8452600484015260248301526044820152fd5b604051633250574960e11b815260006004820152602490fd5b6006546001600160a01b0316330361264757565b60405163118cdaa760e01b8152336004820152602490fd5b600281901b91906001600160fe1b0381160361089a57565b60ff60208183511692015116810180911161089a5760648102908082046064149015171561089a5760011c662386f26fc10000908082029182040361089a576064900490565b6126c5611ffd565b5060ff6003818351160181811161089a57811682526020820190600381835116019080821161089a576064818193169182855285511611612711575b1161270a575090565b6064905290565b818452612701565b908160209103126102c557516105c2816102b3565b6105c2939260809260018060a01b03168252600060208301526040820152816060820152019061058c565b6001600160a01b0391821681529116602082015260408101919091526080606082018190526105c29291019061058c565b3d156127b5573d9061279b826109d8565b916127a960405193846109b6565b82523d6000602084013e565b606090565b600d54156127ee57600d6000527fd7b6990105719101dabeb77144f2a3385c8033acd3af97e9423a695e81ad1eb590600090565b6114b0565b600d548110156127ee57600d6000527fd7b6990105719101dabeb77144f2a3385c8033acd3af97e9423a695e81ad1eb50190600090565b60001981019190821161089a57565b906007548210156127ee576007600052601f8260051c7fa66cc928b5edb82af9bd49922954155ab7b0942694bea4ce44661d9a8736c68801921690565b906001820180921161089a57565b906002820180921161089a57565b61289b90612abd565b801561292b576007549060005b6128b18361282a565b81101561291d576128d461196c6128c783612839565b905460ff9160031b1c1690565b821015806128fe575b6128e9576001016128a8565b6105c292506128f891506127f3565b50611109565b5061291661196c6128c761291184612876565b612839565b82106128dd565b5050506105c26128f86127ba565b506114fc6105c261293a6127ba565b5060405192838092610ef7565b90612951826109d8565b61295e60405191826109b6565b828152809261296f601f19916109d8565b0190602036910137565b806000917a184f03e93ff9f4daa797ed6e38ed64bf6a1f01000000000000000080821015612aaf575b506d04ee2d6d415b85acef810000000080831015612aa0575b50662386f26fc1000080831015612a91575b506305f5e10080831015612a82575b5061271080831015612a73575b506064821015612a63575b600a80921015612a59575b600190816021612a1160018701612947565b95860101905b612a23575b5050505090565b600019019083906f181899199a1a9b1b9c1cb0b131b232b360811b8282061a835304918215612a5457919082612a17565b612a1c565b91600101916129ff565b91906064600291049101916129f4565b600491939204910191386129e9565b600891939204910191386129dc565b601091939204910191386129cd565b602091939204910191386129bb565b6040935081049150386129a2565b6000526014602052607f612b2b604060002061232360405191612adf8361095d565b549160ff808416918281526060826020830196818160081c168852818160101c16604085015260181c1691015280612b1d60135493828516906121ff565b9451169160081c16906121ff565b60011c1690565b9391949290604051612b438161099a565b6002815261038360f41b6020820152612b5b91613152565b94604051612b688161099a565b600381526203138360ec1b6020820152612b8191613152565b90604051612b8e8161099a565b600381526203238360ec1b6020820152612ba791613152565b9060405195869560208701612cb79060d0907f3c73766720786d6c6e733d27687474703a2f2f7777772e77332e6f72672f323081527f30302f737667272076657273696f6e3d27312e312720786d6c6e733a786c696e60208201527f6b3d27687474703a2f2f7777772e77332e6f72672f313939392f786c696e6b2760408201527f20786d6c6e733a7376676a733d27687474703a2f2f7376676a732e636f6d2f7360608201527f76676a73272077696474683d2733303027206865696768743d2733303027207060808201527f72657365727665417370656374526174696f3d276e6f6e65272076696577426f60a08201526f3c1e93981018101a9818101a9818139f60811b60c08201520190565b7f3c726563742077696474683d273130302527206865696768743d2731303025278152662066696c6c3d2760c81b6020820152602701612cf691612254565b6213979f60e91b8152600301612d0b91612254565b612d1491612254565b612d1d91612254565b7f3c696d61676520783d273130302720793d273530272077696474683d2733303081527427206865696768743d273330302720687265663d2760581b6020820152603501612d6a91612254565b6213979f60e91b81526003017f3c7465787420783d273235302720793d27343230272066696c6c3d27626c616381527f6b2720666f6e742d73697a653d2732342720646f6d696e616e742d626173656c60208201527f696e653d276d6964646c652720746578742d616e63686f723d276d6964646c65604082015261139f60f11b6060820152606201612dfc91612254565b661e17ba32bc3a1f60c91b81526007017f3c7265637420783d27302720793d2730272077696474683d273530302720686581527f696768743d27353030272066696c6c3d276e6f6e6527207374726f6b653d272360208201527f30303030303027207374726f6b652d77696474683d2735272072783d2731352760408201526910393c9e93989a93979f60b11b6060820152606a01651e17b9bb339f60d11b815260060103601f19810182526105c290826109b6565b604051906060820182811067ffffffffffffffff82111761097957604052604082527f6768696a6b6c6d6e6f707172737475767778797a303132333435363738392b2f6040837f4142434445464748494a4b4c4d4e4f505152535455565758595a61626364656660208201520152565b80511561300057612f31612eb2565b612f55612f50612f4b612f448551612884565b6003900490565b61265f565b612947565b91602083019181825183016020810191825193600084525b828210612fae5750505052516003900660018114612f9b57600214612f90575090565b603d90600019015390565b50603d9081600019820153600119015390565b9091956004906003809401938451600190603f9082828260121c16880101518553828282600c1c16880101518386015382828260061c1688010151600286015316850101519082015301959190612f6d565b506105c2611f1e565b906040519182613025602082019260208452604083019061058c565b0392613039601f19948581018352826109b6565b5190209161305b604051918261192a602082019560208752604083019061058c565b5190201490565b6000828152600260205260408120546001600160a01b0390811693929184917fddf252ad1be2c89b69c2b068fc378daa952ba7f163c4a11628f55a4df523b3ef91906130e2908461310b575b851694856130e7575b86835260026020526040832080546001600160a01b0319166001600160a01b03909216919091179055565b80a490565b6001600160a01b0381166000908152600360205260409020600181540190556130b7565b61311f876000526004602052604060002090565b80546001600160a01b03191690556001600160a01b038516600090815260036020526040902080546000190190556130ae565b60ce9161328e61327b6105c293604051958694733c636972636c652063783d273530272063793d2760601b6020870152805190613210602082019261319b8160348b0186610569565b8801917f2720723d273430272066696c6c3d272330306161666627207374726f6b653d2760348401527f2330303030303027207374726f6b652d77696474683d273327202f3e0000000060548401526f3c7465787420783d2735302720793d2760801b60708401525180936080840190610569565b017f272066696c6c3d27626c61636b2720666f6e742d73697a653d2732342720646f60808201527f6d696e616e742d626173656c696e653d276d6964646c652720746578742d616e60a08201526d31b437b91e93b6b4b2323632939f60911b60c08201520190612254565b661e17ba32bc3a1f60c91b815260070190565b03601f1981018352826109b656fea26469706673582212200b70626cc12c66bb8456fbc835ac500c1b3fd97afee54631b138c7edd2758f7b64736f6c63430008180033","linkReferences":{}},"methodIdentifiers":{"BASE_PRICE_IN_MATIC()":"8aa33015","_ccipHandler()":"68b16779","_sign()":"f759e547","approve(address,uint256)":"095ea7b3","balanceOf(address)":"70a08231","calculateUpgrade((uint8,uint8,uint8,uint8))":"621167e6","changeCCIP(address)":"3e3c0740","getApproved(uint256)":"081812fc","getOwner(uint256)":"c41a360a","getSpecial(uint256)":"e1d916f7","getStat(string,uint256)":"d5784f15","getTokenStats(uint256)":"c5829514","isApprovedForAll(address,address)":"e985e9c5","itemImage__()":"caf72264","itemType()":"f5470d7b","lockStatus(uint256)":"d728f75c","lockedItemImage()":"6467007b","mint()":"1249c58b","mintPrice()":"6817c76c","name()":"06fdde03","newStatMap(bytes32)":"46838f30","owner()":"8da5cb5b","ownerOf(uint256)":"6352211e","renounceOwnership()":"715018a6","safeTransferFrom(address,address,uint256)":"42842e0e","safeTransferFrom(address,address,uint256,bytes)":"b88d4fde","setApprovalForAll(address,bool)":"a22cb465","setMintPrice(uint256)":"f4a0a528","setSign(string)":"31fbbae2","setTokenLockStatus(uint256,uint256)":"08bbefef","statLabels(uint256)":"a50c8f2c","supportsInterface(bytes4)":"01ffc9a7","symbol()":"95d89b41","tokenLockedTill(uint256)":"05b1603f","tokenURI(uint256)":"c87b56dd","transfer(address,uint256)":"a9059cbb","transferFrom(address,address,uint256)":"23b872dd","transferOwnership(address)":"f2fde38b","updateStats(uint256,address,uint8,uint8,uint8,uint8)":"02ee9785","upgrade(uint256)":"45977d03","upgradeMapping(uint256)":"ad3d47d7"},"id":70}