{"abi":[{"type":"constructor","inputs":[],"stateMutability":"nonpayable"},{"type":"receive","stateMutability":"payable"},{"type":"function","name":"BASE_PRICE_IN_MATIC","inputs":[],"outputs":[{"name":"","type":"uint256","internalType":"uint256"}],"stateMutability":"view"},{"type":"function","name":"_ccipHandler","inputs":[],"outputs":[{"name":"","type":"address","internalType":"address"}],"stateMutability":"view"},{"type":"function","name":"_sign","inputs":[],"outputs":[{"name":"","type":"string","internalType":"string"}],"stateMutability":"view"},{"type":"function","name":"approve","inputs":[{"name":"to","type":"address","internalType":"address"},{"name":"tokenId","type":"uint256","internalType":"uint256"}],"outputs":[],"stateMutability":"nonpayable"},{"type":"function","name":"balanceOf","inputs":[{"name":"owner","type":"address","internalType":"address"}],"outputs":[{"name":"","type":"uint256","internalType":"uint256"}],"stateMutability":"view"},{"type":"function","name":"calculatePrice","inputs":[{"name":"stat","type":"tuple","internalType":"struct RPGItemUtils.StatType","components":[{"name":"stat1","type":"uint8","internalType":"uint8"},{"name":"stat2","type":"uint8","internalType":"uint8"},{"name":"specialType","type":"uint8","internalType":"uint8"},{"name":"specialPoints","type":"uint8","internalType":"uint8"}]}],"outputs":[{"name":"","type":"uint256","internalType":"uint256"}],"stateMutability":"pure"},{"type":"function","name":"calculateUpgrade","inputs":[{"name":"previousStat","type":"tuple","internalType":"struct RPGItemUtils.StatType","components":[{"name":"stat1","type":"uint8","internalType":"uint8"},{"name":"stat2","type":"uint8","internalType":"uint8"},{"name":"specialType","type":"uint8","internalType":"uint8"},{"name":"specialPoints","type":"uint8","internalType":"uint8"}]}],"outputs":[{"name":"","type":"tuple","internalType":"struct RPGItemUtils.StatType","components":[{"name":"stat1","type":"uint8","internalType":"uint8"},{"name":"stat2","type":"uint8","internalType":"uint8"},{"name":"specialType","type":"uint8","internalType":"uint8"},{"name":"specialPoints","type":"uint8","internalType":"uint8"}]}],"stateMutability":"nonpayable"},{"type":"function","name":"changeCCIP","inputs":[{"name":"newAdd","type":"address","internalType":"address"}],"outputs":[],"stateMutability":"nonpayable"},{"type":"function","name":"getApproved","inputs":[{"name":"tokenId","type":"uint256","internalType":"uint256"}],"outputs":[{"name":"","type":"address","internalType":"address"}],"stateMutability":"view"},{"type":"function","name":"getOwner","inputs":[{"name":"tokenId","type":"uint256","internalType":"uint256"}],"outputs":[{"name":"","type":"address","internalType":"address"}],"stateMutability":"view"},{"type":"function","name":"getSpecial","inputs":[{"name":"tokenId","type":"uint256","internalType":"uint256"}],"outputs":[{"name":"","type":"uint8","internalType":"uint8"},{"name":"","type":"uint8","internalType":"uint8"}],"stateMutability":"view"},{"type":"function","name":"getStat","inputs":[{"name":"statLabel","type":"string","internalType":"string"},{"name":"tokenId","type":"uint256","internalType":"uint256"}],"outputs":[{"name":"stat","type":"uint8","internalType":"uint8"}],"stateMutability":"view"},{"type":"function","name":"getTokenStats","inputs":[{"name":"tokenId","type":"uint256","internalType":"uint256"}],"outputs":[{"name":"","type":"uint8","internalType":"uint8"},{"name":"","type":"uint8","internalType":"uint8"},{"name":"","type":"uint8","internalType":"uint8"},{"name":"","type":"uint8","internalType":"uint8"}],"stateMutability":"view"},{"type":"function","name":"isApprovedForAll","inputs":[{"name":"owner","type":"address","internalType":"address"},{"name":"operator","type":"address","internalType":"address"}],"outputs":[{"name":"","type":"bool","internalType":"bool"}],"stateMutability":"view"},{"type":"function","name":"itemImage__","inputs":[],"outputs":[{"name":"","type":"string","internalType":"string"}],"stateMutability":"view"},{"type":"function","name":"itemType","inputs":[],"outputs":[{"name":"","type":"string","internalType":"string"}],"stateMutability":"view"},{"type":"function","name":"lockStatus","inputs":[{"name":"tokenId","type":"uint256","internalType":"uint256"}],"outputs":[{"name":"","type":"bool","internalType":"bool"}],"stateMutability":"view"},{"type":"function","name":"lockedItemImage","inputs":[],"outputs":[{"name":"","type":"string","internalType":"string"}],"stateMutability":"view"},{"type":"function","name":"mint","inputs":[],"outputs":[],"stateMutability":"payable"},{"type":"function","name":"mintPrice","inputs":[],"outputs":[{"name":"","type":"uint256","internalType":"uint256"}],"stateMutability":"view"},{"type":"function","name":"name","inputs":[],"outputs":[{"name":"","type":"string","internalType":"string"}],"stateMutability":"view"},{"type":"function","name":"newStatMap","inputs":[{"name":"","type":"bytes32","internalType":"bytes32"}],"outputs":[{"name":"stat1","type":"uint8","internalType":"uint8"},{"name":"stat2","type":"uint8","internalType":"uint8"},{"name":"specialType","type":"uint8","internalType":"uint8"},{"name":"specialPoints","type":"uint8","internalType":"uint8"}],"stateMutability":"view"},{"type":"function","name":"owner","inputs":[],"outputs":[{"name":"","type":"address","internalType":"address"}],"stateMutability":"view"},{"type":"function","name":"ownerOf","inputs":[{"name":"tokenId","type":"uint256","internalType":"uint256"}],"outputs":[{"name":"","type":"address","internalType":"address"}],"stateMutability":"view"},{"type":"function","name":"powerLevel__","inputs":[{"name":"tokenId","type":"uint256","internalType":"uint256"}],"outputs":[{"name":"","type":"uint256","internalType":"uint256"}],"stateMutability":"view"},{"type":"function","name":"renounceOwnership","inputs":[],"outputs":[],"stateMutability":"nonpayable"},{"type":"function","name":"safeTransferFrom","inputs":[{"name":"from","type":"address","internalType":"address"},{"name":"to","type":"address","internalType":"address"},{"name":"tokenId","type":"uint256","internalType":"uint256"}],"outputs":[],"stateMutability":"nonpayable"},{"type":"function","name":"safeTransferFrom","inputs":[{"name":"from","type":"address","internalType":"address"},{"name":"to","type":"address","internalType":"address"},{"name":"tokenId","type":"uint256","internalType":"uint256"},{"name":"data","type":"bytes","internalType":"bytes"}],"outputs":[],"stateMutability":"nonpayable"},{"type":"function","name":"setApprovalForAll","inputs":[{"name":"operator","type":"address","internalType":"address"},{"name":"approved","type":"bool","internalType":"bool"}],"outputs":[],"stateMutability":"nonpayable"},{"type":"function","name":"setMintPrice","inputs":[{"name":"_mintPrice","type":"uint256","internalType":"uint256"}],"outputs":[],"stateMutability":"nonpayable"},{"type":"function","name":"setSign","inputs":[{"name":"sign","type":"string","internalType":"string"}],"outputs":[],"stateMutability":"nonpayable"},{"type":"function","name":"setTokenLockStatus","inputs":[{"name":"tokenId","type":"uint256","internalType":"uint256"},{"name":"unlockTime","type":"uint256","internalType":"uint256"}],"outputs":[],"stateMutability":"nonpayable"},{"type":"function","name":"statLabels","inputs":[{"name":"","type":"uint256","internalType":"uint256"}],"outputs":[{"name":"","type":"string","internalType":"string"}],"stateMutability":"view"},{"type":"function","name":"supportsInterface","inputs":[{"name":"interfaceId","type":"bytes4","internalType":"bytes4"}],"outputs":[{"name":"","type":"bool","internalType":"bool"}],"stateMutability":"view"},{"type":"function","name":"symbol","inputs":[],"outputs":[{"name":"","type":"string","internalType":"string"}],"stateMutability":"view"},{"type":"function","name":"tokenLockedTill","inputs":[{"name":"","type":"uint256","internalType":"uint256"}],"outputs":[{"name":"","type":"uint256","internalType":"uint256"}],"stateMutability":"view"},{"type":"function","name":"tokenURI","inputs":[{"name":"tokenId","type":"uint256","internalType":"uint256"}],"outputs":[{"name":"","type":"string","internalType":"string"}],"stateMutability":"view"},{"type":"function","name":"transfer","inputs":[{"name":"to","type":"address","internalType":"address"},{"name":"tokenId","type":"uint256","internalType":"uint256"}],"outputs":[],"stateMutability":"nonpayable"},{"type":"function","name":"transferFrom","inputs":[{"name":"from","type":"address","internalType":"address"},{"name":"to","type":"address","internalType":"address"},{"name":"tokenId","type":"uint256","internalType":"uint256"}],"outputs":[],"stateMutability":"nonpayable"},{"type":"function","name":"transferOwnership","inputs":[{"name":"newOwner","type":"address","internalType":"address"}],"outputs":[],"stateMutability":"nonpayable"},{"type":"function","name":"updateStats","inputs":[{"name":"tokenId","type":"uint256","internalType":"uint256"},{"name":"newOwner","type":"address","internalType":"address"},{"name":"stat1","type":"uint8","internalType":"uint8"},{"name":"stat2","type":"uint8","internalType":"uint8"},{"name":"specialType","type":"uint8","internalType":"uint8"},{"name":"specialPoints","type":"uint8","internalType":"uint8"}],"outputs":[{"name":"","type":"bool","internalType":"bool"}],"stateMutability":"nonpayable"},{"type":"function","name":"upgrade","inputs":[{"name":"tokenId","type":"uint256","internalType":"uint256"}],"outputs":[],"stateMutability":"payable"},{"type":"function","name":"upgradeMapping","inputs":[{"name":"","type":"uint256","internalType":"uint256"}],"outputs":[{"name":"stat1","type":"uint8","internalType":"uint8"},{"name":"stat2","type":"uint8","internalType":"uint8"},{"name":"specialType","type":"uint8","internalType":"uint8"},{"name":"specialPoints","type":"uint8","internalType":"uint8"}],"stateMutability":"view"},{"type":"event","name":"Approval","inputs":[{"name":"owner","type":"address","indexed":true,"internalType":"address"},{"name":"approved","type":"address","indexed":true,"internalType":"address"},{"name":"tokenId","type":"uint256","indexed":true,"internalType":"uint256"}],"anonymous":false},{"type":"event","name":"ApprovalForAll","inputs":[{"name":"owner","type":"address","indexed":true,"internalType":"address"},{"name":"operator","type":"address","indexed":true,"internalType":"address"},{"name":"approved","type":"bool","indexed":false,"internalType":"bool"}],"anonymous":false},{"type":"event","name":"NftMinted","inputs":[{"name":"recipient","type":"address","indexed":true,"internalType":"address"},{"name":"tokenId","type":"uint256","indexed":true,"internalType":"uint256"},{"name":"timestamp","type":"uint256","indexed":true,"internalType":"uint256"}],"anonymous":false},{"type":"event","name":"OwnershipTransferred","inputs":[{"name":"previousOwner","type":"address","indexed":true,"internalType":"address"},{"name":"newOwner","type":"address","indexed":true,"internalType":"address"}],"anonymous":false},{"type":"event","name":"Transfer","inputs":[{"name":"from","type":"address","indexed":true,"internalType":"address"},{"name":"to","type":"address","indexed":true,"internalType":"address"},{"name":"tokenId","type":"uint256","indexed":true,"internalType":"uint256"}],"anonymous":false},{"type":"event","name":"Transfer","inputs":[{"name":"sender","type":"address","indexed":true,"internalType":"address"},{"name":"amount","type":"uint256","indexed":true,"internalType":"uint256"}],"anonymous":false},{"type":"error","name":"ERC721IncorrectOwner","inputs":[{"name":"sender","type":"address","internalType":"address"},{"name":"tokenId","type":"uint256","internalType":"uint256"},{"name":"owner","type":"address","internalType":"address"}]},{"type":"error","name":"ERC721InsufficientApproval","inputs":[{"name":"operator","type":"address","internalType":"address"},{"name":"tokenId","type":"uint256","internalType":"uint256"}]},{"type":"error","name":"ERC721InvalidApprover","inputs":[{"name":"approver","type":"address","internalType":"address"}]},{"type":"error","name":"ERC721InvalidOperator","inputs":[{"name":"operator","type":"address","internalType":"address"}]},{"type":"error","name":"ERC721InvalidOwner","inputs":[{"name":"owner","type":"address","internalType":"address"}]},{"type":"error","name":"ERC721InvalidReceiver","inputs":[{"name":"receiver","type":"address","internalType":"address"}]},{"type":"error","name":"ERC721InvalidSender","inputs":[{"name":"sender","type":"address","internalType":"address"}]},{"type":"error","name":"ERC721NonexistentToken","inputs":[{"name":"tokenId","type":"uint256","internalType":"uint256"}]},{"type":"error","name":"OwnableInvalidOwner","inputs":[{"name":"owner","type":"address","internalType":"address"}]},{"type":"error","name":"OwnableUnauthorizedAccount","inputs":[{"name":"account","type":"address","internalType":"address"}]}],"bytecode":{"object":"0x608060405234610a8f576100136040610a94565b600581526414dddbdc9960da1b602082015261002f6040610a94565b6002815261535760f01b602082015281516001600160401b0381116105c957610059600054610ab9565b601f8111610a41575b50602092601f82116001146109dd5761009592938291600092610811575b50508160011b916000199060031b1c19161790565b6000555b80516001600160401b0381116105c9576100b4600154610ab9565b601f8111610983575b50602091601f821160011461091f576100ed92600091836108115750508160011b916000199060031b1c19161790565b6001555b6006805473b1293a8bff9323aad0419e46dd9846cc7363d44b6001600160a01b0319821681179092556001600160a01b03167f8be0079c531659141344cd1fd0a4f28419497f9722a3daafe3b4186f6b6457e0600080a3610153601054610ab9565b601f81116108d4575b5060c360109081556000527f68747470733a2f2f75706c6f61642e77696b696d656469612e6f72672f77696b6000805160206139d4833981519152557f6970656469612f636f6d6d6f6e732f7468756d622f352f35352f426974636f697f1b6847dc741a1b0cd08d278845f9d819d87b734759afb55fe2de5cb82a9ae673557f6e5f6c6f676f2e6a70672f36343070782d426974636f696e5f6c6f676f2e6a707f1b6847dc741a1b0cd08d278845f9d819d87b734759afb55fe2de5cb82a9ae67455606760f81b7f1b6847dc741a1b0cd08d278845f9d819d87b734759afb55fe2de5cb82a9ae6755560115461025190610ab9565b601f8111610889575b5060c760119081556000527f68747470733a2f2f706c756d2d6c6961626c652d6d6173746f646f6e2d343530600080516020613994833981519152557f2e6d7970696e6174612e636c6f75642f697066732f516d615844344e4c4e39687f31ecc21a745e3968a04e9570e4425bc18fa8019c68028196b546d1669c200c69557f6e356362396a5464373866614d765533524e6d6633346776684c47736e7136377f31ecc21a745e3968a04e9570e4425bc18fa8019c68028196b546d1669c200c6a55627a733360e81b7f31ecc21a745e3968a04e9570e4425bc18fa8019c68028196b546d1669c200c6b556013805463ffffffff191663281e140a179055604080519081018181106001600160401b038211176105c95760405261037e6040610a94565b60028152616c3160f01b602082015281526103996040610a94565b6002815261361960f11b60208201526020820152600b906000905b600282106107a9576103c7600e54610ab9565b601f811161076a575b50600c653bb2b0b837b760d11b01600e55604051606081016001600160401b038111828210176105c9576040526104076040610a94565b600781526611b3193319331960c91b602082015281526104276040610a94565b60078152661199331933193360c91b6020820152602082015261044a6040610a94565b60078152662364656465646560c81b60208201526040820152600d546003600d55806003106106c5575b50600d60009081526000805160206139b4833981519152915b600382106105df57604051608081016001600160401b038111828210176105c95760405260008152600a602082015260146040820152601e6060820152600754600460075580600410610562575b506007600052602060002060009160005b6004811061053e57505055601280546001600160a01b03191673f62849f9a0b5bf2913b396098f7c7019b51a820a179055662386f26fc1000060085562aa36a7600a55604051612e4d9081610b478239f35b9092602060019160ff8651169060ff8560031b92831b921b191617940191016104ec565b60076000527fa66cc928b5edb82af9bd49922954155ab7b0942694bea4ce44661d9a8736c688805463ffffffff1681556105c391601f0160051c017fa66cc928b5edb82af9bd49922954155ab7b0942694bea4ce44661d9a8736c689610af3565b816104db565b634e487b7160e01b600052604160045260246000fd5b80518051906001600160401b0382116105c957610606826106008754610ab9565b87610b0a565b602090601f8311600114610658579261063e8360019594602094879660009261064d5750508160011b916000199060031b1c19161790565b86555b0193019101909161048d565b015190508980610080565b90601f1983169186600052816000209260005b8181106106ad5750936020936001969387969383889510610694575b505050811b018655610641565b015160001960f88460031b161c19169055888080610687565b8284015185556001909401936020938401930161066b565b600d6000526000805160206139b4833981519152017fd7b6990105719101dabeb77144f2a3385c8033acd3af97e9423a695e81ad1eb85b8181106107095750610474565b8061071660019254610ab9565b80610723575b50016106fc565b601f811183146107395750600081555b8461071c565b610757908260005283601f6020600020920160051c82019101610af3565b8060005260006020812081835555610733565b600e6000526107a390601f0160051c7fbb7b4a454dc3493923482f07822329ed19e8244eff582cc204f8554c3620c3fd90810190610af3565b806103d0565b80518051906001600160401b0382116105c9576107ca826106008754610ab9565b602090601f831160011461081c5792610802836001959460209487966000926108115750508160011b916000199060031b1c19161790565b86555b019301910190916103b4565b015190503880610080565b90601f1983169186600052816000209260005b8181106108715750936020936001969387969383889510610858575b505050811b018655610805565b015160001960f88460031b161c1916905538808061084b565b8284015185556001909401936020938401930161082f565b60116000526108ce90601f0160051c600080516020613994833981519152017f31ecc21a745e3968a04e9570e4425bc18fa8019c68028196b546d1669c200c6c610af3565b3861025a565b601060005261091990601f0160051c6000805160206139d4833981519152017f1b6847dc741a1b0cd08d278845f9d819d87b734759afb55fe2de5cb82a9ae676610af3565b3861015c565b601f198216926001600052806000209160005b85811061096b57508360019510610952575b505050811b016001556100f1565b015160001960f88460031b161c19169055388080610944565b91926020600181928685015181550194019201610932565b60016000526109cd907fb10e2d527612073b26eecdfd717e6a320cf44b4afac2b0732d9fcbe2b7fa0cf6601f840160051c810191602085106109d3575b601f0160051c0190610af3565b386100bd565b90915081906109c0565b601f1982169360008052806000209160005b868110610a295750836001959610610a10575b505050811b01600055610099565b015160001960f88460031b161c19169055388080610a02565b919260206001819286850151815501940192016109ef565b60008052610a89907f290decd9548b62a8d60345a988386fc84ba6bc95484008f6362f93160ef3e563601f840160051c810191602085106109d357601f0160051c0190610af3565b38610062565b600080fd5b6040519190601f01601f191682016001600160401b038111838210176105c957604052565b90600182811c92168015610ae9575b6020831014610ad357565b634e487b7160e01b600052602260045260246000fd5b91607f1691610ac8565b818110610afe575050565b60008155600101610af3565b9190601f8111610b1957505050565b610b44926000526020600020906020601f840160051c830193106109d357601f0160051c0190610af3565b56fe60806040526004361015610023575b361561001957600080fd5b6100216120d7565b005b60003560e01c806301ffc9a7146102ce57806302ee9785146102c957806305b1603f146102c457806306fdde03146102bf578063081812fc146102ba57806308bbefef146102b5578063095ea7b3146102b05780631249c58b146102ab57806323b872dd146102a657806324773270146102a157806331fbbae21461029c5780633e3c07401461029757806342842e0e1461029257806345977d031461028d57806346838f3014610288578063621167e6146102835780636352211e146102385780636467007b1461027e5780636817c76c1461027957806368b167791461027457806370a082311461026f578063715018a61461026a5780638aa33015146102655780638da5cb5b1461026057806394a409d81461025b57806395d89b4114610256578063a22cb46514610251578063a50c8f2c1461024c578063a9059cbb14610247578063ad3d47d714610242578063b88d4fde1461023d578063c41a360a14610238578063c582951414610233578063c87b56dd1461022e578063caf7226414610229578063d5784f1514610224578063d728f75c1461021f578063e1d916f71461021a578063e985e9c514610215578063f2fde38b14610210578063f4a0a5281461020b578063f5470d7b146102065763f759e5470361000e576119b5565b61198f565b61196e565b6118e4565b611887565b611804565b6117ce565b611784565b61175e565b611517565b6113f3565b610e2c565b611393565b611339565b6112c4565b611276565b6111a6565b6110fe565b6110e0565b6110b7565b611095565b611038565b610fe2565b610fb9565b610f9b565b610f5a565b610de4565b610d8a565b610c71565b610c47565b610c04565b610af0565b610a62565b610961565b610842565b610734565b6106f4565b6106b6565b6105e0565b610558565b6103d8565b6102ea565b6001600160e01b03198116036102e557565b600080fd5b346102e55760203660031901126102e5576020600435610309816102d3565b63ffffffff60e01b166380ac58cd60e01b8114908115610347575b8115610336575b506040519015158152f35b6301ffc9a760e01b1490503861032b565b635b5e139f60e01b81149150610324565b602435906001600160a01b03821682036102e557565b600435906001600160a01b03821682036102e557565b60ff1690565b6044359060ff821682036102e557565b6064359060ff821682036102e557565b6084359060ff821682036102e557565b60a4359060ff821682036102e557565b359060ff821682036102e557565b346102e55760c03660031901126102e5576004356103f4610358565b6103fc61038a565b9161040561039a565b9261040e6103aa565b926104176103ba565b9361042d60018060a01b036012541633146119db565b6001600160a01b03821691821561051f576104c7966104aa6104a161049c886104be976104b4968261048361047760609e600052600260205260018060a01b036040600020541690565b6001600160a01b031690565b156104d7575b5050506000526014602052604060002090565b611a27565b60ff9096168652565b60ff166020850152565b60ff166040830152565b019060ff169052565b60405160018152602090f35b0390f35b6104e091612100565b6000828152601560205260408120558142917ffc612aad4e70fb3e1d4832d8c65f92e4024aa87f809d131267a79bceee757f33600080a4388082610489565b60405162461bcd60e51b815260206004820152601160248201527024b73b30b634b2103732bb9037bbb732b960791b6044820152606490fd5b346102e55760203660031901126102e55760043560005260156020526020604060002054604051908152f35b60005b8381106105975750506000910152565b8181015183820152602001610587565b906020916105c081518092818552858086019101610584565b601f01601f1916010190565b9060206105dd9281815201906105a7565b90565b346102e55760003660031901126102e5576040516000805461060181610e6d565b80845290600181169081156106925750600114610635575b6104d383610629818503826109d8565b604051918291826105cc565b60008080527f290decd9548b62a8d60345a988386fc84ba6bc95484008f6362f93160ef3e563939250905b80821061067857509091508101602001610629610619565b919260018160209254838588010152019101909291610660565b60ff191660208086019190915291151560051b840190910191506106299050610619565b346102e55760203660031901126102e5576004356106d38161222a565b506000526004602052602060018060a01b0360406000205416604051908152f35b346102e55760403660031901126102e5576004356024359061072160018060a01b036012541633146119db565b6000526015602052604060002055600080f35b346102e55760403660031901126102e55761074d61036e565b6024359061075a8261222a565b3315158061082f575b806107ed575b6107d857610021926107b99181906001600160a01b0385811691167f8c5be1e5ebec7d5bd14f71427d1e84f3dd0314c0f7b2291e5b200ac8c7c3b925600080a46000526004602052604060002090565b80546001600160a01b0319166001600160a01b03909216919091179055565b63a9fbf51f60e01b6000523360045260246000fd5b5060ff610827336108108460018060a01b03166000526005602052604060002090565b9060018060a01b0316600052602052604060002090565b541615610769565b506001600160a01b038116331415610763565b60003660031901126102e5576108c36108ae600a546108bc61086382612293565b6040519384917f4d696e74206e6f7420616c6c6f7765642c20596f752063616e206d696e74206f60208401526b0371021b430b4b724b2101d160a51b6040840152604c830190611a5f565b03601f1981018452836109d8565b4614611a76565b6108d06008543414611aa6565b6009546108e46108df82611afd565b600955565b6108ee8133612100565b6000818152601560205260408120554290337ffc612aad4e70fb3e1d4832d8c65f92e4024aa87f809d131267a79bceee757f33600080a4005b60609060031901126102e5576004356001600160a01b03811681036102e557906024356001600160a01b03811681036102e5579060443590565b346102e55761002161097236610927565b9161098860018060a01b036012541633146119db565b61099c6001600160a01b0383161515611b11565b6123eb565b634e487b7160e01b600052604160045260246000fd5b6080810190811067ffffffffffffffff8211176109d357604052565b6109a1565b90601f8019910116810190811067ffffffffffffffff8211176109d357604052565b60809060031901126102e5576040516000610a14826109b7565b60043560ff81168103610a5e57825260243560ff81168103610a5e5760208301526044359060ff82168203610a5b57506040820152610a5360646103ca565b606082015290565b80fd5b5080fd5b346102e5576020610a7a610a75366109fa565b611b81565b604051908152f35b67ffffffffffffffff81116109d357601f01601f191660200190565b929192610aaa82610a82565b91610ab860405193846109d8565b8294818452818301116102e5578281602093846000960137010152565b9080601f830112156102e5578160206105dd93359101610a9e565b346102e55760203660031901126102e55760043567ffffffffffffffff81116102e557610b21903690600401610ad5565b805167ffffffffffffffff81116109d357610b4681610b41600f54610e6d565b611bcd565b602091601f8211600114610b8657610b769260009183610b7b575b50508160011b916000199060031b1c19161790565b600f55005b015190503880610b61565b600f600052601f198216927f8d1108e10bcb7c27dddfc02ed9d693a074039d026cf4ea4240b40f7d581ac8029160005b858110610bec57508360019510610bd3575b505050811b01600f55005b015160001960f88460031b161c19169055388080610bc8565b91926020600181928685015181550194019201610bb6565b346102e55760203660031901126102e557610c1d61036e565b610c2561247d565b601280546001600160a01b0319166001600160a01b0392909216919091179055005b346102e557610021610c5836610927565b9060405192610c686020856109d8565b60008452611e89565b60203660031901126102e557610021600435600081815260026020526040902054610ca6906001600160a01b03161515611c35565b806000526015602052610cc0604060002054421015611c77565b806000526014602052610d32610d0d604060002060ff60405191610ce3836109b7565b548181168352818160081c166020840152818160101c16604084015260181c166060820152611d26565b91610d22610d1a84611b81565b341015611cb5565b6000526014602052604060002090565b815181546020840151604085015160609095015163ffffffff1990921660ff939093169290921760089290921b61ff00169190911760109390931b62ff0000169290921760189290921b63ff00000016919091179055565b346102e55760203660031901126102e55760043560009081526016602090815260409182902054825160ff8083168252600883901c811693820193909352601082901c83169381019390935260181c166060820152608090f35b346102e5576080610dfc610df7366109fa565b611d26565b60ff6060604051928281511684528260208201511660208501528260408201511660408501520151166060820152f35b346102e55760203660031901126102e5576004356000908152600260209081526040909120546001600160a01b03166040516001600160a01b039091168152f35b90600182811c92168015610e9d575b6020831014610e8757565b634e487b7160e01b600052602260045260246000fd5b91607f1691610e7c565b60009291815491610eb783610e6d565b8083529260018116908115610f0d5750600114610ed357505050565b60009081526020812093945091925b838310610ef3575060209250010190565b600181602092949394548385870101520191019190610ee2565b915050602093945060ff929192191683830152151560051b010190565b60405190610f4482610f3d816000610ea7565b03836109d8565b565b90610f44610f3d9260405193848092610ea7565b346102e55760003660031901126102e5576104d3604051610f8781610f80816011610ea7565b03826109d8565b6040519182916020835260208301906105a7565b346102e55760003660031901126102e5576020600854604051908152f35b346102e55760003660031901126102e5576012546040516001600160a01b039091168152602090f35b346102e55760203660031901126102e5576001600160a01b0361100361036e565b1680156110225760005260036020526020604060002054604051908152f35b6322718ad960e21b600052600060045260246000fd5b346102e55760003660031901126102e55761105161247d565b600680546001600160a01b031981169091556000906001600160a01b03167f8be0079c531659141344cd1fd0a4f28419497f9722a3daafe3b4186f6b6457e08280a3005b346102e55760003660031901126102e5576020604051662386f26fc100008152f35b346102e55760003660031901126102e5576006546040516001600160a01b039091168152602090f35b346102e55760203660031901126102e5576020610a7a600435611e03565b346102e55760003660031901126102e557604051600060015461112081610e6d565b80845290600181169081156106925750600114611147576104d383610629818503826109d8565b600160009081527fb10e2d527612073b26eecdfd717e6a320cf44b4afac2b0732d9fcbe2b7fa0cf6939250905b80821061118c57509091508101602001610629610619565b919260018160209254838588010152019101909291611174565b346102e55760403660031901126102e5576111bf61036e565b6024358015158082036102e5576001600160a01b03831692831561124b573360009081526005602090815260408083206001600160a01b039094168352929052209060ff801983541691161790557f17307eab39ab6107e8899845ad3d59bd9653f200f220920489ca2b5937696c3160405180611246339482919091602081019215159052565b0390a3005b83630b61174360e31b60005260045260246000fd5b634e487b7160e01b600052603260045260246000fd5b346102e55760203660031901126102e55760043560028110156102e557610f3d906112ac60009160405193848092600b01610ea7565b6104d3604051928392506020835260208301906105a7565b346102e55760403660031901126102e5576100216112e061036e565b6024359081600052600260205261130560018060a01b03604060002054161515611c35565b81600052601560205261131f604060002054421015611c77565b6113336001600160a01b0382161515611b11565b336123eb565b346102e55760203660031901126102e55760043560009081526014602090815260409182902054825160ff8083168252600883901c811693820193909352601082901c83169381019390935260181c166060820152608090f35b346102e55760803660031901126102e5576113ac61036e565b6113b4610358565b906044356064359267ffffffffffffffff84116102e557366023850112156102e5576113ed610021943690602481600401359101610a9e565b92611e89565b346102e55760203660031901126102e55760043560008181526002602052604090205461142a906001600160a01b03161515611c35565b6000526014602052604060002060405190611444826109b7565b546104d360ff8216918284526114e8611483602086019460ff8460081c16865260ff60606040890198828760101c168a52019460181c16845260ff1690565b6114a66114de6114d66114c96114c16114b46114ac601354976114a68960ff1690565b90611def565b9a5160ff1690565b600887901c60ff166114a6565b995160ff1690565b601085901c60ff166114a6565b945160ff1690565b9160181c60ff1690565b9060405194859485929360ff809296958160609581608089019a16885216602087015216604085015216910152565b346102e55760203660031901126102e5576104d36116b26106296116c06116a46115e26115e781600435600081815260026020526040902054611564906001600160a01b03161515611c35565b61157b816000526015602052604060002054421090565b801561174f57611589611fae565b905b60008115611734575061159c611fd3565b925b6000821561171457506115af611fd3565b905b82156116fd57506115c0611fd3565b915b156116f5576011935b6115dc6115d6610f2a565b95610f46565b936126f0565b612ab5565b6116b260405193849261169e61166861162760208701601c907f7b226e616d65223a2022455448205761746368696e6720535647222c0000000081520190565b7f226465736372697074696f6e223a2022416e204175746f6d617465642045544881526e081d1c9858dada5b99c814d591c88b608a1b6020820152602f0190565b7f22696d616765223a2022646174613a696d6167652f7376672b786d6c3b626173815263194d8d0b60e21b602082015260240190565b90611a5f565b61227d60f01b815260020190565b03601f1981018352826109d8565b6040517f646174613a6170706c69636174696f6e2f6a736f6e3b6261736536342c0000006020820152928391603d830161169e565b6010936115cb565b61170961170e91611e03565b612293565b916115c2565b5061172e61170961038483611729600c610f46565b611ff3565b906115b1565b5061174961170961038485611729600b610f46565b9261159e565b6117588261262a565b9061158b565b346102e55760003660031901126102e5576104d3604051610f8781610f80816010610ea7565b346102e55760403660031901126102e55760043567ffffffffffffffff81116102e5576117c36117ba6020923690600401610ad5565b60243590611ff3565b60ff60405191168152f35b346102e55760203660031901126102e55760206117fa6004356000526015602052604060002054421090565b6040519015158152f35b346102e55760203660031901126102e55760043560008181526002602052604090205461183b906001600160a01b03161515611c35565b806000526015602052611855604060002054421015611c77565b60009081526014602090815260409182902054825160ff601083901c8116825260189290921c90911691810191909152f35b346102e55760403660031901126102e557602060ff6118d86118a761036e565b6118af610358565b6001600160a01b0391821660009081526005865260408082209290931681526020919091522090565b54166040519015158152f35b346102e55760203660031901126102e5576118fd61036e565b61190561247d565b6001600160a01b0316801561195857600680546001600160a01b0319811683179091556001600160a01b03167f8be0079c531659141344cd1fd0a4f28419497f9722a3daafe3b4186f6b6457e0600080a3005b631e4fbdf760e01b600052600060045260246000fd5b346102e55760203660031901126102e55760043561198a61247d565b600855005b346102e55760003660031901126102e5576104d3604051610f8781610f8081600e610ea7565b346102e55760003660031901126102e5576104d3604051610f8781610f8081600f610ea7565b156119e257565b60405162461bcd60e51b815260206004820152601d60248201527f43616c6c6572206973206e6f7420746865204343495020726f757465720000006044820152606490fd5b90604051611a34816109b7565b606060ff8294548181168452818160081c166020850152818160101c16604085015260181c16910152565b90611a7260209282815194859201610584565b0190565b15611a7e5750565b60405162461bcd60e51b815260206004820152908190611aa29060248301906105a7565b0390fd5b15611aad57565b60405162461bcd60e51b815260206004820152601260248201527124b739bab33334b1b4b2b73a1022ba3432b960711b6044820152606490fd5b634e487b7160e01b600052601160045260246000fd5b6000198114611b0c5760010190565b611ae7565b15611b1857565b60405162461bcd60e51b8152602060048201526024808201527f4552433732313a207472616e7366657220746f20746865207a65726f206164646044820152637265737360e01b6064820152608490fd5b600281901b91906001600160fe1b03811603611b0c57565b60ff602081835116920151168101809111611b0c57606481029080820460641490151715611b0c5760011c80662386f26fc100000290662386f26fc10000820403611b0c576064900490565b601f8111611bd9575050565b600f6000526020600020906020601f840160051c83019310611c16575b601f0160051c01905b818110611c0a575050565b60008155600101611bff565b9091508190611bf6565b60405190611c2f6020836109d8565b60008252565b15611c3c57565b60405162461bcd60e51b8152602060048201526013602482015272151bdad95b881a5cc81b9bdd08135a5b9d1959606a1b6044820152606490fd5b15611c7e57565b60405162461bcd60e51b815260206004820152600f60248201526e151bdad95b881a5cc81b1bd8dad959608a1b6044820152606490fd5b15611cbc57565b60405162461bcd60e51b815260206004820152601d60248201527f696e73756666696369656e742066756e6420666f7220757067726164650000006044820152606490fd5b60405190611d0e826109b7565b60006060838281528260208201528260408201520152565b611d2e611d01565b508051812080600052601660205260406000209160ff60405193611d51856109b7565b548181168552818160081c166020860152818160101c16604086015260181c1660608401528260ff815116159081611ddf575b81611dcf575b81611dbf575b50611d9a57505090565b610d32925090611dac6105dd926124a6565b9283916000526016602052604060002090565b60ff915060600151161538611d90565b604081015160ff16159150611d8a565b602081015160ff16159150611d84565b9060ff8091169116019060ff8211611b0c57565b60005260146020526105dd610384611e8060406000206114a6611e5f60405192611e2c846109b7565b549260ff841690818152606060ff6020830196818160081c168852818160101c16604085015260181c1691015260ff1690565b6114a6611e766114d6601354936114a68560ff1690565b9160081c60ff1690565b60011c607f1690565b9092611ea060018060a01b036012541633146119db565b6001600160a01b038416611eb5811515611b11565b611ec08486856123eb565b843b611ece575b5050505050565b611ef593600060209460405196879586948593630a85bd0160e11b85523360048601612529565b03925af160009181611f7d575b50611f3e5750611f1061255a565b8051919082611f3757633250574960e11b6000526001600160a01b03821660045260246000fd5b9050602001fd5b6001600160e01b03191663757a42ff60e11b01611f6057503880808080611ec7565b633250574960e11b6000526001600160a01b031660045260246000fd5b611fa091925060203d602011611fa7575b611f9881836109d8565b810190612514565b9038611f02565b503d611f8e565b60405190611fbd6040836109d8565b60078252660233830383038360cc1b6020830152565b60405190611fe26040836109d8565b60028252613f3f60f01b6020830152565b6000828152600260205260409020546105dd92919061201c906001600160a01b03161515611c35565b816000526015602052612036604060002054421015611c77565b61205160405161204b81610f8081600b610ea7565b82612b9f565b1561208357506120786120716105dd926000526014602052604060002090565b5460ff1690565b60135460ff166114a6565b60405161209e9161209982610f3d81600c610ea7565b612b9f565b156120d15760ff6120bc6105dd926000526014602052604060002090565b5460081c166114a660135460ff9060081c1690565b50600090565b34337f69ca02dd4edd7bf0a4abb9ed3b7af3f14778db5d61921c7dc7cd545266326de2600080a3565b60405160209261211084836109d8565b600082526001600160a01b038316908115612214576001600160a01b036121378286612be4565b166121fe57833b612149575050505050565b918495939491612173936000604051809681958294630a85bd0160e11b8452843360048601612529565b03925af1600091816121df575b506121ba57505061218f61255a565b805192836121b557633250574960e11b6000526001600160a01b03831660045260246000fd5b019050fd5b9092506001600160e01b03191663757a42ff60e11b01611f6057503880808080611ec7565b6121f7919250853d8711611fa757611f9881836109d8565b9038612180565b6339e3563760e11b600052600060045260246000fd5b633250574960e11b600052600060045260246000fd5b6000818152600260205260409020546001600160a01b031690811561224d575090565b637e27328960e01b60005260045260246000fd5b9061226b82610a82565b61227860405191826109d8565b8281528092612289601f1991610a82565b0190602036910137565b8060009172184f03e93ff9f4daa797ed6e38ed64bf6a1f0160401b8210156123c8575b806d04ee2d6d415b85acef8100000000600a9210156123ac575b662386f26fc10000811015612397575b6305f5e100811015612385575b612710811015612375575b6064811015612366575b101561235b575b612346602161231a60018501612261565b938401015b60001901916f181899199a1a9b1b9c1cb0b131b232b360811b600a82061a8353600a900490565b801561235657612346909161231f565b505090565b600190910190612309565b60029060649004930192612302565b60049061271090049301926122f8565b6008906305f5e10090049301926122ed565b601090662386f26fc1000090049301926122e0565b6020906d04ee2d6d415b85acef810000000090049301926122d0565b506040915072184f03e93ff9f4daa797ed6e38ed64bf6a1f0160401b81046122b6565b919291906001600160a01b03811615612214576001600160a01b0390612412908590612be4565b16908161242e5783637e27328960e01b60005260045260246000fd5b919290916001600160a01b031680830361244757505050565b6364283d7b60e01b60005260045260245260445260646000fd5b9060018201809211611b0c57565b9060028201809211611b0c57565b6006546001600160a01b0316330361249157565b63118cdaa760e01b6000523360045260246000fd5b6124ae611d01565b50600360ff8251160160ff8111611b0c5760ff1681526020810160ff81511660ff8060031691160160ff8111611b0c576124fb60ff606492168084528260ff8651161161250b5760ff1690565b11612504575090565b6064905290565b82855260ff1690565b908160209103126102e557516105dd816102d3565b6001600160a01b0391821681529116602082015260408101919091526080606082018190526105dd929101906105a7565b3d15612585573d9061256b82610a82565b9161257960405193846109d8565b82523d6000602084013e565b606090565b600d54156125bd57600d60009081527fd7b6990105719101dabeb77144f2a3385c8033acd3af97e9423a695e81ad1eb591565b611260565b600d548110156125bd57600d60005260206000200190600090565b600019810191908211611b0c57565b906007548210156125bd576007600052600582901c7fa66cc928b5edb82af9bd49922954155ab7b0942694bea4ce44661d9a8736c6880191601f1690565b61263390611e03565b80156126c3576007549060005b612649836125dd565b8110156126b55761266c61038461265f836125ec565b905460ff9160031b1c1690565b82101580612696575b61268157600101612640565b6105dd925061269091506125c2565b50610f46565b506126ae61038461265f6126a984612461565b6125ec565b8210612675565b5050506105dd61269061258a565b506105dd61269061258a565b604051906126de6040836109d8565b600382526203238360ec1b6020830152565b93919492604091825161270384826109d8565b6002815261038360f41b602082015261271b91612cda565b95825161272884826109d8565b600381526203138360ec1b602082015261274191612cda565b9061274a6126cf565b61275391612cda565b91517f3c73766720786d6c6e733d27687474703a2f2f7777772e77332e6f72672f323060208201527f30302f737667272076657273696f6e3d27312e312720786d6c6e733a786c696e60408201527f6b3d27687474703a2f2f7777772e77332e6f72672f313939392f786c696e6b2760608201527f20786d6c6e733a7376676a733d27687474703a2f2f7376676a732e636f6d2f7360808201527f76676a73272077696474683d2733303027206865696768743d2733303027207060a08201527f72657365727665417370656374526174696f3d276e6f6e65272076696577426f60c08201526f3c1e93981018101a9818101a9818139f60811b60e082015295869560f087017f3c726563742077696474683d273130302527206865696768743d2731303025278152662066696c6c3d2760c81b602082015260270161289891611a5f565b6213979f60e91b81526003016128ad91611a5f565b6128b691611a5f565b6128bf91611a5f565b7f3c696d61676520783d273130302720793d273530272077696474683d2733303081527427206865696768743d273330302720687265663d2760581b602082015260350161290c91611a5f565b6213979f60e91b81526003017f3c7465787420783d273235302720793d27343230272066696c6c3d27626c616381527f6b2720666f6e742d73697a653d2732342720646f6d696e616e742d626173656c60208201527f696e653d276d6964646c652720746578742d616e63686f723d276d6964646c65604082015261139f60f11b606082015260620161299e91611a5f565b661e17ba32bc3a1f60c91b81526007017f3c7265637420783d27302720793d2730272077696474683d273530302720686581527f696768743d27353030272066696c6c3d276e6f6e6527207374726f6b653d272360208201527f30303030303027207374726f6b652d77696474683d2735272072783d2731352760408201526910393c9e93989a93979f60b11b6060820152606a01651e17b9bb339f60d11b815260060103601f19810182526105dd90826109d8565b60405190612a636060836109d8565b604082527f6768696a6b6c6d6e6f707172737475767778797a303132333435363738392b2f6040837f4142434445464748494a4b4c4d4e4f505152535455565758595a61626364656660208201520152565b90815115612b9557612ac5612a54565b91612aea612ae5612ae0612ad9845161246f565b6003900490565b611b69565b612261565b9060208201908081518201956020870190815192600083525b888110612b475750506003939495965052510680600114612b3457600214612b29575090565b603d90600019015390565b50603d9081600019820153600119015390565b600360049199969901986001603f8b5182828260121c16870101518453828282600c1c16870101518385015382828260061c1687010151600285015316840101516003820153019497612b03565b90506105dd611c20565b604051612bbc816116b260208201946020865260208601906105a7565b51902090604051612bdd816116b260208201946020865260208601906105a7565b5190201490565b6000828152600260205260409020546001600160a01b0316919082612c93575b6001600160a01b03811690612c469082612c6f575b600084815260026020526040902080546001600160a01b0319166001600160a01b03909216919091179055565b827fddf252ad1be2c89b69c2b068fc378daa952ba7f163c4a11628f55a4df523b3ef600080a490565b6001600160a01b038116600090815260036020526040902060018154019055612c19565b612ca7826000526004602052604060002090565b80546001600160a01b03191690556001600160a01b03831660009081526003602052604090208054600019019055612c04565b6034916116b2612e046105dd93609a604051968795733c636972636c652063783d273530272063793d2760601b6020880152805190612d986020820192612d2481868c0186610584565b8901917f2720723d273430272066696c6c3d272330306161666627207374726f6b653d27858401527f2330303030303027207374726f6b652d77696474683d273327202f3e0000000060548401526f3c7465787420783d2735302720793d2760801b60708401525180936080840190610584565b01017f272066696c6c3d27626c61636b2720666f6e742d73697a653d2732342720646f604c8201527f6d696e616e742d626173656c696e653d276d6964646c652720746578742d616e606c8201526d31b437b91e93b6b4b2323632939f60911b608c8201520190611a5f565b661e17ba32bc3a1f60c91b81526007019056fea2646970667358221220102bf923e60aa5da385dee3c66190b6f300366a6f22cb358d09e6384462ae24c64736f6c634300081a003331ecc21a745e3968a04e9570e4425bc18fa8019c68028196b546d1669c200c68d7b6990105719101dabeb77144f2a3385c8033acd3af97e9423a695e81ad1eb51b6847dc741a1b0cd08d278845f9d819d87b734759afb55fe2de5cb82a9ae672","linkReferences":{}},"methodIdentifiers":{"BASE_PRICE_IN_MATIC()":"8aa33015","_ccipHandler()":"68b16779","_sign()":"f759e547","approve(address,uint256)":"095ea7b3","balanceOf(address)":"70a08231","calculatePrice((uint8,uint8,uint8,uint8))":"24773270","calculateUpgrade((uint8,uint8,uint8,uint8))":"621167e6","changeCCIP(address)":"3e3c0740","getApproved(uint256)":"081812fc","getOwner(uint256)":"c41a360a","getSpecial(uint256)":"e1d916f7","getStat(string,uint256)":"d5784f15","getTokenStats(uint256)":"c5829514","isApprovedForAll(address,address)":"e985e9c5","itemImage__()":"caf72264","itemType()":"f5470d7b","lockStatus(uint256)":"d728f75c","lockedItemImage()":"6467007b","mint()":"1249c58b","mintPrice()":"6817c76c","name()":"06fdde03","newStatMap(bytes32)":"46838f30","owner()":"8da5cb5b","ownerOf(uint256)":"6352211e","powerLevel__(uint256)":"94a409d8","renounceOwnership()":"715018a6","safeTransferFrom(address,address,uint256)":"42842e0e","safeTransferFrom(address,address,uint256,bytes)":"b88d4fde","setApprovalForAll(address,bool)":"a22cb465","setMintPrice(uint256)":"f4a0a528","setSign(string)":"31fbbae2","setTokenLockStatus(uint256,uint256)":"08bbefef","statLabels(uint256)":"a50c8f2c","supportsInterface(bytes4)":"01ffc9a7","symbol()":"95d89b41","tokenLockedTill(uint256)":"05b1603f","tokenURI(uint256)":"c87b56dd","transfer(address,uint256)":"a9059cbb","transferFrom(address,address,uint256)":"23b872dd","transferOwnership(address)":"f2fde38b","updateStats(uint256,address,uint8,uint8,uint8,uint8)":"02ee9785","upgrade(uint256)":"45977d03","upgradeMapping(uint256)":"ad3d47d7"},"id":13}