{"abi":[{"type":"constructor","inputs":[],"stateMutability":"nonpayable"},{"type":"receive","stateMutability":"payable"},{"type":"function","name":"BASE_PRICE_IN_MATIC","inputs":[],"outputs":[{"name":"","type":"uint256","internalType":"uint256"}],"stateMutability":"view"},{"type":"function","name":"_ccipHandler","inputs":[],"outputs":[{"name":"","type":"address","internalType":"address"}],"stateMutability":"view"},{"type":"function","name":"_sign","inputs":[],"outputs":[{"name":"","type":"string","internalType":"string"}],"stateMutability":"view"},{"type":"function","name":"approve","inputs":[{"name":"to","type":"address","internalType":"address"},{"name":"tokenId","type":"uint256","internalType":"uint256"}],"outputs":[],"stateMutability":"nonpayable"},{"type":"function","name":"balanceOf","inputs":[{"name":"owner","type":"address","internalType":"address"}],"outputs":[{"name":"","type":"uint256","internalType":"uint256"}],"stateMutability":"view"},{"type":"function","name":"calculateUpgrade","inputs":[{"name":"previousStat","type":"tuple","internalType":"struct RPGItemUtils.StatType","components":[{"name":"stat1","type":"uint8","internalType":"uint8"},{"name":"stat2","type":"uint8","internalType":"uint8"},{"name":"specialType","type":"uint8","internalType":"uint8"},{"name":"specialPoints","type":"uint8","internalType":"uint8"}]}],"outputs":[{"name":"","type":"tuple","internalType":"struct RPGItemUtils.StatType","components":[{"name":"stat1","type":"uint8","internalType":"uint8"},{"name":"stat2","type":"uint8","internalType":"uint8"},{"name":"specialType","type":"uint8","internalType":"uint8"},{"name":"specialPoints","type":"uint8","internalType":"uint8"}]}],"stateMutability":"nonpayable"},{"type":"function","name":"changeCCIP","inputs":[{"name":"newAdd","type":"address","internalType":"address"}],"outputs":[],"stateMutability":"nonpayable"},{"type":"function","name":"getApproved","inputs":[{"name":"tokenId","type":"uint256","internalType":"uint256"}],"outputs":[{"name":"","type":"address","internalType":"address"}],"stateMutability":"view"},{"type":"function","name":"getOwner","inputs":[{"name":"tokenId","type":"uint256","internalType":"uint256"}],"outputs":[{"name":"","type":"address","internalType":"address"}],"stateMutability":"view"},{"type":"function","name":"getSpecial","inputs":[{"name":"tokenId","type":"uint256","internalType":"uint256"}],"outputs":[{"name":"","type":"uint8","internalType":"uint8"},{"name":"","type":"uint8","internalType":"uint8"}],"stateMutability":"view"},{"type":"function","name":"getStat","inputs":[{"name":"statLabel","type":"string","internalType":"string"},{"name":"tokenId","type":"uint256","internalType":"uint256"}],"outputs":[{"name":"stat","type":"uint8","internalType":"uint8"}],"stateMutability":"view"},{"type":"function","name":"getTokenStats","inputs":[{"name":"tokenId","type":"uint256","internalType":"uint256"}],"outputs":[{"name":"","type":"uint8","internalType":"uint8"},{"name":"","type":"uint8","internalType":"uint8"},{"name":"","type":"uint8","internalType":"uint8"},{"name":"","type":"uint8","internalType":"uint8"}],"stateMutability":"view"},{"type":"function","name":"isApprovedForAll","inputs":[{"name":"owner","type":"address","internalType":"address"},{"name":"operator","type":"address","internalType":"address"}],"outputs":[{"name":"","type":"bool","internalType":"bool"}],"stateMutability":"view"},{"type":"function","name":"itemImage__","inputs":[],"outputs":[{"name":"","type":"string","internalType":"string"}],"stateMutability":"view"},{"type":"function","name":"itemType","inputs":[],"outputs":[{"name":"","type":"string","internalType":"string"}],"stateMutability":"view"},{"type":"function","name":"lockStatus","inputs":[{"name":"tokenId","type":"uint256","internalType":"uint256"}],"outputs":[{"name":"","type":"bool","internalType":"bool"}],"stateMutability":"view"},{"type":"function","name":"lockedItemImage","inputs":[],"outputs":[{"name":"","type":"string","internalType":"string"}],"stateMutability":"view"},{"type":"function","name":"mint","inputs":[],"outputs":[],"stateMutability":"payable"},{"type":"function","name":"mintPrice","inputs":[],"outputs":[{"name":"","type":"uint256","internalType":"uint256"}],"stateMutability":"view"},{"type":"function","name":"name","inputs":[],"outputs":[{"name":"","type":"string","internalType":"string"}],"stateMutability":"view"},{"type":"function","name":"newStatMap","inputs":[{"name":"","type":"bytes32","internalType":"bytes32"}],"outputs":[{"name":"stat1","type":"uint8","internalType":"uint8"},{"name":"stat2","type":"uint8","internalType":"uint8"},{"name":"specialType","type":"uint8","internalType":"uint8"},{"name":"specialPoints","type":"uint8","internalType":"uint8"}],"stateMutability":"view"},{"type":"function","name":"owner","inputs":[],"outputs":[{"name":"","type":"address","internalType":"address"}],"stateMutability":"view"},{"type":"function","name":"ownerOf","inputs":[{"name":"tokenId","type":"uint256","internalType":"uint256"}],"outputs":[{"name":"","type":"address","internalType":"address"}],"stateMutability":"view"},{"type":"function","name":"powerLevel__","inputs":[{"name":"tokenId","type":"uint256","internalType":"uint256"}],"outputs":[{"name":"","type":"uint256","internalType":"uint256"}],"stateMutability":"view"},{"type":"function","name":"renounceOwnership","inputs":[],"outputs":[],"stateMutability":"nonpayable"},{"type":"function","name":"safeTransferFrom","inputs":[{"name":"from","type":"address","internalType":"address"},{"name":"to","type":"address","internalType":"address"},{"name":"tokenId","type":"uint256","internalType":"uint256"}],"outputs":[],"stateMutability":"nonpayable"},{"type":"function","name":"safeTransferFrom","inputs":[{"name":"from","type":"address","internalType":"address"},{"name":"to","type":"address","internalType":"address"},{"name":"tokenId","type":"uint256","internalType":"uint256"},{"name":"data","type":"bytes","internalType":"bytes"}],"outputs":[],"stateMutability":"nonpayable"},{"type":"function","name":"setApprovalForAll","inputs":[{"name":"operator","type":"address","internalType":"address"},{"name":"approved","type":"bool","internalType":"bool"}],"outputs":[],"stateMutability":"nonpayable"},{"type":"function","name":"setMintPrice","inputs":[{"name":"_mintPrice","type":"uint256","internalType":"uint256"}],"outputs":[],"stateMutability":"nonpayable"},{"type":"function","name":"setSign","inputs":[{"name":"sign","type":"string","internalType":"string"}],"outputs":[],"stateMutability":"nonpayable"},{"type":"function","name":"setTokenLockStatus","inputs":[{"name":"tokenId","type":"uint256","internalType":"uint256"},{"name":"unlockTime","type":"uint256","internalType":"uint256"}],"outputs":[],"stateMutability":"nonpayable"},{"type":"function","name":"statLabels","inputs":[{"name":"","type":"uint256","internalType":"uint256"}],"outputs":[{"name":"","type":"string","internalType":"string"}],"stateMutability":"view"},{"type":"function","name":"supportsInterface","inputs":[{"name":"interfaceId","type":"bytes4","internalType":"bytes4"}],"outputs":[{"name":"","type":"bool","internalType":"bool"}],"stateMutability":"view"},{"type":"function","name":"symbol","inputs":[],"outputs":[{"name":"","type":"string","internalType":"string"}],"stateMutability":"view"},{"type":"function","name":"tokenLockedTill","inputs":[{"name":"","type":"uint256","internalType":"uint256"}],"outputs":[{"name":"","type":"uint256","internalType":"uint256"}],"stateMutability":"view"},{"type":"function","name":"tokenURI","inputs":[{"name":"tokenId","type":"uint256","internalType":"uint256"}],"outputs":[{"name":"","type":"string","internalType":"string"}],"stateMutability":"view"},{"type":"function","name":"transfer","inputs":[{"name":"to","type":"address","internalType":"address"},{"name":"tokenId","type":"uint256","internalType":"uint256"}],"outputs":[],"stateMutability":"nonpayable"},{"type":"function","name":"transferFrom","inputs":[{"name":"from","type":"address","internalType":"address"},{"name":"to","type":"address","internalType":"address"},{"name":"tokenId","type":"uint256","internalType":"uint256"}],"outputs":[],"stateMutability":"nonpayable"},{"type":"function","name":"transferOwnership","inputs":[{"name":"newOwner","type":"address","internalType":"address"}],"outputs":[],"stateMutability":"nonpayable"},{"type":"function","name":"updateStats","inputs":[{"name":"tokenId","type":"uint256","internalType":"uint256"},{"name":"newOwner","type":"address","internalType":"address"},{"name":"stat1","type":"uint8","internalType":"uint8"},{"name":"stat2","type":"uint8","internalType":"uint8"},{"name":"specialType","type":"uint8","internalType":"uint8"},{"name":"specialPoints","type":"uint8","internalType":"uint8"}],"outputs":[{"name":"","type":"bool","internalType":"bool"}],"stateMutability":"nonpayable"},{"type":"function","name":"upgrade","inputs":[{"name":"tokenId","type":"uint256","internalType":"uint256"}],"outputs":[],"stateMutability":"payable"},{"type":"function","name":"upgradeMapping","inputs":[{"name":"","type":"uint256","internalType":"uint256"}],"outputs":[{"name":"stat1","type":"uint8","internalType":"uint8"},{"name":"stat2","type":"uint8","internalType":"uint8"},{"name":"specialType","type":"uint8","internalType":"uint8"},{"name":"specialPoints","type":"uint8","internalType":"uint8"}],"stateMutability":"view"},{"type":"event","name":"Approval","inputs":[{"name":"owner","type":"address","indexed":true,"internalType":"address"},{"name":"approved","type":"address","indexed":true,"internalType":"address"},{"name":"tokenId","type":"uint256","indexed":true,"internalType":"uint256"}],"anonymous":false},{"type":"event","name":"ApprovalForAll","inputs":[{"name":"owner","type":"address","indexed":true,"internalType":"address"},{"name":"operator","type":"address","indexed":true,"internalType":"address"},{"name":"approved","type":"bool","indexed":false,"internalType":"bool"}],"anonymous":false},{"type":"event","name":"NftMinted","inputs":[{"name":"recipient","type":"address","indexed":true,"internalType":"address"},{"name":"tokenId","type":"uint256","indexed":true,"internalType":"uint256"},{"name":"timestamp","type":"uint256","indexed":true,"internalType":"uint256"}],"anonymous":false},{"type":"event","name":"OwnershipTransferred","inputs":[{"name":"previousOwner","type":"address","indexed":true,"internalType":"address"},{"name":"newOwner","type":"address","indexed":true,"internalType":"address"}],"anonymous":false},{"type":"event","name":"Transfer","inputs":[{"name":"from","type":"address","indexed":true,"internalType":"address"},{"name":"to","type":"address","indexed":true,"internalType":"address"},{"name":"tokenId","type":"uint256","indexed":true,"internalType":"uint256"}],"anonymous":false},{"type":"event","name":"Transfer","inputs":[{"name":"sender","type":"address","indexed":true,"internalType":"address"},{"name":"amount","type":"uint256","indexed":true,"internalType":"uint256"}],"anonymous":false},{"type":"error","name":"ERC721IncorrectOwner","inputs":[{"name":"sender","type":"address","internalType":"address"},{"name":"tokenId","type":"uint256","internalType":"uint256"},{"name":"owner","type":"address","internalType":"address"}]},{"type":"error","name":"ERC721InsufficientApproval","inputs":[{"name":"operator","type":"address","internalType":"address"},{"name":"tokenId","type":"uint256","internalType":"uint256"}]},{"type":"error","name":"ERC721InvalidApprover","inputs":[{"name":"approver","type":"address","internalType":"address"}]},{"type":"error","name":"ERC721InvalidOperator","inputs":[{"name":"operator","type":"address","internalType":"address"}]},{"type":"error","name":"ERC721InvalidOwner","inputs":[{"name":"owner","type":"address","internalType":"address"}]},{"type":"error","name":"ERC721InvalidReceiver","inputs":[{"name":"receiver","type":"address","internalType":"address"}]},{"type":"error","name":"ERC721InvalidSender","inputs":[{"name":"sender","type":"address","internalType":"address"}]},{"type":"error","name":"ERC721NonexistentToken","inputs":[{"name":"tokenId","type":"uint256","internalType":"uint256"}]},{"type":"error","name":"OwnableInvalidOwner","inputs":[{"name":"owner","type":"address","internalType":"address"}]},{"type":"error","name":"OwnableUnauthorizedAccount","inputs":[{"name":"account","type":"address","internalType":"address"}]}],"bytecode":{"object":"0x604060a081523462000924576200001562000929565b60059081815260206080526414dddbdc9960da1b6080518201526200003962000929565b6002815260805161535760f01b90820152815190926001600160401b038083116200090e576000926200006d845462000949565b94601f95868111620008dc575b50608051908683116001146200087157620000ae929186918362000556575b50508160011b916000199060031b1c19161790565b83555b84518181116200085d57600195620000ca875462000949565b86811162000820575b5060805190868311600114620007b957620001069291869183620005565750508160011b916000199060031b1c19161790565b85555b600680546001600160a01b031980821673b1293a8bff9323aad0419e46dd9846cc7363d44b9081179093559591906001600160a01b03167f8be0079c531659141344cd1fd0a4f28419497f9722a3daafe3b4186f6b6457e08680a36200017160105462000949565b81811162000794575b5060c360105560108452606760f81b600360805186207f68747470733a2f2f75706c6f61642e77696b696d656469612e6f72672f77696b81557f6970656469612f636f6d6d6f6e732f7468756d622f352f35352f426974636f69898201557f6e5f6c6f676f2e6a70672f36343070782d426974636f696e5f6c6f676f2e6a70600282015501556200020d60115462000949565b8181116200076f575b5060c760115560118452627a733360e81b600360805186207f68747470733a2f2f706c756d2d6c6961626c652d6d6173746f646f6e2d34353081557f2e6d7970696e6174612e636c6f75642f697066732f516d615844344e4c4e3968898201557f6e356362396a5464373866614d765533524e6d6633346776684c47736e7136376002820155015563281e140a63ffffffff19601354161760135586518781018181108482111762000662578852620002ce62000929565b60028152616c3160f01b6080518201528152620002ea62000929565b6002815261361960f11b608051820152608051820152600b9085905b6002821062000698575050506200031f600e5462000949565b81811162000676575b50600c653bb2b0b837b760d11b01600e5586516060810183811182821017620006625788526200035762000929565b600781526611b3193319331960c91b60805182015281526200037862000929565b60078152661199331933193360c91b6080518201526080518201526200039d62000929565b60078152662364656465646560c81b60805182015288820152600d546003600d5580600310620005e4575b50600d855260805185209085905b60038210620004e6575050875192608084019150811183821017620004d2578752838252600a608051830152601487830152601e606083015260075486600494600460075582600410620004a2575b5050505060078352608051832091835b868282106200047d57889073a1293a8bff9323aad0419e46dd9846cc7363d44b888888556012541617601255662386f26fc10000600855600a555161330c9081620009ec8239f35b835160805160ff600385901b81811b19909916921690971b1795909301920162000435565b620004c89360078852608051882093845463ffffffff16855501901c8201910162000986565b3880868162000425565b634e487b7160e01b85526041600452602485fd5b8051805190868211620005d057908a916200050e8262000507885462000949565b886200099f565b608051908783116001146200056257918062000543928596948d92620005565750508160011b916000199060031b1c19161790565b85555b60805101930191019091620003d6565b01519050388062000099565b868b526080518b2094929190601f1983168c5b818110620005b557509185969184879594106200059b575b505050811b01855562000546565b015160001960f88460031b161c191690553880806200058d565b83830151885560805197909601968f96938101930162000575565b634e487b7160e01b89526041600452602489fd5b600d8652876003608051882092830192015b82811062000606575050620003c8565b8762000613825462000949565b8062000625575b5050018890620005f6565b8681116001146200063c575081555b87386200061a565b8282526200065887608051842092018a1c820185830162000986565b8183555562000634565b634e487b7160e01b86526041600452602486fd5b600e8552608051852062000691918301851c81019062000986565b3862000328565b8051805190868211620005d057908a91620006b98262000507885462000949565b6080519087831160011462000701579180620006ee928596948d92620005565750508160011b916000199060031b1c19161790565b85555b6080510193019101909162000306565b868b526080518b2094929190601f1983168c5b8181106200075457509185969184879594106200073a575b505050811b018555620006f1565b015160001960f88460031b161c191690553880806200072c565b83830151885560805197909601968f96938101930162000714565b6011855260805185206200078d918301851c81019060040162000986565b3862000216565b601085526080518520620007b2918301851c81019060040162000986565b386200017a565b87865260805186208893929091601f198416885b8181106200080657508411620007ec575b505050811b01855562000109565b015160001960f88460031b161c19169055388080620007de565b8284015185556080518c97909501949384019301620007cd565b6200084c90888752608051872088808601881c820192608051871062000853575b01871c019062000986565b38620000d3565b9250819262000841565b634e487b7160e01b84526041600452602484fd5b85805260805186209190601f198416875b818110620008c25750908460019594939210620008a8575b505050811b018355620000b1565b015160001960f88460031b161c191690553880806200089a565b828401518555608051600190950194938401930162000882565b6200090790868052608051872088808601881c8201926080518710620008535701871c019062000986565b386200007a565b634e487b7160e01b600052604160045260246000fd5b600080fd5b60408051919082016001600160401b038111838210176200090e57604052565b90600182811c921680156200097b575b60208310146200096557565b634e487b7160e01b600052602260045260246000fd5b91607f169162000959565b81811062000992575050565b6000815560010162000986565b9190601f8111620009af57505050565b620009de926000526020600020906020601f840160051c83019310620009e0575b601f0160051c019062000986565b565b9091508190620009d056fe60806040526004361015610023575b361561001957600080fd5b6100216124ae565b005b60003560e01c806301ffc9a7146102be57806302ee9785146102b957806305b1603f146102b457806306fdde03146102af578063081812fc146102aa57806308bbefef146102a5578063095ea7b3146102a05780631249c58b1461029b57806323b872dd1461029657806331fbbae2146102915780633e3c07401461028c57806342842e0e1461028757806345977d031461028257806346838f301461027d578063621167e6146102785780636352211e1461022d5780636467007b146102735780636817c76c1461026e57806368b167791461026957806370a0823114610264578063715018a61461025f5780638aa330151461025a5780638da5cb5b1461025557806394a409d81461025057806395d89b411461024b578063a22cb46514610246578063a50c8f2c14610241578063a9059cbb1461023c578063ad3d47d714610237578063b88d4fde14610232578063c41a360a1461022d578063c582951414610228578063c87b56dd14610223578063caf722641461021e578063d5784f1514610219578063d728f75c14610214578063e1d916f71461020f578063e985e9c51461020a578063f2fde38b14610205578063f4a0a52814610200578063f5470d7b146101fb5763f759e5470361000e57611d42565b611c94565b611c73565b611be5565b611b88565b611b03565b611acd565b611a83565b6119d5565b611782565b611673565b610dd8565b611613565b6115b9565b61154d565b6114fc565b611428565b611381565b61135b565b611332565b611310565b6112b2565b611259565b611230565b611212565b61112d565b610d50565b610cf6565b610bdb565b610bb3565b610b70565b610a56565b61091e565b610832565b610735565b6106f6565b6106b8565b6105d5565b61054d565b6103d4565b6102da565b6001600160e01b03198116036102d557565b600080fd5b346102d55760203660031901126102d55760206004356102f9816102c3565b63ffffffff60e01b166380ac58cd60e01b8114908115610337575b8115610326575b506040519015158152f35b6301ffc9a760e01b1490503861031b565b635b5e139f60e01b81149150610314565b602435906001600160a01b03821682036102d557565b600435906001600160a01b03821682036102d557565b6044359060ff821682036102d557565b6064359060ff821682036102d557565b6084359060ff821682036102d557565b60a4359060ff821682036102d557565b6004359060ff821682036102d557565b6024359060ff821682036102d557565b346102d55760c03660031901126102d5576004356103f0610348565b6103f8610374565b91610401610384565b9261040a610394565b926104136103a4565b9360018060a01b0361042a81601254163314611df0565b8216918215610514576104bc9661049f610496610491886104b3976104a9968261047861046c60609e600052600260205260018060a01b036040600020541690565b6001600160a01b031690565b156104cc575b5050506000526014602052604060002090565b611e3c565b60ff9096168652565b60ff166020850152565b60ff166040830152565b019060ff169052565b60405160018152602090f35b0390f35b6104d5916124d7565b6000828152601560205260408120558142917ffc612aad4e70fb3e1d4832d8c65f92e4024aa87f809d131267a79bceee757f33600080a438808261047e565b60405162461bcd60e51b815260206004820152601160248201527024b73b30b634b2103732bb9037bbb732b960791b6044820152606490fd5b346102d55760203660031901126102d55760043560005260156020526020604060002054604051908152f35b60005b83811061058c5750506000910152565b818101518382015260200161057c565b906020916105b581518092818552858086019101610579565b601f01601f1916010190565b9060206105d292818152019061059c565b90565b346102d5576000806003193601126106b55760405190808054906105f882610e19565b808552916020916001918281169081156106885750600114610631575b6104c886610625818803826109c6565b604051918291826105c1565b80809550527f290decd9548b62a8d60345a988386fc84ba6bc95484008f6362f93160ef3e5635b83851061067557505050508101602001610625826104c838610615565b8054868601840152938201938101610658565b90508695506104c89693506020925061062594915060ff191682840152151560051b820101929338610615565b80fd5b346102d55760203660031901126102d5576004356106d581612620565b506000526004602052602060018060a01b0360406000205416604051908152f35b346102d55760403660031901126102d55761071c60018060a01b03601254163314611df0565b6004356000526015602052602435604060002055600080f35b346102d55760403660031901126102d55761074e61035e565b6024359061075b82612620565b3315158061081f575b806107f1575b6107d957610021926107ba9181906001600160a01b0385811691167f8c5be1e5ebec7d5bd14f71427d1e84f3dd0314c0f7b2291e5b200ac8c7c3b925600080a46000526004602052604060002090565b80546001600160a01b0319166001600160a01b03909216919091179055565b60405163a9fbf51f60e01b8152336004820152602490fd5b506001600160a01b038116600090815260056020908152604080832033845290915290205460ff161561076a565b506001600160a01b038116331415610764565b6000806003193601126106b55760085434036108af5760095460001981146108aa5761086060018201600955565b61086a81336124d7565b8161087f826000526015602052604060002090565b554290337ffc612aad4e70fb3e1d4832d8c65f92e4024aa87f809d131267a79bceee757f338480a480f35b611e74565b60405162461bcd60e51b815260206004820152601260248201527124b739bab33334b1b4b2b73a1022ba3432b960711b6044820152606490fd5b60609060031901126102d5576001600160a01b039060043582811681036102d5579160243590811681036102d5579060443590565b346102d55761002161092f366108e9565b9161095260018060a01b0361094981601254163314611df0565b83161515611e8a565b61265b565b634e487b7160e01b600052604160045260246000fd5b6080810190811067ffffffffffffffff82111761098957604052565b610957565b6020810190811067ffffffffffffffff82111761098957604052565b6040810190811067ffffffffffffffff82111761098957604052565b90601f8019910116810190811067ffffffffffffffff82111761098957604052565b67ffffffffffffffff811161098957601f01601f191660200190565b929192610a10826109e8565b91610a1e60405193846109c6565b8294818452818301116102d5578281602093846000960137010152565b9080601f830112156102d5578160206105d293359101610a04565b346102d5576020806003193601126102d55767ffffffffffffffff6004358181116102d557610a89903690600401610a3b565b91825191821161098957610aa782610aa2600f54610e19565b611ee2565b602090601f8311600114610ae957508190610ad993600092610ade575b50508160011b916000199060031b1c19161790565b600f55005b015190503880610ac4565b90601f19831693610b1c600f6000527f8d1108e10bcb7c27dddfc02ed9d693a074039d026cf4ea4240b40f7d581ac80290565b926000905b868210610b585750508360019510610b3f575b505050811b01600f55005b015160001960f88460031b161c19169055388080610b34565b80600185968294968601518155019501930190610b21565b346102d55760203660031901126102d557610b8961035e565b610b916126e2565b601280546001600160a01b0319166001600160a01b0392909216919091179055005b346102d557610021610bc4366108e9565b9060405192610bd28461098e565b600084526121a2565b60203660031901126102d5576004356000818152600260205260408120549091610cf391610c13906001600160a01b03161515611f67565b8083526015602052610c2b6040842054421015611fa9565b8083526014602052610c9b610c766040852060ff60405191610c4c8361096d565b548181168352818160081c166020840152818160101c16604084015260181c166060820152612058565b91610c8b610c8384612726565b341015611fe7565b6000526014602052604060002090565b815181546020840151604085015160609095015163ffffffff1990921660ff939093169290921760089290921b61ff00169190911760109390931b62ff0000169290921760189290921b63ff00000016919091179055565b80f35b346102d55760203660031901126102d55760043560009081526016602090815260409182902054825160ff8083168252600883901c811693820193909352601082901c83169381019390935260181c166060820152608090f35b346102d55760803660031901126102d5576080610da8604051610d728161096d565b610d7a6103b4565b8152610d846103c4565b6020820152610d91610374565b6040820152610d9e610384565b6060820152612058565b60ff6060604051928281511684528260208201511660208501528260408201511660408501520151166060820152f35b346102d55760203660031901126102d5576004356000908152600260209081526040909120546001600160a01b03166040516001600160a01b039091168152f35b90600182811c92168015610e49575b6020831014610e3357565b634e487b7160e01b600052602260045260246000fd5b91607f1691610e28565b600c5460009291610e6382610e19565b80825291602090600190818116908115610ee25750600114610e86575b50505050565b92939450600c6000527fdf6966c971051c3d54ec59162606531493a51404a002842f56009d7e5cf4a8c7926000935b858510610ecf575050506020925001019038808080610e80565b8054858501840152938201938101610eb5565b92505050602093945060ff929192191683830152151560051b01019038808080610e80565b805460009392610f1682610e19565b91828252602093600191600181169081600014610f7e5750600114610f3d575b5050505050565b90939495506000929192528360002092846000945b838610610f6a57505050500101903880808080610f36565b805485870183015294019385908201610f52565b60ff19168685015250505090151560051b010191503880808080610f36565b6040519060008260005491610fb183610e19565b8083529260209060019081811690811561103e5750600114610fde575b5050610fdc925003836109c6565b565b915092600080527f290decd9548b62a8d60345a988386fc84ba6bc95484008f6362f93160ef3e563936000925b8284106110265750610fdc9450505081016020013880610fce565b8554888501830152948501948794509281019261100b565b91505060209250610fdc94915060ff191682840152151560051b8201013880610fce565b60405190600082600b549161107683610e19565b8083529260209060019081811690811561103e57506001146110a0575050610fdc925003836109c6565b915092600b6000527f0175b7a638427703f0dbe7bb9bbf987a2551717b34e79f33b5b1008d1fa01db9936000925b8284106110e95750610fdc9450505081016020013880610fce565b855488850183015294850194879450928101926110ce565b60405190610fdc8261111281610e53565b03836109c6565b90610fdc6111129260405193848092610f07565b346102d5576000806003193601126106b5576040519080826011549161115283610e19565b92838352602094600191866001821691826000146111f0575050600114611196575b5050611182925003836109c6565b6104c860405192828493845283019061059c565b90859250601182527f31ecc21a745e3968a04e9570e4425bc18fa8019c68028196b546d1669c200c685b8583106111d857505061118293508201013880611174565b805483890185015287945086939092019181016111c0565b925093505061118294915060ff191682840152151560051b8201013880611174565b346102d55760003660031901126102d5576020600854604051908152f35b346102d55760003660031901126102d5576012546040516001600160a01b039091168152602090f35b346102d55760203660031901126102d5576001600160a01b0361127a61035e565b1680156112995760005260036020526020604060002054604051908152f35b6040516322718ad960e21b815260006004820152602490fd5b346102d5576000806003193601126106b5576112cc6126e2565b600680546001600160a01b0319811690915581906001600160a01b03167f8be0079c531659141344cd1fd0a4f28419497f9722a3daafe3b4186f6b6457e08280a380f35b346102d55760003660031901126102d5576020604051662386f26fc100008152f35b346102d55760003660031901126102d5576006546040516001600160a01b039091168152602090f35b346102d55760203660031901126102d5576020611379600435612127565b604051908152f35b346102d5576000806003193601126106b557604051908060018054906113a682610e19565b808652926020926001811690811561068857506001146113d0576104c886610625818803826109c6565b9350600184527fb10e2d527612073b26eecdfd717e6a320cf44b4afac2b0732d9fcbe2b7fa0cf65b83851061141557505050508101602001610625826104c838610615565b80548686018401529382019381016113f8565b346102d55760403660031901126102d55761144161035e565b6024358015158082036102d5576001600160a01b0383169283156114cd573360009081526005602090815260408083206001600160a01b039094168352929052209060ff801983541691161790557f17307eab39ab6107e8899845ad3d59bd9653f200f220920489ca2b5937696c31604051806114c8339482919091602081019215159052565b0390a3005b604051630b61174360e31b815260048101859052602490fd5b634e487b7160e01b600052603260045260246000fd5b346102d55760203660031901126102d55760043560028110156102d5576115326115396104c89260405192838092600b01610f07565b03826109c6565b60405191829160208352602083019061059c565b346102d55760403660031901126102d55761156661035e565b610cf360243560009281845260026020526115b360018060a01b03611592816040882054161515611f67565b83865260156020526115aa6040872054421015611fa9565b82161515611e8a565b3361265b565b346102d55760203660031901126102d55760043560009081526014602090815260409182902054825160ff8083168252600883901c811693820193909352601082901c83169381019390935260181c166060820152608090f35b346102d55760803660031901126102d55761162c61035e565b611634610348565b6064359167ffffffffffffffff83116102d557366023840112156102d557611669610021933690602481600401359101610a04565b91604435916121a2565b346102d55760203660031901126102d5576004356000818152600260205260409020546116aa906001600160a01b03161515611f67565b60005260146020526040600020604051906116c48261096d565b546104c860ff916117538382168086526020860194808460081c1686528060606040890198828760101c168a52019460181c16845261174861174061173461172c6117206117186013549787891690612113565b9a5160ff1690565b858760081c1690612113565b995160ff1690565b838560101c1690612113565b945160ff1690565b9160181c1690612113565b9060405194859485929360ff809296958160609581608089019a16885216602087015216604085015216910152565b346102d55760203660031901126102d5576104c861196061062561190961192b61184c61184760043560009080825260026020526117cd60018060a01b036040842054161515611f67565b6117e4816000526015602052604060002054421090565b9182156119c6576117f36122c4565b915b83156119ae576118036122e7565b935b801561198b576118136122e7565b915b811561197457506118246122e7565b925b501561196c576011935b61184161183b610f9d565b95611119565b93612b6c565b612f5c565b6119176040519384926119036118cd61188c60208701601c907f7b226e616d65223a2022455448205761746368696e6720535647222c0000000081520190565b7f226465736372697074696f6e223a2022416e204175746f6d617465642045544881526e081d1c9858dada5b99c814d591c88b608a1b6020820152602f0190565b7f22696d616765223a2022646174613a696d6167652f7376672b786d6c3b626173815263194d8d0b60e21b602082015260240190565b90612305565b61227d60f01b815260020190565b0391611847601f19938481018352826109c6565b6040517f646174613a6170706c69636174696f6e2f6a736f6e3b6261736536342c0000006020820152938491603d8301611903565b039081018352826109c6565b601093611830565b61198061198591612127565b612a28565b92611826565b6119a86119806119a28461199d611101565b61231c565b60ff1690565b91611815565b6119c06119806119a28361199d611062565b93611805565b6119cf82612941565b916117f5565b346102d5576000806003193601126106b557604051908082601054916119fa83610e19565b92838352602094600191866001821691826000146111f0575050600114611a29575050611182925003836109c6565b90859250601082527f1b6847dc741a1b0cd08d278845f9d819d87b734759afb55fe2de5cb82a9ae6725b858310611a6b57505061118293508201013880611174565b80548389018501528794508693909201918101611a53565b346102d55760403660031901126102d55760043567ffffffffffffffff81116102d557611ac2611ab96020923690600401610a3b565b6024359061231c565b60ff60405191168152f35b346102d55760203660031901126102d5576020611af96004356000526015602052604060002054421090565b6040519015158152f35b346102d55760203660031901126102d5576104c860406004356000908082526002602052611b3d60018060a01b0384842054161515611f67565b8082526015602052611b5483832054421015611fa9565b815260146020522054604051918160ff80859460181c169160101c168390929160ff60209181604085019616845216910152565b346102d55760403660031901126102d557602060ff611bd9611ba861035e565b611bb0610348565b6001600160a01b0391821660009081526005865260408082209290931681526020919091522090565b54166040519015158152f35b346102d55760203660031901126102d557611bfe61035e565b611c066126e2565b6001600160a01b03908116908115611c5a57600654826bffffffffffffffffffffffff60a01b821617600655167f8be0079c531659141344cd1fd0a4f28419497f9722a3daafe3b4186f6b6457e0600080a3005b604051631e4fbdf760e01b815260006004820152602490fd5b346102d55760203660031901126102d557611c8c6126e2565b600435600855005b346102d5576000806003193601126106b557604051908082600e5491611cb983610e19565b92838352602094600191866001821691826000146111f0575050600114611ce8575050611182925003836109c6565b90859250600e82527fbb7b4a454dc3493923482f07822329ed19e8244eff582cc204f8554c3620c3fd5b858310611d2a57505061118293508201013880611174565b80548389018501528794508693909201918101611d12565b346102d5576000806003193601126106b557604051908082600f5491611d6783610e19565b92838352602094600191866001821691826000146111f0575050600114611d96575050611182925003836109c6565b90859250600f82527f8d1108e10bcb7c27dddfc02ed9d693a074039d026cf4ea4240b40f7d581ac8025b858310611dd857505061118293508201013880611174565b80548389018501528794508693909201918101611dc0565b15611df757565b60405162461bcd60e51b815260206004820152601d60248201527f43616c6c6572206973206e6f7420746865204343495020726f757465720000006044820152606490fd5b90604051611e498161096d565b606060ff8294548181168452818160081c166020850152818160101c16604085015260181c16910152565b634e487b7160e01b600052601160045260246000fd5b15611e9157565b60405162461bcd60e51b8152602060048201526024808201527f4552433732313a207472616e7366657220746f20746865207a65726f206164646044820152637265737360e01b6064820152608490fd5b601f8111611eee575050565b600090600f6000527f8d1108e10bcb7c27dddfc02ed9d693a074039d026cf4ea4240b40f7d581ac802906020601f850160051c83019410611f4a575b601f0160051c01915b828110611f3f57505050565b818155600101611f33565b9092508290611f2a565b60405190611f618261098e565b60008252565b15611f6e57565b60405162461bcd60e51b8152602060048201526013602482015272151bdad95b881a5cc81b9bdd08135a5b9d1959606a1b6044820152606490fd5b15611fb057565b60405162461bcd60e51b815260206004820152600f60248201526e151bdad95b881a5cc81b1bd8dad959608a1b6044820152606490fd5b15611fee57565b60405162461bcd60e51b815260206004820152601d60248201527f696e73756666696369656e742066756e6420666f7220757067726164650000006044820152606490fd5b604051906120408261096d565b60006060838281528260208201528260408201520152565b612060612033565b5080518120806000526016602052604060002091604051926120818461096d565b5460ff81169384815260ff8260081c169182602083015260ff808260101c169182604085015260181c16918260608201529515928361210a575b5082612101575b50816120f8575b506120d357505090565b610c9b9250906120e56105d29261276c565b9283916000526016602052604060002090565b905015386120c9565b159150386120c2565b159250386120bb565b9060ff8091169116019060ff82116108aa57565b6000526014602052607f61219b6040600020612195604051916121498361096d565b549160ff808416918281526060826020830196818160081c168852818160101c16604085015260181c16910152806121876013549382851690612113565b9451169160081c1690612113565b90612113565b60011c1690565b9192909260018060a01b036121bc81601254163314611df0565b8416916121ca831515611e8a565b6121d582868661265b565b843b6121e2575050505050565b61220a926020926000604051809681958294630a85bd0160e11b9a8b85523360048601612808565b03925af160009181612293575b506122565782612225612839565b805191908261224f57604051633250574960e11b81526001600160a01b0383166004820152602490fd5b9050602001fd5b6001600160e01b0319160361227057503880808080610f36565b604051633250574960e11b81526001600160a01b03919091166004820152602490fd5b6122b691925060203d6020116122bd575b6122ae81836109c6565b8101906127c8565b9038612217565b503d6122a4565b604051906122d1826109aa565b60078252660233830383038360cc1b6020830152565b604051906122f4826109aa565b60028252613f3f60f01b6020830152565b9061231860209282815194859201610579565b0190565b6000828152600260205260409020546105d2929190612345906001600160a01b03161515611f67565b81600052601560205261235f604060002054421015611fa9565b6040516000600b5461237081610e19565b80845290602090600190818116908115612484575060011461242a575b505050906123a0816123a69303826109c6565b82613043565b156123d857506123cd6123c66105d2926000526014602052604060002090565b5460ff1690565b60135460ff16612195565b6040516123f1916123ec8261111281610e53565b613043565b156124245760ff61240f6105d2926000526014602052604060002090565b5460081c1661219560135460ff9060081c1690565b50600090565b600b600090815293507f0175b7a638427703f0dbe7bb9bbf987a2551717b34e79f33b5b1008d1fa01db95b838510612471575050505081016020016123a0826123a661238d565b8054868601840152938201938101612455565b8695506123a6969350602092506123a094915060ff191682840152151560051b820101929361238d565b34337f69ca02dd4edd7bf0a4abb9ed3b7af3f14778db5d61921c7dc7cd545266326de2600080a3565b60409182516124e58161098e565b600081526001600160a01b038381169190821561260857612506848661309c565b166125f057833b612518575050505050565b6125426000926020928798969751948580948193630a85bd0160e11b998a845233600485016127dd565b03925af1600091816125cf575b5061258f5750505061255f612839565b8051929083612588578151633250574960e11b81526001600160a01b0384166004820152602490fd5b8390602001fd5b9193916001600160e01b031916036125ad5750503880808080610f36565b51633250574960e11b81526001600160a01b0391909116600482015260249150fd5b6125e991925060203d6020116122bd576122ae81836109c6565b903861254f565b84516339e3563760e11b815260006004820152602490fd5b8551633250574960e11b815260006004820152602490fd5b6000818152600260205260409020546001600160a01b0316908115612643575090565b60249060405190637e27328960e01b82526004820152fd5b906001600160a01b0390818116156126c95761267884839261309c565b16918261269857604051637e27328960e01b815260048101859052602490fd5b16918282036126a657505050565b60649350604051926364283d7b60e01b8452600484015260248301526044820152fd5b604051633250574960e11b815260006004820152602490fd5b6006546001600160a01b031633036126f657565b60405163118cdaa760e01b8152336004820152602490fd5b600281901b91906001600160fe1b038116036108aa57565b60ff6020818351169201511681018091116108aa576064810290808204606414901517156108aa5760011c662386f26fc1000090808202918204036108aa576064900490565b612774612033565b5060ff600381835116018181116108aa5781168252602082019060038183511601908082116108aa5760648181931691828552855116116127c0575b116127b9575090565b6064905290565b8184526127b0565b908160209103126102d557516105d2816102c3565b6105d2939260809260018060a01b03168252600060208301526040820152816060820152019061059c565b6001600160a01b0391821681529116602082015260408101919091526080606082018190526105d29291019061059c565b3d15612864573d9061284a826109e8565b9161285860405193846109c6565b82523d6000602084013e565b606090565b600d541561289d57600d6000527fd7b6990105719101dabeb77144f2a3385c8033acd3af97e9423a695e81ad1eb590600090565b6114e6565b600d5481101561289d57600d6000527fd7b6990105719101dabeb77144f2a3385c8033acd3af97e9423a695e81ad1eb50190600090565b6000198101919082116108aa57565b9060075482101561289d576007600052601f8260051c7fa66cc928b5edb82af9bd49922954155ab7b0942694bea4ce44661d9a8736c68801921690565b90600182018092116108aa57565b90600282018092116108aa57565b61294a90612127565b80156129da576007549060005b612960836128d9565b8110156129cc576129836119a2612976836128e8565b905460ff9160031b1c1690565b821015806129ad575b61299857600101612957565b6105d292506129a791506128a2565b50611119565b506129c56119a26129766129c084612925565b6128e8565b821061298c565b5050506105d26129a7612869565b506115326105d26129e9612869565b5060405192838092610f07565b90612a00826109e8565b612a0d60405191826109c6565b8281528092612a1e601f19916109e8565b0190602036910137565b806000917a184f03e93ff9f4daa797ed6e38ed64bf6a1f01000000000000000080821015612b5e575b506d04ee2d6d415b85acef810000000080831015612b4f575b50662386f26fc1000080831015612b40575b506305f5e10080831015612b31575b5061271080831015612b22575b506064821015612b12575b600a80921015612b08575b600190816021612ac0600187016129f6565b95860101905b612ad2575b5050505090565b600019019083906f181899199a1a9b1b9c1cb0b131b232b360811b8282061a835304918215612b0357919082612ac6565b612acb565b9160010191612aae565b9190606460029104910191612aa3565b60049193920491019138612a98565b60089193920491019138612a8b565b60109193920491019138612a7c565b60209193920491019138612a6a565b604093508104915038612a51565b9391949290604051612b7d816109aa565b6002815261038360f41b6020820152612b959161318c565b94604051612ba2816109aa565b600381526203138360ec1b6020820152612bbb9161318c565b90604051612bc8816109aa565b600381526203238360ec1b6020820152612be19161318c565b9060405195869560208701612cf19060d0907f3c73766720786d6c6e733d27687474703a2f2f7777772e77332e6f72672f323081527f30302f737667272076657273696f6e3d27312e312720786d6c6e733a786c696e60208201527f6b3d27687474703a2f2f7777772e77332e6f72672f313939392f786c696e6b2760408201527f20786d6c6e733a7376676a733d27687474703a2f2f7376676a732e636f6d2f7360608201527f76676a73272077696474683d2733303027206865696768743d2733303027207060808201527f72657365727665417370656374526174696f3d276e6f6e65272076696577426f60a08201526f3c1e93981018101a9818101a9818139f60811b60c08201520190565b7f3c726563742077696474683d273130302527206865696768743d2731303025278152662066696c6c3d2760c81b6020820152602701612d3091612305565b6213979f60e91b8152600301612d4591612305565b612d4e91612305565b612d5791612305565b7f3c696d61676520783d273130302720793d273530272077696474683d2733303081527427206865696768743d273330302720687265663d2760581b6020820152603501612da491612305565b6213979f60e91b81526003017f3c7465787420783d273235302720793d27343230272066696c6c3d27626c616381527f6b2720666f6e742d73697a653d2732342720646f6d696e616e742d626173656c60208201527f696e653d276d6964646c652720746578742d616e63686f723d276d6964646c65604082015261139f60f11b6060820152606201612e3691612305565b661e17ba32bc3a1f60c91b81526007017f3c7265637420783d27302720793d2730272077696474683d273530302720686581527f696768743d27353030272066696c6c3d276e6f6e6527207374726f6b653d272360208201527f30303030303027207374726f6b652d77696474683d2735272072783d2731352760408201526910393c9e93989a93979f60b11b6060820152606a01651e17b9bb339f60d11b815260060103601f19810182526105d290826109c6565b604051906060820182811067ffffffffffffffff82111761098957604052604082527f6768696a6b6c6d6e6f707172737475767778797a303132333435363738392b2f6040837f4142434445464748494a4b4c4d4e4f505152535455565758595a61626364656660208201520152565b80511561303a57612f6b612eec565b612f8f612f8a612f85612f7e8551612933565b6003900490565b61270e565b6129f6565b91602083019181825183016020810191825193600084525b828210612fe85750505052516003900660018114612fd557600214612fca575090565b603d90600019015390565b50603d9081600019820153600119015390565b9091956004906003809401938451600190603f9082828260121c16880101518553828282600c1c16880101518386015382828260061c1688010151600286015316850101519082015301959190612fa7565b506105d2611f54565b90604051918261305f602082019260208452604083019061059c565b0392613073601f19948581018352826109c6565b519020916130956040519182611960602082019560208752604083019061059c565b5190201490565b6000828152600260205260408120546001600160a01b0390811693929184917fddf252ad1be2c89b69c2b068fc378daa952ba7f163c4a11628f55a4df523b3ef919061311c9084613145575b85169485613121575b86835260026020526040832080546001600160a01b0319166001600160a01b03909216919091179055565b80a490565b6001600160a01b0381166000908152600360205260409020600181540190556130f1565b613159876000526004602052604060002090565b80546001600160a01b03191690556001600160a01b038516600090815260036020526040902080546000190190556130e8565b60ce916132c86132b56105d293604051958694733c636972636c652063783d273530272063793d2760601b602087015280519061324a60208201926131d58160348b0186610579565b8801917f2720723d273430272066696c6c3d272330306161666627207374726f6b653d2760348401527f2330303030303027207374726f6b652d77696474683d273327202f3e0000000060548401526f3c7465787420783d2735302720793d2760801b60708401525180936080840190610579565b017f272066696c6c3d27626c61636b2720666f6e742d73697a653d2732342720646f60808201527f6d696e616e742d626173656c696e653d276d6964646c652720746578742d616e60a08201526d31b437b91e93b6b4b2323632939f60911b60c08201520190612305565b661e17ba32bc3a1f60c91b815260070190565b03601f1981018352826109c656fea2646970667358221220f2b00fc5a230fd4a65598818eed5794d90d3dcc113078cfa8f5670c386a9cabc64736f6c63430008180033","linkReferences":{}},"methodIdentifiers":{"BASE_PRICE_IN_MATIC()":"8aa33015","_ccipHandler()":"68b16779","_sign()":"f759e547","approve(address,uint256)":"095ea7b3","balanceOf(address)":"70a08231","calculateUpgrade((uint8,uint8,uint8,uint8))":"621167e6","changeCCIP(address)":"3e3c0740","getApproved(uint256)":"081812fc","getOwner(uint256)":"c41a360a","getSpecial(uint256)":"e1d916f7","getStat(string,uint256)":"d5784f15","getTokenStats(uint256)":"c5829514","isApprovedForAll(address,address)":"e985e9c5","itemImage__()":"caf72264","itemType()":"f5470d7b","lockStatus(uint256)":"d728f75c","lockedItemImage()":"6467007b","mint()":"1249c58b","mintPrice()":"6817c76c","name()":"06fdde03","newStatMap(bytes32)":"46838f30","owner()":"8da5cb5b","ownerOf(uint256)":"6352211e","powerLevel__(uint256)":"94a409d8","renounceOwnership()":"715018a6","safeTransferFrom(address,address,uint256)":"42842e0e","safeTransferFrom(address,address,uint256,bytes)":"b88d4fde","setApprovalForAll(address,bool)":"a22cb465","setMintPrice(uint256)":"f4a0a528","setSign(string)":"31fbbae2","setTokenLockStatus(uint256,uint256)":"08bbefef","statLabels(uint256)":"a50c8f2c","supportsInterface(bytes4)":"01ffc9a7","symbol()":"95d89b41","tokenLockedTill(uint256)":"05b1603f","tokenURI(uint256)":"c87b56dd","transfer(address,uint256)":"a9059cbb","transferFrom(address,address,uint256)":"23b872dd","transferOwnership(address)":"f2fde38b","updateStats(uint256,address,uint8,uint8,uint8,uint8)":"02ee9785","upgrade(uint256)":"45977d03","upgradeMapping(uint256)":"ad3d47d7"},"id":70}