{"abi":[{"type":"constructor","inputs":[],"stateMutability":"nonpayable"},{"type":"receive","stateMutability":"payable"},{"type":"function","name":"BASE_PRICE_IN_MATIC","inputs":[],"outputs":[{"name":"","type":"uint256","internalType":"uint256"}],"stateMutability":"view"},{"type":"function","name":"_ccipHandler","inputs":[],"outputs":[{"name":"","type":"address","internalType":"address"}],"stateMutability":"view"},{"type":"function","name":"approve","inputs":[{"name":"to","type":"address","internalType":"address"},{"name":"tokenId","type":"uint256","internalType":"uint256"}],"outputs":[],"stateMutability":"nonpayable"},{"type":"function","name":"balanceOf","inputs":[{"name":"owner","type":"address","internalType":"address"}],"outputs":[{"name":"","type":"uint256","internalType":"uint256"}],"stateMutability":"view"},{"type":"function","name":"calculateUpgrade","inputs":[{"name":"previousStat","type":"tuple","internalType":"struct RPGItemUtils.StatType","components":[{"name":"stat1","type":"uint8","internalType":"uint8"},{"name":"stat2","type":"uint8","internalType":"uint8"},{"name":"specialType","type":"uint8","internalType":"uint8"},{"name":"specialPoints","type":"uint8","internalType":"uint8"}]}],"outputs":[{"name":"","type":"tuple","internalType":"struct RPGItemUtils.StatType","components":[{"name":"stat1","type":"uint8","internalType":"uint8"},{"name":"stat2","type":"uint8","internalType":"uint8"},{"name":"specialType","type":"uint8","internalType":"uint8"},{"name":"specialPoints","type":"uint8","internalType":"uint8"}]}],"stateMutability":"nonpayable"},{"type":"function","name":"changeCCIP","inputs":[{"name":"newAdd","type":"address","internalType":"address"}],"outputs":[],"stateMutability":"nonpayable"},{"type":"function","name":"getApproved","inputs":[{"name":"tokenId","type":"uint256","internalType":"uint256"}],"outputs":[{"name":"","type":"address","internalType":"address"}],"stateMutability":"view"},{"type":"function","name":"getOwner","inputs":[{"name":"tokenId","type":"uint256","internalType":"uint256"}],"outputs":[{"name":"","type":"address","internalType":"address"}],"stateMutability":"view"},{"type":"function","name":"getSpecial","inputs":[{"name":"tokenId","type":"uint256","internalType":"uint256"}],"outputs":[{"name":"","type":"uint8","internalType":"uint8"},{"name":"","type":"uint8","internalType":"uint8"}],"stateMutability":"view"},{"type":"function","name":"getStat","inputs":[{"name":"statLabel","type":"string","internalType":"string"},{"name":"tokenId","type":"uint256","internalType":"uint256"}],"outputs":[{"name":"stat","type":"uint8","internalType":"uint8"}],"stateMutability":"view"},{"type":"function","name":"getTokenStats","inputs":[{"name":"tokenId","type":"uint256","internalType":"uint256"}],"outputs":[{"name":"","type":"uint8","internalType":"uint8"},{"name":"","type":"uint8","internalType":"uint8"},{"name":"","type":"uint8","internalType":"uint8"},{"name":"","type":"uint8","internalType":"uint8"}],"stateMutability":"view"},{"type":"function","name":"isApprovedForAll","inputs":[{"name":"owner","type":"address","internalType":"address"},{"name":"operator","type":"address","internalType":"address"}],"outputs":[{"name":"","type":"bool","internalType":"bool"}],"stateMutability":"view"},{"type":"function","name":"itemImage__","inputs":[],"outputs":[{"name":"","type":"string","internalType":"string"}],"stateMutability":"view"},{"type":"function","name":"itemType","inputs":[],"outputs":[{"name":"","type":"string","internalType":"string"}],"stateMutability":"view"},{"type":"function","name":"lockStatus","inputs":[{"name":"tokenId","type":"uint256","internalType":"uint256"}],"outputs":[{"name":"","type":"bool","internalType":"bool"}],"stateMutability":"view"},{"type":"function","name":"lockedItemImage","inputs":[],"outputs":[{"name":"","type":"string","internalType":"string"}],"stateMutability":"view"},{"type":"function","name":"mint","inputs":[],"outputs":[],"stateMutability":"payable"},{"type":"function","name":"mintPrice","inputs":[],"outputs":[{"name":"","type":"uint256","internalType":"uint256"}],"stateMutability":"view"},{"type":"function","name":"name","inputs":[],"outputs":[{"name":"","type":"string","internalType":"string"}],"stateMutability":"view"},{"type":"function","name":"newStatMap","inputs":[{"name":"","type":"bytes32","internalType":"bytes32"}],"outputs":[{"name":"stat1","type":"uint8","internalType":"uint8"},{"name":"stat2","type":"uint8","internalType":"uint8"},{"name":"specialType","type":"uint8","internalType":"uint8"},{"name":"specialPoints","type":"uint8","internalType":"uint8"}],"stateMutability":"view"},{"type":"function","name":"owner","inputs":[],"outputs":[{"name":"","type":"address","internalType":"address"}],"stateMutability":"view"},{"type":"function","name":"ownerOf","inputs":[{"name":"tokenId","type":"uint256","internalType":"uint256"}],"outputs":[{"name":"","type":"address","internalType":"address"}],"stateMutability":"view"},{"type":"function","name":"renounceOwnership","inputs":[],"outputs":[],"stateMutability":"nonpayable"},{"type":"function","name":"safeTransferFrom","inputs":[{"name":"from","type":"address","internalType":"address"},{"name":"to","type":"address","internalType":"address"},{"name":"tokenId","type":"uint256","internalType":"uint256"}],"outputs":[],"stateMutability":"nonpayable"},{"type":"function","name":"safeTransferFrom","inputs":[{"name":"from","type":"address","internalType":"address"},{"name":"to","type":"address","internalType":"address"},{"name":"tokenId","type":"uint256","internalType":"uint256"},{"name":"data","type":"bytes","internalType":"bytes"}],"outputs":[],"stateMutability":"nonpayable"},{"type":"function","name":"setApprovalForAll","inputs":[{"name":"operator","type":"address","internalType":"address"},{"name":"approved","type":"bool","internalType":"bool"}],"outputs":[],"stateMutability":"nonpayable"},{"type":"function","name":"setMintPrice","inputs":[{"name":"_mintPrice","type":"uint256","internalType":"uint256"}],"outputs":[],"stateMutability":"nonpayable"},{"type":"function","name":"setSign","inputs":[{"name":"sign","type":"string","internalType":"string"}],"outputs":[],"stateMutability":"nonpayable"},{"type":"function","name":"setTokenLockStatus","inputs":[{"name":"tokenId","type":"uint256","internalType":"uint256"},{"name":"unlockTime","type":"uint256","internalType":"uint256"}],"outputs":[],"stateMutability":"nonpayable"},{"type":"function","name":"statLabels","inputs":[{"name":"","type":"uint256","internalType":"uint256"}],"outputs":[{"name":"","type":"string","internalType":"string"}],"stateMutability":"view"},{"type":"function","name":"supportsInterface","inputs":[{"name":"interfaceId","type":"bytes4","internalType":"bytes4"}],"outputs":[{"name":"","type":"bool","internalType":"bool"}],"stateMutability":"view"},{"type":"function","name":"symbol","inputs":[],"outputs":[{"name":"","type":"string","internalType":"string"}],"stateMutability":"view"},{"type":"function","name":"tokenLockedTill","inputs":[{"name":"","type":"uint256","internalType":"uint256"}],"outputs":[{"name":"","type":"uint256","internalType":"uint256"}],"stateMutability":"view"},{"type":"function","name":"tokenURI","inputs":[{"name":"tokenId","type":"uint256","internalType":"uint256"}],"outputs":[{"name":"","type":"string","internalType":"string"}],"stateMutability":"view"},{"type":"function","name":"transfer","inputs":[{"name":"to","type":"address","internalType":"address"},{"name":"tokenId","type":"uint256","internalType":"uint256"}],"outputs":[],"stateMutability":"nonpayable"},{"type":"function","name":"transferFrom","inputs":[{"name":"from","type":"address","internalType":"address"},{"name":"to","type":"address","internalType":"address"},{"name":"tokenId","type":"uint256","internalType":"uint256"}],"outputs":[],"stateMutability":"nonpayable"},{"type":"function","name":"transferOwnership","inputs":[{"name":"newOwner","type":"address","internalType":"address"}],"outputs":[],"stateMutability":"nonpayable"},{"type":"function","name":"updateStats","inputs":[{"name":"tokenId","type":"uint256","internalType":"uint256"},{"name":"newOwner","type":"address","internalType":"address"},{"name":"stat1","type":"uint8","internalType":"uint8"},{"name":"stat2","type":"uint8","internalType":"uint8"},{"name":"specialType","type":"uint8","internalType":"uint8"},{"name":"specialPoints","type":"uint8","internalType":"uint8"}],"outputs":[{"name":"","type":"bool","internalType":"bool"}],"stateMutability":"nonpayable"},{"type":"function","name":"upgrade","inputs":[{"name":"tokenId","type":"uint256","internalType":"uint256"}],"outputs":[],"stateMutability":"payable"},{"type":"function","name":"upgradeMapping","inputs":[{"name":"","type":"uint256","internalType":"uint256"}],"outputs":[{"name":"stat1","type":"uint8","internalType":"uint8"},{"name":"stat2","type":"uint8","internalType":"uint8"},{"name":"specialType","type":"uint8","internalType":"uint8"},{"name":"specialPoints","type":"uint8","internalType":"uint8"}],"stateMutability":"view"},{"type":"event","name":"Approval","inputs":[{"name":"owner","type":"address","indexed":true,"internalType":"address"},{"name":"approved","type":"address","indexed":true,"internalType":"address"},{"name":"tokenId","type":"uint256","indexed":true,"internalType":"uint256"}],"anonymous":false},{"type":"event","name":"ApprovalForAll","inputs":[{"name":"owner","type":"address","indexed":true,"internalType":"address"},{"name":"operator","type":"address","indexed":true,"internalType":"address"},{"name":"approved","type":"bool","indexed":false,"internalType":"bool"}],"anonymous":false},{"type":"event","name":"NftMinted","inputs":[{"name":"recipient","type":"address","indexed":true,"internalType":"address"},{"name":"tokenId","type":"uint256","indexed":true,"internalType":"uint256"},{"name":"timestamp","type":"uint256","indexed":true,"internalType":"uint256"}],"anonymous":false},{"type":"event","name":"OwnershipTransferred","inputs":[{"name":"previousOwner","type":"address","indexed":true,"internalType":"address"},{"name":"newOwner","type":"address","indexed":true,"internalType":"address"}],"anonymous":false},{"type":"event","name":"Transfer","inputs":[{"name":"from","type":"address","indexed":true,"internalType":"address"},{"name":"to","type":"address","indexed":true,"internalType":"address"},{"name":"tokenId","type":"uint256","indexed":true,"internalType":"uint256"}],"anonymous":false},{"type":"event","name":"Transfer","inputs":[{"name":"sender","type":"address","indexed":true,"internalType":"address"},{"name":"amount","type":"uint256","indexed":true,"internalType":"uint256"}],"anonymous":false},{"type":"error","name":"ERC721IncorrectOwner","inputs":[{"name":"sender","type":"address","internalType":"address"},{"name":"tokenId","type":"uint256","internalType":"uint256"},{"name":"owner","type":"address","internalType":"address"}]},{"type":"error","name":"ERC721InsufficientApproval","inputs":[{"name":"operator","type":"address","internalType":"address"},{"name":"tokenId","type":"uint256","internalType":"uint256"}]},{"type":"error","name":"ERC721InvalidApprover","inputs":[{"name":"approver","type":"address","internalType":"address"}]},{"type":"error","name":"ERC721InvalidOperator","inputs":[{"name":"operator","type":"address","internalType":"address"}]},{"type":"error","name":"ERC721InvalidOwner","inputs":[{"name":"owner","type":"address","internalType":"address"}]},{"type":"error","name":"ERC721InvalidReceiver","inputs":[{"name":"receiver","type":"address","internalType":"address"}]},{"type":"error","name":"ERC721InvalidSender","inputs":[{"name":"sender","type":"address","internalType":"address"}]},{"type":"error","name":"ERC721NonexistentToken","inputs":[{"name":"tokenId","type":"uint256","internalType":"uint256"}]},{"type":"error","name":"OwnableInvalidOwner","inputs":[{"name":"owner","type":"address","internalType":"address"}]},{"type":"error","name":"OwnableUnauthorizedAccount","inputs":[{"name":"account","type":"address","internalType":"address"}]}],"bytecode":{"object":"0x608060405234610a8d576100136040610a92565b600581526414dddbdc9960da1b602082015261002f6040610a92565b6002815261535760f01b602082015281516001600160401b0381116105c757610059600054610ab7565b601f8111610a3f575b50602092601f82116001146109db576100959293829160009261080f575b50508160011b916000199060031b1c19161790565b6000555b80516001600160401b0381116105c7576100b4600154610ab7565b601f8111610981575b50602091601f821160011461091d576100ed926000918361080f5750508160011b916000199060031b1c19161790565b6001555b6006805473b1293a8bff9323aad0419e46dd9846cc7363d44b6001600160a01b0319821681179092556001600160a01b03167f8be0079c531659141344cd1fd0a4f28419497f9722a3daafe3b4186f6b6457e0600080a3610153601054610ab7565b601f81116108d2575b5060c360109081556000527f68747470733a2f2f75706c6f61642e77696b696d656469612e6f72672f77696b60008051602061398e833981519152557f6970656469612f636f6d6d6f6e732f7468756d622f352f35352f426974636f697f1b6847dc741a1b0cd08d278845f9d819d87b734759afb55fe2de5cb82a9ae673557f6e5f6c6f676f2e6a70672f36343070782d426974636f696e5f6c6f676f2e6a707f1b6847dc741a1b0cd08d278845f9d819d87b734759afb55fe2de5cb82a9ae67455606760f81b7f1b6847dc741a1b0cd08d278845f9d819d87b734759afb55fe2de5cb82a9ae6755560115461025190610ab7565b601f8111610887575b5060c760119081556000527f68747470733a2f2f706c756d2d6c6961626c652d6d6173746f646f6e2d34353060008051602061394e833981519152557f2e6d7970696e6174612e636c6f75642f697066732f516d615844344e4c4e39687f31ecc21a745e3968a04e9570e4425bc18fa8019c68028196b546d1669c200c69557f6e356362396a5464373866614d765533524e6d6633346776684c47736e7136377f31ecc21a745e3968a04e9570e4425bc18fa8019c68028196b546d1669c200c6a55627a733360e81b7f31ecc21a745e3968a04e9570e4425bc18fa8019c68028196b546d1669c200c6b556013805463ffffffff191663281e140a179055604080519081018181106001600160401b038211176105c75760405261037e6040610a92565b60028152616c3160f01b602082015281526103996040610a92565b6002815261361960f11b60208201526020820152600b906000905b600282106107a7576103c7600e54610ab7565b601f8111610768575b50600c653bb2b0b837b760d11b01600e55604051606081016001600160401b038111828210176105c7576040526104076040610a92565b600781526611b3193319331960c91b602082015281526104276040610a92565b60078152661199331933193360c91b6020820152602082015261044a6040610a92565b60078152662364656465646560c81b60208201526040820152600d546003600d55806003106106c3575b50600d600090815260008051602061396e833981519152915b600382106105dd57604051608081016001600160401b038111828210176105c75760405260008152600a602082015260146040820152601e6060820152600754600460075580600410610560575b506007600052602060002060009160005b6004811061053c57505055601280546001600160a01b03191673a1293a8bff9323aad0419e46dd9846cc7363d44b179055662386f26fc100006008556001600a55604051612e099081610b458239f35b9092602060019160ff8651169060ff8560031b92831b921b191617940191016104ec565b60076000527fa66cc928b5edb82af9bd49922954155ab7b0942694bea4ce44661d9a8736c688805463ffffffff1681556105c191601f0160051c017fa66cc928b5edb82af9bd49922954155ab7b0942694bea4ce44661d9a8736c689610af1565b816104db565b634e487b7160e01b600052604160045260246000fd5b80518051906001600160401b0382116105c757610604826105fe8754610ab7565b87610b08565b602090601f8311600114610656579261063c8360019594602094879660009261064b5750508160011b916000199060031b1c19161790565b86555b0193019101909161048d565b015190508980610080565b90601f1983169186600052816000209260005b8181106106ab5750936020936001969387969383889510610692575b505050811b01865561063f565b015160001960f88460031b161c19169055888080610685565b82840151855560019094019360209384019301610669565b600d60005260008051602061396e833981519152017fd7b6990105719101dabeb77144f2a3385c8033acd3af97e9423a695e81ad1eb85b8181106107075750610474565b8061071460019254610ab7565b80610721575b50016106fa565b601f811183146107375750600081555b8461071a565b610755908260005283601f6020600020920160051c82019101610af1565b8060005260006020812081835555610731565b600e6000526107a190601f0160051c7fbb7b4a454dc3493923482f07822329ed19e8244eff582cc204f8554c3620c3fd90810190610af1565b806103d0565b80518051906001600160401b0382116105c7576107c8826105fe8754610ab7565b602090601f831160011461081a57926108008360019594602094879660009261080f5750508160011b916000199060031b1c19161790565b86555b019301910190916103b4565b015190503880610080565b90601f1983169186600052816000209260005b81811061086f5750936020936001969387969383889510610856575b505050811b018655610803565b015160001960f88460031b161c19169055388080610849565b8284015185556001909401936020938401930161082d565b60116000526108cc90601f0160051c60008051602061394e833981519152017f31ecc21a745e3968a04e9570e4425bc18fa8019c68028196b546d1669c200c6c610af1565b3861025a565b601060005261091790601f0160051c60008051602061398e833981519152017f1b6847dc741a1b0cd08d278845f9d819d87b734759afb55fe2de5cb82a9ae676610af1565b3861015c565b601f198216926001600052806000209160005b85811061096957508360019510610950575b505050811b016001556100f1565b015160001960f88460031b161c19169055388080610942565b91926020600181928685015181550194019201610930565b60016000526109cb907fb10e2d527612073b26eecdfd717e6a320cf44b4afac2b0732d9fcbe2b7fa0cf6601f840160051c810191602085106109d1575b601f0160051c0190610af1565b386100bd565b90915081906109be565b601f1982169360008052806000209160005b868110610a275750836001959610610a0e575b505050811b01600055610099565b015160001960f88460031b161c19169055388080610a00565b919260206001819286850151815501940192016109ed565b60008052610a87907f290decd9548b62a8d60345a988386fc84ba6bc95484008f6362f93160ef3e563601f840160051c810191602085106109d157601f0160051c0190610af1565b38610062565b600080fd5b6040519190601f01601f191682016001600160401b038111838210176105c757604052565b90600182811c92168015610ae7575b6020831014610ad157565b634e487b7160e01b600052602260045260246000fd5b91607f1691610ac6565b818110610afc575050565b60008155600101610af1565b9190601f8111610b1757505050565b610b42926000526020600020906020601f840160051c830193106109d157601f0160051c0190610af1565b56fe60806040526004361015610023575b361561001957600080fd5b610021611fa9565b005b60003560e01c806301ffc9a71461029e57806302ee97851461029957806305b1603f1461029457806306fdde031461028f578063081812fc1461028a57806308bbefef14610285578063095ea7b3146102805780631249c58b1461027b57806323b872dd1461027657806331fbbae2146102715780633e3c07401461026c57806342842e0e1461026757806345977d031461026257806346838f301461025d578063621167e6146102585780636352211e146102125780636467007b146102535780636817c76c1461024e57806368b167791461024957806370a0823114610244578063715018a61461023f5780638aa330151461023a5780638da5cb5b1461023557806395d89b4114610230578063a22cb4651461022b578063a50c8f2c14610226578063a9059cbb14610221578063ad3d47d71461021c578063b88d4fde14610217578063c41a360a14610212578063c58295141461020d578063c87b56dd14610208578063caf7226414610203578063d5784f15146101fe578063d728f75c146101f9578063e1d916f7146101f4578063e985e9c5146101ef578063f2fde38b146101ea578063f4a0a528146101e55763f5470d7b0361000e57611915565b6118f4565b61186a565b61180d565b61178a565b611762565b611718565b6116f2565b6114b9565b611395565b610dec565b611335565b6112db565b611266565b611218565b611148565b6110a0565b611077565b611055565b610ff8565b610fa2565b610f79565b610f5b565b610f1a565b610d64565b610d0a565b610bf1565b610bc7565b610b84565b610a70565b610943565b610824565b610716565b6106d6565b610698565b6105c2565b61053a565b6103ba565b6102ba565b6001600160e01b03198116036102b557565b600080fd5b346102b55760203660031901126102b55760206004356102d9816102a3565b63ffffffff60e01b166380ac58cd60e01b8114908115610317575b8115610306575b506040519015158152f35b6301ffc9a760e01b149050386102fb565b635b5e139f60e01b811491506102f4565b602435906001600160a01b03821682036102b557565b600435906001600160a01b03821682036102b557565b60ff1690565b6044359060ff821682036102b557565b6064359060ff821682036102b557565b6084359060ff821682036102b557565b60a4359060ff821682036102b557565b6004359060ff821682036102b557565b6024359060ff821682036102b557565b346102b55760c03660031901126102b5576004356103d6610328565b6103de61035a565b916103e761036a565b926103f061037a565b926103f961038a565b9361040f60018060a01b0360125416331461193b565b6001600160a01b038216918215610501576104a99661048c61048361047e886104a097610496968261046561045960609e600052600260205260018060a01b036040600020541690565b6001600160a01b031690565b156104b9575b5050506000526014602052604060002090565b611987565b60ff9096168652565b60ff166020850152565b60ff166040830152565b019060ff169052565b60405160018152602090f35b0390f35b6104c291611fd2565b6000828152601560205260408120558142917ffc612aad4e70fb3e1d4832d8c65f92e4024aa87f809d131267a79bceee757f33600080a438808261046b565b60405162461bcd60e51b815260206004820152601160248201527024b73b30b634b2103732bb9037bbb732b960791b6044820152606490fd5b346102b55760203660031901126102b55760043560005260156020526020604060002054604051908152f35b60005b8381106105795750506000910152565b8181015183820152602001610569565b906020916105a281518092818552858086019101610566565b601f01601f1916010190565b9060206105bf928181520190610589565b90565b346102b55760003660031901126102b557604051600080546105e381610e2d565b80845290600181169081156106745750600114610617575b6104b58361060b818503826109e0565b604051918291826105ae565b60008080527f290decd9548b62a8d60345a988386fc84ba6bc95484008f6362f93160ef3e563939250905b80821061065a5750909150810160200161060b6105fb565b919260018160209254838588010152019101909291610642565b60ff191660208086019190915291151560051b8401909101915061060b90506105fb565b346102b55760203660031901126102b5576004356106b5816120fc565b506000526004602052602060018060a01b0360406000205416604051908152f35b346102b55760403660031901126102b5576004356024359061070360018060a01b0360125416331461193b565b6000526015602052604060002055600080f35b346102b55760403660031901126102b55761072f61033e565b6024359061073c826120fc565b33151580610811575b806107cf575b6107ba576100219261079b9181906001600160a01b0385811691167f8c5be1e5ebec7d5bd14f71427d1e84f3dd0314c0f7b2291e5b200ac8c7c3b925600080a46000526004602052604060002090565b80546001600160a01b0319166001600160a01b03909216919091179055565b63a9fbf51f60e01b6000523360045260246000fd5b5060ff610809336107f28460018060a01b03166000526005602052604060002090565b9060018060a01b0316600052602052604060002090565b54161561074b565b506001600160a01b038116331415610745565b60003660031901126102b5576108a5610890600a5461089e61084582612165565b6040519384917f4d696e74206e6f7420616c6c6f7765642c20596f752063616e206d696e74206f60208401526b0371021b430b4b724b2101d160a51b6040840152604c8301906119bf565b03601f1981018452836109e0565b46146119d6565b6108b26008543414611a06565b6009546108c66108c182611a5d565b600955565b6108d08133611fd2565b6000818152601560205260408120554290337ffc612aad4e70fb3e1d4832d8c65f92e4024aa87f809d131267a79bceee757f33600080a4005b60609060031901126102b5576004356001600160a01b03811681036102b557906024356001600160a01b03811681036102b5579060443590565b346102b55761002161095436610909565b9182600052600260205261097660018060a01b03604060002054161515611a71565b826000526015602052610990604060002054421015611ab3565b6109a46001600160a01b0383161515611af1565b6122bd565b634e487b7160e01b600052604160045260246000fd5b6080810190811067ffffffffffffffff8211176109db57604052565b6109a9565b90601f8019910116810190811067ffffffffffffffff8211176109db57604052565b67ffffffffffffffff81116109db57601f01601f191660200190565b929192610a2a82610a02565b91610a3860405193846109e0565b8294818452818301116102b5578281602093846000960137010152565b9080601f830112156102b5578160206105bf93359101610a1e565b346102b55760203660031901126102b55760043567ffffffffffffffff81116102b557610aa1903690600401610a55565b805167ffffffffffffffff81116109db57610ac681610ac1600f54610e2d565b611b49565b602091601f8211600114610b0657610af69260009183610afb575b50508160011b916000199060031b1c19161790565b600f55005b015190503880610ae1565b600f600052601f198216927f8d1108e10bcb7c27dddfc02ed9d693a074039d026cf4ea4240b40f7d581ac8029160005b858110610b6c57508360019510610b53575b505050811b01600f55005b015160001960f88460031b161c19169055388080610b48565b91926020600181928685015181550194019201610b36565b346102b55760203660031901126102b557610b9d61033e565b610ba5612333565b601280546001600160a01b0319166001600160a01b0392909216919091179055005b346102b557610021610bd836610909565b9060405192610be86020856109e0565b60008452611ceb565b60203660031901126102b557610021600435600081815260026020526040902054610c26906001600160a01b03161515611a71565b806000526015602052610c40604060002054421015611ab3565b806000526014602052610cb2610c8d604060002060ff60405191610c63836109bf565b548181168352818160081c166020840152818160101c16604084015260181c166060820152611c22565b91610ca2610c9a84612374565b341015611bb1565b6000526014602052604060002090565b815181546020840151604085015160609095015163ffffffff1990921660ff939093169290921760089290921b61ff00169190911760109390931b62ff0000169290921760189290921b63ff00000016919091179055565b346102b55760203660031901126102b55760043560009081526016602090815260409182902054825160ff8083168252600883901c811693820193909352601082901c83169381019390935260181c166060820152608090f35b346102b55760803660031901126102b5576080610dbc604051610d86816109bf565b610d8e61039a565b8152610d986103aa565b6020820152610da561035a565b6040820152610db261036a565b6060820152611c22565b60ff6060604051928281511684528260208201511660208501528260408201511660408501520151166060820152f35b346102b55760203660031901126102b5576004356000908152600260209081526040909120546001600160a01b03166040516001600160a01b039091168152f35b90600182811c92168015610e5d575b6020831014610e4757565b634e487b7160e01b600052602260045260246000fd5b91607f1691610e3c565b60009291815491610e7783610e2d565b8083529260018116908115610ecd5750600114610e9357505050565b60009081526020812093945091925b838310610eb3575060209250010190565b600181602092949394548385870101520191019190610ea2565b915050602093945060ff929192191683830152151560051b010190565b60405190610f0482610efd816000610e67565b03836109e0565b565b90610f04610efd9260405193848092610e67565b346102b55760003660031901126102b5576104b5604051610f4781610f40816011610e67565b03826109e0565b604051918291602083526020830190610589565b346102b55760003660031901126102b5576020600854604051908152f35b346102b55760003660031901126102b5576012546040516001600160a01b039091168152602090f35b346102b55760203660031901126102b5576001600160a01b03610fc361033e565b168015610fe25760005260036020526020604060002054604051908152f35b6322718ad960e21b600052600060045260246000fd5b346102b55760003660031901126102b557611011612333565b600680546001600160a01b031981169091556000906001600160a01b03167f8be0079c531659141344cd1fd0a4f28419497f9722a3daafe3b4186f6b6457e08280a3005b346102b55760003660031901126102b5576020604051662386f26fc100008152f35b346102b55760003660031901126102b5576006546040516001600160a01b039091168152602090f35b346102b55760003660031901126102b55760405160006001546110c281610e2d565b808452906001811690811561067457506001146110e9576104b58361060b818503826109e0565b600160009081527fb10e2d527612073b26eecdfd717e6a320cf44b4afac2b0732d9fcbe2b7fa0cf6939250905b80821061112e5750909150810160200161060b6105fb565b919260018160209254838588010152019101909291611116565b346102b55760403660031901126102b55761116161033e565b6024358015158082036102b5576001600160a01b0383169283156111ed573360009081526005602090815260408083206001600160a01b039094168352929052209060ff801983541691161790557f17307eab39ab6107e8899845ad3d59bd9653f200f220920489ca2b5937696c31604051806111e8339482919091602081019215159052565b0390a3005b83630b61174360e31b60005260045260246000fd5b634e487b7160e01b600052603260045260246000fd5b346102b55760203660031901126102b55760043560028110156102b557610efd9061124e60009160405193848092600b01610e67565b6104b560405192839250602083526020830190610589565b346102b55760403660031901126102b55761002161128261033e565b602435908160005260026020526112a760018060a01b03604060002054161515611a71565b8160005260156020526112c1604060002054421015611ab3565b6112d56001600160a01b0382161515611af1565b336122bd565b346102b55760203660031901126102b55760043560009081526014602090815260409182902054825160ff8083168252600883901c811693820193909352601082901c83169381019390935260181c166060820152608090f35b346102b55760803660031901126102b55761134e61033e565b611356610328565b906044356064359267ffffffffffffffff84116102b557366023850112156102b55761138f610021943690602481600401359101610a1e565b92611ceb565b346102b55760203660031901126102b5576004356000818152600260205260409020546113cc906001600160a01b03161515611a71565b60005260146020526040600020604051906113e6826109bf565b546104b560ff82169182845261148a611425602086019460ff8460081c16865260ff60606040890198828760101c168a52019460181c16845260ff1690565b61144861148061147861146b61146361145661144e601354976114488960ff1690565b90611e36565b9a5160ff1690565b600887901c60ff16611448565b995160ff1690565b601085901c60ff16611448565b945160ff1690565b9160181c60ff1690565b9060405194859485929360ff809296958160609581608089019a16885216602087015216604085015216910152565b346102b55760203660031901126102b5576104b561164661060b61165461163861157661157b81600435600081815260026020526040902054611506906001600160a01b03161515611a71565b61150f81611f73565b80156116e35761151d611e4a565b905b600081156116c85750611530611e6f565b925b600082156116a85750611543611e6f565b905b82156116915750611554611e6f565b915b15611689576011935b61157061156a610eea565b95610f06565b936126ac565b612a71565b6116466040519384926116326115fc6115bb60208701601c907f7b226e616d65223a2022455448205761746368696e6720535647222c0000000081520190565b7f226465736372697074696f6e223a2022416e204175746f6d617465642045544881526e081d1c9858dada5b99c814d591c88b608a1b6020820152602f0190565b7f22696d616765223a2022646174613a696d6167652f7376672b786d6c3b626173815263194d8d0b60e21b602082015260240190565b906119bf565b61227d60f01b815260020190565b03601f1981018352826109e0565b6040517f646174613a6170706c69636174696f6e2f6a736f6e3b6261736536342c0000006020820152928391603d8301611632565b60109361155f565b61169d6116a291612605565b612165565b91611556565b506116c261169d610354836116bd600c610f06565b611e8f565b90611545565b506116dd61169d610354856116bd600b610f06565b92611532565b6116ec82612560565b9061151f565b346102b55760003660031901126102b5576104b5604051610f4781610f40816010610e67565b346102b55760403660031901126102b55760043567ffffffffffffffff81116102b55761175761174e6020923690600401610a55565b60243590611e8f565b60ff60405191168152f35b346102b55760203660031901126102b5576020611780600435611f73565b6040519015158152f35b346102b55760203660031901126102b5576004356000818152600260205260409020546117c1906001600160a01b03161515611a71565b8060005260156020526117db604060002054421015611ab3565b60009081526014602090815260409182902054825160ff601083901c8116825260189290921c90911691810191909152f35b346102b55760403660031901126102b557602060ff61185e61182d61033e565b611835610328565b6001600160a01b0391821660009081526005865260408082209290931681526020919091522090565b54166040519015158152f35b346102b55760203660031901126102b55761188361033e565b61188b612333565b6001600160a01b031680156118de57600680546001600160a01b0319811683179091556001600160a01b03167f8be0079c531659141344cd1fd0a4f28419497f9722a3daafe3b4186f6b6457e0600080a3005b631e4fbdf760e01b600052600060045260246000fd5b346102b55760203660031901126102b557600435611910612333565b600855005b346102b55760003660031901126102b5576104b5604051610f4781610f4081600e610e67565b1561194257565b60405162461bcd60e51b815260206004820152601d60248201527f43616c6c6572206973206e6f7420746865204343495020726f757465720000006044820152606490fd5b90604051611994816109bf565b606060ff8294548181168452818160081c166020850152818160101c16604085015260181c16910152565b906119d260209282815194859201610566565b0190565b156119de5750565b60405162461bcd60e51b815260206004820152908190611a02906024830190610589565b0390fd5b15611a0d57565b60405162461bcd60e51b815260206004820152601260248201527124b739bab33334b1b4b2b73a1022ba3432b960711b6044820152606490fd5b634e487b7160e01b600052601160045260246000fd5b6000198114611a6c5760010190565b611a47565b15611a7857565b60405162461bcd60e51b8152602060048201526013602482015272151bdad95b881a5cc81b9bdd08135a5b9d1959606a1b6044820152606490fd5b15611aba57565b60405162461bcd60e51b815260206004820152600f60248201526e151bdad95b881a5cc81b1bd8dad959608a1b6044820152606490fd5b15611af857565b60405162461bcd60e51b8152602060048201526024808201527f4552433732313a207472616e7366657220746f20746865207a65726f206164646044820152637265737360e01b6064820152608490fd5b601f8111611b55575050565b600f6000526020600020906020601f840160051c83019310611b92575b601f0160051c01905b818110611b86575050565b60008155600101611b7b565b9091508190611b72565b60405190611bab6020836109e0565b60008252565b15611bb857565b60405162461bcd60e51b815260206004820152601d60248201527f696e73756666696369656e742066756e6420666f7220757067726164650000006044820152606490fd5b60405190611c0a826109bf565b60006060838281528260208201528260408201520152565b611c2a611bfd565b508051812080600052601660205260406000209160ff60405193611c4d856109bf565b548181168552818160081c166020860152818160101c16604086015260181c1660608401528260ff815116159081611cdb575b81611ccb575b81611cbb575b50611c9657505090565b610cb2925090611ca86105bf926123c0565b9283916000526016602052604060002090565b60ff915060600151161538611c8c565b604081015160ff16159150611c86565b602081015160ff16159150611c80565b9092826000526002602052611d0e60018060a01b03604060002054161515611a71565b826000526015602052611d28604060002054421015611ab3565b6001600160a01b038416611d3d811515611af1565b611d488486856122bd565b843b611d56575b5050505050565b611d7d93600060209460405196879586948593630a85bd0160e11b85523360048601612443565b03925af160009181611e05575b50611dc65750611d98612474565b8051919082611dbf57633250574960e11b6000526001600160a01b03821660045260246000fd5b9050602001fd5b6001600160e01b03191663757a42ff60e11b01611de857503880808080611d4f565b633250574960e11b6000526001600160a01b031660045260246000fd5b611e2891925060203d602011611e2f575b611e2081836109e0565b81019061242e565b9038611d8a565b503d611e16565b9060ff8091169116019060ff8211611a6c57565b60405190611e596040836109e0565b60078252660233830383038360cc1b6020830152565b60405190611e7e6040836109e0565b60028252613f3f60f01b6020830152565b6000828152600260205260409020546105bf929190611eb8906001600160a01b03161515611a71565b816000526015602052611ed2604060002054421015611ab3565b611eed604051611ee781610f4081600b610e67565b82612b5b565b15611f1f5750611f14611f0d6105bf926000526014602052604060002090565b5460ff1690565b60135460ff16611448565b604051611f3a91611f3582610efd81600c610e67565b612b5b565b15611f6d5760ff611f586105bf926000526014602052604060002090565b5460081c1661144860135460ff9060081c1690565b50600090565b600081815260026020526040902054611f96906001600160a01b03161515611a71565b6000526015602052604060002054421090565b34337f69ca02dd4edd7bf0a4abb9ed3b7af3f14778db5d61921c7dc7cd545266326de2600080a3565b604051602092611fe284836109e0565b600082526001600160a01b0383169081156120e6576001600160a01b036120098286612ba0565b166120d057833b61201b575050505050565b918495939491612045936000604051809681958294630a85bd0160e11b8452843360048601612443565b03925af1600091816120b1575b5061208c575050612061612474565b8051928361208757633250574960e11b6000526001600160a01b03831660045260246000fd5b019050fd5b9092506001600160e01b03191663757a42ff60e11b01611de857503880808080611d4f565b6120c9919250853d8711611e2f57611e2081836109e0565b9038612052565b6339e3563760e11b600052600060045260246000fd5b633250574960e11b600052600060045260246000fd5b6000818152600260205260409020546001600160a01b031690811561211f575090565b637e27328960e01b60005260045260246000fd5b9061213d82610a02565b61214a60405191826109e0565b828152809261215b601f1991610a02565b0190602036910137565b8060009172184f03e93ff9f4daa797ed6e38ed64bf6a1f0160401b82101561229a575b806d04ee2d6d415b85acef8100000000600a92101561227e575b662386f26fc10000811015612269575b6305f5e100811015612257575b612710811015612247575b6064811015612238575b101561222d575b61221860216121ec60018501612133565b938401015b60001901916f181899199a1a9b1b9c1cb0b131b232b360811b600a82061a8353600a900490565b80156122285761221890916121f1565b505090565b6001909101906121db565b600290606490049301926121d4565b60049061271090049301926121ca565b6008906305f5e10090049301926121bf565b601090662386f26fc1000090049301926121b2565b6020906d04ee2d6d415b85acef810000000090049301926121a2565b506040915072184f03e93ff9f4daa797ed6e38ed64bf6a1f0160401b8104612188565b919291906001600160a01b038116156120e6576001600160a01b03906122e4908590612ba0565b1690816123005783637e27328960e01b60005260045260246000fd5b919290916001600160a01b031680830361231957505050565b6364283d7b60e01b60005260045260245260445260646000fd5b6006546001600160a01b0316330361234757565b63118cdaa760e01b6000523360045260246000fd5b600281901b91906001600160fe1b03811603611a6c57565b60ff602081835116920151168101809111611a6c57606481029080820460641490151715611a6c5760011c80662386f26fc100000290662386f26fc10000820403611a6c576064900490565b6123c8611bfd565b50600360ff8251160160ff8111611a6c5760ff1681526020810160ff81511660ff8060031691160160ff8111611a6c5761241560ff606492168084528260ff865116116124255760ff1690565b1161241e575090565b6064905290565b82855260ff1690565b908160209103126102b557516105bf816102a3565b6001600160a01b0391821681529116602082015260408101919091526080606082018190526105bf92910190610589565b3d1561249f573d9061248582610a02565b9161249360405193846109e0565b82523d6000602084013e565b606090565b600d54156124d757600d60009081527fd7b6990105719101dabeb77144f2a3385c8033acd3af97e9423a695e81ad1eb591565b611202565b600d548110156124d757600d60005260206000200190600090565b600019810191908211611a6c57565b906007548210156124d7576007600052600582901c7fa66cc928b5edb82af9bd49922954155ab7b0942694bea4ce44661d9a8736c6880191601f1690565b9060018201809211611a6c57565b9060028201809211611a6c57565b61256990612605565b80156125f9576007549060005b61257f836124f7565b8110156125eb576125a261035461259583612506565b905460ff9160031b1c1690565b821015806125cc575b6125b757600101612576565b6105bf92506125c691506124dc565b50610f06565b506125e46103546125956125df84612544565b612506565b82106125ab565b5050506105bf6125c66124a4565b506105bf6125c66124a4565b60005260146020526105bf61035461268260406000206114486126616040519261262e846109bf565b549260ff841690818152606060ff6020830196818160081c168852818160101c16604085015260181c1691015260ff1690565b611448612678611478601354936114488560ff1690565b9160081c60ff1690565b60011c607f1690565b6040519061269a6040836109e0565b600382526203238360ec1b6020830152565b9391949260409182516126bf84826109e0565b6002815261038360f41b60208201526126d791612c96565b9582516126e484826109e0565b600381526203138360ec1b60208201526126fd91612c96565b9061270661268b565b61270f91612c96565b91517f3c73766720786d6c6e733d27687474703a2f2f7777772e77332e6f72672f323060208201527f30302f737667272076657273696f6e3d27312e312720786d6c6e733a786c696e60408201527f6b3d27687474703a2f2f7777772e77332e6f72672f313939392f786c696e6b2760608201527f20786d6c6e733a7376676a733d27687474703a2f2f7376676a732e636f6d2f7360808201527f76676a73272077696474683d2733303027206865696768743d2733303027207060a08201527f72657365727665417370656374526174696f3d276e6f6e65272076696577426f60c08201526f3c1e93981018101a9818101a9818139f60811b60e082015295869560f087017f3c726563742077696474683d273130302527206865696768743d2731303025278152662066696c6c3d2760c81b6020820152602701612854916119bf565b6213979f60e91b8152600301612869916119bf565b612872916119bf565b61287b916119bf565b7f3c696d61676520783d273130302720793d273530272077696474683d2733303081527427206865696768743d273330302720687265663d2760581b60208201526035016128c8916119bf565b6213979f60e91b81526003017f3c7465787420783d273235302720793d27343230272066696c6c3d27626c616381527f6b2720666f6e742d73697a653d2732342720646f6d696e616e742d626173656c60208201527f696e653d276d6964646c652720746578742d616e63686f723d276d6964646c65604082015261139f60f11b606082015260620161295a916119bf565b661e17ba32bc3a1f60c91b81526007017f3c7265637420783d27302720793d2730272077696474683d273530302720686581527f696768743d27353030272066696c6c3d276e6f6e6527207374726f6b653d272360208201527f30303030303027207374726f6b652d77696474683d2735272072783d2731352760408201526910393c9e93989a93979f60b11b6060820152606a01651e17b9bb339f60d11b815260060103601f19810182526105bf90826109e0565b60405190612a1f6060836109e0565b604082527f6768696a6b6c6d6e6f707172737475767778797a303132333435363738392b2f6040837f4142434445464748494a4b4c4d4e4f505152535455565758595a61626364656660208201520152565b90815115612b5157612a81612a10565b91612aa6612aa1612a9c612a958451612552565b6003900490565b61235c565b612133565b9060208201908081518201956020870190815192600083525b888110612b035750506003939495965052510680600114612af057600214612ae5575090565b603d90600019015390565b50603d9081600019820153600119015390565b600360049199969901986001603f8b5182828260121c16870101518453828282600c1c16870101518385015382828260061c1687010151600285015316840101516003820153019497612abf565b90506105bf611b9c565b604051612b78816116466020820194602086526020860190610589565b51902090604051612b99816116466020820194602086526020860190610589565b5190201490565b6000828152600260205260409020546001600160a01b0316919082612c4f575b6001600160a01b03811690612c029082612c2b575b600084815260026020526040902080546001600160a01b0319166001600160a01b03909216919091179055565b827fddf252ad1be2c89b69c2b068fc378daa952ba7f163c4a11628f55a4df523b3ef600080a490565b6001600160a01b038116600090815260036020526040902060018154019055612bd5565b612c63826000526004602052604060002090565b80546001600160a01b03191690556001600160a01b03831660009081526003602052604090208054600019019055612bc0565b603491611646612dc06105bf93609a604051968795733c636972636c652063783d273530272063793d2760601b6020880152805190612d546020820192612ce081868c0186610566565b8901917f2720723d273430272066696c6c3d272330306161666627207374726f6b653d27858401527f2330303030303027207374726f6b652d77696474683d273327202f3e0000000060548401526f3c7465787420783d2735302720793d2760801b60708401525180936080840190610566565b01017f272066696c6c3d27626c61636b2720666f6e742d73697a653d2732342720646f604c8201527f6d696e616e742d626173656c696e653d276d6964646c652720746578742d616e606c8201526d31b437b91e93b6b4b2323632939f60911b608c82015201906119bf565b661e17ba32bc3a1f60c91b81526007019056fea264697066735822122079ebeb6127364e30ae986383052405b555c5ed8a360290ca78aed537ea32b53b64736f6c634300081a003331ecc21a745e3968a04e9570e4425bc18fa8019c68028196b546d1669c200c68d7b6990105719101dabeb77144f2a3385c8033acd3af97e9423a695e81ad1eb51b6847dc741a1b0cd08d278845f9d819d87b734759afb55fe2de5cb82a9ae672","linkReferences":{}},"methodIdentifiers":{"BASE_PRICE_IN_MATIC()":"8aa33015","_ccipHandler()":"68b16779","approve(address,uint256)":"095ea7b3","balanceOf(address)":"70a08231","calculateUpgrade((uint8,uint8,uint8,uint8))":"621167e6","changeCCIP(address)":"3e3c0740","getApproved(uint256)":"081812fc","getOwner(uint256)":"c41a360a","getSpecial(uint256)":"e1d916f7","getStat(string,uint256)":"d5784f15","getTokenStats(uint256)":"c5829514","isApprovedForAll(address,address)":"e985e9c5","itemImage__()":"caf72264","itemType()":"f5470d7b","lockStatus(uint256)":"d728f75c","lockedItemImage()":"6467007b","mint()":"1249c58b","mintPrice()":"6817c76c","name()":"06fdde03","newStatMap(bytes32)":"46838f30","owner()":"8da5cb5b","ownerOf(uint256)":"6352211e","renounceOwnership()":"715018a6","safeTransferFrom(address,address,uint256)":"42842e0e","safeTransferFrom(address,address,uint256,bytes)":"b88d4fde","setApprovalForAll(address,bool)":"a22cb465","setMintPrice(uint256)":"f4a0a528","setSign(string)":"31fbbae2","setTokenLockStatus(uint256,uint256)":"08bbefef","statLabels(uint256)":"a50c8f2c","supportsInterface(bytes4)":"01ffc9a7","symbol()":"95d89b41","tokenLockedTill(uint256)":"05b1603f","tokenURI(uint256)":"c87b56dd","transfer(address,uint256)":"a9059cbb","transferFrom(address,address,uint256)":"23b872dd","transferOwnership(address)":"f2fde38b","updateStats(uint256,address,uint8,uint8,uint8,uint8)":"02ee9785","upgrade(uint256)":"45977d03","upgradeMapping(uint256)":"ad3d47d7"},"id":13}