{"abi":[{"type":"constructor","inputs":[],"stateMutability":"nonpayable"},{"type":"receive","stateMutability":"payable"},{"type":"function","name":"BASE_PRICE_IN_MATIC","inputs":[],"outputs":[{"name":"","type":"uint256","internalType":"uint256"}],"stateMutability":"view"},{"type":"function","name":"_ccipHandler","inputs":[],"outputs":[{"name":"","type":"address","internalType":"address"}],"stateMutability":"view"},{"type":"function","name":"_sign","inputs":[],"outputs":[{"name":"","type":"string","internalType":"string"}],"stateMutability":"view"},{"type":"function","name":"approve","inputs":[{"name":"to","type":"address","internalType":"address"},{"name":"tokenId","type":"uint256","internalType":"uint256"}],"outputs":[],"stateMutability":"nonpayable"},{"type":"function","name":"balanceOf","inputs":[{"name":"owner","type":"address","internalType":"address"}],"outputs":[{"name":"","type":"uint256","internalType":"uint256"}],"stateMutability":"view"},{"type":"function","name":"calculatePrice","inputs":[{"name":"stat","type":"tuple","internalType":"struct RPGItemUtils.StatType","components":[{"name":"stat1","type":"uint8","internalType":"uint8"},{"name":"stat2","type":"uint8","internalType":"uint8"},{"name":"specialType","type":"uint8","internalType":"uint8"},{"name":"specialPoints","type":"uint8","internalType":"uint8"}]}],"outputs":[{"name":"","type":"uint256","internalType":"uint256"}],"stateMutability":"pure"},{"type":"function","name":"calculateUpgrade","inputs":[{"name":"previousStat","type":"tuple","internalType":"struct RPGItemUtils.StatType","components":[{"name":"stat1","type":"uint8","internalType":"uint8"},{"name":"stat2","type":"uint8","internalType":"uint8"},{"name":"specialType","type":"uint8","internalType":"uint8"},{"name":"specialPoints","type":"uint8","internalType":"uint8"}]}],"outputs":[{"name":"","type":"tuple","internalType":"struct RPGItemUtils.StatType","components":[{"name":"stat1","type":"uint8","internalType":"uint8"},{"name":"stat2","type":"uint8","internalType":"uint8"},{"name":"specialType","type":"uint8","internalType":"uint8"},{"name":"specialPoints","type":"uint8","internalType":"uint8"}]}],"stateMutability":"nonpayable"},{"type":"function","name":"changeCCIP","inputs":[{"name":"newAdd","type":"address","internalType":"address"}],"outputs":[],"stateMutability":"nonpayable"},{"type":"function","name":"getApproved","inputs":[{"name":"tokenId","type":"uint256","internalType":"uint256"}],"outputs":[{"name":"","type":"address","internalType":"address"}],"stateMutability":"view"},{"type":"function","name":"getOwner","inputs":[{"name":"tokenId","type":"uint256","internalType":"uint256"}],"outputs":[{"name":"","type":"address","internalType":"address"}],"stateMutability":"view"},{"type":"function","name":"getSpecial","inputs":[{"name":"tokenId","type":"uint256","internalType":"uint256"}],"outputs":[{"name":"","type":"uint8","internalType":"uint8"},{"name":"","type":"uint8","internalType":"uint8"}],"stateMutability":"view"},{"type":"function","name":"getStat","inputs":[{"name":"statLabel","type":"string","internalType":"string"},{"name":"tokenId","type":"uint256","internalType":"uint256"}],"outputs":[{"name":"stat","type":"uint8","internalType":"uint8"}],"stateMutability":"view"},{"type":"function","name":"getTokenStats","inputs":[{"name":"tokenId","type":"uint256","internalType":"uint256"}],"outputs":[{"name":"","type":"uint8","internalType":"uint8"},{"name":"","type":"uint8","internalType":"uint8"},{"name":"","type":"uint8","internalType":"uint8"},{"name":"","type":"uint8","internalType":"uint8"}],"stateMutability":"view"},{"type":"function","name":"isApprovedForAll","inputs":[{"name":"owner","type":"address","internalType":"address"},{"name":"operator","type":"address","internalType":"address"}],"outputs":[{"name":"","type":"bool","internalType":"bool"}],"stateMutability":"view"},{"type":"function","name":"itemImage__","inputs":[],"outputs":[{"name":"","type":"string","internalType":"string"}],"stateMutability":"view"},{"type":"function","name":"itemType","inputs":[],"outputs":[{"name":"","type":"string","internalType":"string"}],"stateMutability":"view"},{"type":"function","name":"lockStatus","inputs":[{"name":"tokenId","type":"uint256","internalType":"uint256"}],"outputs":[{"name":"","type":"bool","internalType":"bool"}],"stateMutability":"view"},{"type":"function","name":"lockedItemImage","inputs":[],"outputs":[{"name":"","type":"string","internalType":"string"}],"stateMutability":"view"},{"type":"function","name":"mint","inputs":[],"outputs":[],"stateMutability":"payable"},{"type":"function","name":"mintPrice","inputs":[],"outputs":[{"name":"","type":"uint256","internalType":"uint256"}],"stateMutability":"view"},{"type":"function","name":"name","inputs":[],"outputs":[{"name":"","type":"string","internalType":"string"}],"stateMutability":"view"},{"type":"function","name":"newStatMap","inputs":[{"name":"","type":"bytes32","internalType":"bytes32"}],"outputs":[{"name":"stat1","type":"uint8","internalType":"uint8"},{"name":"stat2","type":"uint8","internalType":"uint8"},{"name":"specialType","type":"uint8","internalType":"uint8"},{"name":"specialPoints","type":"uint8","internalType":"uint8"}],"stateMutability":"view"},{"type":"function","name":"owner","inputs":[],"outputs":[{"name":"","type":"address","internalType":"address"}],"stateMutability":"view"},{"type":"function","name":"ownerOf","inputs":[{"name":"tokenId","type":"uint256","internalType":"uint256"}],"outputs":[{"name":"","type":"address","internalType":"address"}],"stateMutability":"view"},{"type":"function","name":"powerLevel__","inputs":[{"name":"tokenId","type":"uint256","internalType":"uint256"}],"outputs":[{"name":"","type":"uint256","internalType":"uint256"}],"stateMutability":"view"},{"type":"function","name":"renounceOwnership","inputs":[],"outputs":[],"stateMutability":"nonpayable"},{"type":"function","name":"safeTransferFrom","inputs":[{"name":"from","type":"address","internalType":"address"},{"name":"to","type":"address","internalType":"address"},{"name":"tokenId","type":"uint256","internalType":"uint256"}],"outputs":[],"stateMutability":"nonpayable"},{"type":"function","name":"safeTransferFrom","inputs":[{"name":"from","type":"address","internalType":"address"},{"name":"to","type":"address","internalType":"address"},{"name":"tokenId","type":"uint256","internalType":"uint256"},{"name":"data","type":"bytes","internalType":"bytes"}],"outputs":[],"stateMutability":"nonpayable"},{"type":"function","name":"setApprovalForAll","inputs":[{"name":"operator","type":"address","internalType":"address"},{"name":"approved","type":"bool","internalType":"bool"}],"outputs":[],"stateMutability":"nonpayable"},{"type":"function","name":"setMintPrice","inputs":[{"name":"_mintPrice","type":"uint256","internalType":"uint256"}],"outputs":[],"stateMutability":"nonpayable"},{"type":"function","name":"setSign","inputs":[{"name":"sign","type":"string","internalType":"string"}],"outputs":[],"stateMutability":"nonpayable"},{"type":"function","name":"setTokenLockStatus","inputs":[{"name":"tokenId","type":"uint256","internalType":"uint256"},{"name":"unlockTime","type":"uint256","internalType":"uint256"}],"outputs":[],"stateMutability":"nonpayable"},{"type":"function","name":"statLabels","inputs":[{"name":"","type":"uint256","internalType":"uint256"}],"outputs":[{"name":"","type":"string","internalType":"string"}],"stateMutability":"view"},{"type":"function","name":"supportsInterface","inputs":[{"name":"interfaceId","type":"bytes4","internalType":"bytes4"}],"outputs":[{"name":"","type":"bool","internalType":"bool"}],"stateMutability":"view"},{"type":"function","name":"symbol","inputs":[],"outputs":[{"name":"","type":"string","internalType":"string"}],"stateMutability":"view"},{"type":"function","name":"tokenLockedTill","inputs":[{"name":"","type":"uint256","internalType":"uint256"}],"outputs":[{"name":"","type":"uint256","internalType":"uint256"}],"stateMutability":"view"},{"type":"function","name":"tokenURI","inputs":[{"name":"tokenId","type":"uint256","internalType":"uint256"}],"outputs":[{"name":"","type":"string","internalType":"string"}],"stateMutability":"view"},{"type":"function","name":"transfer","inputs":[{"name":"to","type":"address","internalType":"address"},{"name":"tokenId","type":"uint256","internalType":"uint256"}],"outputs":[],"stateMutability":"nonpayable"},{"type":"function","name":"transferFrom","inputs":[{"name":"from","type":"address","internalType":"address"},{"name":"to","type":"address","internalType":"address"},{"name":"tokenId","type":"uint256","internalType":"uint256"}],"outputs":[],"stateMutability":"nonpayable"},{"type":"function","name":"transferOwnership","inputs":[{"name":"newOwner","type":"address","internalType":"address"}],"outputs":[],"stateMutability":"nonpayable"},{"type":"function","name":"updateStats","inputs":[{"name":"tokenId","type":"uint256","internalType":"uint256"},{"name":"newOwner","type":"address","internalType":"address"},{"name":"stat1","type":"uint8","internalType":"uint8"},{"name":"stat2","type":"uint8","internalType":"uint8"},{"name":"specialType","type":"uint8","internalType":"uint8"},{"name":"specialPoints","type":"uint8","internalType":"uint8"}],"outputs":[{"name":"","type":"bool","internalType":"bool"}],"stateMutability":"nonpayable"},{"type":"function","name":"upgrade","inputs":[{"name":"tokenId","type":"uint256","internalType":"uint256"}],"outputs":[],"stateMutability":"payable"},{"type":"function","name":"upgradeMapping","inputs":[{"name":"","type":"uint256","internalType":"uint256"}],"outputs":[{"name":"stat1","type":"uint8","internalType":"uint8"},{"name":"stat2","type":"uint8","internalType":"uint8"},{"name":"specialType","type":"uint8","internalType":"uint8"},{"name":"specialPoints","type":"uint8","internalType":"uint8"}],"stateMutability":"view"},{"type":"event","name":"Approval","inputs":[{"name":"owner","type":"address","indexed":true,"internalType":"address"},{"name":"approved","type":"address","indexed":true,"internalType":"address"},{"name":"tokenId","type":"uint256","indexed":true,"internalType":"uint256"}],"anonymous":false},{"type":"event","name":"ApprovalForAll","inputs":[{"name":"owner","type":"address","indexed":true,"internalType":"address"},{"name":"operator","type":"address","indexed":true,"internalType":"address"},{"name":"approved","type":"bool","indexed":false,"internalType":"bool"}],"anonymous":false},{"type":"event","name":"NftMinted","inputs":[{"name":"recipient","type":"address","indexed":true,"internalType":"address"},{"name":"tokenId","type":"uint256","indexed":true,"internalType":"uint256"},{"name":"timestamp","type":"uint256","indexed":true,"internalType":"uint256"}],"anonymous":false},{"type":"event","name":"OwnershipTransferred","inputs":[{"name":"previousOwner","type":"address","indexed":true,"internalType":"address"},{"name":"newOwner","type":"address","indexed":true,"internalType":"address"}],"anonymous":false},{"type":"event","name":"Transfer","inputs":[{"name":"from","type":"address","indexed":true,"internalType":"address"},{"name":"to","type":"address","indexed":true,"internalType":"address"},{"name":"tokenId","type":"uint256","indexed":true,"internalType":"uint256"}],"anonymous":false},{"type":"event","name":"Transfer","inputs":[{"name":"sender","type":"address","indexed":true,"internalType":"address"},{"name":"amount","type":"uint256","indexed":true,"internalType":"uint256"}],"anonymous":false},{"type":"error","name":"ERC721IncorrectOwner","inputs":[{"name":"sender","type":"address","internalType":"address"},{"name":"tokenId","type":"uint256","internalType":"uint256"},{"name":"owner","type":"address","internalType":"address"}]},{"type":"error","name":"ERC721InsufficientApproval","inputs":[{"name":"operator","type":"address","internalType":"address"},{"name":"tokenId","type":"uint256","internalType":"uint256"}]},{"type":"error","name":"ERC721InvalidApprover","inputs":[{"name":"approver","type":"address","internalType":"address"}]},{"type":"error","name":"ERC721InvalidOperator","inputs":[{"name":"operator","type":"address","internalType":"address"}]},{"type":"error","name":"ERC721InvalidOwner","inputs":[{"name":"owner","type":"address","internalType":"address"}]},{"type":"error","name":"ERC721InvalidReceiver","inputs":[{"name":"receiver","type":"address","internalType":"address"}]},{"type":"error","name":"ERC721InvalidSender","inputs":[{"name":"sender","type":"address","internalType":"address"}]},{"type":"error","name":"ERC721NonexistentToken","inputs":[{"name":"tokenId","type":"uint256","internalType":"uint256"}]},{"type":"error","name":"OwnableInvalidOwner","inputs":[{"name":"owner","type":"address","internalType":"address"}]},{"type":"error","name":"OwnableUnauthorizedAccount","inputs":[{"name":"account","type":"address","internalType":"address"}]}],"bytecode":{"object":"0x60406080815234620008f75762000015620008fc565b90600582526020916414dddbdc9960da1b8382015262000034620008fc565b6002815261535760f01b84820152815190936001600160401b0392838311620008e1576000926200006684546200091c565b91601f92838111620008b1575b5083908383116001146200084957620000a5929186918362000531575b50508160011b916000199060031b1c19161790565b83555b85518481116200083557600196620000c188546200091c565b838111620007fa575b5083908383116001146200079657620000fb9291869183620005315750508160011b916000199060031b1c19161790565b86555b600680546001600160a01b031980821673b1293a8bff9323aad0419e46dd9846cc7363d44b9081179093559591906001600160a01b03167f8be0079c531659141344cd1fd0a4f28419497f9722a3daafe3b4186f6b6457e08680a3620001666010546200091c565b82811162000772575b5060c360105560108452606760f81b60038486207f68747470733a2f2f75706c6f61642e77696b696d656469612e6f72672f77696b81557f6970656469612f636f6d6d6f6e732f7468756d622f352f35352f426974636f698a8201557f6e5f6c6f676f2e6a70672f36343070782d426974636f696e5f6c6f676f2e6a7060028201550155620002006011546200091c565b8281116200074e575b5060c760115560118452627a733360e81b60038486207f68747470733a2f2f706c756d2d6c6961626c652d6d6173746f646f6e2d34353081557f2e6d7970696e6174612e636c6f75642f697066732f516d615844344e4c4e39688a8201557f6e356362396a5464373866614d765533524e6d6633346776684c47736e7136376002820155015563281e140a63ffffffff19601354161760135585518681018181108382111762000640578752620002bf620008fc565b60028152616c3160f01b858201528152620002d9620008fc565b6002815261361960f11b8582015284820152600b9085905b6002821062000675575050506200030a600e546200091c565b82811162000654575b50600c653bb2b0b837b760d11b01600e55855160608101828111828210176200064057875262000342620008fc565b600781526611b3193319331960c91b85820152815262000361620008fc565b60078152661199331933193360c91b858201528482015262000382620008fc565b60078152662364656465646560c81b8582015287820152600d546003600d5580600310620005c5575b50600d85528385209085905b60038210620004c5575050865191608083019150811182821017620004b1578652838152600a83820152601486820152601e6060820152600754916004926004600755888160041062000483575b505050906007845282842092845b8281106200045d578773f62849f9a0b5bf2913b396098f7c7019b51a820a888888556012541617601255662386f26fc1000060085562aa36a7600a55516133ea9081620009bf8239f35b835160ff600383901b81811b19909816911690961b959095179492810192880162000413565b620004a8926007885286882092835463ffffffff1684550160051c8201910162000959565b38808862000405565b634e487b7160e01b85526041600452602485fd5b8051908151858111620005b1578b9181620004ee8a93620004e789546200091c565b8962000972565b82948b8a83116001146200053d579185968192620005219492620005315750508160011b916000199060031b1c19161790565b86555b01930191019091620003b7565b01519050388062000090565b50878c52838c209095601f1983168d5b8181106200058d575090869784889594931062000573575b505050811b01865562000524565b015160001960f88460031b161c1916905538808062000565565b9497939686929691938786015181550195019301928f95929693918c95926200054d565b634e487b7160e01b89526041600452602489fd5b600d865288600386882092830192015b828110620005e5575050620003ab565b87620005f282546200091c565b8062000604575b5050018990620005d5565b8781116001146200061b575081555b8738620005f9565b82825262000636888a8420920160051c820185830162000959565b8183555562000613565b634e487b7160e01b86526041600452602486fd5b600e85528385206200066e91840160051c81019062000959565b3862000313565b8051908151858111620005b1578b9181620006978a93620004e789546200091c565b82948b8a8311600114620006da579185968192620006ca9492620005315750508160011b916000199060031b1c19161790565b86555b01930191019091620002f1565b50878c52838c209095601f1983168d5b8181106200072a575090869784889594931062000710575b505050811b018655620006cd565b015160001960f88460031b161c1916905538808062000702565b9497939686929691938786015181550195019301928f95929693918c9592620006ea565b601185528385206200076b91840160051c81019060040162000959565b3862000209565b601085528385206200078f91840160051c81019060040162000959565b386200016f565b8886528486208993929091601f198416885b88828210620007e35750508411620007c9575b505050811b018655620000fe565b015160001960f88460031b161c19169055388080620007bb565b8385015186558d97909501949384019301620007a8565b62000824908987528587208580860160051c8201928887106200082b575b0160051c019062000959565b38620000ca565b9250819262000818565b634e487b7160e01b84526041600452602484fd5b8580528486209190601f198416875b878282106200089a57505090846001959493921062000880575b505050811b018355620000a8565b015160001960f88460031b161c1916905538808062000872565b600185968293968601518155019501930162000858565b620008da908680528587208580860160051c8201928887106200082b570160051c019062000959565b3862000073565b634e487b7160e01b600052604160045260246000fd5b600080fd5b60408051919082016001600160401b03811183821017620008e157604052565b90600182811c921680156200094e575b60208310146200093857565b634e487b7160e01b600052602260045260246000fd5b91607f16916200092c565b81811062000965575050565b6000815560010162000959565b9190601f81116200098257505050565b620009b1926000526020600020906020601f840160051c83019310620009b3575b601f0160051c019062000959565b565b9091508190620009a356fe60806040526004361015610023575b361561001957600080fd5b6100216125ea565b005b60003560e01c806301ffc9a7146102ce57806302ee9785146102c957806305b1603f146102c457806306fdde03146102bf578063081812fc146102ba57806308bbefef146102b5578063095ea7b3146102b05780631249c58b146102ab57806323b872dd146102a657806324773270146102a157806331fbbae21461029c5780633e3c07401461029757806342842e0e1461029257806345977d031461028d57806346838f3014610288578063621167e6146102835780636352211e146102385780636467007b1461027e5780636817c76c1461027957806368b167791461027457806370a082311461026f578063715018a61461026a5780638aa33015146102655780638da5cb5b1461026057806394a409d81461025b57806395d89b4114610256578063a22cb46514610251578063a50c8f2c1461024c578063a9059cbb14610247578063ad3d47d714610242578063b88d4fde1461023d578063c41a360a14610238578063c582951414610233578063c87b56dd1461022e578063caf7226414610229578063d5784f1514610224578063d728f75c1461021f578063e1d916f71461021a578063e985e9c514610215578063f2fde38b14610210578063f4a0a5281461020b578063f5470d7b146102065763f759e5470361000e57611d9f565b611cf1565b611cd0565b611c42565b611be5565b611b60565b611b2a565b611ae0565b611a32565b6117df565b6116d0565b610e3d565b611670565b611616565b6115aa565b611559565b611485565b6113de565b6113c0565b611397565b611375565b611317565b6112be565b611295565b611277565b611192565b610df5565b610d9b565b610c80565b610c58565b610c15565b610afb565b610a6d565b610948565b610826565b610725565b6106e6565b6106a8565b6105c5565b61053d565b6103c4565b6102ea565b6001600160e01b03198116036102e557565b600080fd5b346102e55760203660031901126102e5576020600435610309816102d3565b63ffffffff60e01b166380ac58cd60e01b8114908115610347575b8115610336575b506040519015158152f35b6301ffc9a760e01b1490503861032b565b635b5e139f60e01b81149150610324565b602435906001600160a01b03821682036102e557565b600435906001600160a01b03821682036102e557565b6044359060ff821682036102e557565b6064359060ff821682036102e557565b6084359060ff821682036102e557565b60a4359060ff821682036102e557565b346102e55760c03660031901126102e5576004356103e0610358565b6103e8610384565b916103f1610394565b926103fa6103a4565b926104036103b4565b9360018060a01b0361041a81601254163314611e4d565b8216918215610504576104ac9661048f610486610481886104a397610499968261046861045c60609e600052600260205260018060a01b036040600020541690565b6001600160a01b031690565b156104bc575b5050506000526014602052604060002090565b611e99565b60ff9096168652565b60ff166020850152565b60ff166040830152565b019060ff169052565b60405160018152602090f35b0390f35b6104c591612613565b6000828152601560205260408120558142917ffc612aad4e70fb3e1d4832d8c65f92e4024aa87f809d131267a79bceee757f33600080a438808261046e565b60405162461bcd60e51b815260206004820152601160248201527024b73b30b634b2103732bb9037bbb732b960791b6044820152606490fd5b346102e55760203660031901126102e55760043560005260156020526020604060002054604051908152f35b60005b83811061057c5750506000910152565b818101518382015260200161056c565b906020916105a581518092818552858086019101610569565b601f01601f1916010190565b9060206105c292818152019061058c565b90565b346102e5576000806003193601126106a55760405190808054906105e882610e7e565b808552916020916001918281169081156106785750600114610621575b6104b886610615818803826109f0565b604051918291826105b1565b80809550527f290decd9548b62a8d60345a988386fc84ba6bc95484008f6362f93160ef3e5635b83851061066557505050508101602001610615826104b838610605565b8054868601840152938201938101610648565b90508695506104b89693506020925061061594915060ff191682840152151560051b820101929338610605565b80fd5b346102e55760203660031901126102e5576004356106c58161275c565b506000526004602052602060018060a01b0360406000205416604051908152f35b346102e55760403660031901126102e55761070c60018060a01b03601254163314611e4d565b6004356000526015602052602435604060002055600080f35b346102e55760403660031901126102e55761073e61036e565b6024359061074b8261275c565b33151580610813575b806107e5575b6107c957610021926107aa9181906001600160a01b0385811691167f8c5be1e5ebec7d5bd14f71427d1e84f3dd0314c0f7b2291e5b200ac8c7c3b925600080a46000526004602052604060002090565b80546001600160a01b0319166001600160a01b03909216919091179055565b60405163a9fbf51f60e01b8152336004820152602490fd5b0390fd5b506001600160a01b038116600090815260056020908152604080832033845290915290205460ff161561075a565b506001600160a01b038116331415610754565b6000806003193601126106a5576108a8610893600a546108a1610848826127c9565b6040519384917f4d696e74206e6f7420616c6c6f7765642c20596f752063616e206d696e74206f60208401526b0371021b430b4b724b2101d160a51b6040840152604c830190611ed1565b03601f1981018452836109f0565b4614611ee8565b6108b56008543414611f14565b6009546108c96108c482611f6b565b600955565b6108d38133612613565b816108e8826000526015602052604060002090565b554290337ffc612aad4e70fb3e1d4832d8c65f92e4024aa87f809d131267a79bceee757f338480a480f35b60609060031901126102e5576001600160a01b039060043582811681036102e5579160243590811681036102e5579060443590565b346102e55761002161095936610913565b9161097c60018060a01b0361097381601254163314611e4d565b83161515611f7f565b61290d565b634e487b7160e01b600052604160045260246000fd5b6080810190811067ffffffffffffffff8211176109b357604052565b610981565b6020810190811067ffffffffffffffff8211176109b357604052565b6040810190811067ffffffffffffffff8211176109b357604052565b90601f8019910116810190811067ffffffffffffffff8211176109b357604052565b60809060031901126102e557604051610a2a81610997565b60043560ff811681036102e557815260243560ff811681036102e557602082015260443560ff811681036102e5576040820152610a65610394565b606082015290565b346102e5576020610a85610a8036610a12565b611fef565b604051908152f35b67ffffffffffffffff81116109b357601f01601f191660200190565b929192610ab582610a8d565b91610ac360405193846109f0565b8294818452818301116102e5578281602093846000960137010152565b9080601f830112156102e5578160206105c293359101610aa9565b346102e5576020806003193601126102e55767ffffffffffffffff6004358181116102e557610b2e903690600401610ae0565b9182519182116109b357610b4c82610b47600f54610e7e565b612035565b602090601f8311600114610b8e57508190610b7e93600092610b83575b50508160011b916000199060031b1c19161790565b600f55005b015190503880610b69565b90601f19831693610bc1600f6000527f8d1108e10bcb7c27dddfc02ed9d693a074039d026cf4ea4240b40f7d581ac80290565b926000905b868210610bfd5750508360019510610be4575b505050811b01600f55005b015160001960f88460031b161c19169055388080610bd9565b80600185968294968601518155019501930190610bc6565b346102e55760203660031901126102e557610c2e61036e565b610c366129b0565b601280546001600160a01b0319166001600160a01b0392909216919091179055005b346102e557610021610c6936610913565b9060405192610c77846109b8565b600084526122f5565b60203660031901126102e5576004356000818152600260205260408120549091610d9891610cb8906001600160a01b031615156120ba565b8083526015602052610cd060408420544210156120fc565b8083526014602052610d40610d1b6040852060ff60405191610cf183610997565b548181168352818160081c166020840152818160101c16604084015260181c1660608201526121ab565b91610d30610d2884611fef565b34101561213a565b6000526014602052604060002090565b815181546020840151604085015160609095015163ffffffff1990921660ff939093169290921760089290921b61ff00169190911760109390931b62ff0000169290921760189290921b63ff00000016919091179055565b80f35b346102e55760203660031901126102e55760043560009081526016602090815260409182902054825160ff8083168252600883901c811693820193909352601082901c83169381019390935260181c166060820152608090f35b346102e5576080610e0d610e0836610a12565b6121ab565b60ff6060604051928281511684528260208201511660208501528260408201511660408501520151166060820152f35b346102e55760203660031901126102e5576004356000908152600260209081526040909120546001600160a01b03166040516001600160a01b039091168152f35b90600182811c92168015610eae575b6020831014610e9857565b634e487b7160e01b600052602260045260246000fd5b91607f1691610e8d565b600c5460009291610ec882610e7e565b80825291602090600190818116908115610f475750600114610eeb575b50505050565b92939450600c6000527fdf6966c971051c3d54ec59162606531493a51404a002842f56009d7e5cf4a8c7926000935b858510610f34575050506020925001019038808080610ee5565b8054858501840152938201938101610f1a565b92505050602093945060ff929192191683830152151560051b01019038808080610ee5565b805460009392610f7b82610e7e565b91828252602093600191600181169081600014610fe35750600114610fa2575b5050505050565b90939495506000929192528360002092846000945b838610610fcf57505050500101903880808080610f9b565b805485870183015294019385908201610fb7565b60ff19168685015250505090151560051b010191503880808080610f9b565b604051906000826000549161101683610e7e565b808352926020906001908181169081156110a35750600114611043575b5050611041925003836109f0565b565b915092600080527f290decd9548b62a8d60345a988386fc84ba6bc95484008f6362f93160ef3e563936000925b82841061108b57506110419450505081016020013880611033565b85548885018301529485019487945092810192611070565b9150506020925061104194915060ff191682840152151560051b8201013880611033565b60405190600082600b54916110db83610e7e565b808352926020906001908181169081156110a35750600114611105575050611041925003836109f0565b915092600b6000527f0175b7a638427703f0dbe7bb9bbf987a2551717b34e79f33b5b1008d1fa01db9936000925b82841061114e57506110419450505081016020013880611033565b85548885018301529485019487945092810192611133565b604051906110418261117781610eb8565b03836109f0565b906110416111779260405193848092610f6c565b346102e5576000806003193601126106a557604051908082601154916111b783610e7e565b92838352602094600191866001821691826000146112555750506001146111fb575b50506111e7925003836109f0565b6104b860405192828493845283019061058c565b90859250601182527f31ecc21a745e3968a04e9570e4425bc18fa8019c68028196b546d1669c200c685b85831061123d5750506111e7935082010138806111d9565b80548389018501528794508693909201918101611225565b92509350506111e794915060ff191682840152151560051b82010138806111d9565b346102e55760003660031901126102e5576020600854604051908152f35b346102e55760003660031901126102e5576012546040516001600160a01b039091168152602090f35b346102e55760203660031901126102e5576001600160a01b036112df61036e565b1680156112fe5760005260036020526020604060002054604051908152f35b6040516322718ad960e21b815260006004820152602490fd5b346102e5576000806003193601126106a5576113316129b0565b600680546001600160a01b0319811690915581906001600160a01b03167f8be0079c531659141344cd1fd0a4f28419497f9722a3daafe3b4186f6b6457e08280a380f35b346102e55760003660031901126102e5576020604051662386f26fc100008152f35b346102e55760003660031901126102e5576006546040516001600160a01b039091168152602090f35b346102e55760203660031901126102e5576020610a8560043561227a565b346102e5576000806003193601126106a5576040519080600180549061140382610e7e565b8086529260209260018116908115610678575060011461142d576104b886610615818803826109f0565b9350600184527fb10e2d527612073b26eecdfd717e6a320cf44b4afac2b0732d9fcbe2b7fa0cf65b83851061147257505050508101602001610615826104b838610605565b8054868601840152938201938101611455565b346102e55760403660031901126102e55761149e61036e565b6024358015158082036102e5576001600160a01b03831692831561152a573360009081526005602090815260408083206001600160a01b039094168352929052209060ff801983541691161790557f17307eab39ab6107e8899845ad3d59bd9653f200f220920489ca2b5937696c3160405180611525339482919091602081019215159052565b0390a3005b604051630b61174360e31b815260048101859052602490fd5b634e487b7160e01b600052603260045260246000fd5b346102e55760203660031901126102e55760043560028110156102e55761158f6115966104b89260405192838092600b01610f6c565b03826109f0565b60405191829160208352602083019061058c565b346102e55760403660031901126102e5576115c361036e565b610d98602435600092818452600260205261161060018060a01b036115ef8160408820541615156120ba565b838652601560205261160760408720544210156120fc565b82161515611f7f565b3361290d565b346102e55760203660031901126102e55760043560009081526014602090815260409182902054825160ff8083168252600883901c811693820193909352601082901c83169381019390935260181c166060820152608090f35b346102e55760803660031901126102e55761168961036e565b611691610358565b6064359167ffffffffffffffff83116102e557366023840112156102e5576116c6610021933690602481600401359101610aa9565b91604435916122f5565b346102e55760203660031901126102e557600435600081815260026020526040902054611707906001600160a01b031615156120ba565b600052601460205260406000206040519061172182610997565b546104b860ff916117b08382168086526020860194808460081c1686528060606040890198828760101c168a52019460181c1684526117a561179d61179161178961177d6117756013549787891690612266565b9a5160ff1690565b858760081c1690612266565b995160ff1690565b838560101c1690612266565b945160ff1690565b9160181c1690612266565b9060405194859485929360ff809296958160609581608089019a16885216602087015216604085015216910152565b346102e55760203660031901126102e5576104b86119bd6106156119666119886118a96118a4600435600090808252600260205261182a60018060a01b0360408420541615156120ba565b611841816000526015602052604060002054421090565b918215611a2357611850612417565b915b8315611a0b5761186061243a565b935b80156119e85761187061243a565b915b81156119d1575061188161243a565b925b50156119c9576011935b61189e611898611002565b9561117e565b93612c4a565b61303a565b61197460405193849261196061192a6118e960208701601c907f7b226e616d65223a2022455448205761746368696e6720535647222c0000000081520190565b7f226465736372697074696f6e223a2022416e204175746f6d617465642045544881526e081d1c9858dada5b99c814d591c88b608a1b6020820152602f0190565b7f22696d616765223a2022646174613a696d6167652f7376672b786d6c3b626173815263194d8d0b60e21b602082015260240190565b90611ed1565b61227d60f01b815260020190565b03916118a4601f19938481018352826109f0565b6040517f646174613a6170706c69636174696f6e2f6a736f6e3b6261736536342c0000006020820152938491603d8301611960565b039081018352826109f0565b60109361188d565b6119dd6119e29161227a565b6127c9565b92611883565b611a056119dd6119ff846119fa611166565b612458565b60ff1690565b91611872565b611a1d6119dd6119ff836119fa6110c7565b93611862565b611a2c82612b95565b91611852565b346102e5576000806003193601126106a55760405190808260105491611a5783610e7e565b9283835260209460019186600182169182600014611255575050600114611a865750506111e7925003836109f0565b90859250601082527f1b6847dc741a1b0cd08d278845f9d819d87b734759afb55fe2de5cb82a9ae6725b858310611ac85750506111e7935082010138806111d9565b80548389018501528794508693909201918101611ab0565b346102e55760403660031901126102e55760043567ffffffffffffffff81116102e557611b1f611b166020923690600401610ae0565b60243590612458565b60ff60405191168152f35b346102e55760203660031901126102e5576020611b566004356000526015602052604060002054421090565b6040519015158152f35b346102e55760203660031901126102e5576104b860406004356000908082526002602052611b9a60018060a01b03848420541615156120ba565b8082526015602052611bb1838320544210156120fc565b815260146020522054604051918160ff80859460181c169160101c168390929160ff60209181604085019616845216910152565b346102e55760403660031901126102e557602060ff611c36611c0561036e565b611c0d610358565b6001600160a01b0391821660009081526005865260408082209290931681526020919091522090565b54166040519015158152f35b346102e55760203660031901126102e557611c5b61036e565b611c636129b0565b6001600160a01b03908116908115611cb757600654826bffffffffffffffffffffffff60a01b821617600655167f8be0079c531659141344cd1fd0a4f28419497f9722a3daafe3b4186f6b6457e0600080a3005b604051631e4fbdf760e01b815260006004820152602490fd5b346102e55760203660031901126102e557611ce96129b0565b600435600855005b346102e5576000806003193601126106a557604051908082600e5491611d1683610e7e565b9283835260209460019186600182169182600014611255575050600114611d455750506111e7925003836109f0565b90859250600e82527fbb7b4a454dc3493923482f07822329ed19e8244eff582cc204f8554c3620c3fd5b858310611d875750506111e7935082010138806111d9565b80548389018501528794508693909201918101611d6f565b346102e5576000806003193601126106a557604051908082600f5491611dc483610e7e565b9283835260209460019186600182169182600014611255575050600114611df35750506111e7925003836109f0565b90859250600f82527f8d1108e10bcb7c27dddfc02ed9d693a074039d026cf4ea4240b40f7d581ac8025b858310611e355750506111e7935082010138806111d9565b80548389018501528794508693909201918101611e1d565b15611e5457565b60405162461bcd60e51b815260206004820152601d60248201527f43616c6c6572206973206e6f7420746865204343495020726f757465720000006044820152606490fd5b90604051611ea681610997565b606060ff8294548181168452818160081c166020850152818160101c16604085015260181c16910152565b90611ee460209282815194859201610569565b0190565b15611ef05750565b60405162461bcd60e51b8152602060048201529081906107e190602483019061058c565b15611f1b57565b60405162461bcd60e51b815260206004820152601260248201527124b739bab33334b1b4b2b73a1022ba3432b960711b6044820152606490fd5b634e487b7160e01b600052601160045260246000fd5b6000198114611f7a5760010190565b611f55565b15611f8657565b60405162461bcd60e51b8152602060048201526024808201527f4552433732313a207472616e7366657220746f20746865207a65726f206164646044820152637265737360e01b6064820152608490fd5b600281901b91906001600160fe1b03811603611f7a57565b60ff602081835116920151168101809111611f7a57606481029080820460641490151715611f7a5760011c662386f26fc100009080820291820403611f7a576064900490565b601f8111612041575050565b600090600f6000527f8d1108e10bcb7c27dddfc02ed9d693a074039d026cf4ea4240b40f7d581ac802906020601f850160051c8301941061209d575b601f0160051c01915b82811061209257505050565b818155600101612086565b909250829061207d565b604051906120b4826109b8565b60008252565b156120c157565b60405162461bcd60e51b8152602060048201526013602482015272151bdad95b881a5cc81b9bdd08135a5b9d1959606a1b6044820152606490fd5b1561210357565b60405162461bcd60e51b815260206004820152600f60248201526e151bdad95b881a5cc81b1bd8dad959608a1b6044820152606490fd5b1561214157565b60405162461bcd60e51b815260206004820152601d60248201527f696e73756666696369656e742066756e6420666f7220757067726164650000006044820152606490fd5b6040519061219382610997565b60006060838281528260208201528260408201520152565b6121b3612186565b5080518120806000526016602052604060002091604051926121d484610997565b5460ff81169384815260ff8260081c169182602083015260ff808260101c169182604085015260181c16918260608201529515928361225d575b5082612254575b508161224b575b5061222657505090565b610d409250906122386105c2926129dc565b9283916000526016602052604060002090565b9050153861221c565b15915038612215565b1592503861220e565b9060ff8091169116019060ff8211611f7a57565b6000526014602052607f6122ee60406000206122e86040519161229c83610997565b549160ff808416918281526060826020830196818160081c168852818160101c16604085015260181c16910152806122da6013549382851690612266565b9451169160081c1690612266565b90612266565b60011c1690565b9192909260018060a01b0361230f81601254163314611e4d565b84169161231d831515611f7f565b61232882868661290d565b843b612335575050505050565b61235d926020926000604051809681958294630a85bd0160e11b9a8b85523360048601612a78565b03925af1600091816123e6575b506123a95782612378612aa9565b80519190826123a257604051633250574960e11b81526001600160a01b0383166004820152602490fd5b9050602001fd5b6001600160e01b031916036123c357503880808080610f9b565b604051633250574960e11b81526001600160a01b03919091166004820152602490fd5b61240991925060203d602011612410575b61240181836109f0565b810190612a38565b903861236a565b503d6123f7565b60405190612424826109d4565b60078252660233830383038360cc1b6020830152565b60405190612447826109d4565b60028252613f3f60f01b6020830152565b6000828152600260205260409020546105c2929190612481906001600160a01b031615156120ba565b81600052601560205261249b6040600020544210156120fc565b6040516000600b546124ac81610e7e565b808452906020906001908181169081156125c05750600114612566575b505050906124dc816124e29303826109f0565b82613121565b1561251457506125096125026105c2926000526014602052604060002090565b5460ff1690565b60135460ff166122e8565b60405161252d916125288261117781610eb8565b613121565b156125605760ff61254b6105c2926000526014602052604060002090565b5460081c166122e860135460ff9060081c1690565b50600090565b600b600090815293507f0175b7a638427703f0dbe7bb9bbf987a2551717b34e79f33b5b1008d1fa01db95b8385106125ad575050505081016020016124dc826124e26124c9565b8054868601840152938201938101612591565b8695506124e2969350602092506124dc94915060ff191682840152151560051b82010192936124c9565b34337f69ca02dd4edd7bf0a4abb9ed3b7af3f14778db5d61921c7dc7cd545266326de2600080a3565b6040918251612621816109b8565b600081526001600160a01b038381169190821561274457612642848661317a565b1661272c57833b612654575050505050565b61267e6000926020928798969751948580948193630a85bd0160e11b998a84523360048501612a4d565b03925af16000918161270b575b506126cb5750505061269b612aa9565b80519290836126c4578151633250574960e11b81526001600160a01b0384166004820152602490fd5b8390602001fd5b9193916001600160e01b031916036126e95750503880808080610f9b565b51633250574960e11b81526001600160a01b0391909116600482015260249150fd5b61272591925060203d6020116124105761240181836109f0565b903861268b565b84516339e3563760e11b815260006004820152602490fd5b8551633250574960e11b815260006004820152602490fd5b6000818152600260205260409020546001600160a01b031690811561277f575090565b60249060405190637e27328960e01b82526004820152fd5b906127a182610a8d565b6127ae60405191826109f0565b82815280926127bf601f1991610a8d565b0190602036910137565b806000917a184f03e93ff9f4daa797ed6e38ed64bf6a1f010000000000000000808210156128ff575b506d04ee2d6d415b85acef8100000000808310156128f0575b50662386f26fc10000808310156128e1575b506305f5e100808310156128d2575b50612710808310156128c3575b5060648210156128b3575b600a809210156128a9575b60019081602161286160018701612797565b95860101905b612873575b5050505090565b600019019083906f181899199a1a9b1b9c1cb0b131b232b360811b8282061a8353049182156128a457919082612867565b61286c565b916001019161284f565b9190606460029104910191612844565b60049193920491019138612839565b6008919392049101913861282c565b6010919392049101913861281d565b6020919392049101913861280b565b6040935081049150386127f2565b906001600160a01b03908181161561297b5761292a84839261317a565b16918261294a57604051637e27328960e01b815260048101859052602490fd5b169182820361295857505050565b60649350604051926364283d7b60e01b8452600484015260248301526044820152fd5b604051633250574960e11b815260006004820152602490fd5b9060018201809211611f7a57565b9060028201809211611f7a57565b6006546001600160a01b031633036129c457565b60405163118cdaa760e01b8152336004820152602490fd5b6129e4612186565b5060ff60038183511601818111611f7a578116825260208201906003818351160190808211611f7a576064818193169182855285511611612a30575b11612a29575090565b6064905290565b818452612a20565b908160209103126102e557516105c2816102d3565b6105c2939260809260018060a01b03168252600060208301526040820152816060820152019061058c565b6001600160a01b0391821681529116602082015260408101919091526080606082018190526105c29291019061058c565b3d15612ad4573d90612aba82610a8d565b91612ac860405193846109f0565b82523d6000602084013e565b606090565b600d5415612b0d57600d6000527fd7b6990105719101dabeb77144f2a3385c8033acd3af97e9423a695e81ad1eb590600090565b611543565b600d54811015612b0d57600d6000527fd7b6990105719101dabeb77144f2a3385c8033acd3af97e9423a695e81ad1eb50190600090565b600019810191908211611f7a57565b90600754821015612b0d576007600052601f8260051c7fa66cc928b5edb82af9bd49922954155ab7b0942694bea4ce44661d9a8736c68801921690565b612b9e9061227a565b8015612c2e576007549060005b612bb483612b49565b811015612c2057612bd76119ff612bca83612b58565b905460ff9160031b1c1690565b82101580612c01575b612bec57600101612bab565b6105c29250612bfb9150612b12565b5061117e565b50612c196119ff612bca612c1484612994565b612b58565b8210612be0565b5050506105c2612bfb612ad9565b5061158f6105c2612c3d612ad9565b5060405192838092610f6c565b9391949290604051612c5b816109d4565b6002815261038360f41b6020820152612c739161326a565b94604051612c80816109d4565b600381526203138360ec1b6020820152612c999161326a565b90604051612ca6816109d4565b600381526203238360ec1b6020820152612cbf9161326a565b9060405195869560208701612dcf9060d0907f3c73766720786d6c6e733d27687474703a2f2f7777772e77332e6f72672f323081527f30302f737667272076657273696f6e3d27312e312720786d6c6e733a786c696e60208201527f6b3d27687474703a2f2f7777772e77332e6f72672f313939392f786c696e6b2760408201527f20786d6c6e733a7376676a733d27687474703a2f2f7376676a732e636f6d2f7360608201527f76676a73272077696474683d2733303027206865696768743d2733303027207060808201527f72657365727665417370656374526174696f3d276e6f6e65272076696577426f60a08201526f3c1e93981018101a9818101a9818139f60811b60c08201520190565b7f3c726563742077696474683d273130302527206865696768743d2731303025278152662066696c6c3d2760c81b6020820152602701612e0e91611ed1565b6213979f60e91b8152600301612e2391611ed1565b612e2c91611ed1565b612e3591611ed1565b7f3c696d61676520783d273130302720793d273530272077696474683d2733303081527427206865696768743d273330302720687265663d2760581b6020820152603501612e8291611ed1565b6213979f60e91b81526003017f3c7465787420783d273235302720793d27343230272066696c6c3d27626c616381527f6b2720666f6e742d73697a653d2732342720646f6d696e616e742d626173656c60208201527f696e653d276d6964646c652720746578742d616e63686f723d276d6964646c65604082015261139f60f11b6060820152606201612f1491611ed1565b661e17ba32bc3a1f60c91b81526007017f3c7265637420783d27302720793d2730272077696474683d273530302720686581527f696768743d27353030272066696c6c3d276e6f6e6527207374726f6b653d272360208201527f30303030303027207374726f6b652d77696474683d2735272072783d2731352760408201526910393c9e93989a93979f60b11b6060820152606a01651e17b9bb339f60d11b815260060103601f19810182526105c290826109f0565b604051906060820182811067ffffffffffffffff8211176109b357604052604082527f6768696a6b6c6d6e6f707172737475767778797a303132333435363738392b2f6040837f4142434445464748494a4b4c4d4e4f505152535455565758595a61626364656660208201520152565b80511561311857613049612fca565b61306d61306861306361305c85516129a2565b6003900490565b611fd7565b612797565b91602083019181825183016020810191825193600084525b8282106130c657505050525160039006600181146130b3576002146130a8575090565b603d90600019015390565b50603d9081600019820153600119015390565b9091956004906003809401938451600190603f9082828260121c16880101518553828282600c1c16880101518386015382828260061c1688010151600286015316850101519082015301959190613085565b506105c26120a7565b90604051918261313d602082019260208452604083019061058c565b0392613151601f19948581018352826109f0565b5190209161317360405191826119bd602082019560208752604083019061058c565b5190201490565b6000828152600260205260408120546001600160a01b0390811693929184917fddf252ad1be2c89b69c2b068fc378daa952ba7f163c4a11628f55a4df523b3ef91906131fa9084613223575b851694856131ff575b86835260026020526040832080546001600160a01b0319166001600160a01b03909216919091179055565b80a490565b6001600160a01b0381166000908152600360205260409020600181540190556131cf565b613237876000526004602052604060002090565b80546001600160a01b03191690556001600160a01b038516600090815260036020526040902080546000190190556131c6565b60ce916133a66133936105c293604051958694733c636972636c652063783d273530272063793d2760601b602087015280519061332860208201926132b38160348b0186610569565b8801917f2720723d273430272066696c6c3d272330306161666627207374726f6b653d2760348401527f2330303030303027207374726f6b652d77696474683d273327202f3e0000000060548401526f3c7465787420783d2735302720793d2760801b60708401525180936080840190610569565b017f272066696c6c3d27626c61636b2720666f6e742d73697a653d2732342720646f60808201527f6d696e616e742d626173656c696e653d276d6964646c652720746578742d616e60a08201526d31b437b91e93b6b4b2323632939f60911b60c08201520190611ed1565b661e17ba32bc3a1f60c91b815260070190565b03601f1981018352826109f056fea26469706673582212202828e2ae2806feae06c2c4c7b37f480b9bc63ee15507790ad82e8a36d0ef3dbf64736f6c63430008180033","linkReferences":{}},"methodIdentifiers":{"BASE_PRICE_IN_MATIC()":"8aa33015","_ccipHandler()":"68b16779","_sign()":"f759e547","approve(address,uint256)":"095ea7b3","balanceOf(address)":"70a08231","calculatePrice((uint8,uint8,uint8,uint8))":"24773270","calculateUpgrade((uint8,uint8,uint8,uint8))":"621167e6","changeCCIP(address)":"3e3c0740","getApproved(uint256)":"081812fc","getOwner(uint256)":"c41a360a","getSpecial(uint256)":"e1d916f7","getStat(string,uint256)":"d5784f15","getTokenStats(uint256)":"c5829514","isApprovedForAll(address,address)":"e985e9c5","itemImage__()":"caf72264","itemType()":"f5470d7b","lockStatus(uint256)":"d728f75c","lockedItemImage()":"6467007b","mint()":"1249c58b","mintPrice()":"6817c76c","name()":"06fdde03","newStatMap(bytes32)":"46838f30","owner()":"8da5cb5b","ownerOf(uint256)":"6352211e","powerLevel__(uint256)":"94a409d8","renounceOwnership()":"715018a6","safeTransferFrom(address,address,uint256)":"42842e0e","safeTransferFrom(address,address,uint256,bytes)":"b88d4fde","setApprovalForAll(address,bool)":"a22cb465","setMintPrice(uint256)":"f4a0a528","setSign(string)":"31fbbae2","setTokenLockStatus(uint256,uint256)":"08bbefef","statLabels(uint256)":"a50c8f2c","supportsInterface(bytes4)":"01ffc9a7","symbol()":"95d89b41","tokenLockedTill(uint256)":"05b1603f","tokenURI(uint256)":"c87b56dd","transfer(address,uint256)":"a9059cbb","transferFrom(address,address,uint256)":"23b872dd","transferOwnership(address)":"f2fde38b","updateStats(uint256,address,uint8,uint8,uint8,uint8)":"02ee9785","upgrade(uint256)":"45977d03","upgradeMapping(uint256)":"ad3d47d7"},"id":72}