{"abi":[{"type":"constructor","inputs":[],"stateMutability":"nonpayable"},{"type":"receive","stateMutability":"payable"},{"type":"function","name":"BASE_PRICE_IN_MATIC","inputs":[],"outputs":[{"name":"","type":"uint256","internalType":"uint256"}],"stateMutability":"view"},{"type":"function","name":"_ccipHandler","inputs":[],"outputs":[{"name":"","type":"address","internalType":"address"}],"stateMutability":"view"},{"type":"function","name":"_sign","inputs":[],"outputs":[{"name":"","type":"string","internalType":"string"}],"stateMutability":"view"},{"type":"function","name":"approve","inputs":[{"name":"to","type":"address","internalType":"address"},{"name":"tokenId","type":"uint256","internalType":"uint256"}],"outputs":[],"stateMutability":"nonpayable"},{"type":"function","name":"balanceOf","inputs":[{"name":"owner","type":"address","internalType":"address"}],"outputs":[{"name":"","type":"uint256","internalType":"uint256"}],"stateMutability":"view"},{"type":"function","name":"calculateUpgrade","inputs":[{"name":"previousStat","type":"tuple","internalType":"struct RPGItemUtils.StatType","components":[{"name":"stat1","type":"uint8","internalType":"uint8"},{"name":"stat2","type":"uint8","internalType":"uint8"},{"name":"specialType","type":"uint8","internalType":"uint8"},{"name":"specialPoints","type":"uint8","internalType":"uint8"}]}],"outputs":[{"name":"","type":"tuple","internalType":"struct RPGItemUtils.StatType","components":[{"name":"stat1","type":"uint8","internalType":"uint8"},{"name":"stat2","type":"uint8","internalType":"uint8"},{"name":"specialType","type":"uint8","internalType":"uint8"},{"name":"specialPoints","type":"uint8","internalType":"uint8"}]}],"stateMutability":"nonpayable"},{"type":"function","name":"changeCCIP","inputs":[{"name":"newAdd","type":"address","internalType":"address"}],"outputs":[],"stateMutability":"nonpayable"},{"type":"function","name":"getApproved","inputs":[{"name":"tokenId","type":"uint256","internalType":"uint256"}],"outputs":[{"name":"","type":"address","internalType":"address"}],"stateMutability":"view"},{"type":"function","name":"getOwner","inputs":[{"name":"tokenId","type":"uint256","internalType":"uint256"}],"outputs":[{"name":"","type":"address","internalType":"address"}],"stateMutability":"view"},{"type":"function","name":"getSpecial","inputs":[{"name":"tokenId","type":"uint256","internalType":"uint256"}],"outputs":[{"name":"","type":"uint8","internalType":"uint8"},{"name":"","type":"uint8","internalType":"uint8"}],"stateMutability":"view"},{"type":"function","name":"getStat","inputs":[{"name":"statLabel","type":"string","internalType":"string"},{"name":"tokenId","type":"uint256","internalType":"uint256"}],"outputs":[{"name":"stat","type":"uint8","internalType":"uint8"}],"stateMutability":"view"},{"type":"function","name":"getTokenStats","inputs":[{"name":"tokenId","type":"uint256","internalType":"uint256"}],"outputs":[{"name":"","type":"uint8","internalType":"uint8"},{"name":"","type":"uint8","internalType":"uint8"},{"name":"","type":"uint8","internalType":"uint8"},{"name":"","type":"uint8","internalType":"uint8"}],"stateMutability":"view"},{"type":"function","name":"isApprovedForAll","inputs":[{"name":"owner","type":"address","internalType":"address"},{"name":"operator","type":"address","internalType":"address"}],"outputs":[{"name":"","type":"bool","internalType":"bool"}],"stateMutability":"view"},{"type":"function","name":"itemImage__","inputs":[],"outputs":[{"name":"","type":"string","internalType":"string"}],"stateMutability":"view"},{"type":"function","name":"itemType","inputs":[],"outputs":[{"name":"","type":"string","internalType":"string"}],"stateMutability":"view"},{"type":"function","name":"lockStatus","inputs":[{"name":"tokenId","type":"uint256","internalType":"uint256"}],"outputs":[{"name":"","type":"bool","internalType":"bool"}],"stateMutability":"view"},{"type":"function","name":"lockedItemImage","inputs":[],"outputs":[{"name":"","type":"string","internalType":"string"}],"stateMutability":"view"},{"type":"function","name":"mint","inputs":[],"outputs":[],"stateMutability":"payable"},{"type":"function","name":"mintPrice","inputs":[],"outputs":[{"name":"","type":"uint256","internalType":"uint256"}],"stateMutability":"view"},{"type":"function","name":"name","inputs":[],"outputs":[{"name":"","type":"string","internalType":"string"}],"stateMutability":"view"},{"type":"function","name":"newStatMap","inputs":[{"name":"","type":"bytes32","internalType":"bytes32"}],"outputs":[{"name":"stat1","type":"uint8","internalType":"uint8"},{"name":"stat2","type":"uint8","internalType":"uint8"},{"name":"specialType","type":"uint8","internalType":"uint8"},{"name":"specialPoints","type":"uint8","internalType":"uint8"}],"stateMutability":"view"},{"type":"function","name":"owner","inputs":[],"outputs":[{"name":"","type":"address","internalType":"address"}],"stateMutability":"view"},{"type":"function","name":"ownerOf","inputs":[{"name":"tokenId","type":"uint256","internalType":"uint256"}],"outputs":[{"name":"","type":"address","internalType":"address"}],"stateMutability":"view"},{"type":"function","name":"powerLevel__","inputs":[{"name":"tokenId","type":"uint256","internalType":"uint256"}],"outputs":[{"name":"","type":"uint256","internalType":"uint256"}],"stateMutability":"view"},{"type":"function","name":"renounceOwnership","inputs":[],"outputs":[],"stateMutability":"nonpayable"},{"type":"function","name":"safeTransferFrom","inputs":[{"name":"from","type":"address","internalType":"address"},{"name":"to","type":"address","internalType":"address"},{"name":"tokenId","type":"uint256","internalType":"uint256"}],"outputs":[],"stateMutability":"nonpayable"},{"type":"function","name":"safeTransferFrom","inputs":[{"name":"from","type":"address","internalType":"address"},{"name":"to","type":"address","internalType":"address"},{"name":"tokenId","type":"uint256","internalType":"uint256"},{"name":"data","type":"bytes","internalType":"bytes"}],"outputs":[],"stateMutability":"nonpayable"},{"type":"function","name":"setApprovalForAll","inputs":[{"name":"operator","type":"address","internalType":"address"},{"name":"approved","type":"bool","internalType":"bool"}],"outputs":[],"stateMutability":"nonpayable"},{"type":"function","name":"setMintPrice","inputs":[{"name":"_mintPrice","type":"uint256","internalType":"uint256"}],"outputs":[],"stateMutability":"nonpayable"},{"type":"function","name":"setSign","inputs":[{"name":"sign","type":"string","internalType":"string"}],"outputs":[],"stateMutability":"nonpayable"},{"type":"function","name":"setTokenLockStatus","inputs":[{"name":"tokenId","type":"uint256","internalType":"uint256"},{"name":"unlockTime","type":"uint256","internalType":"uint256"}],"outputs":[],"stateMutability":"nonpayable"},{"type":"function","name":"statLabels","inputs":[{"name":"","type":"uint256","internalType":"uint256"}],"outputs":[{"name":"","type":"string","internalType":"string"}],"stateMutability":"view"},{"type":"function","name":"supportsInterface","inputs":[{"name":"interfaceId","type":"bytes4","internalType":"bytes4"}],"outputs":[{"name":"","type":"bool","internalType":"bool"}],"stateMutability":"view"},{"type":"function","name":"symbol","inputs":[],"outputs":[{"name":"","type":"string","internalType":"string"}],"stateMutability":"view"},{"type":"function","name":"tokenLockedTill","inputs":[{"name":"","type":"uint256","internalType":"uint256"}],"outputs":[{"name":"","type":"uint256","internalType":"uint256"}],"stateMutability":"view"},{"type":"function","name":"tokenURI","inputs":[{"name":"tokenId","type":"uint256","internalType":"uint256"}],"outputs":[{"name":"","type":"string","internalType":"string"}],"stateMutability":"view"},{"type":"function","name":"transfer","inputs":[{"name":"to","type":"address","internalType":"address"},{"name":"tokenId","type":"uint256","internalType":"uint256"}],"outputs":[],"stateMutability":"nonpayable"},{"type":"function","name":"transferFrom","inputs":[{"name":"from","type":"address","internalType":"address"},{"name":"to","type":"address","internalType":"address"},{"name":"tokenId","type":"uint256","internalType":"uint256"}],"outputs":[],"stateMutability":"nonpayable"},{"type":"function","name":"transferOwnership","inputs":[{"name":"newOwner","type":"address","internalType":"address"}],"outputs":[],"stateMutability":"nonpayable"},{"type":"function","name":"updateStats","inputs":[{"name":"tokenId","type":"uint256","internalType":"uint256"},{"name":"newOwner","type":"address","internalType":"address"},{"name":"stat1","type":"uint8","internalType":"uint8"},{"name":"stat2","type":"uint8","internalType":"uint8"},{"name":"specialType","type":"uint8","internalType":"uint8"},{"name":"specialPoints","type":"uint8","internalType":"uint8"}],"outputs":[{"name":"","type":"bool","internalType":"bool"}],"stateMutability":"nonpayable"},{"type":"function","name":"upgrade","inputs":[{"name":"tokenId","type":"uint256","internalType":"uint256"}],"outputs":[],"stateMutability":"payable"},{"type":"function","name":"upgradeMapping","inputs":[{"name":"","type":"uint256","internalType":"uint256"}],"outputs":[{"name":"stat1","type":"uint8","internalType":"uint8"},{"name":"stat2","type":"uint8","internalType":"uint8"},{"name":"specialType","type":"uint8","internalType":"uint8"},{"name":"specialPoints","type":"uint8","internalType":"uint8"}],"stateMutability":"view"},{"type":"event","name":"Approval","inputs":[{"name":"owner","type":"address","indexed":true,"internalType":"address"},{"name":"approved","type":"address","indexed":true,"internalType":"address"},{"name":"tokenId","type":"uint256","indexed":true,"internalType":"uint256"}],"anonymous":false},{"type":"event","name":"ApprovalForAll","inputs":[{"name":"owner","type":"address","indexed":true,"internalType":"address"},{"name":"operator","type":"address","indexed":true,"internalType":"address"},{"name":"approved","type":"bool","indexed":false,"internalType":"bool"}],"anonymous":false},{"type":"event","name":"NftMinted","inputs":[{"name":"recipient","type":"address","indexed":true,"internalType":"address"},{"name":"tokenId","type":"uint256","indexed":true,"internalType":"uint256"},{"name":"timestamp","type":"uint256","indexed":true,"internalType":"uint256"}],"anonymous":false},{"type":"event","name":"OwnershipTransferred","inputs":[{"name":"previousOwner","type":"address","indexed":true,"internalType":"address"},{"name":"newOwner","type":"address","indexed":true,"internalType":"address"}],"anonymous":false},{"type":"event","name":"Transfer","inputs":[{"name":"from","type":"address","indexed":true,"internalType":"address"},{"name":"to","type":"address","indexed":true,"internalType":"address"},{"name":"tokenId","type":"uint256","indexed":true,"internalType":"uint256"}],"anonymous":false},{"type":"event","name":"Transfer","inputs":[{"name":"sender","type":"address","indexed":true,"internalType":"address"},{"name":"amount","type":"uint256","indexed":true,"internalType":"uint256"}],"anonymous":false},{"type":"error","name":"ERC721IncorrectOwner","inputs":[{"name":"sender","type":"address","internalType":"address"},{"name":"tokenId","type":"uint256","internalType":"uint256"},{"name":"owner","type":"address","internalType":"address"}]},{"type":"error","name":"ERC721InsufficientApproval","inputs":[{"name":"operator","type":"address","internalType":"address"},{"name":"tokenId","type":"uint256","internalType":"uint256"}]},{"type":"error","name":"ERC721InvalidApprover","inputs":[{"name":"approver","type":"address","internalType":"address"}]},{"type":"error","name":"ERC721InvalidOperator","inputs":[{"name":"operator","type":"address","internalType":"address"}]},{"type":"error","name":"ERC721InvalidOwner","inputs":[{"name":"owner","type":"address","internalType":"address"}]},{"type":"error","name":"ERC721InvalidReceiver","inputs":[{"name":"receiver","type":"address","internalType":"address"}]},{"type":"error","name":"ERC721InvalidSender","inputs":[{"name":"sender","type":"address","internalType":"address"}]},{"type":"error","name":"ERC721NonexistentToken","inputs":[{"name":"tokenId","type":"uint256","internalType":"uint256"}]},{"type":"error","name":"OwnableInvalidOwner","inputs":[{"name":"owner","type":"address","internalType":"address"}]},{"type":"error","name":"OwnableUnauthorizedAccount","inputs":[{"name":"account","type":"address","internalType":"address"}]}],"bytecode":{"object":"0x608060405234610a8f576100136040610a94565b600581526414dddbdc9960da1b602082015261002f6040610a94565b6002815261535760f01b602082015281516001600160401b0381116105c957610059600054610ab9565b601f8111610a41575b50602092601f82116001146109dd5761009592938291600092610811575b50508160011b916000199060031b1c19161790565b6000555b80516001600160401b0381116105c9576100b4600154610ab9565b601f8111610983575b50602091601f821160011461091f576100ed92600091836108115750508160011b916000199060031b1c19161790565b6001555b6006805473b1293a8bff9323aad0419e46dd9846cc7363d44b6001600160a01b0319821681179092556001600160a01b03167f8be0079c531659141344cd1fd0a4f28419497f9722a3daafe3b4186f6b6457e0600080a3610153601054610ab9565b601f81116108d4575b5060c360109081556000527f68747470733a2f2f75706c6f61642e77696b696d656469612e6f72672f77696b600080516020613996833981519152557f6970656469612f636f6d6d6f6e732f7468756d622f352f35352f426974636f697f1b6847dc741a1b0cd08d278845f9d819d87b734759afb55fe2de5cb82a9ae673557f6e5f6c6f676f2e6a70672f36343070782d426974636f696e5f6c6f676f2e6a707f1b6847dc741a1b0cd08d278845f9d819d87b734759afb55fe2de5cb82a9ae67455606760f81b7f1b6847dc741a1b0cd08d278845f9d819d87b734759afb55fe2de5cb82a9ae6755560115461025190610ab9565b601f8111610889575b5060c760119081556000527f68747470733a2f2f706c756d2d6c6961626c652d6d6173746f646f6e2d343530600080516020613956833981519152557f2e6d7970696e6174612e636c6f75642f697066732f516d615844344e4c4e39687f31ecc21a745e3968a04e9570e4425bc18fa8019c68028196b546d1669c200c69557f6e356362396a5464373866614d765533524e6d6633346776684c47736e7136377f31ecc21a745e3968a04e9570e4425bc18fa8019c68028196b546d1669c200c6a55627a733360e81b7f31ecc21a745e3968a04e9570e4425bc18fa8019c68028196b546d1669c200c6b556013805463ffffffff191663281e140a179055604080519081018181106001600160401b038211176105c95760405261037e6040610a94565b60028152616c3160f01b602082015281526103996040610a94565b6002815261361960f11b60208201526020820152600b906000905b600282106107a9576103c7600e54610ab9565b601f811161076a575b50600c653bb2b0b837b760d11b01600e55604051606081016001600160401b038111828210176105c9576040526104076040610a94565b600781526611b3193319331960c91b602082015281526104276040610a94565b60078152661199331933193360c91b6020820152602082015261044a6040610a94565b60078152662364656465646560c81b60208201526040820152600d546003600d55806003106106c5575b50600d6000908152600080516020613976833981519152915b600382106105df57604051608081016001600160401b038111828210176105c95760405260008152600a602082015260146040820152601e6060820152600754600460075580600410610562575b506007600052602060002060009160005b6004811061053e57505055601280546001600160a01b03191673f62849f9a0b5bf2913b396098f7c7019b51a820a179055662386f26fc1000060085562aa36a7600a55604051612e0f9081610b478239f35b9092602060019160ff8651169060ff8560031b92831b921b191617940191016104ec565b60076000527fa66cc928b5edb82af9bd49922954155ab7b0942694bea4ce44661d9a8736c688805463ffffffff1681556105c391601f0160051c017fa66cc928b5edb82af9bd49922954155ab7b0942694bea4ce44661d9a8736c689610af3565b816104db565b634e487b7160e01b600052604160045260246000fd5b80518051906001600160401b0382116105c957610606826106008754610ab9565b87610b0a565b602090601f8311600114610658579261063e8360019594602094879660009261064d5750508160011b916000199060031b1c19161790565b86555b0193019101909161048d565b015190508980610080565b90601f1983169186600052816000209260005b8181106106ad5750936020936001969387969383889510610694575b505050811b018655610641565b015160001960f88460031b161c19169055888080610687565b8284015185556001909401936020938401930161066b565b600d600052600080516020613976833981519152017fd7b6990105719101dabeb77144f2a3385c8033acd3af97e9423a695e81ad1eb85b8181106107095750610474565b8061071660019254610ab9565b80610723575b50016106fc565b601f811183146107395750600081555b8461071c565b610757908260005283601f6020600020920160051c82019101610af3565b8060005260006020812081835555610733565b600e6000526107a390601f0160051c7fbb7b4a454dc3493923482f07822329ed19e8244eff582cc204f8554c3620c3fd90810190610af3565b806103d0565b80518051906001600160401b0382116105c9576107ca826106008754610ab9565b602090601f831160011461081c5792610802836001959460209487966000926108115750508160011b916000199060031b1c19161790565b86555b019301910190916103b4565b015190503880610080565b90601f1983169186600052816000209260005b8181106108715750936020936001969387969383889510610858575b505050811b018655610805565b015160001960f88460031b161c1916905538808061084b565b8284015185556001909401936020938401930161082f565b60116000526108ce90601f0160051c600080516020613956833981519152017f31ecc21a745e3968a04e9570e4425bc18fa8019c68028196b546d1669c200c6c610af3565b3861025a565b601060005261091990601f0160051c600080516020613996833981519152017f1b6847dc741a1b0cd08d278845f9d819d87b734759afb55fe2de5cb82a9ae676610af3565b3861015c565b601f198216926001600052806000209160005b85811061096b57508360019510610952575b505050811b016001556100f1565b015160001960f88460031b161c19169055388080610944565b91926020600181928685015181550194019201610932565b60016000526109cd907fb10e2d527612073b26eecdfd717e6a320cf44b4afac2b0732d9fcbe2b7fa0cf6601f840160051c810191602085106109d3575b601f0160051c0190610af3565b386100bd565b90915081906109c0565b601f1982169360008052806000209160005b868110610a295750836001959610610a10575b505050811b01600055610099565b015160001960f88460031b161c19169055388080610a02565b919260206001819286850151815501940192016109ef565b60008052610a89907f290decd9548b62a8d60345a988386fc84ba6bc95484008f6362f93160ef3e563601f840160051c810191602085106109d357601f0160051c0190610af3565b38610062565b600080fd5b6040519190601f01601f191682016001600160401b038111838210176105c957604052565b90600182811c92168015610ae9575b6020831014610ad357565b634e487b7160e01b600052602260045260246000fd5b91607f1691610ac8565b818110610afe575050565b60008155600101610af3565b9190601f8111610b1957505050565b610b44926000526020600020906020601f840160051c830193106109d357601f0160051c0190610af3565b56fe60806040526004361015610023575b361561001957600080fd5b610021612035565b005b60003560e01c806301ffc9a7146102be57806302ee9785146102b957806305b1603f146102b457806306fdde03146102af578063081812fc146102aa57806308bbefef146102a5578063095ea7b3146102a05780631249c58b1461029b57806323b872dd1461029657806331fbbae2146102915780633e3c07401461028c57806342842e0e1461028757806345977d031461028257806346838f301461027d578063621167e6146102785780636352211e1461022d5780636467007b146102735780636817c76c1461026e57806368b167791461026957806370a0823114610264578063715018a61461025f5780638aa330151461025a5780638da5cb5b1461025557806394a409d81461025057806395d89b411461024b578063a22cb46514610246578063a50c8f2c14610241578063a9059cbb1461023c578063ad3d47d714610237578063b88d4fde14610232578063c41a360a1461022d578063c582951414610228578063c87b56dd14610223578063caf722641461021e578063d5784f1514610219578063d728f75c14610214578063e1d916f71461020f578063e985e9c51461020a578063f2fde38b14610205578063f4a0a52814610200578063f5470d7b146101fb5763f759e5470361000e57611977565b611951565b611930565b6118a6565b611849565b6117c6565b611790565b611746565b611720565b6114d9565b6113b5565b610de6565b611355565b6112fb565b611286565b611238565b611168565b6110c0565b61109a565b611071565b61104f565b610ff2565b610f9c565b610f73565b610f55565b610f14565b610d5e565b610d04565b610beb565b610bc1565b610b7e565b610a6a565b610963565b610844565b610736565b6106f6565b6106b8565b6105e2565b61055a565b6103da565b6102da565b6001600160e01b03198116036102d557565b600080fd5b346102d55760203660031901126102d55760206004356102f9816102c3565b63ffffffff60e01b166380ac58cd60e01b8114908115610337575b8115610326575b506040519015158152f35b6301ffc9a760e01b1490503861031b565b635b5e139f60e01b81149150610314565b602435906001600160a01b03821682036102d557565b600435906001600160a01b03821682036102d557565b60ff1690565b6044359060ff821682036102d557565b6064359060ff821682036102d557565b6084359060ff821682036102d557565b60a4359060ff821682036102d557565b6004359060ff821682036102d557565b6024359060ff821682036102d557565b346102d55760c03660031901126102d5576004356103f6610348565b6103fe61037a565b9161040761038a565b9261041061039a565b926104196103aa565b9361042f60018060a01b0360125416331461199d565b6001600160a01b038216918215610521576104c9966104ac6104a361049e886104c0976104b6968261048561047960609e600052600260205260018060a01b036040600020541690565b6001600160a01b031690565b156104d9575b5050506000526014602052604060002090565b6119e9565b60ff9096168652565b60ff166020850152565b60ff166040830152565b019060ff169052565b60405160018152602090f35b0390f35b6104e29161205e565b6000828152601560205260408120558142917ffc612aad4e70fb3e1d4832d8c65f92e4024aa87f809d131267a79bceee757f33600080a438808261048b565b60405162461bcd60e51b815260206004820152601160248201527024b73b30b634b2103732bb9037bbb732b960791b6044820152606490fd5b346102d55760203660031901126102d55760043560005260156020526020604060002054604051908152f35b60005b8381106105995750506000910152565b8181015183820152602001610589565b906020916105c281518092818552858086019101610586565b601f01601f1916010190565b9060206105df9281815201906105a9565b90565b346102d55760003660031901126102d5576040516000805461060381610e27565b80845290600181169081156106945750600114610637575b6104d58361062b818503826109da565b604051918291826105ce565b60008080527f290decd9548b62a8d60345a988386fc84ba6bc95484008f6362f93160ef3e563939250905b80821061067a5750909150810160200161062b61061b565b919260018160209254838588010152019101909291610662565b60ff191660208086019190915291151560051b8401909101915061062b905061061b565b346102d55760203660031901126102d5576004356106d581612188565b506000526004602052602060018060a01b0360406000205416604051908152f35b346102d55760403660031901126102d5576004356024359061072360018060a01b0360125416331461199d565b6000526015602052604060002055600080f35b346102d55760403660031901126102d55761074f61035e565b6024359061075c82612188565b33151580610831575b806107ef575b6107da57610021926107bb9181906001600160a01b0385811691167f8c5be1e5ebec7d5bd14f71427d1e84f3dd0314c0f7b2291e5b200ac8c7c3b925600080a46000526004602052604060002090565b80546001600160a01b0319166001600160a01b03909216919091179055565b63a9fbf51f60e01b6000523360045260246000fd5b5060ff610829336108128460018060a01b03166000526005602052604060002090565b9060018060a01b0316600052602052604060002090565b54161561076b565b506001600160a01b038116331415610765565b60003660031901126102d5576108c56108b0600a546108be610865826121f1565b6040519384917f4d696e74206e6f7420616c6c6f7765642c20596f752063616e206d696e74206f60208401526b0371021b430b4b724b2101d160a51b6040840152604c830190611a21565b03601f1981018452836109da565b4614611a38565b6108d26008543414611a68565b6009546108e66108e182611abf565b600955565b6108f0813361205e565b6000818152601560205260408120554290337ffc612aad4e70fb3e1d4832d8c65f92e4024aa87f809d131267a79bceee757f33600080a4005b60609060031901126102d5576004356001600160a01b03811681036102d557906024356001600160a01b03811681036102d5579060443590565b346102d55761002161097436610929565b9161098a60018060a01b0360125416331461199d565b61099e6001600160a01b0383161515611ad3565b612349565b634e487b7160e01b600052604160045260246000fd5b6080810190811067ffffffffffffffff8211176109d557604052565b6109a3565b90601f8019910116810190811067ffffffffffffffff8211176109d557604052565b67ffffffffffffffff81116109d557601f01601f191660200190565b929192610a24826109fc565b91610a3260405193846109da565b8294818452818301116102d5578281602093846000960137010152565b9080601f830112156102d5578160206105df93359101610a18565b346102d55760203660031901126102d55760043567ffffffffffffffff81116102d557610a9b903690600401610a4f565b805167ffffffffffffffff81116109d557610ac081610abb600f54610e27565b611b2b565b602091601f8211600114610b0057610af09260009183610af5575b50508160011b916000199060031b1c19161790565b600f55005b015190503880610adb565b600f600052601f198216927f8d1108e10bcb7c27dddfc02ed9d693a074039d026cf4ea4240b40f7d581ac8029160005b858110610b6657508360019510610b4d575b505050811b01600f55005b015160001960f88460031b161c19169055388080610b42565b91926020600181928685015181550194019201610b30565b346102d55760203660031901126102d557610b9761035e565b610b9f6123bf565b601280546001600160a01b0319166001600160a01b0392909216919091179055005b346102d557610021610bd236610929565b9060405192610be26020856109da565b60008452611de7565b60203660031901126102d557610021600435600081815260026020526040902054610c20906001600160a01b03161515611b93565b806000526015602052610c3a604060002054421015611bd5565b806000526014602052610cac610c87604060002060ff60405191610c5d836109b9565b548181168352818160081c166020840152818160101c16604084015260181c166060820152611c84565b91610c9c610c9484612400565b341015611c13565b6000526014602052604060002090565b815181546020840151604085015160609095015163ffffffff1990921660ff939093169290921760089290921b61ff00169190911760109390931b62ff0000169290921760189290921b63ff00000016919091179055565b346102d55760203660031901126102d55760043560009081526016602090815260409182902054825160ff8083168252600883901c811693820193909352601082901c83169381019390935260181c166060820152608090f35b346102d55760803660031901126102d5576080610db6604051610d80816109b9565b610d886103ba565b8152610d926103ca565b6020820152610d9f61037a565b6040820152610dac61038a565b6060820152611c84565b60ff6060604051928281511684528260208201511660208501528260408201511660408501520151166060820152f35b346102d55760203660031901126102d5576004356000908152600260209081526040909120546001600160a01b03166040516001600160a01b039091168152f35b90600182811c92168015610e57575b6020831014610e4157565b634e487b7160e01b600052602260045260246000fd5b91607f1691610e36565b60009291815491610e7183610e27565b8083529260018116908115610ec75750600114610e8d57505050565b60009081526020812093945091925b838310610ead575060209250010190565b600181602092949394548385870101520191019190610e9c565b915050602093945060ff929192191683830152151560051b010190565b60405190610efe82610ef7816000610e61565b03836109da565b565b90610efe610ef79260405193848092610e61565b346102d55760003660031901126102d5576104d5604051610f4181610f3a816011610e61565b03826109da565b6040519182916020835260208301906105a9565b346102d55760003660031901126102d5576020600854604051908152f35b346102d55760003660031901126102d5576012546040516001600160a01b039091168152602090f35b346102d55760203660031901126102d5576001600160a01b03610fbd61035e565b168015610fdc5760005260036020526020604060002054604051908152f35b6322718ad960e21b600052600060045260246000fd5b346102d55760003660031901126102d55761100b6123bf565b600680546001600160a01b031981169091556000906001600160a01b03167f8be0079c531659141344cd1fd0a4f28419497f9722a3daafe3b4186f6b6457e08280a3005b346102d55760003660031901126102d5576020604051662386f26fc100008152f35b346102d55760003660031901126102d5576006546040516001600160a01b039091168152602090f35b346102d55760203660031901126102d55760206110b8600435611d61565b604051908152f35b346102d55760003660031901126102d55760405160006001546110e281610e27565b80845290600181169081156106945750600114611109576104d58361062b818503826109da565b600160009081527fb10e2d527612073b26eecdfd717e6a320cf44b4afac2b0732d9fcbe2b7fa0cf6939250905b80821061114e5750909150810160200161062b61061b565b919260018160209254838588010152019101909291611136565b346102d55760403660031901126102d55761118161035e565b6024358015158082036102d5576001600160a01b03831692831561120d573360009081526005602090815260408083206001600160a01b039094168352929052209060ff801983541691161790557f17307eab39ab6107e8899845ad3d59bd9653f200f220920489ca2b5937696c3160405180611208339482919091602081019215159052565b0390a3005b83630b61174360e31b60005260045260246000fd5b634e487b7160e01b600052603260045260246000fd5b346102d55760203660031901126102d55760043560028110156102d557610ef79061126e60009160405193848092600b01610e61565b6104d5604051928392506020835260208301906105a9565b346102d55760403660031901126102d5576100216112a261035e565b602435908160005260026020526112c760018060a01b03604060002054161515611b93565b8160005260156020526112e1604060002054421015611bd5565b6112f56001600160a01b0382161515611ad3565b33612349565b346102d55760203660031901126102d55760043560009081526014602090815260409182902054825160ff8083168252600883901c811693820193909352601082901c83169381019390935260181c166060820152608090f35b346102d55760803660031901126102d55761136e61035e565b611376610348565b906044356064359267ffffffffffffffff84116102d557366023850112156102d5576113af610021943690602481600401359101610a18565b92611de7565b346102d55760203660031901126102d5576004356000818152600260205260409020546113ec906001600160a01b03161515611b93565b6000526014602052604060002060405190611406826109b9565b546104d560ff8216918284526114aa611445602086019460ff8460081c16865260ff60606040890198828760101c168a52019460181c16845260ff1690565b6114686114a061149861148b61148361147661146e601354976114688960ff1690565b90611d4d565b9a5160ff1690565b600887901c60ff16611468565b995160ff1690565b601085901c60ff16611468565b945160ff1690565b9160181c60ff1690565b9060405194859485929360ff809296958160609581608089019a16885216602087015216604085015216910152565b346102d55760203660031901126102d5576104d561167461062b6116826116666115a46115a981600435600081815260026020526040902054611526906001600160a01b03161515611b93565b61153d816000526015602052604060002054421090565b80156117115761154b611f0c565b905b600081156116f6575061155e611f31565b925b600082156116d65750611571611f31565b905b82156116bf5750611582611f31565b915b156116b7576011935b61159e611598610ee4565b95610f00565b936126b2565b612a77565b61167460405193849261166061162a6115e960208701601c907f7b226e616d65223a2022455448205761746368696e6720535647222c0000000081520190565b7f226465736372697074696f6e223a2022416e204175746f6d617465642045544881526e081d1c9858dada5b99c814d591c88b608a1b6020820152602f0190565b7f22696d616765223a2022646174613a696d6167652f7376672b786d6c3b626173815263194d8d0b60e21b602082015260240190565b90611a21565b61227d60f01b815260020190565b03601f1981018352826109da565b6040517f646174613a6170706c69636174696f6e2f6a736f6e3b6261736536342c0000006020820152928391603d8301611660565b60109361158d565b6116cb6116d091611d61565b6121f1565b91611584565b506116f06116cb610374836116eb600c610f00565b611f51565b90611573565b5061170b6116cb610374856116eb600b610f00565b92611560565b61171a826125ec565b9061154d565b346102d55760003660031901126102d5576104d5604051610f4181610f3a816010610e61565b346102d55760403660031901126102d55760043567ffffffffffffffff81116102d55761178561177c6020923690600401610a4f565b60243590611f51565b60ff60405191168152f35b346102d55760203660031901126102d55760206117bc6004356000526015602052604060002054421090565b6040519015158152f35b346102d55760203660031901126102d5576004356000818152600260205260409020546117fd906001600160a01b03161515611b93565b806000526015602052611817604060002054421015611bd5565b60009081526014602090815260409182902054825160ff601083901c8116825260189290921c90911691810191909152f35b346102d55760403660031901126102d557602060ff61189a61186961035e565b611871610348565b6001600160a01b0391821660009081526005865260408082209290931681526020919091522090565b54166040519015158152f35b346102d55760203660031901126102d5576118bf61035e565b6118c76123bf565b6001600160a01b0316801561191a57600680546001600160a01b0319811683179091556001600160a01b03167f8be0079c531659141344cd1fd0a4f28419497f9722a3daafe3b4186f6b6457e0600080a3005b631e4fbdf760e01b600052600060045260246000fd5b346102d55760203660031901126102d55760043561194c6123bf565b600855005b346102d55760003660031901126102d5576104d5604051610f4181610f3a81600e610e61565b346102d55760003660031901126102d5576104d5604051610f4181610f3a81600f610e61565b156119a457565b60405162461bcd60e51b815260206004820152601d60248201527f43616c6c6572206973206e6f7420746865204343495020726f757465720000006044820152606490fd5b906040516119f6816109b9565b606060ff8294548181168452818160081c166020850152818160101c16604085015260181c16910152565b90611a3460209282815194859201610586565b0190565b15611a405750565b60405162461bcd60e51b815260206004820152908190611a649060248301906105a9565b0390fd5b15611a6f57565b60405162461bcd60e51b815260206004820152601260248201527124b739bab33334b1b4b2b73a1022ba3432b960711b6044820152606490fd5b634e487b7160e01b600052601160045260246000fd5b6000198114611ace5760010190565b611aa9565b15611ada57565b60405162461bcd60e51b8152602060048201526024808201527f4552433732313a207472616e7366657220746f20746865207a65726f206164646044820152637265737360e01b6064820152608490fd5b601f8111611b37575050565b600f6000526020600020906020601f840160051c83019310611b74575b601f0160051c01905b818110611b68575050565b60008155600101611b5d565b9091508190611b54565b60405190611b8d6020836109da565b60008252565b15611b9a57565b60405162461bcd60e51b8152602060048201526013602482015272151bdad95b881a5cc81b9bdd08135a5b9d1959606a1b6044820152606490fd5b15611bdc57565b60405162461bcd60e51b815260206004820152600f60248201526e151bdad95b881a5cc81b1bd8dad959608a1b6044820152606490fd5b15611c1a57565b60405162461bcd60e51b815260206004820152601d60248201527f696e73756666696369656e742066756e6420666f7220757067726164650000006044820152606490fd5b60405190611c6c826109b9565b60006060838281528260208201528260408201520152565b611c8c611c5f565b508051812080600052601660205260406000209160ff60405193611caf856109b9565b548181168552818160081c166020860152818160101c16604086015260181c1660608401528260ff815116159081611d3d575b81611d2d575b81611d1d575b50611cf857505090565b610cac925090611d0a6105df9261244c565b9283916000526016602052604060002090565b60ff915060600151161538611cee565b604081015160ff16159150611ce8565b602081015160ff16159150611ce2565b9060ff8091169116019060ff8211611ace57565b60005260146020526105df610374611dde6040600020611468611dbd60405192611d8a846109b9565b549260ff841690818152606060ff6020830196818160081c168852818160101c16604085015260181c1691015260ff1690565b611468611dd4611498601354936114688560ff1690565b9160081c60ff1690565b60011c607f1690565b9092611dfe60018060a01b0360125416331461199d565b6001600160a01b038416611e13811515611ad3565b611e1e848685612349565b843b611e2c575b5050505050565b611e5393600060209460405196879586948593630a85bd0160e11b855233600486016124cf565b03925af160009181611edb575b50611e9c5750611e6e612500565b8051919082611e9557633250574960e11b6000526001600160a01b03821660045260246000fd5b9050602001fd5b6001600160e01b03191663757a42ff60e11b01611ebe57503880808080611e25565b633250574960e11b6000526001600160a01b031660045260246000fd5b611efe91925060203d602011611f05575b611ef681836109da565b8101906124ba565b9038611e60565b503d611eec565b60405190611f1b6040836109da565b60078252660233830383038360cc1b6020830152565b60405190611f406040836109da565b60028252613f3f60f01b6020830152565b6000828152600260205260409020546105df929190611f7a906001600160a01b03161515611b93565b816000526015602052611f94604060002054421015611bd5565b611faf604051611fa981610f3a81600b610e61565b82612b61565b15611fe15750611fd6611fcf6105df926000526014602052604060002090565b5460ff1690565b60135460ff16611468565b604051611ffc91611ff782610ef781600c610e61565b612b61565b1561202f5760ff61201a6105df926000526014602052604060002090565b5460081c1661146860135460ff9060081c1690565b50600090565b34337f69ca02dd4edd7bf0a4abb9ed3b7af3f14778db5d61921c7dc7cd545266326de2600080a3565b60405160209261206e84836109da565b600082526001600160a01b038316908115612172576001600160a01b036120958286612ba6565b1661215c57833b6120a7575050505050565b9184959394916120d1936000604051809681958294630a85bd0160e11b84528433600486016124cf565b03925af16000918161213d575b506121185750506120ed612500565b8051928361211357633250574960e11b6000526001600160a01b03831660045260246000fd5b019050fd5b9092506001600160e01b03191663757a42ff60e11b01611ebe57503880808080611e25565b612155919250853d8711611f0557611ef681836109da565b90386120de565b6339e3563760e11b600052600060045260246000fd5b633250574960e11b600052600060045260246000fd5b6000818152600260205260409020546001600160a01b03169081156121ab575090565b637e27328960e01b60005260045260246000fd5b906121c9826109fc565b6121d660405191826109da565b82815280926121e7601f19916109fc565b0190602036910137565b8060009172184f03e93ff9f4daa797ed6e38ed64bf6a1f0160401b821015612326575b806d04ee2d6d415b85acef8100000000600a92101561230a575b662386f26fc100008110156122f5575b6305f5e1008110156122e3575b6127108110156122d3575b60648110156122c4575b10156122b9575b6122a46021612278600185016121bf565b938401015b60001901916f181899199a1a9b1b9c1cb0b131b232b360811b600a82061a8353600a900490565b80156122b4576122a4909161227d565b505090565b600190910190612267565b60029060649004930192612260565b6004906127109004930192612256565b6008906305f5e100900493019261224b565b601090662386f26fc10000900493019261223e565b6020906d04ee2d6d415b85acef8100000000900493019261222e565b506040915072184f03e93ff9f4daa797ed6e38ed64bf6a1f0160401b8104612214565b919291906001600160a01b03811615612172576001600160a01b0390612370908590612ba6565b16908161238c5783637e27328960e01b60005260045260246000fd5b919290916001600160a01b03168083036123a557505050565b6364283d7b60e01b60005260045260245260445260646000fd5b6006546001600160a01b031633036123d357565b63118cdaa760e01b6000523360045260246000fd5b600281901b91906001600160fe1b03811603611ace57565b60ff602081835116920151168101809111611ace57606481029080820460641490151715611ace5760011c80662386f26fc100000290662386f26fc10000820403611ace576064900490565b612454611c5f565b50600360ff8251160160ff8111611ace5760ff1681526020810160ff81511660ff8060031691160160ff8111611ace576124a160ff606492168084528260ff865116116124b15760ff1690565b116124aa575090565b6064905290565b82855260ff1690565b908160209103126102d557516105df816102c3565b6001600160a01b0391821681529116602082015260408101919091526080606082018190526105df929101906105a9565b3d1561252b573d90612511826109fc565b9161251f60405193846109da565b82523d6000602084013e565b606090565b600d541561256357600d60009081527fd7b6990105719101dabeb77144f2a3385c8033acd3af97e9423a695e81ad1eb591565b611222565b600d5481101561256357600d60005260206000200190600090565b600019810191908211611ace57565b90600754821015612563576007600052600582901c7fa66cc928b5edb82af9bd49922954155ab7b0942694bea4ce44661d9a8736c6880191601f1690565b9060018201809211611ace57565b9060028201809211611ace57565b6125f590611d61565b8015612685576007549060005b61260b83612583565b8110156126775761262e61037461262183612592565b905460ff9160031b1c1690565b82101580612658575b61264357600101612602565b6105df92506126529150612568565b50610f00565b5061267061037461262161266b846125d0565b612592565b8210612637565b5050506105df612652612530565b506105df612652612530565b604051906126a06040836109da565b600382526203238360ec1b6020830152565b9391949260409182516126c584826109da565b6002815261038360f41b60208201526126dd91612c9c565b9582516126ea84826109da565b600381526203138360ec1b602082015261270391612c9c565b9061270c612691565b61271591612c9c565b91517f3c73766720786d6c6e733d27687474703a2f2f7777772e77332e6f72672f323060208201527f30302f737667272076657273696f6e3d27312e312720786d6c6e733a786c696e60408201527f6b3d27687474703a2f2f7777772e77332e6f72672f313939392f786c696e6b2760608201527f20786d6c6e733a7376676a733d27687474703a2f2f7376676a732e636f6d2f7360808201527f76676a73272077696474683d2733303027206865696768743d2733303027207060a08201527f72657365727665417370656374526174696f3d276e6f6e65272076696577426f60c08201526f3c1e93981018101a9818101a9818139f60811b60e082015295869560f087017f3c726563742077696474683d273130302527206865696768743d2731303025278152662066696c6c3d2760c81b602082015260270161285a91611a21565b6213979f60e91b815260030161286f91611a21565b61287891611a21565b61288191611a21565b7f3c696d61676520783d273130302720793d273530272077696474683d2733303081527427206865696768743d273330302720687265663d2760581b60208201526035016128ce91611a21565b6213979f60e91b81526003017f3c7465787420783d273235302720793d27343230272066696c6c3d27626c616381527f6b2720666f6e742d73697a653d2732342720646f6d696e616e742d626173656c60208201527f696e653d276d6964646c652720746578742d616e63686f723d276d6964646c65604082015261139f60f11b606082015260620161296091611a21565b661e17ba32bc3a1f60c91b81526007017f3c7265637420783d27302720793d2730272077696474683d273530302720686581527f696768743d27353030272066696c6c3d276e6f6e6527207374726f6b653d272360208201527f30303030303027207374726f6b652d77696474683d2735272072783d2731352760408201526910393c9e93989a93979f60b11b6060820152606a01651e17b9bb339f60d11b815260060103601f19810182526105df90826109da565b60405190612a256060836109da565b604082527f6768696a6b6c6d6e6f707172737475767778797a303132333435363738392b2f6040837f4142434445464748494a4b4c4d4e4f505152535455565758595a61626364656660208201520152565b90815115612b5757612a87612a16565b91612aac612aa7612aa2612a9b84516125de565b6003900490565b6123e8565b6121bf565b9060208201908081518201956020870190815192600083525b888110612b095750506003939495965052510680600114612af657600214612aeb575090565b603d90600019015390565b50603d9081600019820153600119015390565b600360049199969901986001603f8b5182828260121c16870101518453828282600c1c16870101518385015382828260061c1687010151600285015316840101516003820153019497612ac5565b90506105df611b7e565b604051612b7e8161167460208201946020865260208601906105a9565b51902090604051612b9f8161167460208201946020865260208601906105a9565b5190201490565b6000828152600260205260409020546001600160a01b0316919082612c55575b6001600160a01b03811690612c089082612c31575b600084815260026020526040902080546001600160a01b0319166001600160a01b03909216919091179055565b827fddf252ad1be2c89b69c2b068fc378daa952ba7f163c4a11628f55a4df523b3ef600080a490565b6001600160a01b038116600090815260036020526040902060018154019055612bdb565b612c69826000526004602052604060002090565b80546001600160a01b03191690556001600160a01b03831660009081526003602052604090208054600019019055612bc6565b603491611674612dc66105df93609a604051968795733c636972636c652063783d273530272063793d2760601b6020880152805190612d5a6020820192612ce681868c0186610586565b8901917f2720723d273430272066696c6c3d272330306161666627207374726f6b653d27858401527f2330303030303027207374726f6b652d77696474683d273327202f3e0000000060548401526f3c7465787420783d2735302720793d2760801b60708401525180936080840190610586565b01017f272066696c6c3d27626c61636b2720666f6e742d73697a653d2732342720646f604c8201527f6d696e616e742d626173656c696e653d276d6964646c652720746578742d616e606c8201526d31b437b91e93b6b4b2323632939f60911b608c8201520190611a21565b661e17ba32bc3a1f60c91b81526007019056fea2646970667358221220e8ea5292a79d34d925cd1aeaebfd9d6f2737edfa99cf176b7be08ccd2b11e4c264736f6c634300081a003331ecc21a745e3968a04e9570e4425bc18fa8019c68028196b546d1669c200c68d7b6990105719101dabeb77144f2a3385c8033acd3af97e9423a695e81ad1eb51b6847dc741a1b0cd08d278845f9d819d87b734759afb55fe2de5cb82a9ae672","linkReferences":{}},"methodIdentifiers":{"BASE_PRICE_IN_MATIC()":"8aa33015","_ccipHandler()":"68b16779","_sign()":"f759e547","approve(address,uint256)":"095ea7b3","balanceOf(address)":"70a08231","calculateUpgrade((uint8,uint8,uint8,uint8))":"621167e6","changeCCIP(address)":"3e3c0740","getApproved(uint256)":"081812fc","getOwner(uint256)":"c41a360a","getSpecial(uint256)":"e1d916f7","getStat(string,uint256)":"d5784f15","getTokenStats(uint256)":"c5829514","isApprovedForAll(address,address)":"e985e9c5","itemImage__()":"caf72264","itemType()":"f5470d7b","lockStatus(uint256)":"d728f75c","lockedItemImage()":"6467007b","mint()":"1249c58b","mintPrice()":"6817c76c","name()":"06fdde03","newStatMap(bytes32)":"46838f30","owner()":"8da5cb5b","ownerOf(uint256)":"6352211e","powerLevel__(uint256)":"94a409d8","renounceOwnership()":"715018a6","safeTransferFrom(address,address,uint256)":"42842e0e","safeTransferFrom(address,address,uint256,bytes)":"b88d4fde","setApprovalForAll(address,bool)":"a22cb465","setMintPrice(uint256)":"f4a0a528","setSign(string)":"31fbbae2","setTokenLockStatus(uint256,uint256)":"08bbefef","statLabels(uint256)":"a50c8f2c","supportsInterface(bytes4)":"01ffc9a7","symbol()":"95d89b41","tokenLockedTill(uint256)":"05b1603f","tokenURI(uint256)":"c87b56dd","transfer(address,uint256)":"a9059cbb","transferFrom(address,address,uint256)":"23b872dd","transferOwnership(address)":"f2fde38b","updateStats(uint256,address,uint8,uint8,uint8,uint8)":"02ee9785","upgrade(uint256)":"45977d03","upgradeMapping(uint256)":"ad3d47d7"},"id":13}