{"abi":[{"type":"constructor","inputs":[],"stateMutability":"nonpayable"},{"type":"receive","stateMutability":"payable"},{"type":"function","name":"BASE_PRICE_IN_MATIC","inputs":[],"outputs":[{"name":"","type":"uint256","internalType":"uint256"}],"stateMutability":"view"},{"type":"function","name":"_ccipHandler","inputs":[],"outputs":[{"name":"","type":"address","internalType":"address"}],"stateMutability":"view"},{"type":"function","name":"approve","inputs":[{"name":"to","type":"address","internalType":"address"},{"name":"tokenId","type":"uint256","internalType":"uint256"}],"outputs":[],"stateMutability":"nonpayable"},{"type":"function","name":"balanceOf","inputs":[{"name":"owner","type":"address","internalType":"address"}],"outputs":[{"name":"","type":"uint256","internalType":"uint256"}],"stateMutability":"view"},{"type":"function","name":"calculateUpgrade","inputs":[{"name":"previousStat","type":"tuple","internalType":"struct RPGItemUtils.StatType","components":[{"name":"stat1","type":"uint8","internalType":"uint8"},{"name":"stat2","type":"uint8","internalType":"uint8"},{"name":"specialType","type":"uint8","internalType":"uint8"},{"name":"specialPoints","type":"uint8","internalType":"uint8"}]}],"outputs":[{"name":"","type":"tuple","internalType":"struct RPGItemUtils.StatType","components":[{"name":"stat1","type":"uint8","internalType":"uint8"},{"name":"stat2","type":"uint8","internalType":"uint8"},{"name":"specialType","type":"uint8","internalType":"uint8"},{"name":"specialPoints","type":"uint8","internalType":"uint8"}]}],"stateMutability":"nonpayable"},{"type":"function","name":"changeCCIP","inputs":[{"name":"newAdd","type":"address","internalType":"address"}],"outputs":[],"stateMutability":"nonpayable"},{"type":"function","name":"getApproved","inputs":[{"name":"tokenId","type":"uint256","internalType":"uint256"}],"outputs":[{"name":"","type":"address","internalType":"address"}],"stateMutability":"view"},{"type":"function","name":"getOwner","inputs":[{"name":"tokenId","type":"uint256","internalType":"uint256"}],"outputs":[{"name":"","type":"address","internalType":"address"}],"stateMutability":"view"},{"type":"function","name":"getSpecial","inputs":[{"name":"tokenId","type":"uint256","internalType":"uint256"}],"outputs":[{"name":"","type":"uint8","internalType":"uint8"},{"name":"","type":"uint8","internalType":"uint8"}],"stateMutability":"view"},{"type":"function","name":"getStat","inputs":[{"name":"statLabel","type":"string","internalType":"string"},{"name":"tokenId","type":"uint256","internalType":"uint256"}],"outputs":[{"name":"stat","type":"uint8","internalType":"uint8"}],"stateMutability":"view"},{"type":"function","name":"getTokenStats","inputs":[{"name":"tokenId","type":"uint256","internalType":"uint256"}],"outputs":[{"name":"","type":"uint8","internalType":"uint8"},{"name":"","type":"uint8","internalType":"uint8"},{"name":"","type":"uint8","internalType":"uint8"},{"name":"","type":"uint8","internalType":"uint8"}],"stateMutability":"view"},{"type":"function","name":"isApprovedForAll","inputs":[{"name":"owner","type":"address","internalType":"address"},{"name":"operator","type":"address","internalType":"address"}],"outputs":[{"name":"","type":"bool","internalType":"bool"}],"stateMutability":"view"},{"type":"function","name":"itemImage__","inputs":[],"outputs":[{"name":"","type":"string","internalType":"string"}],"stateMutability":"view"},{"type":"function","name":"itemType","inputs":[],"outputs":[{"name":"","type":"string","internalType":"string"}],"stateMutability":"view"},{"type":"function","name":"lockStatus","inputs":[{"name":"tokenId","type":"uint256","internalType":"uint256"}],"outputs":[{"name":"","type":"bool","internalType":"bool"}],"stateMutability":"view"},{"type":"function","name":"lockedItemImage","inputs":[],"outputs":[{"name":"","type":"string","internalType":"string"}],"stateMutability":"view"},{"type":"function","name":"mint","inputs":[],"outputs":[],"stateMutability":"payable"},{"type":"function","name":"mintPrice","inputs":[],"outputs":[{"name":"","type":"uint256","internalType":"uint256"}],"stateMutability":"view"},{"type":"function","name":"name","inputs":[],"outputs":[{"name":"","type":"string","internalType":"string"}],"stateMutability":"view"},{"type":"function","name":"newStatMap","inputs":[{"name":"","type":"bytes32","internalType":"bytes32"}],"outputs":[{"name":"stat1","type":"uint8","internalType":"uint8"},{"name":"stat2","type":"uint8","internalType":"uint8"},{"name":"specialType","type":"uint8","internalType":"uint8"},{"name":"specialPoints","type":"uint8","internalType":"uint8"}],"stateMutability":"view"},{"type":"function","name":"owner","inputs":[],"outputs":[{"name":"","type":"address","internalType":"address"}],"stateMutability":"view"},{"type":"function","name":"ownerOf","inputs":[{"name":"tokenId","type":"uint256","internalType":"uint256"}],"outputs":[{"name":"","type":"address","internalType":"address"}],"stateMutability":"view"},{"type":"function","name":"renounceOwnership","inputs":[],"outputs":[],"stateMutability":"nonpayable"},{"type":"function","name":"safeTransferFrom","inputs":[{"name":"from","type":"address","internalType":"address"},{"name":"to","type":"address","internalType":"address"},{"name":"tokenId","type":"uint256","internalType":"uint256"}],"outputs":[],"stateMutability":"nonpayable"},{"type":"function","name":"safeTransferFrom","inputs":[{"name":"from","type":"address","internalType":"address"},{"name":"to","type":"address","internalType":"address"},{"name":"tokenId","type":"uint256","internalType":"uint256"},{"name":"data","type":"bytes","internalType":"bytes"}],"outputs":[],"stateMutability":"nonpayable"},{"type":"function","name":"setApprovalForAll","inputs":[{"name":"operator","type":"address","internalType":"address"},{"name":"approved","type":"bool","internalType":"bool"}],"outputs":[],"stateMutability":"nonpayable"},{"type":"function","name":"setMintPrice","inputs":[{"name":"_mintPrice","type":"uint256","internalType":"uint256"}],"outputs":[],"stateMutability":"nonpayable"},{"type":"function","name":"setSign","inputs":[{"name":"sign","type":"string","internalType":"string"}],"outputs":[],"stateMutability":"nonpayable"},{"type":"function","name":"setTokenLockStatus","inputs":[{"name":"tokenId","type":"uint256","internalType":"uint256"},{"name":"unlockTime","type":"uint256","internalType":"uint256"}],"outputs":[],"stateMutability":"nonpayable"},{"type":"function","name":"statLabels","inputs":[{"name":"","type":"uint256","internalType":"uint256"}],"outputs":[{"name":"","type":"string","internalType":"string"}],"stateMutability":"view"},{"type":"function","name":"supportsInterface","inputs":[{"name":"interfaceId","type":"bytes4","internalType":"bytes4"}],"outputs":[{"name":"","type":"bool","internalType":"bool"}],"stateMutability":"view"},{"type":"function","name":"symbol","inputs":[],"outputs":[{"name":"","type":"string","internalType":"string"}],"stateMutability":"view"},{"type":"function","name":"tokenLockedTill","inputs":[{"name":"","type":"uint256","internalType":"uint256"}],"outputs":[{"name":"","type":"uint256","internalType":"uint256"}],"stateMutability":"view"},{"type":"function","name":"tokenURI","inputs":[{"name":"tokenId","type":"uint256","internalType":"uint256"}],"outputs":[{"name":"","type":"string","internalType":"string"}],"stateMutability":"view"},{"type":"function","name":"transfer","inputs":[{"name":"to","type":"address","internalType":"address"},{"name":"tokenId","type":"uint256","internalType":"uint256"}],"outputs":[],"stateMutability":"nonpayable"},{"type":"function","name":"transferFrom","inputs":[{"name":"from","type":"address","internalType":"address"},{"name":"to","type":"address","internalType":"address"},{"name":"tokenId","type":"uint256","internalType":"uint256"}],"outputs":[],"stateMutability":"nonpayable"},{"type":"function","name":"transferOwnership","inputs":[{"name":"newOwner","type":"address","internalType":"address"}],"outputs":[],"stateMutability":"nonpayable"},{"type":"function","name":"updateStats","inputs":[{"name":"tokenId","type":"uint256","internalType":"uint256"},{"name":"newOwner","type":"address","internalType":"address"},{"name":"stat1","type":"uint8","internalType":"uint8"},{"name":"stat2","type":"uint8","internalType":"uint8"},{"name":"specialType","type":"uint8","internalType":"uint8"},{"name":"specialPoints","type":"uint8","internalType":"uint8"}],"outputs":[{"name":"","type":"bool","internalType":"bool"}],"stateMutability":"nonpayable"},{"type":"function","name":"upgrade","inputs":[{"name":"tokenId","type":"uint256","internalType":"uint256"}],"outputs":[],"stateMutability":"payable"},{"type":"function","name":"upgradeMapping","inputs":[{"name":"","type":"uint256","internalType":"uint256"}],"outputs":[{"name":"stat1","type":"uint8","internalType":"uint8"},{"name":"stat2","type":"uint8","internalType":"uint8"},{"name":"specialType","type":"uint8","internalType":"uint8"},{"name":"specialPoints","type":"uint8","internalType":"uint8"}],"stateMutability":"view"},{"type":"event","name":"Approval","inputs":[{"name":"owner","type":"address","indexed":true,"internalType":"address"},{"name":"approved","type":"address","indexed":true,"internalType":"address"},{"name":"tokenId","type":"uint256","indexed":true,"internalType":"uint256"}],"anonymous":false},{"type":"event","name":"ApprovalForAll","inputs":[{"name":"owner","type":"address","indexed":true,"internalType":"address"},{"name":"operator","type":"address","indexed":true,"internalType":"address"},{"name":"approved","type":"bool","indexed":false,"internalType":"bool"}],"anonymous":false},{"type":"event","name":"NftMinted","inputs":[{"name":"recipient","type":"address","indexed":true,"internalType":"address"},{"name":"tokenId","type":"uint256","indexed":true,"internalType":"uint256"},{"name":"timestamp","type":"uint256","indexed":true,"internalType":"uint256"}],"anonymous":false},{"type":"event","name":"OwnershipTransferred","inputs":[{"name":"previousOwner","type":"address","indexed":true,"internalType":"address"},{"name":"newOwner","type":"address","indexed":true,"internalType":"address"}],"anonymous":false},{"type":"event","name":"Transfer","inputs":[{"name":"from","type":"address","indexed":true,"internalType":"address"},{"name":"to","type":"address","indexed":true,"internalType":"address"},{"name":"tokenId","type":"uint256","indexed":true,"internalType":"uint256"}],"anonymous":false},{"type":"event","name":"Transfer","inputs":[{"name":"sender","type":"address","indexed":true,"internalType":"address"},{"name":"amount","type":"uint256","indexed":true,"internalType":"uint256"}],"anonymous":false},{"type":"error","name":"ERC721IncorrectOwner","inputs":[{"name":"sender","type":"address","internalType":"address"},{"name":"tokenId","type":"uint256","internalType":"uint256"},{"name":"owner","type":"address","internalType":"address"}]},{"type":"error","name":"ERC721InsufficientApproval","inputs":[{"name":"operator","type":"address","internalType":"address"},{"name":"tokenId","type":"uint256","internalType":"uint256"}]},{"type":"error","name":"ERC721InvalidApprover","inputs":[{"name":"approver","type":"address","internalType":"address"}]},{"type":"error","name":"ERC721InvalidOperator","inputs":[{"name":"operator","type":"address","internalType":"address"}]},{"type":"error","name":"ERC721InvalidOwner","inputs":[{"name":"owner","type":"address","internalType":"address"}]},{"type":"error","name":"ERC721InvalidReceiver","inputs":[{"name":"receiver","type":"address","internalType":"address"}]},{"type":"error","name":"ERC721InvalidSender","inputs":[{"name":"sender","type":"address","internalType":"address"}]},{"type":"error","name":"ERC721NonexistentToken","inputs":[{"name":"tokenId","type":"uint256","internalType":"uint256"}]},{"type":"error","name":"OwnableInvalidOwner","inputs":[{"name":"owner","type":"address","internalType":"address"}]},{"type":"error","name":"OwnableUnauthorizedAccount","inputs":[{"name":"account","type":"address","internalType":"address"}]}],"bytecode":{"object":"0x608060405234610a8d576100136040610a92565b600581526414dddbdc9960da1b602082015261002f6040610a92565b6002815261535760f01b602082015281516001600160401b0381116105c757610059600054610ab7565b601f8111610a3f575b50602092601f82116001146109db576100959293829160009261080f575b50508160011b916000199060031b1c19161790565b6000555b80516001600160401b0381116105c7576100b4600154610ab7565b601f8111610981575b50602091601f821160011461091d576100ed926000918361080f5750508160011b916000199060031b1c19161790565b6001555b6006805473b1293a8bff9323aad0419e46dd9846cc7363d44b6001600160a01b0319821681179092556001600160a01b03167f8be0079c531659141344cd1fd0a4f28419497f9722a3daafe3b4186f6b6457e0600080a3610153601054610ab7565b601f81116108d2575b5060c360109081556000527f68747470733a2f2f75706c6f61642e77696b696d656469612e6f72672f77696b60008051602061386d833981519152557f6970656469612f636f6d6d6f6e732f7468756d622f352f35352f426974636f697f1b6847dc741a1b0cd08d278845f9d819d87b734759afb55fe2de5cb82a9ae673557f6e5f6c6f676f2e6a70672f36343070782d426974636f696e5f6c6f676f2e6a707f1b6847dc741a1b0cd08d278845f9d819d87b734759afb55fe2de5cb82a9ae67455606760f81b7f1b6847dc741a1b0cd08d278845f9d819d87b734759afb55fe2de5cb82a9ae6755560115461025190610ab7565b601f8111610887575b5060c760119081556000527f68747470733a2f2f706c756d2d6c6961626c652d6d6173746f646f6e2d34353060008051602061382d833981519152557f2e6d7970696e6174612e636c6f75642f697066732f516d615844344e4c4e39687f31ecc21a745e3968a04e9570e4425bc18fa8019c68028196b546d1669c200c69557f6e356362396a5464373866614d765533524e6d6633346776684c47736e7136377f31ecc21a745e3968a04e9570e4425bc18fa8019c68028196b546d1669c200c6a55627a733360e81b7f31ecc21a745e3968a04e9570e4425bc18fa8019c68028196b546d1669c200c6b556013805463ffffffff191663281e140a179055604080519081018181106001600160401b038211176105c75760405261037e6040610a92565b60028152616c3160f01b602082015281526103996040610a92565b6002815261361960f11b60208201526020820152600b906000905b600282106107a7576103c7600e54610ab7565b601f8111610768575b50600c653bb2b0b837b760d11b01600e55604051606081016001600160401b038111828210176105c7576040526104076040610a92565b600781526611b3193319331960c91b602082015281526104276040610a92565b60078152661199331933193360c91b6020820152602082015261044a6040610a92565b60078152662364656465646560c81b60208201526040820152600d546003600d55806003106106c3575b50600d600090815260008051602061384d833981519152915b600382106105dd57604051608081016001600160401b038111828210176105c75760405260008152600a602082015260146040820152601e6060820152600754600460075580600410610560575b506007600052602060002060009160005b6004811061053c57505055601280546001600160a01b03191673a1293a8bff9323aad0419e46dd9846cc7363d44b179055662386f26fc100006008556001600a55604051612ce89081610b458239f35b9092602060019160ff8651169060ff8560031b92831b921b191617940191016104ec565b60076000527fa66cc928b5edb82af9bd49922954155ab7b0942694bea4ce44661d9a8736c688805463ffffffff1681556105c191601f0160051c017fa66cc928b5edb82af9bd49922954155ab7b0942694bea4ce44661d9a8736c689610af1565b816104db565b634e487b7160e01b600052604160045260246000fd5b80518051906001600160401b0382116105c757610604826105fe8754610ab7565b87610b08565b602090601f8311600114610656579261063c8360019594602094879660009261064b5750508160011b916000199060031b1c19161790565b86555b0193019101909161048d565b015190508980610080565b90601f1983169186600052816000209260005b8181106106ab5750936020936001969387969383889510610692575b505050811b01865561063f565b015160001960f88460031b161c19169055888080610685565b82840151855560019094019360209384019301610669565b600d60005260008051602061384d833981519152017fd7b6990105719101dabeb77144f2a3385c8033acd3af97e9423a695e81ad1eb85b8181106107075750610474565b8061071460019254610ab7565b80610721575b50016106fa565b601f811183146107375750600081555b8461071a565b610755908260005283601f6020600020920160051c82019101610af1565b8060005260006020812081835555610731565b600e6000526107a190601f0160051c7fbb7b4a454dc3493923482f07822329ed19e8244eff582cc204f8554c3620c3fd90810190610af1565b806103d0565b80518051906001600160401b0382116105c7576107c8826105fe8754610ab7565b602090601f831160011461081a57926108008360019594602094879660009261080f5750508160011b916000199060031b1c19161790565b86555b019301910190916103b4565b015190503880610080565b90601f1983169186600052816000209260005b81811061086f5750936020936001969387969383889510610856575b505050811b018655610803565b015160001960f88460031b161c19169055388080610849565b8284015185556001909401936020938401930161082d565b60116000526108cc90601f0160051c60008051602061382d833981519152017f31ecc21a745e3968a04e9570e4425bc18fa8019c68028196b546d1669c200c6c610af1565b3861025a565b601060005261091790601f0160051c60008051602061386d833981519152017f1b6847dc741a1b0cd08d278845f9d819d87b734759afb55fe2de5cb82a9ae676610af1565b3861015c565b601f198216926001600052806000209160005b85811061096957508360019510610950575b505050811b016001556100f1565b015160001960f88460031b161c19169055388080610942565b91926020600181928685015181550194019201610930565b60016000526109cb907fb10e2d527612073b26eecdfd717e6a320cf44b4afac2b0732d9fcbe2b7fa0cf6601f840160051c810191602085106109d1575b601f0160051c0190610af1565b386100bd565b90915081906109be565b601f1982169360008052806000209160005b868110610a275750836001959610610a0e575b505050811b01600055610099565b015160001960f88460031b161c19169055388080610a00565b919260206001819286850151815501940192016109ed565b60008052610a87907f290decd9548b62a8d60345a988386fc84ba6bc95484008f6362f93160ef3e563601f840160051c810191602085106109d157601f0160051c0190610af1565b38610062565b600080fd5b6040519190601f01601f191682016001600160401b038111838210176105c757604052565b90600182811c92168015610ae7575b6020831014610ad157565b634e487b7160e01b600052602260045260246000fd5b91607f1691610ac6565b818110610afc575050565b60008155600101610af1565b9190601f8111610b1757505050565b610b42926000526020600020906020601f840160051c830193106109d157601f0160051c0190610af1565b56fe60806040526004361015610023575b361561001957600080fd5b610021611e88565b005b60003560e01c806301ffc9a71461029e57806302ee97851461029957806305b1603f1461029457806306fdde031461028f578063081812fc1461028a57806308bbefef14610285578063095ea7b3146102805780631249c58b1461027b57806323b872dd1461027657806331fbbae2146102715780633e3c07401461026c57806342842e0e1461026757806345977d031461026257806346838f301461025d578063621167e6146102585780636352211e146102125780636467007b146102535780636817c76c1461024e57806368b167791461024957806370a0823114610244578063715018a61461023f5780638aa330151461023a5780638da5cb5b1461023557806395d89b4114610230578063a22cb4651461022b578063a50c8f2c14610226578063a9059cbb14610221578063ad3d47d71461021c578063b88d4fde14610217578063c41a360a14610212578063c58295141461020d578063c87b56dd14610208578063caf7226414610203578063d5784f15146101fe578063d728f75c146101f9578063e1d916f7146101f4578063e985e9c5146101ef578063f2fde38b146101ea578063f4a0a528146101e55763f5470d7b0361000e576118d5565b6118b4565b61182a565b6117cd565b61174a565b611714565b6116ca565b6116a4565b61145d565b611339565b610d90565b6112d9565b61127f565b61120a565b6111bc565b6110ec565b611044565b61101b565b610ff9565b610f9c565b610f46565b610f1d565b610eff565b610ebe565b610d08565b610cae565b610b95565b610b6b565b610b28565b610a14565b61090d565b610824565b610716565b6106d6565b610698565b6105c2565b61053a565b6103ba565b6102ba565b6001600160e01b03198116036102b557565b600080fd5b346102b55760203660031901126102b55760206004356102d9816102a3565b63ffffffff60e01b166380ac58cd60e01b8114908115610317575b8115610306575b506040519015158152f35b6301ffc9a760e01b149050386102fb565b635b5e139f60e01b811491506102f4565b602435906001600160a01b03821682036102b557565b600435906001600160a01b03821682036102b557565b60ff1690565b6044359060ff821682036102b557565b6064359060ff821682036102b557565b6084359060ff821682036102b557565b60a4359060ff821682036102b557565b6004359060ff821682036102b557565b6024359060ff821682036102b557565b346102b55760c03660031901126102b5576004356103d6610328565b6103de61035a565b916103e761036a565b926103f061037a565b926103f961038a565b9361040f60018060a01b036012541633146118fb565b6001600160a01b038216918215610501576104a99661048c61048361047e886104a097610496968261046561045960609e600052600260205260018060a01b036040600020541690565b6001600160a01b031690565b156104b9575b5050506000526014602052604060002090565b611947565b60ff9096168652565b60ff166020850152565b60ff166040830152565b019060ff169052565b60405160018152602090f35b0390f35b6104c291611eb1565b6000828152601560205260408120558142917ffc612aad4e70fb3e1d4832d8c65f92e4024aa87f809d131267a79bceee757f33600080a438808261046b565b60405162461bcd60e51b815260206004820152601160248201527024b73b30b634b2103732bb9037bbb732b960791b6044820152606490fd5b346102b55760203660031901126102b55760043560005260156020526020604060002054604051908152f35b60005b8381106105795750506000910152565b8181015183820152602001610569565b906020916105a281518092818552858086019101610566565b601f01601f1916010190565b9060206105bf928181520190610589565b90565b346102b55760003660031901126102b557604051600080546105e381610dd1565b80845290600181169081156106745750600114610617575b6104b58361060b81850382610984565b604051918291826105ae565b60008080527f290decd9548b62a8d60345a988386fc84ba6bc95484008f6362f93160ef3e563939250905b80821061065a5750909150810160200161060b6105fb565b919260018160209254838588010152019101909291610642565b60ff191660208086019190915291151560051b8401909101915061060b90506105fb565b346102b55760203660031901126102b5576004356106b581611fdb565b506000526004602052602060018060a01b0360406000205416604051908152f35b346102b55760403660031901126102b5576004356024359061070360018060a01b036012541633146118fb565b6000526015602052604060002055600080f35b346102b55760403660031901126102b55761072f61033e565b6024359061073c82611fdb565b33151580610811575b806107cf575b6107ba576100219261079b9181906001600160a01b0385811691167f8c5be1e5ebec7d5bd14f71427d1e84f3dd0314c0f7b2291e5b200ac8c7c3b925600080a46000526004602052604060002090565b80546001600160a01b0319166001600160a01b03909216919091179055565b63a9fbf51f60e01b6000523360045260246000fd5b5060ff610809336107f28460018060a01b03166000526005602052604060002090565b9060018060a01b0316600052602052604060002090565b54161561074b565b506001600160a01b038116331415610745565b60003660031901126102b55760085434036108995760095460001981146108945761085160018201600955565b61085b8133611eb1565b6000818152601560205260408120554290337ffc612aad4e70fb3e1d4832d8c65f92e4024aa87f809d131267a79bceee757f33600080a4005b61197f565b60405162461bcd60e51b815260206004820152601260248201527124b739bab33334b1b4b2b73a1022ba3432b960711b6044820152606490fd5b60609060031901126102b5576004356001600160a01b03811681036102b557906024356001600160a01b03811681036102b5579060443590565b346102b55761002161091e366108d3565b9161093460018060a01b036012541633146118fb565b6109486001600160a01b0383161515611995565b612012565b634e487b7160e01b600052604160045260246000fd5b6080810190811067ffffffffffffffff82111761097f57604052565b61094d565b90601f8019910116810190811067ffffffffffffffff82111761097f57604052565b67ffffffffffffffff811161097f57601f01601f191660200190565b9291926109ce826109a6565b916109dc6040519384610984565b8294818452818301116102b5578281602093846000960137010152565b9080601f830112156102b5578160206105bf933591016109c2565b346102b55760203660031901126102b55760043567ffffffffffffffff81116102b557610a459036906004016109f9565b805167ffffffffffffffff811161097f57610a6a81610a65600f54610dd1565b6119ed565b602091601f8211600114610aaa57610a9a9260009183610a9f575b50508160011b916000199060031b1c19161790565b600f55005b015190503880610a85565b600f600052601f198216927f8d1108e10bcb7c27dddfc02ed9d693a074039d026cf4ea4240b40f7d581ac8029160005b858110610b1057508360019510610af7575b505050811b01600f55005b015160001960f88460031b161c19169055388080610aec565b91926020600181928685015181550194019201610ada565b346102b55760203660031901126102b557610b4161033e565b610b49612088565b601280546001600160a01b0319166001600160a01b0392909216919091179055005b346102b557610021610b7c366108d3565b9060405192610b8c602085610984565b60008452611c0f565b60203660031901126102b557610021600435600081815260026020526040902054610bca906001600160a01b03161515611a55565b806000526015602052610be4604060002054421015611a97565b806000526014602052610c56610c31604060002060ff60405191610c0783610963565b548181168352818160081c166020840152818160101c16604084015260181c166060820152611b46565b91610c46610c3e846120c9565b341015611ad5565b6000526014602052604060002090565b815181546020840151604085015160609095015163ffffffff1990921660ff939093169290921760089290921b61ff00169190911760109390931b62ff0000169290921760189290921b63ff00000016919091179055565b346102b55760203660031901126102b55760043560009081526016602090815260409182902054825160ff8083168252600883901c811693820193909352601082901c83169381019390935260181c166060820152608090f35b346102b55760803660031901126102b5576080610d60604051610d2a81610963565b610d3261039a565b8152610d3c6103aa565b6020820152610d4961035a565b6040820152610d5661036a565b6060820152611b46565b60ff6060604051928281511684528260208201511660208501528260408201511660408501520151166060820152f35b346102b55760203660031901126102b5576004356000908152600260209081526040909120546001600160a01b03166040516001600160a01b039091168152f35b90600182811c92168015610e01575b6020831014610deb57565b634e487b7160e01b600052602260045260246000fd5b91607f1691610de0565b60009291815491610e1b83610dd1565b8083529260018116908115610e715750600114610e3757505050565b60009081526020812093945091925b838310610e57575060209250010190565b600181602092949394548385870101520191019190610e46565b915050602093945060ff929192191683830152151560051b010190565b60405190610ea882610ea1816000610e0b565b0383610984565b565b90610ea8610ea19260405193848092610e0b565b346102b55760003660031901126102b5576104b5604051610eeb81610ee4816011610e0b565b0382610984565b604051918291602083526020830190610589565b346102b55760003660031901126102b5576020600854604051908152f35b346102b55760003660031901126102b5576012546040516001600160a01b039091168152602090f35b346102b55760203660031901126102b5576001600160a01b03610f6761033e565b168015610f865760005260036020526020604060002054604051908152f35b6322718ad960e21b600052600060045260246000fd5b346102b55760003660031901126102b557610fb5612088565b600680546001600160a01b031981169091556000906001600160a01b03167f8be0079c531659141344cd1fd0a4f28419497f9722a3daafe3b4186f6b6457e08280a3005b346102b55760003660031901126102b5576020604051662386f26fc100008152f35b346102b55760003660031901126102b5576006546040516001600160a01b039091168152602090f35b346102b55760003660031901126102b557604051600060015461106681610dd1565b8084529060018116908115610674575060011461108d576104b58361060b81850382610984565b600160009081527fb10e2d527612073b26eecdfd717e6a320cf44b4afac2b0732d9fcbe2b7fa0cf6939250905b8082106110d25750909150810160200161060b6105fb565b9192600181602092548385880101520191019092916110ba565b346102b55760403660031901126102b55761110561033e565b6024358015158082036102b5576001600160a01b038316928315611191573360009081526005602090815260408083206001600160a01b039094168352929052209060ff801983541691161790557f17307eab39ab6107e8899845ad3d59bd9653f200f220920489ca2b5937696c316040518061118c339482919091602081019215159052565b0390a3005b83630b61174360e31b60005260045260246000fd5b634e487b7160e01b600052603260045260246000fd5b346102b55760203660031901126102b55760043560028110156102b557610ea1906111f260009160405193848092600b01610e0b565b6104b560405192839250602083526020830190610589565b346102b55760403660031901126102b55761002161122661033e565b6024359081600052600260205261124b60018060a01b03604060002054161515611a55565b816000526015602052611265604060002054421015611a97565b6112796001600160a01b0382161515611995565b33612012565b346102b55760203660031901126102b55760043560009081526014602090815260409182902054825160ff8083168252600883901c811693820193909352601082901c83169381019390935260181c166060820152608090f35b346102b55760803660031901126102b5576112f261033e565b6112fa610328565b906044356064359267ffffffffffffffff84116102b557366023850112156102b5576113336100219436906024816004013591016109c2565b92611c0f565b346102b55760203660031901126102b557600435600081815260026020526040902054611370906001600160a01b03161515611a55565b600052601460205260406000206040519061138a82610963565b546104b560ff82169182845261142e6113c9602086019460ff8460081c16865260ff60606040890198828760101c168a52019460181c16845260ff1690565b6113ec61142461141c61140f6114076113fa6113f2601354976113ec8960ff1690565b90611d34565b9a5160ff1690565b600887901c60ff166113ec565b995160ff1690565b601085901c60ff166113ec565b945160ff1690565b9160181c60ff1690565b9060405194859485929360ff809296958160609581608089019a16885216602087015216604085015216910152565b346102b55760203660031901126102b5576104b56115f861060b6116066115ea61152861152d816004356000818152600260205260409020546114aa906001600160a01b03161515611a55565b6114c1816000526015602052604060002054421090565b8015611695576114cf611d48565b905b6000811561167a57506114e2611d6d565b925b6000821561165a57506114f5611d6d565b905b82156116435750611506611d6d565b915b1561163b576011935b61152261151c610e8e565b95610eaa565b9361258b565b612950565b6115f86040519384926115e46115ae61156d60208701601c907f7b226e616d65223a2022455448205761746368696e6720535647222c0000000081520190565b7f226465736372697074696f6e223a2022416e204175746f6d617465642045544881526e081d1c9858dada5b99c814d591c88b608a1b6020820152602f0190565b7f22696d616765223a2022646174613a696d6167652f7376672b786d6c3b626173815263194d8d0b60e21b602082015260240190565b90611d8d565b61227d60f01b815260020190565b03601f198101835282610984565b6040517f646174613a6170706c69636174696f6e2f6a736f6e3b6261736536342c0000006020820152928391603d83016115e4565b601093611511565b61164f611654916124e4565b61238c565b91611508565b5061167461164f6103548361166f600c610eaa565b611da4565b906114f7565b5061168f61164f6103548561166f600b610eaa565b926114e4565b61169e826122b5565b906114d1565b346102b55760003660031901126102b5576104b5604051610eeb81610ee4816010610e0b565b346102b55760403660031901126102b55760043567ffffffffffffffff81116102b55761170961170060209236906004016109f9565b60243590611da4565b60ff60405191168152f35b346102b55760203660031901126102b55760206117406004356000526015602052604060002054421090565b6040519015158152f35b346102b55760203660031901126102b557600435600081815260026020526040902054611781906001600160a01b03161515611a55565b80600052601560205261179b604060002054421015611a97565b60009081526014602090815260409182902054825160ff601083901c8116825260189290921c90911691810191909152f35b346102b55760403660031901126102b557602060ff61181e6117ed61033e565b6117f5610328565b6001600160a01b0391821660009081526005865260408082209290931681526020919091522090565b54166040519015158152f35b346102b55760203660031901126102b55761184361033e565b61184b612088565b6001600160a01b0316801561189e57600680546001600160a01b0319811683179091556001600160a01b03167f8be0079c531659141344cd1fd0a4f28419497f9722a3daafe3b4186f6b6457e0600080a3005b631e4fbdf760e01b600052600060045260246000fd5b346102b55760203660031901126102b5576004356118d0612088565b600855005b346102b55760003660031901126102b5576104b5604051610eeb81610ee481600e610e0b565b1561190257565b60405162461bcd60e51b815260206004820152601d60248201527f43616c6c6572206973206e6f7420746865204343495020726f757465720000006044820152606490fd5b9060405161195481610963565b606060ff8294548181168452818160081c166020850152818160101c16604085015260181c16910152565b634e487b7160e01b600052601160045260246000fd5b1561199c57565b60405162461bcd60e51b8152602060048201526024808201527f4552433732313a207472616e7366657220746f20746865207a65726f206164646044820152637265737360e01b6064820152608490fd5b601f81116119f9575050565b600f6000526020600020906020601f840160051c83019310611a36575b601f0160051c01905b818110611a2a575050565b60008155600101611a1f565b9091508190611a16565b60405190611a4f602083610984565b60008252565b15611a5c57565b60405162461bcd60e51b8152602060048201526013602482015272151bdad95b881a5cc81b9bdd08135a5b9d1959606a1b6044820152606490fd5b15611a9e57565b60405162461bcd60e51b815260206004820152600f60248201526e151bdad95b881a5cc81b1bd8dad959608a1b6044820152606490fd5b15611adc57565b60405162461bcd60e51b815260206004820152601d60248201527f696e73756666696369656e742066756e6420666f7220757067726164650000006044820152606490fd5b60405190611b2e82610963565b60006060838281528260208201528260408201520152565b611b4e611b21565b508051812080600052601660205260406000209160ff60405193611b7185610963565b548181168552818160081c166020860152818160101c16604086015260181c1660608401528260ff815116159081611bff575b81611bef575b81611bdf575b50611bba57505090565b610c56925090611bcc6105bf92612115565b9283916000526016602052604060002090565b60ff915060600151161538611bb0565b604081015160ff16159150611baa565b602081015160ff16159150611ba4565b9092611c2660018060a01b036012541633146118fb565b6001600160a01b038416611c3b811515611995565b611c46848685612012565b843b611c54575b5050505050565b611c7b93600060209460405196879586948593630a85bd0160e11b85523360048601612198565b03925af160009181611d03575b50611cc45750611c966121c9565b8051919082611cbd57633250574960e11b6000526001600160a01b03821660045260246000fd5b9050602001fd5b6001600160e01b03191663757a42ff60e11b01611ce657503880808080611c4d565b633250574960e11b6000526001600160a01b031660045260246000fd5b611d2691925060203d602011611d2d575b611d1e8183610984565b810190612183565b9038611c88565b503d611d14565b9060ff8091169116019060ff821161089457565b60405190611d57604083610984565b60078252660233830383038360cc1b6020830152565b60405190611d7c604083610984565b60028252613f3f60f01b6020830152565b90611da060209282815194859201610566565b0190565b6000828152600260205260409020546105bf929190611dcd906001600160a01b03161515611a55565b816000526015602052611de7604060002054421015611a97565b611e02604051611dfc81610ee481600b610e0b565b82612a3a565b15611e345750611e29611e226105bf926000526014602052604060002090565b5460ff1690565b60135460ff166113ec565b604051611e4f91611e4a82610ea181600c610e0b565b612a3a565b15611e825760ff611e6d6105bf926000526014602052604060002090565b5460081c166113ec60135460ff9060081c1690565b50600090565b34337f69ca02dd4edd7bf0a4abb9ed3b7af3f14778db5d61921c7dc7cd545266326de2600080a3565b604051602092611ec18483610984565b600082526001600160a01b038316908115611fc5576001600160a01b03611ee88286612a7f565b16611faf57833b611efa575050505050565b918495939491611f24936000604051809681958294630a85bd0160e11b8452843360048601612198565b03925af160009181611f90575b50611f6b575050611f406121c9565b80519283611f6657633250574960e11b6000526001600160a01b03831660045260246000fd5b019050fd5b9092506001600160e01b03191663757a42ff60e11b01611ce657503880808080611c4d565b611fa8919250853d8711611d2d57611d1e8183610984565b9038611f31565b6339e3563760e11b600052600060045260246000fd5b633250574960e11b600052600060045260246000fd5b6000818152600260205260409020546001600160a01b0316908115611ffe575090565b637e27328960e01b60005260045260246000fd5b919291906001600160a01b03811615611fc5576001600160a01b0390612039908590612a7f565b1690816120555783637e27328960e01b60005260045260246000fd5b919290916001600160a01b031680830361206e57505050565b6364283d7b60e01b60005260045260245260445260646000fd5b6006546001600160a01b0316330361209c57565b63118cdaa760e01b6000523360045260246000fd5b600281901b91906001600160fe1b0381160361089457565b60ff602081835116920151168101809111610894576064810290808204606414901517156108945760011c80662386f26fc100000290662386f26fc10000820403610894576064900490565b61211d611b21565b50600360ff8251160160ff81116108945760ff1681526020810160ff81511660ff8060031691160160ff81116108945761216a60ff606492168084528260ff8651161161217a5760ff1690565b11612173575090565b6064905290565b82855260ff1690565b908160209103126102b557516105bf816102a3565b6001600160a01b0391821681529116602082015260408101919091526080606082018190526105bf92910190610589565b3d156121f4573d906121da826109a6565b916121e86040519384610984565b82523d6000602084013e565b606090565b600d541561222c57600d60009081527fd7b6990105719101dabeb77144f2a3385c8033acd3af97e9423a695e81ad1eb591565b6111a6565b600d5481101561222c57600d60005260206000200190600090565b60001981019190821161089457565b9060075482101561222c576007600052600582901c7fa66cc928b5edb82af9bd49922954155ab7b0942694bea4ce44661d9a8736c6880191601f1690565b906001820180921161089457565b906002820180921161089457565b6122be906124e4565b801561234e576007549060005b6122d48361224c565b811015612340576122f76103546122ea8361225b565b905460ff9160031b1c1690565b82101580612321575b61230c576001016122cb565b6105bf925061231b9150612231565b50610eaa565b506123396103546122ea61233484612299565b61225b565b8210612300565b5050506105bf61231b6121f9565b506105bf61231b6121f9565b90612364826109a6565b6123716040519182610984565b8281528092612382601f19916109a6565b0190602036910137565b8060009172184f03e93ff9f4daa797ed6e38ed64bf6a1f0160401b8210156124c1575b806d04ee2d6d415b85acef8100000000600a9210156124a5575b662386f26fc10000811015612490575b6305f5e10081101561247e575b61271081101561246e575b606481101561245f575b1015612454575b61243f60216124136001850161235a565b938401015b60001901916f181899199a1a9b1b9c1cb0b131b232b360811b600a82061a8353600a900490565b801561244f5761243f9091612418565b505090565b600190910190612402565b600290606490049301926123fb565b60049061271090049301926123f1565b6008906305f5e10090049301926123e6565b601090662386f26fc1000090049301926123d9565b6020906d04ee2d6d415b85acef810000000090049301926123c9565b506040915072184f03e93ff9f4daa797ed6e38ed64bf6a1f0160401b81046123af565b60005260146020526105bf61035461256160406000206113ec6125406040519261250d84610963565b549260ff841690818152606060ff6020830196818160081c168852818160101c16604085015260181c1691015260ff1690565b6113ec61255761141c601354936113ec8560ff1690565b9160081c60ff1690565b60011c607f1690565b60405190612579604083610984565b600382526203238360ec1b6020830152565b93919492604091825161259e8482610984565b6002815261038360f41b60208201526125b691612b75565b9582516125c38482610984565b600381526203138360ec1b60208201526125dc91612b75565b906125e561256a565b6125ee91612b75565b91517f3c73766720786d6c6e733d27687474703a2f2f7777772e77332e6f72672f323060208201527f30302f737667272076657273696f6e3d27312e312720786d6c6e733a786c696e60408201527f6b3d27687474703a2f2f7777772e77332e6f72672f313939392f786c696e6b2760608201527f20786d6c6e733a7376676a733d27687474703a2f2f7376676a732e636f6d2f7360808201527f76676a73272077696474683d2733303027206865696768743d2733303027207060a08201527f72657365727665417370656374526174696f3d276e6f6e65272076696577426f60c08201526f3c1e93981018101a9818101a9818139f60811b60e082015295869560f087017f3c726563742077696474683d273130302527206865696768743d2731303025278152662066696c6c3d2760c81b602082015260270161273391611d8d565b6213979f60e91b815260030161274891611d8d565b61275191611d8d565b61275a91611d8d565b7f3c696d61676520783d273130302720793d273530272077696474683d2733303081527427206865696768743d273330302720687265663d2760581b60208201526035016127a791611d8d565b6213979f60e91b81526003017f3c7465787420783d273235302720793d27343230272066696c6c3d27626c616381527f6b2720666f6e742d73697a653d2732342720646f6d696e616e742d626173656c60208201527f696e653d276d6964646c652720746578742d616e63686f723d276d6964646c65604082015261139f60f11b606082015260620161283991611d8d565b661e17ba32bc3a1f60c91b81526007017f3c7265637420783d27302720793d2730272077696474683d273530302720686581527f696768743d27353030272066696c6c3d276e6f6e6527207374726f6b653d272360208201527f30303030303027207374726f6b652d77696474683d2735272072783d2731352760408201526910393c9e93989a93979f60b11b6060820152606a01651e17b9bb339f60d11b815260060103601f19810182526105bf9082610984565b604051906128fe606083610984565b604082527f6768696a6b6c6d6e6f707172737475767778797a303132333435363738392b2f6040837f4142434445464748494a4b4c4d4e4f505152535455565758595a61626364656660208201520152565b90815115612a30576129606128ef565b9161298561298061297b61297484516122a7565b6003900490565b6120b1565b61235a565b9060208201908081518201956020870190815192600083525b8881106129e257505060039394959650525106806001146129cf576002146129c4575090565b603d90600019015390565b50603d9081600019820153600119015390565b600360049199969901986001603f8b5182828260121c16870101518453828282600c1c16870101518385015382828260061c168701015160028501531684010151600382015301949761299e565b90506105bf611a40565b604051612a57816115f86020820194602086526020860190610589565b51902090604051612a78816115f86020820194602086526020860190610589565b5190201490565b6000828152600260205260409020546001600160a01b0316919082612b2e575b6001600160a01b03811690612ae19082612b0a575b600084815260026020526040902080546001600160a01b0319166001600160a01b03909216919091179055565b827fddf252ad1be2c89b69c2b068fc378daa952ba7f163c4a11628f55a4df523b3ef600080a490565b6001600160a01b038116600090815260036020526040902060018154019055612ab4565b612b42826000526004602052604060002090565b80546001600160a01b03191690556001600160a01b03831660009081526003602052604090208054600019019055612a9f565b6034916115f8612c9f6105bf93609a604051968795733c636972636c652063783d273530272063793d2760601b6020880152805190612c336020820192612bbf81868c0186610566565b8901917f2720723d273430272066696c6c3d272330306161666627207374726f6b653d27858401527f2330303030303027207374726f6b652d77696474683d273327202f3e0000000060548401526f3c7465787420783d2735302720793d2760801b60708401525180936080840190610566565b01017f272066696c6c3d27626c61636b2720666f6e742d73697a653d2732342720646f604c8201527f6d696e616e742d626173656c696e653d276d6964646c652720746578742d616e606c8201526d31b437b91e93b6b4b2323632939f60911b608c8201520190611d8d565b661e17ba32bc3a1f60c91b81526007019056fea264697066735822122041988cbd6bc8b1d61dde3bdb24e2497a03332ddce812b7dcbd5e28fb38972e7c64736f6c634300081a003331ecc21a745e3968a04e9570e4425bc18fa8019c68028196b546d1669c200c68d7b6990105719101dabeb77144f2a3385c8033acd3af97e9423a695e81ad1eb51b6847dc741a1b0cd08d278845f9d819d87b734759afb55fe2de5cb82a9ae672","linkReferences":{}},"methodIdentifiers":{"BASE_PRICE_IN_MATIC()":"8aa33015","_ccipHandler()":"68b16779","approve(address,uint256)":"095ea7b3","balanceOf(address)":"70a08231","calculateUpgrade((uint8,uint8,uint8,uint8))":"621167e6","changeCCIP(address)":"3e3c0740","getApproved(uint256)":"081812fc","getOwner(uint256)":"c41a360a","getSpecial(uint256)":"e1d916f7","getStat(string,uint256)":"d5784f15","getTokenStats(uint256)":"c5829514","isApprovedForAll(address,address)":"e985e9c5","itemImage__()":"caf72264","itemType()":"f5470d7b","lockStatus(uint256)":"d728f75c","lockedItemImage()":"6467007b","mint()":"1249c58b","mintPrice()":"6817c76c","name()":"06fdde03","newStatMap(bytes32)":"46838f30","owner()":"8da5cb5b","ownerOf(uint256)":"6352211e","renounceOwnership()":"715018a6","safeTransferFrom(address,address,uint256)":"42842e0e","safeTransferFrom(address,address,uint256,bytes)":"b88d4fde","setApprovalForAll(address,bool)":"a22cb465","setMintPrice(uint256)":"f4a0a528","setSign(string)":"31fbbae2","setTokenLockStatus(uint256,uint256)":"08bbefef","statLabels(uint256)":"a50c8f2c","supportsInterface(bytes4)":"01ffc9a7","symbol()":"95d89b41","tokenLockedTill(uint256)":"05b1603f","tokenURI(uint256)":"c87b56dd","transfer(address,uint256)":"a9059cbb","transferFrom(address,address,uint256)":"23b872dd","transferOwnership(address)":"f2fde38b","updateStats(uint256,address,uint8,uint8,uint8,uint8)":"02ee9785","upgrade(uint256)":"45977d03","upgradeMapping(uint256)":"ad3d47d7"},"id":13}