{"abi":[{"type":"constructor","inputs":[{"name":"itemType__","type":"string","internalType":"string"},{"name":"tokenName__","type":"string","internalType":"string"},{"name":"tokenSymbol__","type":"string","internalType":"string"},{"name":"labels__","type":"string[2]","internalType":"string[2]"},{"name":"baseStat__","type":"uint8[]","internalType":"uint8[]"},{"name":"initialOwner__","type":"address","internalType":"address"},{"name":"svgColors__","type":"string[]","internalType":"string[]"},{"name":"colorRanges__","type":"uint8[]","internalType":"uint8[]"},{"name":"ccipHandler","type":"address","internalType":"address"},{"name":"mintPrice__","type":"uint256","internalType":"uint256"},{"name":"parentChainId__","type":"uint256","internalType":"uint256"}],"stateMutability":"nonpayable"},{"type":"receive","stateMutability":"payable"},{"type":"function","name":"BASE_PRICE_IN_MATIC","inputs":[],"outputs":[{"name":"","type":"uint256","internalType":"uint256"}],"stateMutability":"view"},{"type":"function","name":"_ccipHandler","inputs":[],"outputs":[{"name":"","type":"address","internalType":"address"}],"stateMutability":"view"},{"type":"function","name":"approve","inputs":[{"name":"to","type":"address","internalType":"address"},{"name":"tokenId","type":"uint256","internalType":"uint256"}],"outputs":[],"stateMutability":"nonpayable"},{"type":"function","name":"balanceOf","inputs":[{"name":"owner","type":"address","internalType":"address"}],"outputs":[{"name":"","type":"uint256","internalType":"uint256"}],"stateMutability":"view"},{"type":"function","name":"burn","inputs":[{"name":"tokenId","type":"uint256","internalType":"uint256"}],"outputs":[],"stateMutability":"nonpayable"},{"type":"function","name":"calculatePrice","inputs":[{"name":"stat","type":"tuple","internalType":"struct RPGItemNFT.StatType","components":[{"name":"stat1","type":"uint8","internalType":"uint8"},{"name":"stat2","type":"uint8","internalType":"uint8"},{"name":"specialType","type":"uint8","internalType":"uint8"},{"name":"specialPoints","type":"uint8","internalType":"uint8"}]}],"outputs":[{"name":"","type":"uint256","internalType":"uint256"}],"stateMutability":"view"},{"type":"function","name":"calculateUpgrade","inputs":[{"name":"previousStat","type":"tuple","internalType":"struct RPGItemNFT.StatType","components":[{"name":"stat1","type":"uint8","internalType":"uint8"},{"name":"stat2","type":"uint8","internalType":"uint8"},{"name":"specialType","type":"uint8","internalType":"uint8"},{"name":"specialPoints","type":"uint8","internalType":"uint8"}]}],"outputs":[{"name":"","type":"tuple","internalType":"struct RPGItemNFT.StatType","components":[{"name":"stat1","type":"uint8","internalType":"uint8"},{"name":"stat2","type":"uint8","internalType":"uint8"},{"name":"specialType","type":"uint8","internalType":"uint8"},{"name":"specialPoints","type":"uint8","internalType":"uint8"}]}],"stateMutability":"nonpayable"},{"type":"function","name":"changeCCIP","inputs":[{"name":"newAdd","type":"address","internalType":"address"}],"outputs":[],"stateMutability":"nonpayable"},{"type":"function","name":"getApproved","inputs":[{"name":"tokenId","type":"uint256","internalType":"uint256"}],"outputs":[{"name":"","type":"address","internalType":"address"}],"stateMutability":"view"},{"type":"function","name":"getOwner","inputs":[{"name":"tokenId","type":"uint256","internalType":"uint256"}],"outputs":[{"name":"","type":"address","internalType":"address"}],"stateMutability":"view"},{"type":"function","name":"getSpecial","inputs":[{"name":"tokenId","type":"uint256","internalType":"uint256"}],"outputs":[{"name":"","type":"uint8","internalType":"uint8"},{"name":"","type":"uint8","internalType":"uint8"}],"stateMutability":"view"},{"type":"function","name":"getStat","inputs":[{"name":"statLabel","type":"string","internalType":"string"},{"name":"tokenId","type":"uint256","internalType":"uint256"}],"outputs":[{"name":"stat","type":"uint8","internalType":"uint8"}],"stateMutability":"view"},{"type":"function","name":"getTokenStats","inputs":[{"name":"tokenId","type":"uint256","internalType":"uint256"}],"outputs":[{"name":"","type":"uint8","internalType":"uint8"},{"name":"","type":"uint8","internalType":"uint8"},{"name":"","type":"uint8","internalType":"uint8"},{"name":"","type":"uint8","internalType":"uint8"}],"stateMutability":"view"},{"type":"function","name":"isApprovedForAll","inputs":[{"name":"owner","type":"address","internalType":"address"},{"name":"operator","type":"address","internalType":"address"}],"outputs":[{"name":"","type":"bool","internalType":"bool"}],"stateMutability":"view"},{"type":"function","name":"itemImage","inputs":[],"outputs":[{"name":"","type":"string","internalType":"string"}],"stateMutability":"view"},{"type":"function","name":"itemType","inputs":[],"outputs":[{"name":"","type":"string","internalType":"string"}],"stateMutability":"view"},{"type":"function","name":"lockStatus","inputs":[{"name":"tokenId","type":"uint256","internalType":"uint256"}],"outputs":[{"name":"","type":"bool","internalType":"bool"}],"stateMutability":"view"},{"type":"function","name":"lockedItemImage","inputs":[],"outputs":[{"name":"","type":"string","internalType":"string"}],"stateMutability":"view"},{"type":"function","name":"mint","inputs":[],"outputs":[],"stateMutability":"payable"},{"type":"function","name":"mintPrice","inputs":[],"outputs":[{"name":"","type":"uint256","internalType":"uint256"}],"stateMutability":"view"},{"type":"function","name":"name","inputs":[],"outputs":[{"name":"","type":"string","internalType":"string"}],"stateMutability":"view"},{"type":"function","name":"newStatMap","inputs":[{"name":"","type":"bytes32","internalType":"bytes32"}],"outputs":[{"name":"stat1","type":"uint8","internalType":"uint8"},{"name":"stat2","type":"uint8","internalType":"uint8"},{"name":"specialType","type":"uint8","internalType":"uint8"},{"name":"specialPoints","type":"uint8","internalType":"uint8"}],"stateMutability":"view"},{"type":"function","name":"owner","inputs":[],"outputs":[{"name":"","type":"address","internalType":"address"}],"stateMutability":"view"},{"type":"function","name":"ownerOf","inputs":[{"name":"tokenId","type":"uint256","internalType":"uint256"}],"outputs":[{"name":"","type":"address","internalType":"address"}],"stateMutability":"view"},{"type":"function","name":"powerLevelColor","inputs":[{"name":"tokenId","type":"uint256","internalType":"uint256"}],"outputs":[{"name":"","type":"string","internalType":"string"}],"stateMutability":"view"},{"type":"function","name":"powerLevel__","inputs":[{"name":"tokenId","type":"uint256","internalType":"uint256"}],"outputs":[{"name":"","type":"uint256","internalType":"uint256"}],"stateMutability":"view"},{"type":"function","name":"renounceOwnership","inputs":[],"outputs":[],"stateMutability":"nonpayable"},{"type":"function","name":"safeTransferFrom","inputs":[{"name":"from","type":"address","internalType":"address"},{"name":"to","type":"address","internalType":"address"},{"name":"tokenId","type":"uint256","internalType":"uint256"}],"outputs":[],"stateMutability":"nonpayable"},{"type":"function","name":"safeTransferFrom","inputs":[{"name":"from","type":"address","internalType":"address"},{"name":"to","type":"address","internalType":"address"},{"name":"tokenId","type":"uint256","internalType":"uint256"},{"name":"data","type":"bytes","internalType":"bytes"}],"outputs":[],"stateMutability":"nonpayable"},{"type":"function","name":"setApprovalForAll","inputs":[{"name":"operator","type":"address","internalType":"address"},{"name":"approved","type":"bool","internalType":"bool"}],"outputs":[],"stateMutability":"nonpayable"},{"type":"function","name":"setMintPrice","inputs":[{"name":"_mintPrice","type":"uint256","internalType":"uint256"}],"outputs":[],"stateMutability":"nonpayable"},{"type":"function","name":"setTokenLockStatus","inputs":[{"name":"tokenId","type":"uint256","internalType":"uint256"},{"name":"unlockTime","type":"uint256","internalType":"uint256"}],"outputs":[],"stateMutability":"nonpayable"},{"type":"function","name":"statLabels","inputs":[{"name":"","type":"uint256","internalType":"uint256"}],"outputs":[{"name":"","type":"string","internalType":"string"}],"stateMutability":"view"},{"type":"function","name":"statPriceMultiplier__","inputs":[{"name":"stat","type":"tuple","internalType":"struct RPGItemNFT.StatType","components":[{"name":"stat1","type":"uint8","internalType":"uint8"},{"name":"stat2","type":"uint8","internalType":"uint8"},{"name":"specialType","type":"uint8","internalType":"uint8"},{"name":"specialPoints","type":"uint8","internalType":"uint8"}]}],"outputs":[{"name":"","type":"uint256","internalType":"uint256"}],"stateMutability":"pure"},{"type":"function","name":"supportsInterface","inputs":[{"name":"interfaceId","type":"bytes4","internalType":"bytes4"}],"outputs":[{"name":"","type":"bool","internalType":"bool"}],"stateMutability":"view"},{"type":"function","name":"symbol","inputs":[],"outputs":[{"name":"","type":"string","internalType":"string"}],"stateMutability":"view"},{"type":"function","name":"tokenLockedTill","inputs":[{"name":"","type":"uint256","internalType":"uint256"}],"outputs":[{"name":"","type":"uint256","internalType":"uint256"}],"stateMutability":"view"},{"type":"function","name":"tokenURI","inputs":[{"name":"tokenId","type":"uint256","internalType":"uint256"}],"outputs":[{"name":"","type":"string","internalType":"string"}],"stateMutability":"view"},{"type":"function","name":"transfer","inputs":[{"name":"to","type":"address","internalType":"address"},{"name":"tokenId","type":"uint256","internalType":"uint256"}],"outputs":[],"stateMutability":"nonpayable"},{"type":"function","name":"transferFrom","inputs":[{"name":"from","type":"address","internalType":"address"},{"name":"to","type":"address","internalType":"address"},{"name":"tokenId","type":"uint256","internalType":"uint256"}],"outputs":[],"stateMutability":"nonpayable"},{"type":"function","name":"transferOwnership","inputs":[{"name":"newOwner","type":"address","internalType":"address"}],"outputs":[],"stateMutability":"nonpayable"},{"type":"function","name":"updateStats","inputs":[{"name":"tokenId","type":"uint256","internalType":"uint256"},{"name":"newOwner","type":"address","internalType":"address"},{"name":"stat1","type":"uint8","internalType":"uint8"},{"name":"stat2","type":"uint8","internalType":"uint8"},{"name":"specialType","type":"uint8","internalType":"uint8"},{"name":"specialPoints","type":"uint8","internalType":"uint8"}],"outputs":[{"name":"","type":"bool","internalType":"bool"}],"stateMutability":"nonpayable"},{"type":"function","name":"upgrade","inputs":[{"name":"tokenId","type":"uint256","internalType":"uint256"}],"outputs":[],"stateMutability":"payable"},{"type":"function","name":"upgradeMapping","inputs":[{"name":"","type":"uint256","internalType":"uint256"}],"outputs":[{"name":"stat1","type":"uint8","internalType":"uint8"},{"name":"stat2","type":"uint8","internalType":"uint8"},{"name":"specialType","type":"uint8","internalType":"uint8"},{"name":"specialPoints","type":"uint8","internalType":"uint8"}],"stateMutability":"view"},{"type":"event","name":"Approval","inputs":[{"name":"owner","type":"address","indexed":true,"internalType":"address"},{"name":"approved","type":"address","indexed":true,"internalType":"address"},{"name":"tokenId","type":"uint256","indexed":true,"internalType":"uint256"}],"anonymous":false},{"type":"event","name":"ApprovalForAll","inputs":[{"name":"owner","type":"address","indexed":true,"internalType":"address"},{"name":"operator","type":"address","indexed":true,"internalType":"address"},{"name":"approved","type":"bool","indexed":false,"internalType":"bool"}],"anonymous":false},{"type":"event","name":"NftMinted","inputs":[{"name":"recipient","type":"address","indexed":true,"internalType":"address"},{"name":"tokenId","type":"uint256","indexed":true,"internalType":"uint256"},{"name":"timestamp","type":"uint256","indexed":true,"internalType":"uint256"}],"anonymous":false},{"type":"event","name":"OwnershipTransferred","inputs":[{"name":"previousOwner","type":"address","indexed":true,"internalType":"address"},{"name":"newOwner","type":"address","indexed":true,"internalType":"address"}],"anonymous":false},{"type":"event","name":"Transfer","inputs":[{"name":"from","type":"address","indexed":true,"internalType":"address"},{"name":"to","type":"address","indexed":true,"internalType":"address"},{"name":"tokenId","type":"uint256","indexed":true,"internalType":"uint256"}],"anonymous":false},{"type":"event","name":"Transfer","inputs":[{"name":"sender","type":"address","indexed":true,"internalType":"address"},{"name":"amount","type":"uint256","indexed":true,"internalType":"uint256"}],"anonymous":false},{"type":"error","name":"ERC721IncorrectOwner","inputs":[{"name":"sender","type":"address","internalType":"address"},{"name":"tokenId","type":"uint256","internalType":"uint256"},{"name":"owner","type":"address","internalType":"address"}]},{"type":"error","name":"ERC721InsufficientApproval","inputs":[{"name":"operator","type":"address","internalType":"address"},{"name":"tokenId","type":"uint256","internalType":"uint256"}]},{"type":"error","name":"ERC721InvalidApprover","inputs":[{"name":"approver","type":"address","internalType":"address"}]},{"type":"error","name":"ERC721InvalidOperator","inputs":[{"name":"operator","type":"address","internalType":"address"}]},{"type":"error","name":"ERC721InvalidOwner","inputs":[{"name":"owner","type":"address","internalType":"address"}]},{"type":"error","name":"ERC721InvalidReceiver","inputs":[{"name":"receiver","type":"address","internalType":"address"}]},{"type":"error","name":"ERC721InvalidSender","inputs":[{"name":"sender","type":"address","internalType":"address"}]},{"type":"error","name":"ERC721NonexistentToken","inputs":[{"name":"tokenId","type":"uint256","internalType":"uint256"}]},{"type":"error","name":"OwnableInvalidOwner","inputs":[{"name":"owner","type":"address","internalType":"address"}]},{"type":"error","name":"OwnableUnauthorizedAccount","inputs":[{"name":"account","type":"address","internalType":"address"}]}],"bytecode":{"object":"0x608060405234610b5a576136ab8038038061001981610bb7565b92833981019061016081830312610b5a5780516001600160401b038111610b5a5782610046918301610bdc565b60208201516001600160401b038111610b5a5783610065918401610bdc565b60408301519093906001600160401b038111610b5a5781610087918501610bdc565b60608401519092906001600160401b038111610b5a57840182601f82011215610b5a5760408051919082016001600160401b0381118382101761065d5760405281906040810191858311610b5a5781905b838210610b8c575050505060808501516001600160401b038111610b5a5783610102918701610c5e565b9161010f60a08701610cbc565b60c08701519092906001600160401b038111610b5a5787019385601f86011215610b5a5784519561014761014288610c47565b610bb7565b9560208789815201906020829960051b82010191838311610b5a5760208201905b838210610b5f575050505060e0890151906001600160401b038211610b5a57610192918a01610c5e565b936101a06101008a01610cbc565b976101406101208b01519a01519a80519060018060401b03821161065d576101c9600054610cd0565b601f8111610b0c575b50602090601f8311600114610aa4576102049291600091836105e5575b50508160011b916000199060031b1c19161790565b6000555b8051906001600160401b03821161065d57610224600154610cd0565b601f8111610a55575b50602090601f83116001146109ec5761025e9291600091836105e55750508160011b916000199060031b1c19161790565b6001555b6001600160a01b031680156109d657600680546001600160a01b0319811683179091556001600160a01b03167f8be0079c531659141344cd1fd0a4f28419497f9722a3daafe3b4186f6b6457e0600080a36102be600d54610cd0565b601f811161098b575b5060c7600d9081556000527f68747470733a2f2f706c756d2d6c6961626c652d6d6173746f646f6e2d34353060008051602061368b833981519152557f2e6d7970696e6174612e636c6f75642f697066732f516d615844344e4c4e39687fd7b6990105719101dabeb77144f2a3385c8033acd3af97e9423a695e81ad1eb6557f6e356362396a5464373866614d765533524e6d6633346776684c47736e7136377fd7b6990105719101dabeb77144f2a3385c8033acd3af97e9423a695e81ad1eb755627a733360e81b7fd7b6990105719101dabeb77144f2a3385c8033acd3af97e9423a695e81ad1eb855662386f26fc100006012558051156109755760ff602082015116906013548151600110156109755761ff00604083015160081b16908251600210156109755762ff0000606084015160101b169280516003101561097557608063ff00000091015160181b169363ff000000199162ffffff19161716171717601355600a906000905b6002821061089a57505081519190506001600160401b03821161065d5761045c600954610cd0565b601f8111610840575b50602090601f83116001146107d7576104969291600091836105e55750508160011b916000199060031b1c19161790565b6009555b8051906001600160401b03821161065d5768010000000000000000821161065d57602090600f5483600f55808410610788575b500190600f60005260206000208160051c9160005b8381106107485750601f1981169003806106fc575b50505050519068010000000000000000821161065d57600e5482600e55808310610673575b50600e600090815260008051602061366b83398151915292915b828210610577575050601080546001600160a01b0319166001600160a01b039490941693909317909255505060075560115560405161290d9081610d5e8239f35b80518051906001600160401b03821161065d5761059e826105988854610cd0565b88610d21565b602090601f83116001146105f057926105d6836001959460209487966000926105e55750508160011b916000199060031b1c19161790565b87555b01940191019092610536565b0151905038806101ef565b90601f1983169187600052816000209260005b818110610645575093602093600196938796938388951061062c575b505050811b0187556105d9565b015160001960f88460031b161c1916905538808061061f565b92936020600181928786015181550195019301610603565b634e487b7160e01b600052604160045260246000fd5b600e60005260008051602061366b8339815191529081019083015b81811061069b575061051c565b806106a860019254610cd0565b806106b5575b500161068e565b601f811183146106cb5750600081555b386106ae565b6106e9908260005283601f6020600020920160051c82019101610d0a565b80600052600060208120818355556106c5565b9260009360005b818110610718575050500155388080806104f7565b909194602061073e6001928460ff8a5116919060ff809160031b9316831b921b19161790565b9601929101610703565b6000805b602081106107615750838201556001016104e2565b865190969160019160209160ff60038b901b81811b199092169216901b179201960161074c565b6107b590600f60005283600020601f80870160051c820192818816806107bb575b500160051c0190610d0a565b386104cd565b600019850190815490600019908a0360031b1c169055386107a9565b90601f198316916009600052816000209260005b818110610828575090846001959493921061080f575b505050811b0160095561049a565b015160001960f88460031b161c19169055388080610801565b929360206001819287860151815501950193016107eb565b600960005261088a907f6e1540171b6c0c960b71a7020d9f60077f6af931a8bbf590da0223dacf75c7af601f850160051c81019160208610610890575b601f0160051c0190610d0a565b38610465565b909150819061087d565b80518051906001600160401b03821161065d576108c1826108bb8754610cd0565b87610d21565b602090601f831160011461090857926108f9836001959460209487966000926105e55750508160011b916000199060031b1c19161790565b86555b01930191019091610434565b90601f1983169186600052816000209260005b81811061095d5750936020936001969387969383889510610944575b505050811b0186556108fc565b015160001960f88460031b161c19169055388080610937565b9293602060018192878601518155019501930161091b565b634e487b7160e01b600052603260045260246000fd5b600d6000526109d090601f0160051c60008051602061368b833981519152017fd7b6990105719101dabeb77144f2a3385c8033acd3af97e9423a695e81ad1eb9610d0a565b386102c7565b631e4fbdf760e01b600052600060045260246000fd5b90601f198316916001600052816000209260005b818110610a3d5750908460019594939210610a24575b505050811b01600155610262565b015160001960f88460031b161c19169055388080610a16565b92936020600181928786015181550195019301610a00565b6001600052610a9e907fb10e2d527612073b26eecdfd717e6a320cf44b4afac2b0732d9fcbe2b7fa0cf6601f850160051c8101916020861061089057601f0160051c0190610d0a565b3861022d565b90601f1983169160008052816000209260005b818110610af45750908460019594939210610adb575b505050811b01600055610208565b015160001960f88460031b161c19169055388080610acd565b92936020600181928786015181550195019301610ab7565b60008052610b54907f290decd9548b62a8d60345a988386fc84ba6bc95484008f6362f93160ef3e563601f850160051c8101916020861061089057601f0160051c0190610d0a565b386101d2565b600080fd5b81516001600160401b038111610b5a57602091610b8187848094880101610bdc565b815201910190610168565b81516001600160401b038111610b5a57602091610bac8984938701610bdc565b8152019101906100d8565b6040519190601f01601f191682016001600160401b0381118382101761065d57604052565b81601f82011215610b5a578051906001600160401b03821161065d57610c0b601f8301601f1916602001610bb7565b9282845260208383010111610b5a5760005b828110610c3257505060206000918301015290565b80602080928401015182828701015201610c1d565b6001600160401b03811161065d5760051b60200190565b9080601f83011215610b5a57815190610c7961014283610c47565b9260208085858152019360051b820101918211610b5a57602001915b818310610ca25750505090565b825160ff81168103610b5a57815260209283019201610c95565b51906001600160a01b0382168203610b5a57565b90600182811c92168015610d00575b6020831014610cea57565b634e487b7160e01b600052602260045260246000fd5b91607f1691610cdf565b818110610d15575050565b60008155600101610d0a565b9190601f8111610d3057505050565b610d5b926000526020600020906020601f840160051c8301931061089057601f0160051c0190610d0a565b56fe60806040526004361015610023575b361561001957600080fd5b610021611e79565b005b60003560e01c806301ffc9a7146102de57806302ee9785146102d957806305b1603f146102d457806306fdde03146102cf578063081812fc146102ca57806308bbefef146102c5578063095ea7b3146102c057806309b2d397146102bb5780631249c58b146102b65780631af8a97d146102b157806323b872dd146102ac57806324773270146102a75780633e3c0740146102a257806342842e0e1461029d57806342966c681461029857806345977d031461029357806346838f301461028e578063621167e6146102895780636352211e1461023e5780636467007b146102845780636817c76c1461027f57806368b167791461027a57806370a0823114610275578063715018a6146102705780638aa330151461026b5780638da5cb5b1461026657806394a409d81461026157806395d89b411461025c578063a22cb46514610257578063a50c8f2c14610252578063a9059cbb1461024d578063ad3d47d714610248578063b88d4fde14610243578063c41a360a1461023e578063c582951414610239578063c87b56dd14610234578063d5784f151461022f578063d728f75c1461022a578063e1d916f714610225578063e2891d4114610220578063e985e9c51461021b578063f2fde38b14610216578063f4a0a528146102115763f5470d7b0361000e576117b7565b61179e565b611714565b6116b7565b611698565b61164e565b611618565b6115bd565b6113b2565b611301565b610e14565b6112a1565b6111f4565b6111a0565b611152565b611082565b610fda565b610fbc565b610f93565b610f75565b610f18565b610ec2565b610e99565b610e7b565b610e55565b610dcc565b610d72565b610c7c565b610c5f565b610c35565b610bf6565b610bd1565b610b8c565b610b11565b610967565b610947565b610778565b6106f5565b6106b7565b6105e1565b610559565b6103e2565b6102fa565b6001600160e01b03198116036102f557565b600080fd5b346102f55760203660031901126102f5576020600435610319816102e3565b63ffffffff60e01b166380ac58cd60e01b8114908115610357575b8115610346575b506040519015158152f35b6301ffc9a760e01b1490503861033b565b635b5e139f60e01b81149150610334565b602435906001600160a01b03821682036102f557565b600435906001600160a01b03821682036102f557565b6044359060ff821682036102f557565b6064359060ff821682036102f557565b6084359060ff821682036102f557565b60a4359060ff821682036102f557565b359060ff821682036102f557565b346102f55760c03660031901126102f5576004356103fe610368565b610406610394565b9161040f6103a4565b926104186103b4565b926104216103c4565b936001600160a01b038216918215610514576104bc9661049f610496610491886104b3976104a9968261047861046c60609e600052600260205260018060a01b036040600020541690565b6001600160a01b031690565b156104cc575b5050506000526014602052604060002090565b6117dd565b60ff9096168652565b60ff166020850152565b60ff166040830152565b019060ff169052565b60405160018152602090f35b0390f35b6104d591611ea2565b6000828152601660205260408120558142917ffc612aad4e70fb3e1d4832d8c65f92e4024aa87f809d131267a79bceee757f33600080a438808261047e565b60405162461bcd60e51b815260206004820152601960248201527f496e76616c6964206e6577206f776e65722061646472657373000000000000006044820152606490fd5b346102f55760203660031901126102f55760043560005260166020526020604060002054604051908152f35b60005b8381106105985750506000910152565b8181015183820152602001610588565b906020916105c181518092818552858086019101610585565b601f01601f1916010190565b9060206105de9281815201906105a8565b90565b346102f55760003660031901126102f5576040516000805461060281610a24565b80845290600181169081156106935750600114610636575b6104c88361062a818503826108bd565b604051918291826105cd565b60008080527f290decd9548b62a8d60345a988386fc84ba6bc95484008f6362f93160ef3e563939250905b8082106106795750909150810160200161062a61061a565b919260018160209254838588010152019101909291610661565b60ff191660208086019190915291151560051b8401909101915061062a905061061a565b346102f55760203660031901126102f5576004356106d481611fcc565b506000526004602052602060018060a01b0360406000205416604051908152f35b346102f55760403660031901126102f55760105460243590600435906001600160a01b03163303610733576000526016602052604060002055600080f35b60405162461bcd60e51b815260206004820152601d60248201527f43616c6c6572206973206e6f7420746865204343495020726f757465720000006044820152606490fd5b346102f55760403660031901126102f55761079161037e565b6024359061079e82611fcc565b33151580610873575b80610831575b61081c57610021926107fd9181906001600160a01b0385811691167f8c5be1e5ebec7d5bd14f71427d1e84f3dd0314c0f7b2291e5b200ac8c7c3b925600080a46000526004602052604060002090565b80546001600160a01b0319166001600160a01b03909216919091179055565b63a9fbf51f60e01b6000523360045260246000fd5b5060ff61086b336108548460018060a01b03166000526005602052604060002090565b9060018060a01b0316600052602052604060002090565b5416156107ad565b506001600160a01b0381163314156107a7565b634e487b7160e01b600052604160045260246000fd5b6080810190811067ffffffffffffffff8211176108b857604052565b610886565b90601f8019910116810190811067ffffffffffffffff8211176108b857604052565b60809060031901126102f55760405160006108f98261089c565b60043560ff8116810361094357825260243560ff811681036109435760208301526044359060ff821682036109405750604082015261093860646103d4565b606082015290565b80fd5b5080fd5b346102f557602061095f61095a366108df565b611844565b604051908152f35b60003660031901126102f55760075434036109d35760085461099061098b82611873565b600855565b61099a8133611ea2565b6000818152601660205260408120554290337ffc612aad4e70fb3e1d4832d8c65f92e4024aa87f809d131267a79bceee757f33600080a4005b60405162461bcd60e51b815260206004820152602360248201527f496e73756666696369656e742045746865722073656e7420666f72206d696e74604482015262696e6760e81b6064820152608490fd5b90600182811c92168015610a54575b6020831014610a3e57565b634e487b7160e01b600052602260045260246000fd5b91607f1691610a33565b60009291815491610a6e83610a24565b8083529260018116908115610ac45750600114610a8a57505050565b60009081526020812093945091925b838310610aaa575060209250010190565b600181602092949394548385870101520191019190610a99565b915050602093945060ff929192191683830152151560051b010190565b60405190610afb82610af4816000610a5e565b03836108bd565b565b90610afb610af49260405193848092610a5e565b346102f55760003660031901126102f5576104c8604051610b3e81610b3781600c610a5e565b03826108bd565b6040519182916020835260208301906105a8565b60609060031901126102f5576004356001600160a01b03811681036102f557906024356001600160a01b03811681036102f5579060443590565b346102f557610021610b9d36610b52565b91826000526016602052610bb8604060002054421015611882565b610bcc6001600160a01b03831615156118c0565b612003565b346102f557602061095f610be4366108df565b610bf060125491611844565b90611930565b346102f55760203660031901126102f5576001600160a01b03610c1761037e565b166bffffffffffffffffffffffff60a01b6010541617601055600080f35b346102f557610021610c4636610b52565b9060405192610c566020856108bd565b60008452611af1565b346102f55760203660031901126102f55761002133600435612079565b60203660031901126102f557610021600435806000526016602052610ca8604060002054421015611882565b806000526014602052610d1a610cf5604060002060ff60405191610ccb8361089c565b548181168352818160081c166020840152818160101c16604084015260181c166060820152611994565b91610d0a610d0284611943565b341015611968565b6000526014602052604060002090565b815181546020840151604085015160609095015163ffffffff1990921660ff939093169290921760089290921b61ff00169190911760109390931b62ff0000169290921760189290921b63ff00000016919091179055565b346102f55760203660031901126102f55760043560009081526015602090815260409182902054825160ff8083168252600883901c811693820193909352601082901c83169381019390935260181c166060820152608090f35b346102f5576080610de4610ddf366108df565b611994565b60ff6060604051928281511684528260208201511660208501528260408201511660408501520151166060820152f35b346102f55760203660031901126102f5576004356000908152600260209081526040909120546001600160a01b03166040516001600160a01b039091168152f35b346102f55760003660031901126102f5576104c8604051610b3e81610b3781600d610a5e565b346102f55760003660031901126102f5576020600754604051908152f35b346102f55760003660031901126102f5576010546040516001600160a01b039091168152602090f35b346102f55760203660031901126102f5576001600160a01b03610ee361037e565b168015610f025760005260036020526020604060002054604051908152f35b6322718ad960e21b600052600060045260246000fd5b346102f55760003660031901126102f557610f316122d7565b600680546001600160a01b031981169091556000906001600160a01b03167f8be0079c531659141344cd1fd0a4f28419497f9722a3daafe3b4186f6b6457e08280a3005b346102f55760003660031901126102f5576020601254604051908152f35b346102f55760003660031901126102f5576006546040516001600160a01b039091168152602090f35b346102f55760203660031901126102f557602061095f600435611a5d565b346102f55760003660031901126102f5576040516000600154610ffc81610a24565b80845290600181169081156106935750600114611023576104c88361062a818503826108bd565b600160009081527fb10e2d527612073b26eecdfd717e6a320cf44b4afac2b0732d9fcbe2b7fa0cf6939250905b8082106110685750909150810160200161062a61061a565b919260018160209254838588010152019101909291611050565b346102f55760403660031901126102f55761109b61037e565b6024358015158082036102f5576001600160a01b038316928315611127573360009081526005602090815260408083206001600160a01b039094168352929052209060ff801983541691161790557f17307eab39ab6107e8899845ad3d59bd9653f200f220920489ca2b5937696c3160405180611122339482919091602081019215159052565b0390a3005b83630b61174360e31b60005260045260246000fd5b634e487b7160e01b600052603260045260246000fd5b346102f55760203660031901126102f55760043560028110156102f557610af49061118860009160405193848092600a01610a5e565b6104c8604051928392506020835260208301906105a8565b346102f55760403660031901126102f5576100216111bc61037e565b602435908160005260166020526111da604060002054421015611882565b6111ee6001600160a01b03821615156118c0565b33612003565b346102f55760203660031901126102f55760043560009081526014602090815260409182902054825160ff8083168252600883901c811693820193909352601082901c83169381019390935260181c166060820152608090f35b67ffffffffffffffff81116108b857601f01601f191660200190565b9291926112768261124e565b9161128460405193846108bd565b8294818452818301116102f5578281602093846000960137010152565b346102f55760803660031901126102f5576112ba61037e565b6112c2610368565b906044356064359267ffffffffffffffff84116102f557366023850112156102f5576112fb61002194369060248160040135910161126a565b92611af1565b346102f55760203660031901126102f557600435600052601460205260406000206040519061132f8261089c565b54906104c8606061138361137c61137561137560ff881680885260ff8960081c169788602082015260ff808b60101c169a8b604084015260181c16968791015260ff1690565b9560ff1690565b9160ff1690565b9060405194859485929360ff809296958160609581608089019a16885216602087015216604085015216910152565b346102f55760203660031901126102f5576104c861151b61062a61152961150d61144b611450816004356113f3816000526016602052604060002054421090565b80156115ae57611401611c1b565b905b600081156115935750611414611c40565b925b6000908215611566575050611429611c40565b905b1561155e57600d925b61144561143f610ae1565b94610afd565b92612500565b612784565b61151b6040519384926115076114d161149060208701601c907f7b226e616d65223a2022455448205761746368696e6720535647222c0000000081520190565b7f226465736372697074696f6e223a2022416e204175746f6d617465642045544881526e081d1c9858dada5b99c814d591c88b608a1b6020820152602f0190565b7f22696d616765223a2022646174613a696d6167652f7376672b786d6c3b626173815263194d8d0b60e21b602082015260240190565b90611c60565b61227d60f01b815260020190565b03601f1981018352826108bd565b6040517f646174613a6170706c69636174696f6e2f6a736f6e3b6261736536342c0000006020820152928391603d8301611507565b600c92611434565b61158d9150611588906115829061157d600b610afd565b611c77565b60ff1690565b6123a8565b9061142b565b506115a86115886115828561157d600a610afd565b92611416565b6115b782611dd4565b90611403565b346102f55760403660031901126102f55760043567ffffffffffffffff81116102f557366023820112156102f55761160d611604602092369060248160040135910161126a565b60243590611c77565b60ff60405191168152f35b346102f55760203660031901126102f55760206116446004356000526016602052604060002054421090565b6040519015158152f35b346102f55760203660031901126102f557604060043580600052601460205260ff826000205460101c1690600052601460205260ff826000205460181c1682519182526020820152f35b346102f55760203660031901126102f5576104c8610b3e600435611dd4565b346102f55760403660031901126102f557602060ff6117086116d761037e565b6116df610368565b6001600160a01b0391821660009081526005865260408082209290931681526020919091522090565b54166040519015158152f35b346102f55760203660031901126102f55761172d61037e565b6117356122d7565b6001600160a01b0316801561178857600680546001600160a01b0319811683179091556001600160a01b03167f8be0079c531659141344cd1fd0a4f28419497f9722a3daafe3b4186f6b6457e0600080a3005b631e4fbdf760e01b600052600060045260246000fd5b346102f55760203660031901126102f557600435600755005b346102f55760003660031901126102f5576104c8604051610b3e81610b37816009610a5e565b906040516117ea8161089c565b606060ff8294548181168452818160081c166020850152818160101c16604085015260181c16910152565b634e487b7160e01b600052601160045260246000fd5b9060ff8091169116019060ff821161183f57565b611815565b60ff61185d60649282602081835116920151169061182b565b160260ff811690810361183f5760011c607f1690565b600019811461183f5760010190565b1561188957565b60405162461bcd60e51b815260206004820152600f60248201526e151bdad95b881a5cc81b1bd8dad959608a1b6044820152606490fd5b156118c757565b60405162461bcd60e51b8152602060048201526024808201527f4552433732313a207472616e7366657220746f20746865207a65726f206164646044820152637265737360e01b6064820152608490fd5b600281901b91906001600160fe1b0381160361183f57565b8181029291811591840414171561183f57565b6105de90610bf060125491611844565b604051906119626020836108bd565b60008252565b156102f557565b6040519061197c8261089c565b60006060838281528260208201528260408201520152565b61199c61196f565b508051812080600052601560205260406000209160ff604051936119bf8561089c565b548181168552818160081c166020860152818160101c16604086015260181c1660608401528260ff815116159081611a4d575b81611a3d575b81611a2d575b50611a0857505090565b610d1a925090611a1a6105de9261229d565b9283916000526015602052604060002090565b60ff9150606001511615386119fe565b604081015160ff161591506119f8565b602081015160ff161591506119f2565b60005260146020526105de611582611ae86040600020611ad0611ab960405192611a868461089c565b549260ff841690818152606060ff6020830196818160081c168852818160101c16604085015260181c1691015260ff1690565b611ad0611ade611ad660135493611ad08560ff1690565b9061182b565b945160ff1690565b9160081c60ff1690565b60011c607f1690565b9092826000526016602052611b0d604060002054421015611882565b6001600160a01b038416611b228115156118c0565b611b2d848685612003565b843b611b3b575b5050505050565b611b6293600060209460405196879586948593630a85bd0160e11b85523360048601612315565b03925af160009181611bea575b50611bab5750611b7d612346565b8051919082611ba457633250574960e11b6000526001600160a01b03821660045260246000fd5b9050602001fd5b6001600160e01b03191663757a42ff60e11b01611bcd57503880808080611b34565b633250574960e11b6000526001600160a01b031660045260246000fd5b611c0d91925060203d602011611c14575b611c0581836108bd565b810190612300565b9038611b6f565b503d611bfb565b60405190611c2a6040836108bd565b60078252660233830383038360cc1b6020830152565b60405190611c4f6040836108bd565b60028252613f3f60f01b6020830152565b90611c7360209282815194859201610585565b0190565b611c92604051611c8c81610b3781600a610a5e565b8261286e565b15611cc45750611cb9611cb26105de926000526014602052604060002090565b5460ff1690565b60135460ff16611ad0565b604051611cdf91611cda82610af481600b610a5e565b61286e565b15611d125760ff611cfd6105de926000526014602052604060002090565b5460081c16611ad060135460ff9060081c1690565b50600090565b600e5415611d4b57600e60009081527fbb7b4a454dc3493923482f07822329ed19e8244eff582cc204f8554c3620c3fd91565b61113c565b600e54811015611d4b57600e60005260206000200190600090565b60001981019190821161183f57565b90600f54821015611d4b57600f600052600582901c7f8d1108e10bcb7c27dddfc02ed9d693a074039d026cf4ea4240b40f7d581ac8020191601f1690565b906001820180921161183f57565b906002820180921161183f57565b611ddd90611a5d565b8015611e6d57600f549060005b611df383611d6b565b811015611e5f57611e16611582611e0983611d7a565b905460ff9160031b1c1690565b82101580611e40575b611e2b57600101611dea565b6105de9250611e3a9150611d50565b50610afd565b50611e58611582611e09611e5384611db8565b611d7a565b8210611e1f565b5050506105de611e3a611d18565b506105de611e3a611d18565b34337f69ca02dd4edd7bf0a4abb9ed3b7af3f14778db5d61921c7dc7cd545266326de2600080a3565b604051602092611eb284836108bd565b600082526001600160a01b038316908115611fb6576001600160a01b03611ed982866121d9565b16611fa057833b611eeb575050505050565b918495939491611f15936000604051809681958294630a85bd0160e11b8452843360048601612315565b03925af160009181611f81575b50611f5c575050611f31612346565b80519283611f5757633250574960e11b6000526001600160a01b03831660045260246000fd5b019050fd5b9092506001600160e01b03191663757a42ff60e11b01611bcd57503880808080611b34565b611f99919250853d8711611c1457611c0581836108bd565b9038611f22565b6339e3563760e11b600052600060045260246000fd5b633250574960e11b600052600060045260246000fd5b6000818152600260205260409020546001600160a01b0316908115611fef575090565b637e27328960e01b60005260045260246000fd5b919291906001600160a01b03811615611fb6576001600160a01b039061202a9085906121d9565b1690816120465783637e27328960e01b60005260045260246000fd5b919290916001600160a01b031680830361205f57505050565b6364283d7b60e01b60005260045260245260445260646000fd5b6000818152600260205260409020546001600160a01b03908116929081168015158061211a575b505050816120ec575b6120c260006107fd836000526002602052604060002090565b6000827fddf252ad1be2c89b69c2b068fc378daa952ba7f163c4a11628f55a4df523b3ef8280a490565b6120f5816128b3565b6001600160a01b038216600090815260036020526040902080546000190190556120a9565b612128918161216e57501590565b6121335780806120a0565b9161214c57637e27328960e01b60005260045260246000fd5b63177e802f60e01b6000526001600160a01b0390911660045260245260446000fd5b858114915081156121a4575b811561218557501590565b6000858152600460205260409020546001600160a01b03161490501590565b905084600052600560205260ff6121d18460406000209060018060a01b0316600052602052604060002090565b54169061217a565b6000828152600260205260409020546001600160a01b031691908261226f575b6001600160a01b03811690612222908261224b575b6107fd846000526002602052604060002090565b827fddf252ad1be2c89b69c2b068fc378daa952ba7f163c4a11628f55a4df523b3ef600080a490565b6001600160a01b03811660009081526003602052604090206001815401905561220e565b612278826128b3565b6001600160a01b038316600090815260036020526040902080546000190190556121f9565b6122a561196f565b50600360ff8251160160ff811161183f5760ff16815260208101600360ff8251160160ff811161183f5760ff16905290565b6006546001600160a01b031633036122eb57565b63118cdaa760e01b6000523360045260246000fd5b908160209103126102f557516105de816102e3565b6001600160a01b0391821681529116602082015260408101919091526080606082018190526105de929101906105a8565b3d15612371573d906123578261124e565b9161236560405193846108bd565b82523d6000602084013e565b606090565b906123808261124e565b61238d60405191826108bd565b828152809261239e601f199161124e565b0190602036910137565b8060009172184f03e93ff9f4daa797ed6e38ed64bf6a1f0160401b8210156124dd575b806d04ee2d6d415b85acef8100000000600a9210156124c1575b662386f26fc100008110156124ac575b6305f5e10081101561249a575b61271081101561248a575b606481101561247b575b1015612470575b61245b602161242f60018501612376565b938401015b60001901916f181899199a1a9b1b9c1cb0b131b232b360811b600a82061a8353600a900490565b801561246b5761245b9091612434565b505090565b60019091019061241e565b60029060649004930192612417565b600490612710900493019261240d565b6008906305f5e1009004930192612402565b601090662386f26fc1000090049301926123f5565b6020906d04ee2d6d415b85acef810000000090049301926123e5565b506040915072184f03e93ff9f4daa797ed6e38ed64bf6a1f0160401b81046123cb565b604080517f3c73766720786d6c6e733d27687474703a2f2f7777772e77332e6f72672f323060208201527f30302f737667272076657273696f6e3d27312e312720786d6c6e733a786c696e918101919091527f6b3d27687474703a2f2f7777772e77332e6f72672f313939392f786c696e6b2760608201527f20786d6c6e733a7376676a733d27687474703a2f2f7376676a732e636f6d2f7360808201527f76676a73272077696474683d2735303027206865696768743d2735303027207060a08201527f72657365727665417370656374526174696f3d276e6f6e65272076696577426f60c08201527f783d273020302035303020353030273e203c726563742077696474683d27313060e08201527f302527206865696768743d2731303025272066696c6c3d270000000000000000610100820152948594939092909161264e90610118870190611c60565b61265791611c60565b61266091611c60565b61266991611c60565b631390179f60e11b81526004017f3c696d61676520783d273530252720793d273530252720666f6e742d73697a6581527f3d273132382720646f6d696e616e742d626173656c696e653d276d6964646c6560208201527f2720746578742d616e63686f723d276d6964646c65273e00000000000000000060408201526057016126f191611c60565b671e17b4b6b0b3b29f60c11b8152600801651e17b9bb339f60d11b815260060103601f19810182526105de90826108bd565b604051906127326060836108bd565b604082527f6768696a6b6c6d6e6f707172737475767778797a303132333435363738392b2f6040837f4142434445464748494a4b4c4d4e4f505152535455565758595a61626364656660208201520152565b9081511561286457612794612723565b916127b96127b46127af6127a88451611dc6565b6003900490565b611918565b612376565b9060208201908081518201956020870190815192600083525b8881106128165750506003939495965052510680600114612803576002146127f8575090565b603d90600019015390565b50603d9081600019820153600119015390565b600360049199969901986001603f8b5182828260121c16870101518453828282600c1c16870101518385015382828260061c16870101516002850153168401015160038201530194976127d2565b90506105de611953565b60405161288b8161151b60208201946020865260208601906105a8565b519020906040516128ac8161151b60208201946020865260208601906105a8565b5190201490565b6128c7906000526004602052604060002090565b80546001600160a01b031916905556fea26469706673582212207b148433f4374a78835b31dd6f59deafb82b437b5be8174992e05eccd692c88464736f6c634300081a0033bb7b4a454dc3493923482f07822329ed19e8244eff582cc204f8554c3620c3fdd7b6990105719101dabeb77144f2a3385c8033acd3af97e9423a695e81ad1eb5","linkReferences":{}},"methodIdentifiers":{"BASE_PRICE_IN_MATIC()":"8aa33015","_ccipHandler()":"68b16779","approve(address,uint256)":"095ea7b3","balanceOf(address)":"70a08231","burn(uint256)":"42966c68","calculatePrice((uint8,uint8,uint8,uint8))":"24773270","calculateUpgrade((uint8,uint8,uint8,uint8))":"621167e6","changeCCIP(address)":"3e3c0740","getApproved(uint256)":"081812fc","getOwner(uint256)":"c41a360a","getSpecial(uint256)":"e1d916f7","getStat(string,uint256)":"d5784f15","getTokenStats(uint256)":"c5829514","isApprovedForAll(address,address)":"e985e9c5","itemImage()":"1af8a97d","itemType()":"f5470d7b","lockStatus(uint256)":"d728f75c","lockedItemImage()":"6467007b","mint()":"1249c58b","mintPrice()":"6817c76c","name()":"06fdde03","newStatMap(bytes32)":"46838f30","owner()":"8da5cb5b","ownerOf(uint256)":"6352211e","powerLevelColor(uint256)":"e2891d41","powerLevel__(uint256)":"94a409d8","renounceOwnership()":"715018a6","safeTransferFrom(address,address,uint256)":"42842e0e","safeTransferFrom(address,address,uint256,bytes)":"b88d4fde","setApprovalForAll(address,bool)":"a22cb465","setMintPrice(uint256)":"f4a0a528","setTokenLockStatus(uint256,uint256)":"08bbefef","statLabels(uint256)":"a50c8f2c","statPriceMultiplier__((uint8,uint8,uint8,uint8))":"09b2d397","supportsInterface(bytes4)":"01ffc9a7","symbol()":"95d89b41","tokenLockedTill(uint256)":"05b1603f","tokenURI(uint256)":"c87b56dd","transfer(address,uint256)":"a9059cbb","transferFrom(address,address,uint256)":"23b872dd","transferOwnership(address)":"f2fde38b","updateStats(uint256,address,uint8,uint8,uint8,uint8)":"02ee9785","upgrade(uint256)":"45977d03","upgradeMapping(uint256)":"ad3d47d7"},"id":14}