{"abi":[{"type":"constructor","inputs":[{"name":"itemType__","type":"string","internalType":"string"},{"name":"tokenName__","type":"string","internalType":"string"},{"name":"tokenSymbol__","type":"string","internalType":"string"},{"name":"labels__","type":"string[2]","internalType":"string[2]"},{"name":"baseStat__","type":"uint8[]","internalType":"uint8[]"},{"name":"initialOwner__","type":"address","internalType":"address"},{"name":"svgColors__","type":"string[]","internalType":"string[]"},{"name":"colorRanges__","type":"uint8[]","internalType":"uint8[]"},{"name":"ccipHandler","type":"address","internalType":"address"},{"name":"mintPrice__","type":"uint256","internalType":"uint256"},{"name":"parentChainId__","type":"uint256","internalType":"uint256"}],"stateMutability":"nonpayable"},{"type":"receive","stateMutability":"payable"},{"type":"function","name":"BASE_PRICE_IN_MATIC","inputs":[],"outputs":[{"name":"","type":"uint256","internalType":"uint256"}],"stateMutability":"view"},{"type":"function","name":"_ccipHandler","inputs":[],"outputs":[{"name":"","type":"address","internalType":"address"}],"stateMutability":"view"},{"type":"function","name":"approve","inputs":[{"name":"to","type":"address","internalType":"address"},{"name":"tokenId","type":"uint256","internalType":"uint256"}],"outputs":[],"stateMutability":"nonpayable"},{"type":"function","name":"balanceOf","inputs":[{"name":"owner","type":"address","internalType":"address"}],"outputs":[{"name":"","type":"uint256","internalType":"uint256"}],"stateMutability":"view"},{"type":"function","name":"burn","inputs":[{"name":"tokenId","type":"uint256","internalType":"uint256"}],"outputs":[],"stateMutability":"nonpayable"},{"type":"function","name":"calculatePrice","inputs":[{"name":"stat","type":"tuple","internalType":"struct RPGItemNFT.StatType","components":[{"name":"stat1","type":"uint8","internalType":"uint8"},{"name":"stat2","type":"uint8","internalType":"uint8"},{"name":"specialType","type":"uint8","internalType":"uint8"},{"name":"specialPoints","type":"uint8","internalType":"uint8"}]}],"outputs":[{"name":"","type":"uint256","internalType":"uint256"}],"stateMutability":"view"},{"type":"function","name":"calculateUpgrade","inputs":[{"name":"previousStat","type":"tuple","internalType":"struct RPGItemNFT.StatType","components":[{"name":"stat1","type":"uint8","internalType":"uint8"},{"name":"stat2","type":"uint8","internalType":"uint8"},{"name":"specialType","type":"uint8","internalType":"uint8"},{"name":"specialPoints","type":"uint8","internalType":"uint8"}]}],"outputs":[{"name":"","type":"tuple","internalType":"struct RPGItemNFT.StatType","components":[{"name":"stat1","type":"uint8","internalType":"uint8"},{"name":"stat2","type":"uint8","internalType":"uint8"},{"name":"specialType","type":"uint8","internalType":"uint8"},{"name":"specialPoints","type":"uint8","internalType":"uint8"}]}],"stateMutability":"nonpayable"},{"type":"function","name":"changeCCIP","inputs":[{"name":"newAdd","type":"address","internalType":"address"}],"outputs":[],"stateMutability":"nonpayable"},{"type":"function","name":"getApproved","inputs":[{"name":"tokenId","type":"uint256","internalType":"uint256"}],"outputs":[{"name":"","type":"address","internalType":"address"}],"stateMutability":"view"},{"type":"function","name":"getOwner","inputs":[{"name":"tokenId","type":"uint256","internalType":"uint256"}],"outputs":[{"name":"","type":"address","internalType":"address"}],"stateMutability":"view"},{"type":"function","name":"getSpecial","inputs":[{"name":"tokenId","type":"uint256","internalType":"uint256"}],"outputs":[{"name":"","type":"uint8","internalType":"uint8"},{"name":"","type":"uint8","internalType":"uint8"}],"stateMutability":"view"},{"type":"function","name":"getStat","inputs":[{"name":"statLabel","type":"string","internalType":"string"},{"name":"tokenId","type":"uint256","internalType":"uint256"}],"outputs":[{"name":"stat","type":"uint8","internalType":"uint8"}],"stateMutability":"view"},{"type":"function","name":"getTokenStats","inputs":[{"name":"tokenId","type":"uint256","internalType":"uint256"}],"outputs":[{"name":"","type":"uint8","internalType":"uint8"},{"name":"","type":"uint8","internalType":"uint8"},{"name":"","type":"uint8","internalType":"uint8"},{"name":"","type":"uint8","internalType":"uint8"}],"stateMutability":"view"},{"type":"function","name":"isApprovedForAll","inputs":[{"name":"owner","type":"address","internalType":"address"},{"name":"operator","type":"address","internalType":"address"}],"outputs":[{"name":"","type":"bool","internalType":"bool"}],"stateMutability":"view"},{"type":"function","name":"itemImage","inputs":[],"outputs":[{"name":"","type":"string","internalType":"string"}],"stateMutability":"view"},{"type":"function","name":"itemType","inputs":[],"outputs":[{"name":"","type":"string","internalType":"string"}],"stateMutability":"view"},{"type":"function","name":"lockStatus","inputs":[{"name":"tokenId","type":"uint256","internalType":"uint256"}],"outputs":[{"name":"","type":"bool","internalType":"bool"}],"stateMutability":"view"},{"type":"function","name":"lockedItemImage","inputs":[],"outputs":[{"name":"","type":"string","internalType":"string"}],"stateMutability":"view"},{"type":"function","name":"mint","inputs":[],"outputs":[],"stateMutability":"payable"},{"type":"function","name":"mintPrice","inputs":[],"outputs":[{"name":"","type":"uint256","internalType":"uint256"}],"stateMutability":"view"},{"type":"function","name":"name","inputs":[],"outputs":[{"name":"","type":"string","internalType":"string"}],"stateMutability":"view"},{"type":"function","name":"newStatMap","inputs":[{"name":"","type":"bytes32","internalType":"bytes32"}],"outputs":[{"name":"stat1","type":"uint8","internalType":"uint8"},{"name":"stat2","type":"uint8","internalType":"uint8"},{"name":"specialType","type":"uint8","internalType":"uint8"},{"name":"specialPoints","type":"uint8","internalType":"uint8"}],"stateMutability":"view"},{"type":"function","name":"owner","inputs":[],"outputs":[{"name":"","type":"address","internalType":"address"}],"stateMutability":"view"},{"type":"function","name":"ownerOf","inputs":[{"name":"tokenId","type":"uint256","internalType":"uint256"}],"outputs":[{"name":"","type":"address","internalType":"address"}],"stateMutability":"view"},{"type":"function","name":"powerLevelColor","inputs":[{"name":"tokenId","type":"uint256","internalType":"uint256"}],"outputs":[{"name":"","type":"string","internalType":"string"}],"stateMutability":"view"},{"type":"function","name":"powerLevel__","inputs":[{"name":"tokenId","type":"uint256","internalType":"uint256"}],"outputs":[{"name":"","type":"uint256","internalType":"uint256"}],"stateMutability":"view"},{"type":"function","name":"renounceOwnership","inputs":[],"outputs":[],"stateMutability":"nonpayable"},{"type":"function","name":"safeTransferFrom","inputs":[{"name":"from","type":"address","internalType":"address"},{"name":"to","type":"address","internalType":"address"},{"name":"tokenId","type":"uint256","internalType":"uint256"}],"outputs":[],"stateMutability":"nonpayable"},{"type":"function","name":"safeTransferFrom","inputs":[{"name":"from","type":"address","internalType":"address"},{"name":"to","type":"address","internalType":"address"},{"name":"tokenId","type":"uint256","internalType":"uint256"},{"name":"data","type":"bytes","internalType":"bytes"}],"outputs":[],"stateMutability":"nonpayable"},{"type":"function","name":"setApprovalForAll","inputs":[{"name":"operator","type":"address","internalType":"address"},{"name":"approved","type":"bool","internalType":"bool"}],"outputs":[],"stateMutability":"nonpayable"},{"type":"function","name":"setMintPrice","inputs":[{"name":"_mintPrice","type":"uint256","internalType":"uint256"}],"outputs":[],"stateMutability":"nonpayable"},{"type":"function","name":"setTokenLockStatus","inputs":[{"name":"tokenId","type":"uint256","internalType":"uint256"},{"name":"unlockTime","type":"uint256","internalType":"uint256"}],"outputs":[],"stateMutability":"nonpayable"},{"type":"function","name":"statLabels","inputs":[{"name":"","type":"uint256","internalType":"uint256"}],"outputs":[{"name":"","type":"string","internalType":"string"}],"stateMutability":"view"},{"type":"function","name":"statPriceMultiplier__","inputs":[{"name":"stat","type":"tuple","internalType":"struct RPGItemNFT.StatType","components":[{"name":"stat1","type":"uint8","internalType":"uint8"},{"name":"stat2","type":"uint8","internalType":"uint8"},{"name":"specialType","type":"uint8","internalType":"uint8"},{"name":"specialPoints","type":"uint8","internalType":"uint8"}]}],"outputs":[{"name":"","type":"uint256","internalType":"uint256"}],"stateMutability":"pure"},{"type":"function","name":"supportsInterface","inputs":[{"name":"interfaceId","type":"bytes4","internalType":"bytes4"}],"outputs":[{"name":"","type":"bool","internalType":"bool"}],"stateMutability":"view"},{"type":"function","name":"symbol","inputs":[],"outputs":[{"name":"","type":"string","internalType":"string"}],"stateMutability":"view"},{"type":"function","name":"tokenLockedTill","inputs":[{"name":"","type":"uint256","internalType":"uint256"}],"outputs":[{"name":"","type":"uint256","internalType":"uint256"}],"stateMutability":"view"},{"type":"function","name":"tokenURI","inputs":[{"name":"tokenId","type":"uint256","internalType":"uint256"}],"outputs":[{"name":"","type":"string","internalType":"string"}],"stateMutability":"view"},{"type":"function","name":"transfer","inputs":[{"name":"to","type":"address","internalType":"address"},{"name":"tokenId","type":"uint256","internalType":"uint256"}],"outputs":[],"stateMutability":"nonpayable"},{"type":"function","name":"transferFrom","inputs":[{"name":"from","type":"address","internalType":"address"},{"name":"to","type":"address","internalType":"address"},{"name":"tokenId","type":"uint256","internalType":"uint256"}],"outputs":[],"stateMutability":"nonpayable"},{"type":"function","name":"transferOwnership","inputs":[{"name":"newOwner","type":"address","internalType":"address"}],"outputs":[],"stateMutability":"nonpayable"},{"type":"function","name":"updateStats","inputs":[{"name":"tokenId","type":"uint256","internalType":"uint256"},{"name":"newOwner","type":"address","internalType":"address"},{"name":"stat1","type":"uint8","internalType":"uint8"},{"name":"stat2","type":"uint8","internalType":"uint8"},{"name":"specialType","type":"uint8","internalType":"uint8"},{"name":"specialPoints","type":"uint8","internalType":"uint8"}],"outputs":[{"name":"","type":"bool","internalType":"bool"}],"stateMutability":"nonpayable"},{"type":"function","name":"upgrade","inputs":[{"name":"tokenId","type":"uint256","internalType":"uint256"}],"outputs":[],"stateMutability":"payable"},{"type":"function","name":"upgradeMapping","inputs":[{"name":"","type":"uint256","internalType":"uint256"}],"outputs":[{"name":"stat1","type":"uint8","internalType":"uint8"},{"name":"stat2","type":"uint8","internalType":"uint8"},{"name":"specialType","type":"uint8","internalType":"uint8"},{"name":"specialPoints","type":"uint8","internalType":"uint8"}],"stateMutability":"view"},{"type":"event","name":"Approval","inputs":[{"name":"owner","type":"address","indexed":true,"internalType":"address"},{"name":"approved","type":"address","indexed":true,"internalType":"address"},{"name":"tokenId","type":"uint256","indexed":true,"internalType":"uint256"}],"anonymous":false},{"type":"event","name":"ApprovalForAll","inputs":[{"name":"owner","type":"address","indexed":true,"internalType":"address"},{"name":"operator","type":"address","indexed":true,"internalType":"address"},{"name":"approved","type":"bool","indexed":false,"internalType":"bool"}],"anonymous":false},{"type":"event","name":"NftMinted","inputs":[{"name":"recipient","type":"address","indexed":true,"internalType":"address"},{"name":"tokenId","type":"uint256","indexed":true,"internalType":"uint256"},{"name":"timestamp","type":"uint256","indexed":true,"internalType":"uint256"}],"anonymous":false},{"type":"event","name":"OwnershipTransferred","inputs":[{"name":"previousOwner","type":"address","indexed":true,"internalType":"address"},{"name":"newOwner","type":"address","indexed":true,"internalType":"address"}],"anonymous":false},{"type":"event","name":"Transfer","inputs":[{"name":"from","type":"address","indexed":true,"internalType":"address"},{"name":"to","type":"address","indexed":true,"internalType":"address"},{"name":"tokenId","type":"uint256","indexed":true,"internalType":"uint256"}],"anonymous":false},{"type":"event","name":"Transfer","inputs":[{"name":"sender","type":"address","indexed":true,"internalType":"address"},{"name":"amount","type":"uint256","indexed":true,"internalType":"uint256"}],"anonymous":false},{"type":"error","name":"ERC721IncorrectOwner","inputs":[{"name":"sender","type":"address","internalType":"address"},{"name":"tokenId","type":"uint256","internalType":"uint256"},{"name":"owner","type":"address","internalType":"address"}]},{"type":"error","name":"ERC721InsufficientApproval","inputs":[{"name":"operator","type":"address","internalType":"address"},{"name":"tokenId","type":"uint256","internalType":"uint256"}]},{"type":"error","name":"ERC721InvalidApprover","inputs":[{"name":"approver","type":"address","internalType":"address"}]},{"type":"error","name":"ERC721InvalidOperator","inputs":[{"name":"operator","type":"address","internalType":"address"}]},{"type":"error","name":"ERC721InvalidOwner","inputs":[{"name":"owner","type":"address","internalType":"address"}]},{"type":"error","name":"ERC721InvalidReceiver","inputs":[{"name":"receiver","type":"address","internalType":"address"}]},{"type":"error","name":"ERC721InvalidSender","inputs":[{"name":"sender","type":"address","internalType":"address"}]},{"type":"error","name":"ERC721NonexistentToken","inputs":[{"name":"tokenId","type":"uint256","internalType":"uint256"}]},{"type":"error","name":"OwnableInvalidOwner","inputs":[{"name":"owner","type":"address","internalType":"address"}]},{"type":"error","name":"OwnableUnauthorizedAccount","inputs":[{"name":"account","type":"address","internalType":"address"}]}],"bytecode":{"object":"0x60806040523462000bed5762003c96803803806200001d8162000c52565b9283398101906101608183031262000bed5780516001600160401b03811162000bed57826200004e91830162000c78565b60208201516001600160401b03811162000bed57836200007091840162000c78565b60408301519093906001600160401b03811162000bed57816200009591850162000c78565b60608401519092906001600160401b03811162000bed57840182601f8201121562000bed5760408051919082016001600160401b03811183821017620006b8576040528190604081019185831162000bed5781905b83821062000c23575050505060808501516001600160401b03811162000bed57836200011891870162000d02565b916200012760a0870162000d6b565b60c08701519092906001600160401b03811162000bed5787019385601f8601121562000bed57845195620001656200015f8862000cea565b62000c52565b9560208789815201906020829960051b8201019183831162000bed5760208201905b83821062000bf2575050505060e0890151906001600160401b03821162000bed57620001b5918a0162000d02565b93620001c56101008a0162000d6b565b976101406101208b01519a01519a80519060018060401b038211620006b857620001f160005462000d80565b601f811162000bac575b50602090601f831160011462000b33576200023092916000918362000639575b50508160011b916000199060031b1c19161790565b6000555b8051906001600160401b038211620006b8576200025360015462000d80565b601f811162000af1575b50602090601f831160011462000a765762000291929160009183620006395750508160011b916000199060031b1c19161790565b6001555b6001600160a01b0381161562000a5d57600680546001600160a01b039283166001600160a01b0319821681179092559091167f8be0079c531659141344cd1fd0a4f28419497f9722a3daafe3b4186f6b6457e0600080a3620002f9600d5462000d80565b601f811162000a0e575b5060c7600d9081556000527f68747470733a2f2f706c756d2d6c6961626c652d6d6173746f646f6e2d34353060008051602062003c36833981519152557f2e6d7970696e6174612e636c6f75642f697066732f516d615844344e4c4e39687fd7b6990105719101dabeb77144f2a3385c8033acd3af97e9423a695e81ad1eb6557f6e356362396a5464373866614d765533524e6d6633346776684c47736e7136377fd7b6990105719101dabeb77144f2a3385c8033acd3af97e9423a695e81ad1eb755627a733360e81b7fd7b6990105719101dabeb77144f2a3385c8033acd3af97e9423a695e81ad1eb855662386f26fc10000601255805115620009f85760ff60208201511660135491805160011015620009f85761ff00604082015160081b16815160021015620009f857606082015192825160031015620009f85763ff000000608062ff000094015160181b169463ffffffff191617179160101b161717601355600a906000905b600282106200090c57505081519190506001600160401b038211620006b8576200049a60095462000d80565b601f8111620008be575b50602090601f83116001146200084357620004d8929160009183620006395750508160011b916000199060031b1c19161790565b6009555b8051906001600160401b038211620006b857680100000000000000008211620006b857602090600f5483600f55808410620007f1575b500190600f60005260206000209060005b8160051c8110620007ae5750601f19811680820362000759575b505050505190680100000000000000008211620006b857600e5482600e55808310620006ce575b50600e600090815260008051602062003bf683398151915292915b828210620005c2575050601080546001600160a01b0319166001600160a01b0394909416939093179092555050600755601155604051612ddf908162000e178239f35b80518051906001600160401b038211620006b857620005ee82620005e7885462000d80565b8862000dd6565b602090601f83116001146200064557926200062983600195946020948796600092620006395750508160011b916000199060031b1c19161790565b87555b019401910190926200057f565b0151905038806200021b565b90601f198316918760005260206000209260005b8181106200069f575093602093600196938796938388951062000685575b505050811b0187556200062c565b015160001960f88460031b161c1916905538808062000677565b9293602060018192878601518155019501930162000659565b634e487b7160e01b600052604160045260246000fd5b600e60005260008051602062003bf68339815191529081019083015b818110620006f9575062000564565b80620007086001925462000d80565b8062000717575b5001620006ea565b601f811183146200072f5750600081555b386200070f565b6000908282526200074f601f60208420920160051c820185830162000dbd565b8183555562000728565b9260009360005b81840381106200077c5750505060051c0155388080806200053d565b9091946020620007a36001928460ff8a5116919060ff809160031b9316831b921b19161790565b960192910162000760565b6000805b60208110620007c957508382015560010162000523565b855190959160019160209160ff60038a901b81811b199092169216901b1792019501620007b2565b6200082190600f60005283600020601f80870160051c8201928188168062000828575b500160051c019062000dbd565b3862000512565b60001990818601918254918a0360031b1c1690553862000814565b6009600090815260008051602062003c56833981519152929190601f198516905b818110620008a557509084600195949392106200088b575b505050811b01600955620004dc565b015160001960f88460031b161c191690553880806200087c565b9293602060018192878601518155019501930162000864565b6009600052620008fa9060008051602062003c56833981519152601f850160051c8101916020861062000901575b601f0160051c019062000dbd565b38620004a4565b9091508190620008ec565b80518051906001600160401b038211620006b857620009388262000931875462000d80565b8762000dd6565b602090601f83116001146200098357926200097383600195946020948796600092620006395750508160011b916000199060031b1c19161790565b86555b019301910190916200046e565b908560005260206000209160005b601f1985168110620009df575083602093600196938796938794601f19811610620009c5575b505050811b01865562000976565b015160001960f88460031b161c19169055388080620009b7565b9192602060018192868501518155019401920162000991565b634e487b7160e01b600052603260045260246000fd5b600d60005262000a5690601f0160051c60008051602062003c36833981519152017fd7b6990105719101dabeb77144f2a3385c8033acd3af97e9423a695e81ad1eb962000dbd565b3862000303565b604051631e4fbdf760e01b815260006004820152602490fd5b6001600090815260008051602062003c76833981519152929190601f198516905b81811062000ad8575090846001959493921062000abe575b505050811b0160015562000295565b015160001960f88460031b161c1916905538808062000aaf565b9293602060018192878601518155019501930162000a97565b600160005262000b2c9060008051602062003c76833981519152601f850160051c810191602086106200090157601f0160051c019062000dbd565b386200025d565b600080805260008051602062003c16833981519152929190601f198516905b81811062000b93575090846001959493921062000b79575b505050811b0160005562000234565b015160001960f88460031b161c1916905538808062000b6a565b9293602060018192878601518155019501930162000b52565b6000805262000be69060008051602062003c16833981519152601f850160051c810191602086106200090157601f0160051c019062000dbd565b38620001fb565b600080fd5b81516001600160401b03811162000bed5760209162000c178784809488010162000c78565b81520191019062000187565b81516001600160401b03811162000bed5760209162000c46898493870162000c78565b815201910190620000ea565b6040519190601f01601f191682016001600160401b03811183821017620006b857604052565b919080601f8401121562000bed5782516001600160401b038111620006b85760209062000cae601f8201601f1916830162000c52565b9281845282828701011162000bed5760005b81811062000cd657508260009394955001015290565b858101830151848201840152820162000cc0565b6001600160401b038111620006b85760051b60200190565b9080601f8301121562000bed5781519060209162000d246200015f8262000cea565b9360208086848152019260051b82010192831162000bed57602001905b82821062000d50575050505090565b815160ff8116810362000bed57815290830190830162000d41565b51906001600160a01b038216820362000bed57565b90600182811c9216801562000db2575b602083101462000d9c57565b634e487b7160e01b600052602260045260246000fd5b91607f169162000d90565b81811062000dc9575050565b6000815560010162000dbd565b9190601f811162000de657505050565b62000e14926000526020600020906020601f840160051c830193106200090157601f0160051c019062000dbd565b56fe60806040526004361015610023575b361561001957600080fd5b61002161243d565b005b60003560e01c806301ffc9a7146102de57806302ee9785146102d957806305b1603f146102d457806306fdde03146102cf578063081812fc146102ca57806308bbefef146102c5578063095ea7b3146102c057806309b2d397146102bb5780631249c58b146102b65780631af8a97d146102b157806323b872dd146102ac57806324773270146102a75780633e3c0740146102a257806342842e0e1461029d57806342966c681461029857806345977d031461029357806346838f301461028e578063621167e6146102895780636352211e1461023e5780636467007b146102845780636817c76c1461027f57806368b167791461027a57806370a0823114610275578063715018a6146102705780638aa330151461026b5780638da5cb5b1461026657806394a409d81461026157806395d89b411461025c578063a22cb46514610257578063a50c8f2c14610252578063a9059cbb1461024d578063ad3d47d714610248578063b88d4fde14610243578063c41a360a1461023e578063c582951414610239578063c87b56dd14610234578063d5784f151461022f578063d728f75c1461022a578063e1d916f714610225578063e2891d4114610220578063e985e9c51461021b578063f2fde38b14610216578063f4a0a528146102115763f5470d7b0361000e57611c43565b611c2a565b611b9c565b611b3f565b611b20565b611ae5565b611aaf565b611a54565b611847565b6117c5565b611246565b611765565b6116b8565b611664565b611613565b61153f565b611498565b61147a565b611451565b611433565b6113d5565b61137c565b611353565b611335565b611287565b6111fe565b6111a4565b6110ac565b610f42565b610f1a565b610edb565b610eb6565b610e71565b610d57565b61097e565b61095e565b610775565b6106f4565b6106b6565b6105d3565b61054b565b6103d4565b6102fa565b6001600160e01b03198116036102f557565b600080fd5b346102f55760203660031901126102f5576020600435610319816102e3565b63ffffffff60e01b166380ac58cd60e01b8114908115610357575b8115610346575b506040519015158152f35b6301ffc9a760e01b1490503861033b565b635b5e139f60e01b81149150610334565b602435906001600160a01b03821682036102f557565b600435906001600160a01b03821682036102f557565b6044359060ff821682036102f557565b6064359060ff821682036102f557565b6084359060ff821682036102f557565b60a4359060ff821682036102f557565b346102f55760c03660031901126102f5576004356103f0610368565b6103f8610394565b916104016103a4565b9261040a6103b4565b926104136103c4565b936001600160a01b038216918215610506576104ae96610491610488610483886104a59761049b968261046a61045e60609e600052600260205260018060a01b036040600020541690565b6001600160a01b031690565b156104be575b5050506000526014602052604060002090565b611cf1565b60ff9096168652565b60ff166020850152565b60ff166040830152565b019060ff169052565b60405160018152602090f35b0390f35b6104c791612466565b6000828152601660205260408120558142917ffc612aad4e70fb3e1d4832d8c65f92e4024aa87f809d131267a79bceee757f33600080a4388082610470565b60405162461bcd60e51b815260206004820152601960248201527f496e76616c6964206e6577206f776e65722061646472657373000000000000006044820152606490fd5b346102f55760203660031901126102f55760043560005260166020526020604060002054604051908152f35b60005b83811061058a5750506000910152565b818101518382015260200161057a565b906020916105b381518092818552858086019101610577565b601f01601f1916010190565b9060206105d092818152019061059a565b90565b346102f5576000806003193601126106b35760405190808054906105f682610a43565b80855291602091600191828116908115610686575060011461062f575b6104ba86610623818803826108e1565b604051918291826105bf565b80809550527f290decd9548b62a8d60345a988386fc84ba6bc95484008f6362f93160ef3e5635b83851061067357505050508101602001610623826104ba38610613565b8054868601840152938201938101610656565b90508695506104ba9693506020925061062394915060ff191682840152151560051b820101929338610613565b80fd5b346102f55760203660031901126102f5576004356106d3816125af565b506000526004602052602060018060a01b0360406000205416604051908152f35b346102f55760403660031901126102f5576010546001600160a01b03163303610730576004356000526016602052602435604060002055600080f35b60405162461bcd60e51b815260206004820152601d60248201527f43616c6c6572206973206e6f7420746865204343495020726f757465720000006044820152606490fd5b346102f55760403660031901126102f55761078e61037e565b6024359061079b826125af565b3315158061085f575b80610831575b61081957610021926107fa9181906001600160a01b0385811691167f8c5be1e5ebec7d5bd14f71427d1e84f3dd0314c0f7b2291e5b200ac8c7c3b925600080a46000526004602052604060002090565b80546001600160a01b0319166001600160a01b03909216919091179055565b60405163a9fbf51f60e01b8152336004820152602490fd5b506001600160a01b038116600090815260056020908152604080832033845290915290205460ff16156107aa565b506001600160a01b0381163314156107a4565b634e487b7160e01b600052604160045260246000fd5b6080810190811067ffffffffffffffff8211176108a457604052565b610872565b6020810190811067ffffffffffffffff8211176108a457604052565b6040810190811067ffffffffffffffff8211176108a457604052565b90601f8019910116810190811067ffffffffffffffff8211176108a457604052565b60809060031901126102f55760405161091b81610888565b60043560ff811681036102f557815260243560ff811681036102f557602082015260443560ff811681036102f55760408201526109566103a4565b606082015290565b346102f557602061097661097136610903565b611d58565b604051908152f35b6000806003193601126106b35760075434036109f2576008546109a86109a382611d86565b600855565b6109b28133612466565b816109c7826000526016602052604060002090565b554290337ffc612aad4e70fb3e1d4832d8c65f92e4024aa87f809d131267a79bceee757f338480a480f35b60405162461bcd60e51b815260206004820152602360248201527f496e73756666696369656e742045746865722073656e7420666f72206d696e74604482015262696e6760e81b6064820152608490fd5b90600182811c92168015610a73575b6020831014610a5d57565b634e487b7160e01b600052602260045260246000fd5b91607f1691610a52565b600b5460009291610a8d82610a43565b80825291602090600190818116908115610b0c5750600114610ab0575b50505050565b92939450600b6000527f0175b7a638427703f0dbe7bb9bbf987a2551717b34e79f33b5b1008d1fa01db9926000935b858510610af9575050506020925001019038808080610aaa565b8054858501840152938201938101610adf565b92505050602093945060ff929192191683830152151560051b01019038808080610aaa565b805460009392610b4082610a43565b91828252602093600191600181169081600014610ba85750600114610b67575b5050505050565b90939495506000929192528360002092846000945b838610610b9457505050500101903880808080610b60565b805485870183015294019385908201610b7c565b60ff19168685015250505090151560051b010191503880808080610b60565b6040519060008260005491610bdb83610a43565b80835292602090600190818116908115610c685750600114610c08575b5050610c06925003836108e1565b565b915092600080527f290decd9548b62a8d60345a988386fc84ba6bc95484008f6362f93160ef3e563936000925b828410610c505750610c069450505081016020013880610bf8565b85548885018301529485019487945092810192610c35565b91505060209250610c0694915060ff191682840152151560051b8201013880610bf8565b60405190600082600a5491610ca083610a43565b80835292602090600190818116908115610c685750600114610cca575050610c06925003836108e1565b915092600a6000527fc65a7bb8d6351c1cf70c95a316cc6a92839c986682d98bc35f958f4883f9d2a8936000925b828410610d135750610c069450505081016020013880610bf8565b85548885018301529485019487945092810192610cf8565b60405190610c0682610d3c81610a7d565b03836108e1565b90610c06610d3c9260405193848092610b31565b346102f5576000806003193601126106b357604051908082600c5491610d7c83610a43565b9283835260209460019186600182169182600014610e1a575050600114610dc0575b5050610dac925003836108e1565b6104ba60405192828493845283019061059a565b90859250600c82527fdf6966c971051c3d54ec59162606531493a51404a002842f56009d7e5cf4a8c75b858310610e02575050610dac93508201013880610d9e565b80548389018501528794508693909201918101610dea565b9250935050610dac94915060ff191682840152151560051b8201013880610d9e565b60609060031901126102f5576001600160a01b039060043582811681036102f5579160243590811681036102f5579060443590565b346102f557610021610e8236610e3c565b91826000526016602052610e9d604060002054421015611d95565b610eb16001600160a01b0383161515611dd3565b6125ea565b346102f5576020610976610ec936610903565b610ed560125491611d58565b90611e43565b346102f55760203660031901126102f5576001600160a01b03610efc61037e565b166bffffffffffffffffffffffff60a01b6010541617601055600080f35b346102f557610021610f2b36610e3c565b9060405192610f39846108a9565b60008452611fdb565b346102f55760203660031901126102f55760043560009080825260026020528160018060a01b0380604083205416903315159081610fff575b505080610fd1575b610faa610f9a846000526002602052604060002090565b80546001600160a01b0319169055565b7fddf252ad1be2c89b69c2b068fc378daa952ba7f163c4a11628f55a4df523b3ef8280a480f35b610fda83612d95565b6001600160a01b03811660009081526003602052604090208054600019019055610f83565b9192509081611056575b50156110185782903880610f7b565b61103657604051637e27328960e01b81526004810191909152602490fd5b60405163177e802f60e01b81523360048201526024810191909152604490fd5b33831491508115611088575b8115611070575b5038611009565b83855260046020526040852054163314905038611069565b828552600560209081526040808720336000908152925290205460ff169150611062565b60203660031901126102f5576004356111a160009180835260166020526110d96040842054421015611d95565b80835260146020526111496111246040852060ff604051916110fa83610888565b548181168352818160081c166020840152818160101c16604084015260181c166060820152611ea5565b9161113961113184611e56565b341015611e79565b6000526014602052604060002090565b815181546020840151604085015160609095015163ffffffff1990921660ff939093169290921760089290921b61ff00169190911760109390931b62ff0000169290921760189290921b63ff00000016919091179055565b80f35b346102f55760203660031901126102f55760043560009081526015602090815260409182902054825160ff8083168252600883901c811693820193909352601082901c83169381019390935260181c166060820152608090f35b346102f557608061121661121136610903565b611ea5565b60ff6060604051928281511684528260208201511660208501528260408201511660408501520151166060820152f35b346102f55760203660031901126102f5576004356000908152600260209081526040909120546001600160a01b03166040516001600160a01b039091168152f35b346102f5576000806003193601126106b357604051908082600d54916112ac83610a43565b9283835260209460019186600182169182600014610e1a5750506001146112db575050610dac925003836108e1565b90859250600d82527fd7b6990105719101dabeb77144f2a3385c8033acd3af97e9423a695e81ad1eb55b85831061131d575050610dac93508201013880610d9e565b80548389018501528794508693909201918101611305565b346102f55760003660031901126102f5576020600754604051908152f35b346102f55760003660031901126102f5576010546040516001600160a01b039091168152602090f35b346102f55760203660031901126102f5576001600160a01b0361139d61037e565b1680156113bc5760005260036020526020604060002054604051908152f35b6040516322718ad960e21b815260006004820152602490fd5b346102f5576000806003193601126106b3576113ef61277f565b600680546001600160a01b0319811690915581906001600160a01b03167f8be0079c531659141344cd1fd0a4f28419497f9722a3daafe3b4186f6b6457e08280a380f35b346102f55760003660031901126102f5576020601254604051908152f35b346102f55760003660031901126102f5576006546040516001600160a01b039091168152602090f35b346102f55760203660031901126102f5576020610976600435611f60565b346102f5576000806003193601126106b357604051908060018054906114bd82610a43565b808652926020926001811690811561068657506001146114e7576104ba86610623818803826108e1565b9350600184527fb10e2d527612073b26eecdfd717e6a320cf44b4afac2b0732d9fcbe2b7fa0cf65b83851061152c57505050508101602001610623826104ba38610613565b805486860184015293820193810161150f565b346102f55760403660031901126102f55761155861037e565b6024358015158082036102f5576001600160a01b0383169283156115e4573360009081526005602090815260408083206001600160a01b039094168352929052209060ff801983541691161790557f17307eab39ab6107e8899845ad3d59bd9653f200f220920489ca2b5937696c31604051806115df339482919091602081019215159052565b0390a3005b604051630b61174360e31b815260048101859052602490fd5b634e487b7160e01b600052603260045260246000fd5b346102f55760203660031901126102f55760043560028110156102f5576116496116506104ba9260405192838092600a01610b31565b03826108e1565b60405191829160208352602083019061059a565b346102f55760403660031901126102f55761002161168061037e565b6024359081600052601660205261169e604060002054421015611d95565b6116b26001600160a01b0382161515611dd3565b336125ea565b346102f55760203660031901126102f55760043560009081526014602090815260409182902054825160ff8083168252600883901c811693820193909352601082901c83169381019390935260181c166060820152608090f35b67ffffffffffffffff81116108a457601f01601f191660200190565b92919261173a82611712565b9161174860405193846108e1565b8294818452818301116102f5578281602093846000960137010152565b346102f55760803660031901126102f55761177e61037e565b611786610368565b6064359167ffffffffffffffff83116102f557366023840112156102f5576117bb61002193369060248160040135910161172e565b9160443591611fdb565b346102f55760203660031901126102f55760043560005260146020526040600020604051906117f382610888565b5460ff808216808452600883901c82166020808601829052601085901c8416604080880182905260189690961c90941660609687018190528551938452908301919091529281019190915291820152608090f35b346102f55760203660031901126102f5576104ba6119f161062361199a6119bc6118dd6118d8600435611887816000526016602052604060002054421090565b8015611a4557611895612109565b905b8015611a2d576118a561212c565b925b8115611a0557506118b661212c565b905b156119fd57600d925b6118d26118cc610bc7565b94610d43565b926129c2565b612c55565b6119a860405193849261199461195e61191d60208701601c907f7b226e616d65223a2022455448205761746368696e6720535647222c0000000081520190565b7f226465736372697074696f6e223a2022416e204175746f6d617465642045544881526e081d1c9858dada5b99c814d591c88b608a1b6020820152602f0190565b7f22696d616765223a2022646174613a696d6167652f7376672b786d6c3b626173815263194d8d0b60e21b602082015260240190565b9061214a565b61227d60f01b815260020190565b03916118d8601f19938481018352826108e1565b6040517f646174613a6170706c69636174696f6e2f6a736f6e3b6261736536342c0000006020820152938491603d8301611994565b039081018352826108e1565b600c926118c1565b611a22611a1c611a2792611a17610d2b565b612161565b60ff1690565b61287e565b906118b8565b611a3f611a22611a1c85611a17610c8c565b926118a7565b611a4e82612388565b90611897565b346102f55760403660031901126102f55760043567ffffffffffffffff81116102f557366023820112156102f557611aa4611a9b602092369060248160040135910161172e565b60243590612161565b60ff60405191168152f35b346102f55760203660031901126102f5576020611adb6004356000526016602052604060002054421090565b6040519015158152f35b346102f55760203660031901126102f55760043560005260146020526040806000205460ff825191818160101c16835260181c166020820152f35b346102f55760203660031901126102f5576104ba611650600435612388565b346102f55760403660031901126102f557602060ff611b90611b5f61037e565b611b67610368565b6001600160a01b0391821660009081526005865260408082209290931681526020919091522090565b54166040519015158152f35b346102f55760203660031901126102f557611bb561037e565b611bbd61277f565b6001600160a01b03908116908115611c1157600654826bffffffffffffffffffffffff60a01b821617600655167f8be0079c531659141344cd1fd0a4f28419497f9722a3daafe3b4186f6b6457e0600080a3005b604051631e4fbdf760e01b815260006004820152602490fd5b346102f55760203660031901126102f557600435600755005b346102f5576000806003193601126106b35760405190808260095491611c6883610a43565b9283835260209460019186600182169182600014610e1a575050600114611c97575050610dac925003836108e1565b90859250600982527f6e1540171b6c0c960b71a7020d9f60077f6af931a8bbf590da0223dacf75c7af5b858310611cd9575050610dac93508201013880610d9e565b80548389018501528794508693909201918101611cc1565b90604051611cfe81610888565b606060ff8294548181168452818160081c166020850152818160101c16604085015260181c16910152565b634e487b7160e01b600052601160045260246000fd5b9060ff8091169116019060ff8211611d5357565b611d29565b60ff611d71606492826020818351169201511690611d3f565b16028060ff811603611d535760011c607f1690565b6000198114611d535760010190565b15611d9c57565b60405162461bcd60e51b815260206004820152600f60248201526e151bdad95b881a5cc81b1bd8dad959608a1b6044820152606490fd5b15611dda57565b60405162461bcd60e51b8152602060048201526024808201527f4552433732313a207472616e7366657220746f20746865207a65726f206164646044820152637265737360e01b6064820152608490fd5b600281901b91906001600160fe1b03811603611d5357565b81810292918115918404141715611d5357565b6105d090610ed560125491611d58565b60405190611e73826108a9565b60008252565b156102f557565b60405190611e8d82610888565b60006060838281528260208201528260408201520152565b611ead611e80565b508051812080600052601560205260406000209160405192611ece84610888565b5460ff81169384815260ff8260081c169182602083015260ff808260101c169182604085015260181c169182606082015295159283611f57575b5082611f4e575b5081611f45575b50611f2057505090565b611149925090611f326105d092612749565b9283916000526015602052604060002090565b90501538611f16565b15915038611f0f565b15925038611f08565b6000526014602052607f611fd46040600020611fce60405191611f8283610888565b549160ff808416918281526060826020830196818160081c168852818160101c16604085015260181c1691015280611fc06013549382851690611d3f565b9451169160081c1690611d3f565b90611d3f565b60011c1690565b91929092806000526016602052611ff9604060002054421015611d95565b6001600160a01b0384169161200f831515611dd3565b61201a8286866125ea565b843b612027575050505050565b61204f926020926000604051809681958294630a85bd0160e11b9a8b855233600486016127eb565b03925af1600091816120d8575b5061209b578261206a61281c565b805191908261209457604051633250574960e11b81526001600160a01b0383166004820152602490fd5b9050602001fd5b6001600160e01b031916036120b557503880808080610b60565b604051633250574960e11b81526001600160a01b03919091166004820152602490fd5b6120fb91925060203d602011612102575b6120f381836108e1565b8101906127ab565b903861205c565b503d6120e9565b60405190612116826108c5565b60078252660233830383038360cc1b6020830152565b60405190612139826108c5565b60028252613f3f60f01b6020830152565b9061215d60209282815194859201610577565b0190565b6040516000600a5461217281610a43565b80845290602090600190818116908115612286575060011461222c575b505050906121a2816121a89303826108e1565b82612d3c565b156121da57506121cf6121c86105d0926000526014602052604060002090565b5460ff1690565b60135460ff16611fce565b6040516121f3916121ee82610d3c81610a7d565b612d3c565b156122265760ff6122116105d0926000526014602052604060002090565b5460081c16611fce60135460ff9060081c1690565b50600090565b600a600090815293507fc65a7bb8d6351c1cf70c95a316cc6a92839c986682d98bc35f958f4883f9d2a85b838510612273575050505081016020016121a2826121a861218f565b8054868601840152938201938101612257565b8695506121a8969350602092506121a294915060ff191682840152151560051b820101929361218f565b600e54156122e457600e6000527fbb7b4a454dc3493923482f07822329ed19e8244eff582cc204f8554c3620c3fd90600090565b6115fd565b600e548110156122e457600e6000527fbb7b4a454dc3493923482f07822329ed19e8244eff582cc204f8554c3620c3fd0190600090565b600019810191908211611d5357565b90600f548210156122e457600f600052601f8260051c7f8d1108e10bcb7c27dddfc02ed9d693a074039d026cf4ea4240b40f7d581ac80201921690565b9060018201809211611d5357565b9060028201809211611d5357565b61239190611f60565b801561242157600f549060005b6123a783612320565b811015612413576123ca611a1c6123bd8361232f565b905460ff9160031b1c1690565b821015806123f4575b6123df5760010161239e565b6105d092506123ee91506122e9565b50610d43565b5061240c611a1c6123bd6124078461236c565b61232f565b82106123d3565b5050506105d06123ee6122b0565b506116496105d06124306122b0565b5060405192838092610b31565b34337f69ca02dd4edd7bf0a4abb9ed3b7af3f14778db5d61921c7dc7cd545266326de2600080a3565b6040918251612474816108a9565b600081526001600160a01b0383811691908215612597576124958486612671565b1661257f57833b6124a7575050505050565b6124d16000926020928798969751948580948193630a85bd0160e11b998a845233600485016127c0565b03925af16000918161255e575b5061251e575050506124ee61281c565b8051929083612517578151633250574960e11b81526001600160a01b0384166004820152602490fd5b8390602001fd5b9193916001600160e01b0319160361253c5750503880808080610b60565b51633250574960e11b81526001600160a01b0391909116600482015260249150fd5b61257891925060203d602011612102576120f381836108e1565b90386124de565b84516339e3563760e11b815260006004820152602490fd5b8551633250574960e11b815260006004820152602490fd5b6000818152600260205260409020546001600160a01b03169081156125d2575090565b60249060405190637e27328960e01b82526004820152fd5b906001600160a01b03908181161561265857612607848392612671565b16918261262757604051637e27328960e01b815260048101859052602490fd5b169182820361263557505050565b60649350604051926364283d7b60e01b8452600484015260248301526044820152fd5b604051633250574960e11b815260006004820152602490fd5b6000828152600260205260409020546001600160a01b039081169291906126b59084612702575b821691826126de575b6107fa846000526002602052604060002090565b827fddf252ad1be2c89b69c2b068fc378daa952ba7f163c4a11628f55a4df523b3ef600080a490565b6001600160a01b0381166000908152600360205260409020600181540190556126a1565b612716846000526004602052604060002090565b80546001600160a01b03191690556001600160a01b03851660009081526003602052604090208054600019019055612698565b612751611e80565b5060ff60038183511601818111611d535781168252602082019060038183511601818111611d535716905290565b6006546001600160a01b0316330361279357565b60405163118cdaa760e01b8152336004820152602490fd5b908160209103126102f557516105d0816102e3565b6105d0939260809260018060a01b03168252600060208301526040820152816060820152019061059a565b6001600160a01b0391821681529116602082015260408101919091526080606082018190526105d09291019061059a565b3d15612847573d9061282d82611712565b9161283b60405193846108e1565b82523d6000602084013e565b606090565b9061285682611712565b61286360405191826108e1565b8281528092612874601f1991611712565b0190602036910137565b806000917a184f03e93ff9f4daa797ed6e38ed64bf6a1f010000000000000000808210156129b4575b506d04ee2d6d415b85acef8100000000808310156129a5575b50662386f26fc1000080831015612996575b506305f5e10080831015612987575b5061271080831015612978575b506064821015612968575b600a8092101561295e575b6001908160216129166001870161284c565b95860101905b612928575b5050505090565b600019019083906f181899199a1a9b1b9c1cb0b131b232b360811b8282061a8353049182156129595791908261291c565b612921565b9160010191612904565b91906064600291049101916128f9565b600491939204910191386128ee565b600891939204910191386128e1565b601091939204910191386128d2565b602091939204910191386128c0565b6040935081049150386128a7565b604080517f3c73766720786d6c6e733d27687474703a2f2f7777772e77332e6f72672f323060208201527f30302f737667272076657273696f6e3d27312e312720786d6c6e733a786c696e918101919091527f6b3d27687474703a2f2f7777772e77332e6f72672f313939392f786c696e6b2760608201527f20786d6c6e733a7376676a733d27687474703a2f2f7376676a732e636f6d2f7360808201527f76676a73272077696474683d2735303027206865696768743d2735303027207060a08201527f72657365727665417370656374526174696f3d276e6f6e65272076696577426f60c08201527f783d273020302035303020353030273e203c726563742077696474683d27313060e08201527f302527206865696768743d2731303025272066696c6c3d2700000000000000006101008201529485949390929091612b109061011887019061214a565b612b199161214a565b612b229161214a565b612b2b9161214a565b631390179f60e11b81526004017f3c696d61676520783d273530252720793d273530252720666f6e742d73697a6581527f3d273132382720646f6d696e616e742d626173656c696e653d276d6964646c6560208201527f2720746578742d616e63686f723d276d6964646c65273e0000000000000000006040820152605701612bb39161214a565b671e17b4b6b0b3b29f60c11b8152600801651e17b9bb339f60d11b815260060103601f19810182526105d090826108e1565b604051906060820182811067ffffffffffffffff8211176108a457604052604082527f6768696a6b6c6d6e6f707172737475767778797a303132333435363738392b2f6040837f4142434445464748494a4b4c4d4e4f505152535455565758595a61626364656660208201520152565b805115612d3357612c64612be5565b612c88612c83612c7e612c77855161237a565b6003900490565b611e2b565b61284c565b91602083019181825183016020810191825193600084525b828210612ce15750505052516003900660018114612cce57600214612cc3575090565b603d90600019015390565b50603d9081600019820153600119015390565b9091956004906003809401938451600190603f9082828260121c16880101518553828282600c1c16880101518386015382828260061c1688010151600286015316850101519082015301959190612ca0565b506105d0611e66565b906040519182612d58602082019260208452604083019061059a565b0392612d6c601f19948581018352826108e1565b51902091612d8e60405191826119f1602082019560208752604083019061059a565b5190201490565b610f9a90600052600460205260406000209056fea2646970667358221220403264823562aadbf3bccf7f25c129316e823423f87229182962163f420c972964736f6c63430008180033bb7b4a454dc3493923482f07822329ed19e8244eff582cc204f8554c3620c3fd290decd9548b62a8d60345a988386fc84ba6bc95484008f6362f93160ef3e563d7b6990105719101dabeb77144f2a3385c8033acd3af97e9423a695e81ad1eb56e1540171b6c0c960b71a7020d9f60077f6af931a8bbf590da0223dacf75c7afb10e2d527612073b26eecdfd717e6a320cf44b4afac2b0732d9fcbe2b7fa0cf6","linkReferences":{}},"methodIdentifiers":{"BASE_PRICE_IN_MATIC()":"8aa33015","_ccipHandler()":"68b16779","approve(address,uint256)":"095ea7b3","balanceOf(address)":"70a08231","burn(uint256)":"42966c68","calculatePrice((uint8,uint8,uint8,uint8))":"24773270","calculateUpgrade((uint8,uint8,uint8,uint8))":"621167e6","changeCCIP(address)":"3e3c0740","getApproved(uint256)":"081812fc","getOwner(uint256)":"c41a360a","getSpecial(uint256)":"e1d916f7","getStat(string,uint256)":"d5784f15","getTokenStats(uint256)":"c5829514","isApprovedForAll(address,address)":"e985e9c5","itemImage()":"1af8a97d","itemType()":"f5470d7b","lockStatus(uint256)":"d728f75c","lockedItemImage()":"6467007b","mint()":"1249c58b","mintPrice()":"6817c76c","name()":"06fdde03","newStatMap(bytes32)":"46838f30","owner()":"8da5cb5b","ownerOf(uint256)":"6352211e","powerLevelColor(uint256)":"e2891d41","powerLevel__(uint256)":"94a409d8","renounceOwnership()":"715018a6","safeTransferFrom(address,address,uint256)":"42842e0e","safeTransferFrom(address,address,uint256,bytes)":"b88d4fde","setApprovalForAll(address,bool)":"a22cb465","setMintPrice(uint256)":"f4a0a528","setTokenLockStatus(uint256,uint256)":"08bbefef","statLabels(uint256)":"a50c8f2c","statPriceMultiplier__((uint8,uint8,uint8,uint8))":"09b2d397","supportsInterface(bytes4)":"01ffc9a7","symbol()":"95d89b41","tokenLockedTill(uint256)":"05b1603f","tokenURI(uint256)":"c87b56dd","transfer(address,uint256)":"a9059cbb","transferFrom(address,address,uint256)":"23b872dd","transferOwnership(address)":"f2fde38b","updateStats(uint256,address,uint8,uint8,uint8,uint8)":"02ee9785","upgrade(uint256)":"45977d03","upgradeMapping(uint256)":"ad3d47d7"},"id":73}