{"abi":[{"type":"constructor","inputs":[],"stateMutability":"nonpayable"},{"type":"receive","stateMutability":"payable"},{"type":"function","name":"BASE_PRICE_IN_MATIC","inputs":[],"outputs":[{"name":"","type":"uint256","internalType":"uint256"}],"stateMutability":"view"},{"type":"function","name":"_ccipHandler","inputs":[],"outputs":[{"name":"","type":"address","internalType":"address"}],"stateMutability":"view"},{"type":"function","name":"_sign","inputs":[],"outputs":[{"name":"","type":"string","internalType":"string"}],"stateMutability":"view"},{"type":"function","name":"approve","inputs":[{"name":"to","type":"address","internalType":"address"},{"name":"tokenId","type":"uint256","internalType":"uint256"}],"outputs":[],"stateMutability":"nonpayable"},{"type":"function","name":"balanceOf","inputs":[{"name":"owner","type":"address","internalType":"address"}],"outputs":[{"name":"","type":"uint256","internalType":"uint256"}],"stateMutability":"view"},{"type":"function","name":"calculateUpgrade","inputs":[{"name":"previousStat","type":"tuple","internalType":"struct RPGItemUtils.StatType","components":[{"name":"stat1","type":"uint8","internalType":"uint8"},{"name":"stat2","type":"uint8","internalType":"uint8"},{"name":"specialType","type":"uint8","internalType":"uint8"},{"name":"specialPoints","type":"uint8","internalType":"uint8"}]}],"outputs":[{"name":"","type":"tuple","internalType":"struct RPGItemUtils.StatType","components":[{"name":"stat1","type":"uint8","internalType":"uint8"},{"name":"stat2","type":"uint8","internalType":"uint8"},{"name":"specialType","type":"uint8","internalType":"uint8"},{"name":"specialPoints","type":"uint8","internalType":"uint8"}]}],"stateMutability":"nonpayable"},{"type":"function","name":"changeCCIP","inputs":[{"name":"newAdd","type":"address","internalType":"address"}],"outputs":[],"stateMutability":"nonpayable"},{"type":"function","name":"getApproved","inputs":[{"name":"tokenId","type":"uint256","internalType":"uint256"}],"outputs":[{"name":"","type":"address","internalType":"address"}],"stateMutability":"view"},{"type":"function","name":"getOwner","inputs":[{"name":"tokenId","type":"uint256","internalType":"uint256"}],"outputs":[{"name":"","type":"address","internalType":"address"}],"stateMutability":"view"},{"type":"function","name":"getSpecial","inputs":[{"name":"tokenId","type":"uint256","internalType":"uint256"}],"outputs":[{"name":"","type":"uint8","internalType":"uint8"},{"name":"","type":"uint8","internalType":"uint8"}],"stateMutability":"view"},{"type":"function","name":"getStat","inputs":[{"name":"statLabel","type":"string","internalType":"string"},{"name":"tokenId","type":"uint256","internalType":"uint256"}],"outputs":[{"name":"stat","type":"uint8","internalType":"uint8"}],"stateMutability":"view"},{"type":"function","name":"getTokenStats","inputs":[{"name":"tokenId","type":"uint256","internalType":"uint256"}],"outputs":[{"name":"","type":"uint8","internalType":"uint8"},{"name":"","type":"uint8","internalType":"uint8"},{"name":"","type":"uint8","internalType":"uint8"},{"name":"","type":"uint8","internalType":"uint8"}],"stateMutability":"view"},{"type":"function","name":"isApprovedForAll","inputs":[{"name":"owner","type":"address","internalType":"address"},{"name":"operator","type":"address","internalType":"address"}],"outputs":[{"name":"","type":"bool","internalType":"bool"}],"stateMutability":"view"},{"type":"function","name":"itemImage__","inputs":[],"outputs":[{"name":"","type":"string","internalType":"string"}],"stateMutability":"view"},{"type":"function","name":"itemType","inputs":[],"outputs":[{"name":"","type":"string","internalType":"string"}],"stateMutability":"view"},{"type":"function","name":"lockStatus","inputs":[{"name":"tokenId","type":"uint256","internalType":"uint256"}],"outputs":[{"name":"","type":"bool","internalType":"bool"}],"stateMutability":"view"},{"type":"function","name":"lockedItemImage","inputs":[],"outputs":[{"name":"","type":"string","internalType":"string"}],"stateMutability":"view"},{"type":"function","name":"mint","inputs":[],"outputs":[],"stateMutability":"payable"},{"type":"function","name":"mintPrice","inputs":[],"outputs":[{"name":"","type":"uint256","internalType":"uint256"}],"stateMutability":"view"},{"type":"function","name":"name","inputs":[],"outputs":[{"name":"","type":"string","internalType":"string"}],"stateMutability":"view"},{"type":"function","name":"newStatMap","inputs":[{"name":"","type":"bytes32","internalType":"bytes32"}],"outputs":[{"name":"stat1","type":"uint8","internalType":"uint8"},{"name":"stat2","type":"uint8","internalType":"uint8"},{"name":"specialType","type":"uint8","internalType":"uint8"},{"name":"specialPoints","type":"uint8","internalType":"uint8"}],"stateMutability":"view"},{"type":"function","name":"owner","inputs":[],"outputs":[{"name":"","type":"address","internalType":"address"}],"stateMutability":"view"},{"type":"function","name":"ownerOf","inputs":[{"name":"tokenId","type":"uint256","internalType":"uint256"}],"outputs":[{"name":"","type":"address","internalType":"address"}],"stateMutability":"view"},{"type":"function","name":"renounceOwnership","inputs":[],"outputs":[],"stateMutability":"nonpayable"},{"type":"function","name":"safeTransferFrom","inputs":[{"name":"from","type":"address","internalType":"address"},{"name":"to","type":"address","internalType":"address"},{"name":"tokenId","type":"uint256","internalType":"uint256"}],"outputs":[],"stateMutability":"nonpayable"},{"type":"function","name":"safeTransferFrom","inputs":[{"name":"from","type":"address","internalType":"address"},{"name":"to","type":"address","internalType":"address"},{"name":"tokenId","type":"uint256","internalType":"uint256"},{"name":"data","type":"bytes","internalType":"bytes"}],"outputs":[],"stateMutability":"nonpayable"},{"type":"function","name":"setApprovalForAll","inputs":[{"name":"operator","type":"address","internalType":"address"},{"name":"approved","type":"bool","internalType":"bool"}],"outputs":[],"stateMutability":"nonpayable"},{"type":"function","name":"setMintPrice","inputs":[{"name":"_mintPrice","type":"uint256","internalType":"uint256"}],"outputs":[],"stateMutability":"nonpayable"},{"type":"function","name":"setSign","inputs":[{"name":"sign","type":"string","internalType":"string"}],"outputs":[],"stateMutability":"nonpayable"},{"type":"function","name":"setTokenLockStatus","inputs":[{"name":"tokenId","type":"uint256","internalType":"uint256"},{"name":"unlockTime","type":"uint256","internalType":"uint256"}],"outputs":[],"stateMutability":"nonpayable"},{"type":"function","name":"statLabels","inputs":[{"name":"","type":"uint256","internalType":"uint256"}],"outputs":[{"name":"","type":"string","internalType":"string"}],"stateMutability":"view"},{"type":"function","name":"supportsInterface","inputs":[{"name":"interfaceId","type":"bytes4","internalType":"bytes4"}],"outputs":[{"name":"","type":"bool","internalType":"bool"}],"stateMutability":"view"},{"type":"function","name":"symbol","inputs":[],"outputs":[{"name":"","type":"string","internalType":"string"}],"stateMutability":"view"},{"type":"function","name":"tokenLockedTill","inputs":[{"name":"","type":"uint256","internalType":"uint256"}],"outputs":[{"name":"","type":"uint256","internalType":"uint256"}],"stateMutability":"view"},{"type":"function","name":"tokenURI","inputs":[{"name":"tokenId","type":"uint256","internalType":"uint256"}],"outputs":[{"name":"","type":"string","internalType":"string"}],"stateMutability":"view"},{"type":"function","name":"transfer","inputs":[{"name":"to","type":"address","internalType":"address"},{"name":"tokenId","type":"uint256","internalType":"uint256"}],"outputs":[],"stateMutability":"nonpayable"},{"type":"function","name":"transferFrom","inputs":[{"name":"from","type":"address","internalType":"address"},{"name":"to","type":"address","internalType":"address"},{"name":"tokenId","type":"uint256","internalType":"uint256"}],"outputs":[],"stateMutability":"nonpayable"},{"type":"function","name":"transferOwnership","inputs":[{"name":"newOwner","type":"address","internalType":"address"}],"outputs":[],"stateMutability":"nonpayable"},{"type":"function","name":"updateStats","inputs":[{"name":"tokenId","type":"uint256","internalType":"uint256"},{"name":"newOwner","type":"address","internalType":"address"},{"name":"stat1","type":"uint8","internalType":"uint8"},{"name":"stat2","type":"uint8","internalType":"uint8"},{"name":"specialType","type":"uint8","internalType":"uint8"},{"name":"specialPoints","type":"uint8","internalType":"uint8"}],"outputs":[{"name":"","type":"bool","internalType":"bool"}],"stateMutability":"nonpayable"},{"type":"function","name":"upgrade","inputs":[{"name":"tokenId","type":"uint256","internalType":"uint256"}],"outputs":[],"stateMutability":"payable"},{"type":"function","name":"upgradeMapping","inputs":[{"name":"","type":"uint256","internalType":"uint256"}],"outputs":[{"name":"stat1","type":"uint8","internalType":"uint8"},{"name":"stat2","type":"uint8","internalType":"uint8"},{"name":"specialType","type":"uint8","internalType":"uint8"},{"name":"specialPoints","type":"uint8","internalType":"uint8"}],"stateMutability":"view"},{"type":"event","name":"Approval","inputs":[{"name":"owner","type":"address","indexed":true,"internalType":"address"},{"name":"approved","type":"address","indexed":true,"internalType":"address"},{"name":"tokenId","type":"uint256","indexed":true,"internalType":"uint256"}],"anonymous":false},{"type":"event","name":"ApprovalForAll","inputs":[{"name":"owner","type":"address","indexed":true,"internalType":"address"},{"name":"operator","type":"address","indexed":true,"internalType":"address"},{"name":"approved","type":"bool","indexed":false,"internalType":"bool"}],"anonymous":false},{"type":"event","name":"NftMinted","inputs":[{"name":"recipient","type":"address","indexed":true,"internalType":"address"},{"name":"tokenId","type":"uint256","indexed":true,"internalType":"uint256"},{"name":"timestamp","type":"uint256","indexed":true,"internalType":"uint256"}],"anonymous":false},{"type":"event","name":"OwnershipTransferred","inputs":[{"name":"previousOwner","type":"address","indexed":true,"internalType":"address"},{"name":"newOwner","type":"address","indexed":true,"internalType":"address"}],"anonymous":false},{"type":"event","name":"Transfer","inputs":[{"name":"from","type":"address","indexed":true,"internalType":"address"},{"name":"to","type":"address","indexed":true,"internalType":"address"},{"name":"tokenId","type":"uint256","indexed":true,"internalType":"uint256"}],"anonymous":false},{"type":"event","name":"Transfer","inputs":[{"name":"sender","type":"address","indexed":true,"internalType":"address"},{"name":"amount","type":"uint256","indexed":true,"internalType":"uint256"}],"anonymous":false},{"type":"error","name":"ERC721IncorrectOwner","inputs":[{"name":"sender","type":"address","internalType":"address"},{"name":"tokenId","type":"uint256","internalType":"uint256"},{"name":"owner","type":"address","internalType":"address"}]},{"type":"error","name":"ERC721InsufficientApproval","inputs":[{"name":"operator","type":"address","internalType":"address"},{"name":"tokenId","type":"uint256","internalType":"uint256"}]},{"type":"error","name":"ERC721InvalidApprover","inputs":[{"name":"approver","type":"address","internalType":"address"}]},{"type":"error","name":"ERC721InvalidOperator","inputs":[{"name":"operator","type":"address","internalType":"address"}]},{"type":"error","name":"ERC721InvalidOwner","inputs":[{"name":"owner","type":"address","internalType":"address"}]},{"type":"error","name":"ERC721InvalidReceiver","inputs":[{"name":"receiver","type":"address","internalType":"address"}]},{"type":"error","name":"ERC721InvalidSender","inputs":[{"name":"sender","type":"address","internalType":"address"}]},{"type":"error","name":"ERC721NonexistentToken","inputs":[{"name":"tokenId","type":"uint256","internalType":"uint256"}]},{"type":"error","name":"OwnableInvalidOwner","inputs":[{"name":"owner","type":"address","internalType":"address"}]},{"type":"error","name":"OwnableUnauthorizedAccount","inputs":[{"name":"account","type":"address","internalType":"address"}]}],"bytecode":{"object":"0x608060405234610a8d576100136040610a92565b600581526414dddbdc9960da1b602082015261002f6040610a92565b6002815261535760f01b602082015281516001600160401b0381116105c757610059600054610ab7565b601f8111610a3f575b50602092601f82116001146109db576100959293829160009261080f575b50508160011b916000199060031b1c19161790565b6000555b80516001600160401b0381116105c7576100b4600154610ab7565b601f8111610981575b50602091601f821160011461091d576100ed926000918361080f5750508160011b916000199060031b1c19161790565b6001555b6006805473b1293a8bff9323aad0419e46dd9846cc7363d44b6001600160a01b0319821681179092556001600160a01b03167f8be0079c531659141344cd1fd0a4f28419497f9722a3daafe3b4186f6b6457e0600080a3610153601054610ab7565b601f81116108d2575b5060c360109081556000527f68747470733a2f2f75706c6f61642e77696b696d656469612e6f72672f77696b6000805160206138a3833981519152557f6970656469612f636f6d6d6f6e732f7468756d622f352f35352f426974636f697f1b6847dc741a1b0cd08d278845f9d819d87b734759afb55fe2de5cb82a9ae673557f6e5f6c6f676f2e6a70672f36343070782d426974636f696e5f6c6f676f2e6a707f1b6847dc741a1b0cd08d278845f9d819d87b734759afb55fe2de5cb82a9ae67455606760f81b7f1b6847dc741a1b0cd08d278845f9d819d87b734759afb55fe2de5cb82a9ae6755560115461025190610ab7565b601f8111610887575b5060c760119081556000527f68747470733a2f2f706c756d2d6c6961626c652d6d6173746f646f6e2d343530600080516020613863833981519152557f2e6d7970696e6174612e636c6f75642f697066732f516d615844344e4c4e39687f31ecc21a745e3968a04e9570e4425bc18fa8019c68028196b546d1669c200c69557f6e356362396a5464373866614d765533524e6d6633346776684c47736e7136377f31ecc21a745e3968a04e9570e4425bc18fa8019c68028196b546d1669c200c6a55627a733360e81b7f31ecc21a745e3968a04e9570e4425bc18fa8019c68028196b546d1669c200c6b556013805463ffffffff191663281e140a179055604080519081018181106001600160401b038211176105c75760405261037e6040610a92565b60028152616c3160f01b602082015281526103996040610a92565b6002815261361960f11b60208201526020820152600b906000905b600282106107a7576103c7600e54610ab7565b601f8111610768575b50600c653bb2b0b837b760d11b01600e55604051606081016001600160401b038111828210176105c7576040526104076040610a92565b600781526611b3193319331960c91b602082015281526104276040610a92565b60078152661199331933193360c91b6020820152602082015261044a6040610a92565b60078152662364656465646560c81b60208201526040820152600d546003600d55806003106106c3575b50600d6000908152600080516020613883833981519152915b600382106105dd57604051608081016001600160401b038111828210176105c75760405260008152600a602082015260146040820152601e6060820152600754600460075580600410610560575b506007600052602060002060009160005b6004811061053c57505055601280546001600160a01b03191673a1293a8bff9323aad0419e46dd9846cc7363d44b179055662386f26fc100006008556001600a55604051612d1e9081610b458239f35b9092602060019160ff8651169060ff8560031b92831b921b191617940191016104ec565b60076000527fa66cc928b5edb82af9bd49922954155ab7b0942694bea4ce44661d9a8736c688805463ffffffff1681556105c191601f0160051c017fa66cc928b5edb82af9bd49922954155ab7b0942694bea4ce44661d9a8736c689610af1565b816104db565b634e487b7160e01b600052604160045260246000fd5b80518051906001600160401b0382116105c757610604826105fe8754610ab7565b87610b08565b602090601f8311600114610656579261063c8360019594602094879660009261064b5750508160011b916000199060031b1c19161790565b86555b0193019101909161048d565b015190508980610080565b90601f1983169186600052816000209260005b8181106106ab5750936020936001969387969383889510610692575b505050811b01865561063f565b015160001960f88460031b161c19169055888080610685565b82840151855560019094019360209384019301610669565b600d600052600080516020613883833981519152017fd7b6990105719101dabeb77144f2a3385c8033acd3af97e9423a695e81ad1eb85b8181106107075750610474565b8061071460019254610ab7565b80610721575b50016106fa565b601f811183146107375750600081555b8461071a565b610755908260005283601f6020600020920160051c82019101610af1565b8060005260006020812081835555610731565b600e6000526107a190601f0160051c7fbb7b4a454dc3493923482f07822329ed19e8244eff582cc204f8554c3620c3fd90810190610af1565b806103d0565b80518051906001600160401b0382116105c7576107c8826105fe8754610ab7565b602090601f831160011461081a57926108008360019594602094879660009261080f5750508160011b916000199060031b1c19161790565b86555b019301910190916103b4565b015190503880610080565b90601f1983169186600052816000209260005b81811061086f5750936020936001969387969383889510610856575b505050811b018655610803565b015160001960f88460031b161c19169055388080610849565b8284015185556001909401936020938401930161082d565b60116000526108cc90601f0160051c600080516020613863833981519152017f31ecc21a745e3968a04e9570e4425bc18fa8019c68028196b546d1669c200c6c610af1565b3861025a565b601060005261091790601f0160051c6000805160206138a3833981519152017f1b6847dc741a1b0cd08d278845f9d819d87b734759afb55fe2de5cb82a9ae676610af1565b3861015c565b601f198216926001600052806000209160005b85811061096957508360019510610950575b505050811b016001556100f1565b015160001960f88460031b161c19169055388080610942565b91926020600181928685015181550194019201610930565b60016000526109cb907fb10e2d527612073b26eecdfd717e6a320cf44b4afac2b0732d9fcbe2b7fa0cf6601f840160051c810191602085106109d1575b601f0160051c0190610af1565b386100bd565b90915081906109be565b601f1982169360008052806000209160005b868110610a275750836001959610610a0e575b505050811b01600055610099565b015160001960f88460031b161c19169055388080610a00565b919260206001819286850151815501940192016109ed565b60008052610a87907f290decd9548b62a8d60345a988386fc84ba6bc95484008f6362f93160ef3e563601f840160051c810191602085106109d157601f0160051c0190610af1565b38610062565b600080fd5b6040519190601f01601f191682016001600160401b038111838210176105c757604052565b90600182811c92168015610ae7575b6020831014610ad157565b634e487b7160e01b600052602260045260246000fd5b91607f1691610ac6565b818110610afc575050565b60008155600101610af1565b9190601f8111610b1757505050565b610b42926000526020600020906020601f840160051c830193106109d157601f0160051c0190610af1565b56fe60806040526004361015610023575b361561001957600080fd5b610021611ebe565b005b60003560e01c806301ffc9a7146102ae57806302ee9785146102a957806305b1603f146102a457806306fdde031461029f578063081812fc1461029a57806308bbefef14610295578063095ea7b3146102905780631249c58b1461028b57806323b872dd1461028657806331fbbae2146102815780633e3c07401461027c57806342842e0e1461027757806345977d031461027257806346838f301461026d578063621167e6146102685780636352211e146102225780636467007b146102635780636817c76c1461025e57806368b167791461025957806370a0823114610254578063715018a61461024f5780638aa330151461024a5780638da5cb5b1461024557806395d89b4114610240578063a22cb4651461023b578063a50c8f2c14610236578063a9059cbb14610231578063ad3d47d71461022c578063b88d4fde14610227578063c41a360a14610222578063c58295141461021d578063c87b56dd14610218578063caf7226414610213578063d5784f151461020e578063d728f75c14610209578063e1d916f714610204578063e985e9c5146101ff578063f2fde38b146101fa578063f4a0a528146101f5578063f5470d7b146101f05763f759e5470361000e5761190b565b6118e5565b6118c4565b61183a565b6117dd565b61175a565b611724565b6116da565b6116b4565b61146d565b611349565b610da0565b6112e9565b61128f565b61121a565b6111cc565b6110fc565b611054565b61102b565b611009565b610fac565b610f56565b610f2d565b610f0f565b610ece565b610d18565b610cbe565b610ba5565b610b7b565b610b38565b610a24565b61091d565b610834565b610726565b6106e6565b6106a8565b6105d2565b61054a565b6103ca565b6102ca565b6001600160e01b03198116036102c557565b600080fd5b346102c55760203660031901126102c55760206004356102e9816102b3565b63ffffffff60e01b166380ac58cd60e01b8114908115610327575b8115610316575b506040519015158152f35b6301ffc9a760e01b1490503861030b565b635b5e139f60e01b81149150610304565b602435906001600160a01b03821682036102c557565b600435906001600160a01b03821682036102c557565b60ff1690565b6044359060ff821682036102c557565b6064359060ff821682036102c557565b6084359060ff821682036102c557565b60a4359060ff821682036102c557565b6004359060ff821682036102c557565b6024359060ff821682036102c557565b346102c55760c03660031901126102c5576004356103e6610338565b6103ee61036a565b916103f761037a565b9261040061038a565b9261040961039a565b9361041f60018060a01b03601254163314611931565b6001600160a01b038216918215610511576104b99661049c61049361048e886104b0976104a6968261047561046960609e600052600260205260018060a01b036040600020541690565b6001600160a01b031690565b156104c9575b5050506000526014602052604060002090565b61197d565b60ff9096168652565b60ff166020850152565b60ff166040830152565b019060ff169052565b60405160018152602090f35b0390f35b6104d291611ee7565b6000828152601560205260408120558142917ffc612aad4e70fb3e1d4832d8c65f92e4024aa87f809d131267a79bceee757f33600080a438808261047b565b60405162461bcd60e51b815260206004820152601160248201527024b73b30b634b2103732bb9037bbb732b960791b6044820152606490fd5b346102c55760203660031901126102c55760043560005260156020526020604060002054604051908152f35b60005b8381106105895750506000910152565b8181015183820152602001610579565b906020916105b281518092818552858086019101610576565b601f01601f1916010190565b9060206105cf928181520190610599565b90565b346102c55760003660031901126102c557604051600080546105f381610de1565b80845290600181169081156106845750600114610627575b6104c58361061b81850382610994565b604051918291826105be565b60008080527f290decd9548b62a8d60345a988386fc84ba6bc95484008f6362f93160ef3e563939250905b80821061066a5750909150810160200161061b61060b565b919260018160209254838588010152019101909291610652565b60ff191660208086019190915291151560051b8401909101915061061b905061060b565b346102c55760203660031901126102c5576004356106c581612011565b506000526004602052602060018060a01b0360406000205416604051908152f35b346102c55760403660031901126102c5576004356024359061071360018060a01b03601254163314611931565b6000526015602052604060002055600080f35b346102c55760403660031901126102c55761073f61034e565b6024359061074c82612011565b33151580610821575b806107df575b6107ca57610021926107ab9181906001600160a01b0385811691167f8c5be1e5ebec7d5bd14f71427d1e84f3dd0314c0f7b2291e5b200ac8c7c3b925600080a46000526004602052604060002090565b80546001600160a01b0319166001600160a01b03909216919091179055565b63a9fbf51f60e01b6000523360045260246000fd5b5060ff610819336108028460018060a01b03166000526005602052604060002090565b9060018060a01b0316600052602052604060002090565b54161561075b565b506001600160a01b038116331415610755565b60003660031901126102c55760085434036108a95760095460001981146108a45761086160018201600955565b61086b8133611ee7565b6000818152601560205260408120554290337ffc612aad4e70fb3e1d4832d8c65f92e4024aa87f809d131267a79bceee757f33600080a4005b6119b5565b60405162461bcd60e51b815260206004820152601260248201527124b739bab33334b1b4b2b73a1022ba3432b960711b6044820152606490fd5b60609060031901126102c5576004356001600160a01b03811681036102c557906024356001600160a01b03811681036102c5579060443590565b346102c55761002161092e366108e3565b9161094460018060a01b03601254163314611931565b6109586001600160a01b03831615156119cb565b612048565b634e487b7160e01b600052604160045260246000fd5b6080810190811067ffffffffffffffff82111761098f57604052565b61095d565b90601f8019910116810190811067ffffffffffffffff82111761098f57604052565b67ffffffffffffffff811161098f57601f01601f191660200190565b9291926109de826109b6565b916109ec6040519384610994565b8294818452818301116102c5578281602093846000960137010152565b9080601f830112156102c5578160206105cf933591016109d2565b346102c55760203660031901126102c55760043567ffffffffffffffff81116102c557610a55903690600401610a09565b805167ffffffffffffffff811161098f57610a7a81610a75600f54610de1565b611a23565b602091601f8211600114610aba57610aaa9260009183610aaf575b50508160011b916000199060031b1c19161790565b600f55005b015190503880610a95565b600f600052601f198216927f8d1108e10bcb7c27dddfc02ed9d693a074039d026cf4ea4240b40f7d581ac8029160005b858110610b2057508360019510610b07575b505050811b01600f55005b015160001960f88460031b161c19169055388080610afc565b91926020600181928685015181550194019201610aea565b346102c55760203660031901126102c557610b5161034e565b610b596120be565b601280546001600160a01b0319166001600160a01b0392909216919091179055005b346102c557610021610b8c366108e3565b9060405192610b9c602085610994565b60008452611c45565b60203660031901126102c557610021600435600081815260026020526040902054610bda906001600160a01b03161515611a8b565b806000526015602052610bf4604060002054421015611acd565b806000526014602052610c66610c41604060002060ff60405191610c1783610973565b548181168352818160081c166020840152818160101c16604084015260181c166060820152611b7c565b91610c56610c4e846120ff565b341015611b0b565b6000526014602052604060002090565b815181546020840151604085015160609095015163ffffffff1990921660ff939093169290921760089290921b61ff00169190911760109390931b62ff0000169290921760189290921b63ff00000016919091179055565b346102c55760203660031901126102c55760043560009081526016602090815260409182902054825160ff8083168252600883901c811693820193909352601082901c83169381019390935260181c166060820152608090f35b346102c55760803660031901126102c5576080610d70604051610d3a81610973565b610d426103aa565b8152610d4c6103ba565b6020820152610d5961036a565b6040820152610d6661037a565b6060820152611b7c565b60ff6060604051928281511684528260208201511660208501528260408201511660408501520151166060820152f35b346102c55760203660031901126102c5576004356000908152600260209081526040909120546001600160a01b03166040516001600160a01b039091168152f35b90600182811c92168015610e11575b6020831014610dfb57565b634e487b7160e01b600052602260045260246000fd5b91607f1691610df0565b60009291815491610e2b83610de1565b8083529260018116908115610e815750600114610e4757505050565b60009081526020812093945091925b838310610e67575060209250010190565b600181602092949394548385870101520191019190610e56565b915050602093945060ff929192191683830152151560051b010190565b60405190610eb882610eb1816000610e1b565b0383610994565b565b90610eb8610eb19260405193848092610e1b565b346102c55760003660031901126102c5576104c5604051610efb81610ef4816011610e1b565b0382610994565b604051918291602083526020830190610599565b346102c55760003660031901126102c5576020600854604051908152f35b346102c55760003660031901126102c5576012546040516001600160a01b039091168152602090f35b346102c55760203660031901126102c5576001600160a01b03610f7761034e565b168015610f965760005260036020526020604060002054604051908152f35b6322718ad960e21b600052600060045260246000fd5b346102c55760003660031901126102c557610fc56120be565b600680546001600160a01b031981169091556000906001600160a01b03167f8be0079c531659141344cd1fd0a4f28419497f9722a3daafe3b4186f6b6457e08280a3005b346102c55760003660031901126102c5576020604051662386f26fc100008152f35b346102c55760003660031901126102c5576006546040516001600160a01b039091168152602090f35b346102c55760003660031901126102c557604051600060015461107681610de1565b8084529060018116908115610684575060011461109d576104c58361061b81850382610994565b600160009081527fb10e2d527612073b26eecdfd717e6a320cf44b4afac2b0732d9fcbe2b7fa0cf6939250905b8082106110e25750909150810160200161061b61060b565b9192600181602092548385880101520191019092916110ca565b346102c55760403660031901126102c55761111561034e565b6024358015158082036102c5576001600160a01b0383169283156111a1573360009081526005602090815260408083206001600160a01b039094168352929052209060ff801983541691161790557f17307eab39ab6107e8899845ad3d59bd9653f200f220920489ca2b5937696c316040518061119c339482919091602081019215159052565b0390a3005b83630b61174360e31b60005260045260246000fd5b634e487b7160e01b600052603260045260246000fd5b346102c55760203660031901126102c55760043560028110156102c557610eb19061120260009160405193848092600b01610e1b565b6104c560405192839250602083526020830190610599565b346102c55760403660031901126102c55761002161123661034e565b6024359081600052600260205261125b60018060a01b03604060002054161515611a8b565b816000526015602052611275604060002054421015611acd565b6112896001600160a01b03821615156119cb565b33612048565b346102c55760203660031901126102c55760043560009081526014602090815260409182902054825160ff8083168252600883901c811693820193909352601082901c83169381019390935260181c166060820152608090f35b346102c55760803660031901126102c55761130261034e565b61130a610338565b906044356064359267ffffffffffffffff84116102c557366023850112156102c5576113436100219436906024816004013591016109d2565b92611c45565b346102c55760203660031901126102c557600435600081815260026020526040902054611380906001600160a01b03161515611a8b565b600052601460205260406000206040519061139a82610973565b546104c560ff82169182845261143e6113d9602086019460ff8460081c16865260ff60606040890198828760101c168a52019460181c16845260ff1690565b6113fc61143461142c61141f61141761140a611402601354976113fc8960ff1690565b90611d6a565b9a5160ff1690565b600887901c60ff166113fc565b995160ff1690565b601085901c60ff166113fc565b945160ff1690565b9160181c60ff1690565b9060405194859485929360ff809296958160609581608089019a16885216602087015216604085015216910152565b346102c55760203660031901126102c5576104c561160861061b6116166115fa61153861153d816004356000818152600260205260409020546114ba906001600160a01b03161515611a8b565b6114d1816000526015602052604060002054421090565b80156116a5576114df611d7e565b905b6000811561168a57506114f2611da3565b925b6000821561166a5750611505611da3565b905b82156116535750611516611da3565b915b1561164b576011935b61153261152c610e9e565b95610eba565b936125c1565b612986565b6116086040519384926115f46115be61157d60208701601c907f7b226e616d65223a2022455448205761746368696e6720535647222c0000000081520190565b7f226465736372697074696f6e223a2022416e204175746f6d617465642045544881526e081d1c9858dada5b99c814d591c88b608a1b6020820152602f0190565b7f22696d616765223a2022646174613a696d6167652f7376672b786d6c3b626173815263194d8d0b60e21b602082015260240190565b90611dc3565b61227d60f01b815260020190565b03601f198101835282610994565b6040517f646174613a6170706c69636174696f6e2f6a736f6e3b6261736536342c0000006020820152928391603d83016115f4565b601093611521565b61165f6116649161251a565b6123c2565b91611518565b5061168461165f6103648361167f600c610eba565b611dda565b90611507565b5061169f61165f6103648561167f600b610eba565b926114f4565b6116ae826122eb565b906114e1565b346102c55760003660031901126102c5576104c5604051610efb81610ef4816010610e1b565b346102c55760403660031901126102c55760043567ffffffffffffffff81116102c5576117196117106020923690600401610a09565b60243590611dda565b60ff60405191168152f35b346102c55760203660031901126102c55760206117506004356000526015602052604060002054421090565b6040519015158152f35b346102c55760203660031901126102c557600435600081815260026020526040902054611791906001600160a01b03161515611a8b565b8060005260156020526117ab604060002054421015611acd565b60009081526014602090815260409182902054825160ff601083901c8116825260189290921c90911691810191909152f35b346102c55760403660031901126102c557602060ff61182e6117fd61034e565b611805610338565b6001600160a01b0391821660009081526005865260408082209290931681526020919091522090565b54166040519015158152f35b346102c55760203660031901126102c55761185361034e565b61185b6120be565b6001600160a01b031680156118ae57600680546001600160a01b0319811683179091556001600160a01b03167f8be0079c531659141344cd1fd0a4f28419497f9722a3daafe3b4186f6b6457e0600080a3005b631e4fbdf760e01b600052600060045260246000fd5b346102c55760203660031901126102c5576004356118e06120be565b600855005b346102c55760003660031901126102c5576104c5604051610efb81610ef481600e610e1b565b346102c55760003660031901126102c5576104c5604051610efb81610ef481600f610e1b565b1561193857565b60405162461bcd60e51b815260206004820152601d60248201527f43616c6c6572206973206e6f7420746865204343495020726f757465720000006044820152606490fd5b9060405161198a81610973565b606060ff8294548181168452818160081c166020850152818160101c16604085015260181c16910152565b634e487b7160e01b600052601160045260246000fd5b156119d257565b60405162461bcd60e51b8152602060048201526024808201527f4552433732313a207472616e7366657220746f20746865207a65726f206164646044820152637265737360e01b6064820152608490fd5b601f8111611a2f575050565b600f6000526020600020906020601f840160051c83019310611a6c575b601f0160051c01905b818110611a60575050565b60008155600101611a55565b9091508190611a4c565b60405190611a85602083610994565b60008252565b15611a9257565b60405162461bcd60e51b8152602060048201526013602482015272151bdad95b881a5cc81b9bdd08135a5b9d1959606a1b6044820152606490fd5b15611ad457565b60405162461bcd60e51b815260206004820152600f60248201526e151bdad95b881a5cc81b1bd8dad959608a1b6044820152606490fd5b15611b1257565b60405162461bcd60e51b815260206004820152601d60248201527f696e73756666696369656e742066756e6420666f7220757067726164650000006044820152606490fd5b60405190611b6482610973565b60006060838281528260208201528260408201520152565b611b84611b57565b508051812080600052601660205260406000209160ff60405193611ba785610973565b548181168552818160081c166020860152818160101c16604086015260181c1660608401528260ff815116159081611c35575b81611c25575b81611c15575b50611bf057505090565b610c66925090611c026105cf9261214b565b9283916000526016602052604060002090565b60ff915060600151161538611be6565b604081015160ff16159150611be0565b602081015160ff16159150611bda565b9092611c5c60018060a01b03601254163314611931565b6001600160a01b038416611c718115156119cb565b611c7c848685612048565b843b611c8a575b5050505050565b611cb193600060209460405196879586948593630a85bd0160e11b855233600486016121ce565b03925af160009181611d39575b50611cfa5750611ccc6121ff565b8051919082611cf357633250574960e11b6000526001600160a01b03821660045260246000fd5b9050602001fd5b6001600160e01b03191663757a42ff60e11b01611d1c57503880808080611c83565b633250574960e11b6000526001600160a01b031660045260246000fd5b611d5c91925060203d602011611d63575b611d548183610994565b8101906121b9565b9038611cbe565b503d611d4a565b9060ff8091169116019060ff82116108a457565b60405190611d8d604083610994565b60078252660233830383038360cc1b6020830152565b60405190611db2604083610994565b60028252613f3f60f01b6020830152565b90611dd660209282815194859201610576565b0190565b6000828152600260205260409020546105cf929190611e03906001600160a01b03161515611a8b565b816000526015602052611e1d604060002054421015611acd565b611e38604051611e3281610ef481600b610e1b565b82612a70565b15611e6a5750611e5f611e586105cf926000526014602052604060002090565b5460ff1690565b60135460ff166113fc565b604051611e8591611e8082610eb181600c610e1b565b612a70565b15611eb85760ff611ea36105cf926000526014602052604060002090565b5460081c166113fc60135460ff9060081c1690565b50600090565b34337f69ca02dd4edd7bf0a4abb9ed3b7af3f14778db5d61921c7dc7cd545266326de2600080a3565b604051602092611ef78483610994565b600082526001600160a01b038316908115611ffb576001600160a01b03611f1e8286612ab5565b16611fe557833b611f30575050505050565b918495939491611f5a936000604051809681958294630a85bd0160e11b84528433600486016121ce565b03925af160009181611fc6575b50611fa1575050611f766121ff565b80519283611f9c57633250574960e11b6000526001600160a01b03831660045260246000fd5b019050fd5b9092506001600160e01b03191663757a42ff60e11b01611d1c57503880808080611c83565b611fde919250853d8711611d6357611d548183610994565b9038611f67565b6339e3563760e11b600052600060045260246000fd5b633250574960e11b600052600060045260246000fd5b6000818152600260205260409020546001600160a01b0316908115612034575090565b637e27328960e01b60005260045260246000fd5b919291906001600160a01b03811615611ffb576001600160a01b039061206f908590612ab5565b16908161208b5783637e27328960e01b60005260045260246000fd5b919290916001600160a01b03168083036120a457505050565b6364283d7b60e01b60005260045260245260445260646000fd5b6006546001600160a01b031633036120d257565b63118cdaa760e01b6000523360045260246000fd5b600281901b91906001600160fe1b038116036108a457565b60ff6020818351169201511681018091116108a4576064810290808204606414901517156108a45760011c80662386f26fc100000290662386f26fc100008204036108a4576064900490565b612153611b57565b50600360ff8251160160ff81116108a45760ff1681526020810160ff81511660ff8060031691160160ff81116108a4576121a060ff606492168084528260ff865116116121b05760ff1690565b116121a9575090565b6064905290565b82855260ff1690565b908160209103126102c557516105cf816102b3565b6001600160a01b0391821681529116602082015260408101919091526080606082018190526105cf92910190610599565b3d1561222a573d90612210826109b6565b9161221e6040519384610994565b82523d6000602084013e565b606090565b600d541561226257600d60009081527fd7b6990105719101dabeb77144f2a3385c8033acd3af97e9423a695e81ad1eb591565b6111b6565b600d5481101561226257600d60005260206000200190600090565b6000198101919082116108a457565b90600754821015612262576007600052600582901c7fa66cc928b5edb82af9bd49922954155ab7b0942694bea4ce44661d9a8736c6880191601f1690565b90600182018092116108a457565b90600282018092116108a457565b6122f49061251a565b8015612384576007549060005b61230a83612282565b8110156123765761232d61036461232083612291565b905460ff9160031b1c1690565b82101580612357575b61234257600101612301565b6105cf92506123519150612267565b50610eba565b5061236f61036461232061236a846122cf565b612291565b8210612336565b5050506105cf61235161222f565b506105cf61235161222f565b9061239a826109b6565b6123a76040519182610994565b82815280926123b8601f19916109b6565b0190602036910137565b8060009172184f03e93ff9f4daa797ed6e38ed64bf6a1f0160401b8210156124f7575b806d04ee2d6d415b85acef8100000000600a9210156124db575b662386f26fc100008110156124c6575b6305f5e1008110156124b4575b6127108110156124a4575b6064811015612495575b101561248a575b612475602161244960018501612390565b938401015b60001901916f181899199a1a9b1b9c1cb0b131b232b360811b600a82061a8353600a900490565b801561248557612475909161244e565b505090565b600190910190612438565b60029060649004930192612431565b6004906127109004930192612427565b6008906305f5e100900493019261241c565b601090662386f26fc10000900493019261240f565b6020906d04ee2d6d415b85acef810000000090049301926123ff565b506040915072184f03e93ff9f4daa797ed6e38ed64bf6a1f0160401b81046123e5565b60005260146020526105cf61036461259760406000206113fc6125766040519261254384610973565b549260ff841690818152606060ff6020830196818160081c168852818160101c16604085015260181c1691015260ff1690565b6113fc61258d61142c601354936113fc8560ff1690565b9160081c60ff1690565b60011c607f1690565b604051906125af604083610994565b600382526203238360ec1b6020830152565b9391949260409182516125d48482610994565b6002815261038360f41b60208201526125ec91612bab565b9582516125f98482610994565b600381526203138360ec1b602082015261261291612bab565b9061261b6125a0565b61262491612bab565b91517f3c73766720786d6c6e733d27687474703a2f2f7777772e77332e6f72672f323060208201527f30302f737667272076657273696f6e3d27312e312720786d6c6e733a786c696e60408201527f6b3d27687474703a2f2f7777772e77332e6f72672f313939392f786c696e6b2760608201527f20786d6c6e733a7376676a733d27687474703a2f2f7376676a732e636f6d2f7360808201527f76676a73272077696474683d2733303027206865696768743d2733303027207060a08201527f72657365727665417370656374526174696f3d276e6f6e65272076696577426f60c08201526f3c1e93981018101a9818101a9818139f60811b60e082015295869560f087017f3c726563742077696474683d273130302527206865696768743d2731303025278152662066696c6c3d2760c81b602082015260270161276991611dc3565b6213979f60e91b815260030161277e91611dc3565b61278791611dc3565b61279091611dc3565b7f3c696d61676520783d273130302720793d273530272077696474683d2733303081527427206865696768743d273330302720687265663d2760581b60208201526035016127dd91611dc3565b6213979f60e91b81526003017f3c7465787420783d273235302720793d27343230272066696c6c3d27626c616381527f6b2720666f6e742d73697a653d2732342720646f6d696e616e742d626173656c60208201527f696e653d276d6964646c652720746578742d616e63686f723d276d6964646c65604082015261139f60f11b606082015260620161286f91611dc3565b661e17ba32bc3a1f60c91b81526007017f3c7265637420783d27302720793d2730272077696474683d273530302720686581527f696768743d27353030272066696c6c3d276e6f6e6527207374726f6b653d272360208201527f30303030303027207374726f6b652d77696474683d2735272072783d2731352760408201526910393c9e93989a93979f60b11b6060820152606a01651e17b9bb339f60d11b815260060103601f19810182526105cf9082610994565b60405190612934606083610994565b604082527f6768696a6b6c6d6e6f707172737475767778797a303132333435363738392b2f6040837f4142434445464748494a4b4c4d4e4f505152535455565758595a61626364656660208201520152565b90815115612a6657612996612925565b916129bb6129b66129b16129aa84516122dd565b6003900490565b6120e7565b612390565b9060208201908081518201956020870190815192600083525b888110612a185750506003939495965052510680600114612a05576002146129fa575090565b603d90600019015390565b50603d9081600019820153600119015390565b600360049199969901986001603f8b5182828260121c16870101518453828282600c1c16870101518385015382828260061c16870101516002850153168401015160038201530194976129d4565b90506105cf611a76565b604051612a8d816116086020820194602086526020860190610599565b51902090604051612aae816116086020820194602086526020860190610599565b5190201490565b6000828152600260205260409020546001600160a01b0316919082612b64575b6001600160a01b03811690612b179082612b40575b600084815260026020526040902080546001600160a01b0319166001600160a01b03909216919091179055565b827fddf252ad1be2c89b69c2b068fc378daa952ba7f163c4a11628f55a4df523b3ef600080a490565b6001600160a01b038116600090815260036020526040902060018154019055612aea565b612b78826000526004602052604060002090565b80546001600160a01b03191690556001600160a01b03831660009081526003602052604090208054600019019055612ad5565b603491611608612cd56105cf93609a604051968795733c636972636c652063783d273530272063793d2760601b6020880152805190612c696020820192612bf581868c0186610576565b8901917f2720723d273430272066696c6c3d272330306161666627207374726f6b653d27858401527f2330303030303027207374726f6b652d77696474683d273327202f3e0000000060548401526f3c7465787420783d2735302720793d2760801b60708401525180936080840190610576565b01017f272066696c6c3d27626c61636b2720666f6e742d73697a653d2732342720646f604c8201527f6d696e616e742d626173656c696e653d276d6964646c652720746578742d616e606c8201526d31b437b91e93b6b4b2323632939f60911b608c8201520190611dc3565b661e17ba32bc3a1f60c91b81526007019056fea26469706673582212208e90386d509ed717eac264a5b0abb9d0ed2b2ba7eedd76958209adfa300d14a464736f6c634300081a003331ecc21a745e3968a04e9570e4425bc18fa8019c68028196b546d1669c200c68d7b6990105719101dabeb77144f2a3385c8033acd3af97e9423a695e81ad1eb51b6847dc741a1b0cd08d278845f9d819d87b734759afb55fe2de5cb82a9ae672","linkReferences":{}},"methodIdentifiers":{"BASE_PRICE_IN_MATIC()":"8aa33015","_ccipHandler()":"68b16779","_sign()":"f759e547","approve(address,uint256)":"095ea7b3","balanceOf(address)":"70a08231","calculateUpgrade((uint8,uint8,uint8,uint8))":"621167e6","changeCCIP(address)":"3e3c0740","getApproved(uint256)":"081812fc","getOwner(uint256)":"c41a360a","getSpecial(uint256)":"e1d916f7","getStat(string,uint256)":"d5784f15","getTokenStats(uint256)":"c5829514","isApprovedForAll(address,address)":"e985e9c5","itemImage__()":"caf72264","itemType()":"f5470d7b","lockStatus(uint256)":"d728f75c","lockedItemImage()":"6467007b","mint()":"1249c58b","mintPrice()":"6817c76c","name()":"06fdde03","newStatMap(bytes32)":"46838f30","owner()":"8da5cb5b","ownerOf(uint256)":"6352211e","renounceOwnership()":"715018a6","safeTransferFrom(address,address,uint256)":"42842e0e","safeTransferFrom(address,address,uint256,bytes)":"b88d4fde","setApprovalForAll(address,bool)":"a22cb465","setMintPrice(uint256)":"f4a0a528","setSign(string)":"31fbbae2","setTokenLockStatus(uint256,uint256)":"08bbefef","statLabels(uint256)":"a50c8f2c","supportsInterface(bytes4)":"01ffc9a7","symbol()":"95d89b41","tokenLockedTill(uint256)":"05b1603f","tokenURI(uint256)":"c87b56dd","transfer(address,uint256)":"a9059cbb","transferFrom(address,address,uint256)":"23b872dd","transferOwnership(address)":"f2fde38b","updateStats(uint256,address,uint8,uint8,uint8,uint8)":"02ee9785","upgrade(uint256)":"45977d03","upgradeMapping(uint256)":"ad3d47d7"},"id":13}