{"abi":[{"type":"constructor","inputs":[{"name":"_link","type":"address","internalType":"address"},{"name":"_router","type":"address","internalType":"address"}],"stateMutability":"nonpayable"},{"type":"function","name":"send","inputs":[{"name":"receiver","type":"address","internalType":"address"},{"name":"someText","type":"string","internalType":"string"},{"name":"destinationChainSelector","type":"uint64","internalType":"uint64"},{"name":"_token","type":"address","internalType":"address"},{"name":"_amount","type":"uint256","internalType":"uint256"}],"outputs":[{"name":"messageId","type":"bytes32","internalType":"bytes32"}],"stateMutability":"nonpayable"}],"bytecode":{"object":"0x60803461008d57601f61068638819003918201601f19168301916001600160401b0383118484101761009257808492604094855283398101031261008d57610052602061004b836100a8565b92016100a8565b600080546001600160a01b039384166001600160a01b031991821617909155600180549290931691161790556040516105c990816100bd8239f35b600080fd5b634e487b7160e01b600052604160045260246000fd5b51906001600160a01b038216820361008d5756fe60806040908082526004918236101561001757600080fd5b600090813560e01c6321ad6d801461002e57600080fd5b346103ee5760a03660031901126103ee576001600160a01b038435818116959194908690036103ea57602494853567ffffffffffffffff928382116103e657366023830112156103e65781850135978489116103d557602098601f199361009c601f830186168c0185610424565b818452368383830101116103d157818a92848d9301838701378401015260443594808616860361035057606435928584168094036103d157898b9c9560849c9a9b9c35968b8d8051946100ee866103f2565b6001865280915b8383106103af57925050505161010a816103f2565b878152888d82015261011b84610446565b5261012583610446565b508c519b8c01528d8b526101388b6103f2565b8d8c51938185928301528d820161014e91610469565b03908101835261015e9083610424565b868c5416918b519a60a08c018c81108682111761039d578d528b528d8b0152898b01526060890152885191828c019182118383101761038c575088528881526080870152600154875163095ea7b360e01b8082529185166001600160a01b03168782019081526020810194909452909290918a9183919082908c90829060400103925af1801561038257610365575b5060015486516320487ded60e01b8152908316918982806102118a898b84016104c6565b0381865afa91821561035b57908a92918a92610325575b50895489519182526001600160a01b0390941687820190815260208101929092529283919085169082908b9082906040015b03925af1801561031b5788949261029496949289926102ee575b5060015416928751968795869485936396f4e9f960e01b855284016104c6565b03925af19283156102e35780936102ae575b505051908152f35b909192508382813d83116102dc575b6102c78183610424565b810103126102d95750519038806102a6565b80fd5b503d6102bd565b8251903d90823e3d90fd5b61030d90873d8911610314575b6103058183610424565b8101906104a9565b5038610274565b503d6102fb565b86513d89823e3d90fd5b8092508391933d8311610354575b61033d8183610424565b810103126103505751899161025a610228565b8880fd5b503d610333565b88513d8b823e3d90fd5b61037b90893d8b11610314576103058183610424565b50386101ed565b87513d8a823e3d90fd5b634e487b7160e01b8b52604188528afd5b634e487b7160e01b8f5260418c52868ffd5b51906103ba826103f2565b80825283820152828287010152018c908f8f6100f5565b8980fd5b634e487b7160e01b88526041865287fd5b8680fd5b8380fd5b5080fd5b6040810190811067ffffffffffffffff82111761040e57604052565b634e487b7160e01b600052604160045260246000fd5b90601f8019910116810190811067ffffffffffffffff82111761040e57604052565b8051156104535760200190565b634e487b7160e01b600052603260045260246000fd5b919082519283825260005b848110610495575050826000602080949584010152601f8019910116010190565b602081830181015184830182015201610474565b908160209103126104c1575180151581036104c15790565b600080fd5b9067ffffffffffffffff90939293168152604060209181838201526104f6855160a08484015260e0830190610469565b916105128487015193603f199485858303016060860152610469565b8187015194848483030160808501528080875193848152019601926000905b83821061056a57505050505060c06080610567959660018060a01b0360608201511660a085015201519282850301910152610469565b90565b845180516001600160a01b0316895283015188840152968701969382019360019091019061053156fea2646970667358221220828f53ffab255e30107ff9fa611e6e1afd03c163e3c7cb24b44ab3a0501ac7fd64736f6c63430008130033","linkReferences":{}},"methodIdentifiers":{"send(address,string,uint64,address,uint256)":"21ad6d80"},"id":57}