{"abi":[{"type":"constructor","inputs":[{"name":"router","type":"address","internalType":"address"}],"stateMutability":"nonpayable"},{"type":"function","name":"ccipReceive","inputs":[{"name":"message","type":"tuple","internalType":"struct Client.Any2EVMMessage","components":[{"name":"messageId","type":"bytes32","internalType":"bytes32"},{"name":"sourceChainSelector","type":"uint64","internalType":"uint64"},{"name":"sender","type":"bytes","internalType":"bytes"},{"name":"data","type":"bytes","internalType":"bytes"},{"name":"destTokenAmounts","type":"tuple[]","internalType":"struct Client.EVMTokenAmount[]","components":[{"name":"token","type":"address","internalType":"address"},{"name":"amount","type":"uint256","internalType":"uint256"}]}]}],"outputs":[],"stateMutability":"nonpayable"},{"type":"function","name":"getRouter","inputs":[],"outputs":[{"name":"","type":"address","internalType":"address"}],"stateMutability":"view"},{"type":"function","name":"supportsInterface","inputs":[{"name":"interfaceId","type":"bytes4","internalType":"bytes4"}],"outputs":[{"name":"","type":"bool","internalType":"bool"}],"stateMutability":"view"},{"type":"function","name":"text","inputs":[],"outputs":[{"name":"","type":"string","internalType":"string"}],"stateMutability":"view"},{"type":"error","name":"InvalidRouter","inputs":[{"name":"router","type":"address","internalType":"address"}]}],"bytecode":{"object":"0x60a03461008e57601f61075738819003918201601f19168301916001600160401b038311848410176100935780849260209460405283398101031261008e57516001600160a01b03811680820361008e5715610075576080526040516106ad90816100aa82396080518181816064015260d90152f35b6040516335fdcccd60e21b815260006004820152602490fd5b600080fd5b634e487b7160e01b600052604160045260246000fdfe608060408181526004918236101561001657600080fd5b600092833560e01c91826301ffc9a714610523575081631f1bd6921461042857816385572ffb14610097575063b0f479a11461005157600080fd5b34610093578160031936011261009357517f00000000000000000000000000000000000000000000000000000000000000006001600160a01b03168152602090f35b5080fd5b839150346100935760206003199181833601126104245780359067ffffffffffffffff938483116104205760a090833603011261041c576001600160a01b03917f0000000000000000000000000000000000000000000000000000000000000000831633036104065786519260a08401848110878211176103f35788528183013584526024938483013587811681036103eb578682015260448301358781116103eb576101499085369186010161062b565b8982015260648301358781116103eb576101689085369186010161062b565b92606082019384526084810135908882116103ef5701366023820112156103eb57848101358881116103d9578a51936101a6898360051b01866105b4565b818552878986019260061b840101923684116103d5578801915b838310610382575050505060800152519586518701968481818a0199031261037e57848101519086821161037a570187603f8201121561037e5784810151916102088361060f565b9861021582519a8b6105b4565b838a5281848401011161037a57610231929189870191016105ec565b8551938411610369575050610246835461057a565b601f8111610308575b5080601f83116001146102895750829382939261027e575b50508160011b916000199060031b1c191617815580f35b015190508380610267565b838052601f198316947f290decd9548b62a8d60345a988386fc84ba6bc95484008f6362f93160ef3e563929185905b8782106102f05750508360019596106102d7575b505050811b01815580f35b015160001960f88460031b161c191690558380806102cc565b806001859682949686015181550195019301906102b8565b8380527f290decd9548b62a8d60345a988386fc84ba6bc95484008f6362f93160ef3e563601f840160051c81019183851061035f575b601f0160051c01905b818110610354575061024f565b848155600101610347565b909150819061033e565b634e487b7160e01b85526041905283fd5b8780fd5b8680fd5b8c833603126103d5578c518d81018181108d8211176103c3578e52833583811681036103bf578152838b01358b8201528152918c019189016101c0565b8d80fd5b634e487b7160e01b8e5260418a528a8efd5b8b80fd5b634e487b7160e01b8a5260418652868afd5b8880fd5b8980fd5b634e487b7160e01b885260418452602488fd5b86516335fdcccd60e21b81523381840152602490fd5b8480fd5b8580fd5b8380fd5b5050346100935781600319360112610093578051828054826104498261057a565b95868252602096879384840195600191828116908160001461050257506001146104a7575b50505061047d925003836105b4565b61049983519485938185525192838092860152858501906105ec565b601f01601f19168101030190f35b8080527f290decd9548b62a8d60345a988386fc84ba6bc95484008f6362f93160ef3e56395935091905b8183106104ea57508894505082010161047d388061046e565b855488840185015294850194879450918301916104d1565b9250505061047d94925060ff19168552151560051b8201018692388061046e565b849134610576576020366003190112610576573563ffffffff60e01b811680910361057657602092506385572ffb60e01b8114908115610565575b5015158152f35b6301ffc9a760e01b1490508361055e565b8280fd5b90600182811c921680156105aa575b602083101461059457565b634e487b7160e01b600052602260045260246000fd5b91607f1691610589565b90601f8019910116810190811067ffffffffffffffff8211176105d657604052565b634e487b7160e01b600052604160045260246000fd5b60005b8381106105ff5750506000910152565b81810151838201526020016105ef565b67ffffffffffffffff81116105d657601f01601f191660200190565b81601f82011215610672578035906106428261060f565b9261065060405194856105b4565b8284526020838301011161067257816000926020809301838601378301015290565b600080fdfea2646970667358221220154ba1cf560cd31950f2cee7064e758e7ba5f2c9221ba27089a3a8ba3611997664736f6c63430008130033","linkReferences":{}},"methodIdentifiers":{"ccipReceive((bytes32,uint64,bytes,bytes,(address,uint256)[]))":"85572ffb","getRouter()":"b0f479a1","supportsInterface(bytes4)":"01ffc9a7","text()":"1f1bd692"},"id":35}