{"abi":[{"type":"function","name":"GAS_PRICE_BITS","inputs":[],"outputs":[{"name":"","type":"uint8","internalType":"uint8"}],"stateMutability":"view"},{"type":"function","name":"MESSAGE_FIXED_BYTES","inputs":[],"outputs":[{"name":"","type":"uint256","internalType":"uint256"}],"stateMutability":"view"},{"type":"function","name":"MESSAGE_FIXED_BYTES_PER_TOKEN","inputs":[],"outputs":[{"name":"","type":"uint256","internalType":"uint256"}],"stateMutability":"view"},{"type":"error","name":"InvalidEVMAddress","inputs":[{"name":"encodedAddress","type":"bytes","internalType":"bytes"}]}],"bytecode":{"object":"0x608080604052346100195760bc908161001f823930815050f35b600080fdfe6080806040526004361015601257600080fd5b600090813560e01c90816318994e7a14606c575080637a4bb2321460565763dc47c58b14603e57600080fd5b80600319360112605357602060405160808152f35b80fd5b5080600319360112605357602060405160708152f35b9050816003193601126082578061022060209252f35b5080fdfea26469706673582212205d89977085c0c6cd2d30cd036b67fc6349b42bd9c570ee7bbeebcfcc936f087964736f6c63430008130033","linkReferences":{}},"methodIdentifiers":{"GAS_PRICE_BITS()":"7a4bb232","MESSAGE_FIXED_BYTES()":"18994e7a","MESSAGE_FIXED_BYTES_PER_TOKEN()":"dc47c58b"},"id":5}