{"abi":[{"type":"constructor","inputs":[],"stateMutability":"nonpayable"},{"type":"function","name":"lockStatus","inputs":[{"name":"tokenId","type":"uint256","internalType":"uint256"}],"outputs":[{"name":"","type":"bool","internalType":"bool"}],"stateMutability":"view"},{"type":"function","name":"owner","inputs":[],"outputs":[{"name":"","type":"address","internalType":"address"}],"stateMutability":"view"},{"type":"function","name":"renounceOwnership","inputs":[],"outputs":[],"stateMutability":"nonpayable"},{"type":"function","name":"setTokenLockStatus","inputs":[{"name":"tokenId","type":"uint256","internalType":"uint256"},{"name":"unlockTime","type":"uint256","internalType":"uint256"}],"outputs":[],"stateMutability":"nonpayable"},{"type":"function","name":"tokenLockedTill","inputs":[{"name":"","type":"uint256","internalType":"uint256"}],"outputs":[{"name":"","type":"uint256","internalType":"uint256"}],"stateMutability":"view"},{"type":"function","name":"transferOwnership","inputs":[{"name":"newOwner","type":"address","internalType":"address"}],"outputs":[],"stateMutability":"nonpayable"},{"type":"event","name":"OwnershipTransferred","inputs":[{"name":"previousOwner","type":"address","indexed":true,"internalType":"address"},{"name":"newOwner","type":"address","indexed":true,"internalType":"address"}],"anonymous":false},{"type":"error","name":"OwnableInvalidOwner","inputs":[{"name":"owner","type":"address","internalType":"address"}]},{"type":"error","name":"OwnableUnauthorizedAccount","inputs":[{"name":"account","type":"address","internalType":"address"}]}],"bytecode":{"object":"0x608080604052346100895773a1293a8bff9323aad0419e46dd9846cc7363d44b60005473b1293a8bff9323aad0419e46dd9846cc7363d44b60018060a01b031991818382161760005560018060a01b03167f8be0079c531659141344cd1fd0a4f28419497f9722a3daafe3b4186f6b6457e0600080a36002541617600255610260908161008f8239f35b600080fdfe608060408181526004908136101561001657600080fd5b600092833560e01c90816305b1603f146101d55750806308bbefef146101a9578063715018a61461014c5780638da5cb5b14610120578063d728f75c146100f65763f2fde38b1461006657600080fd5b346100f25760203660031901126100f2576001600160a01b038235818116939192908490036100ee576100976101fe565b83156100d857505082546001600160a01b0319811683178455167f8be0079c531659141344cd1fd0a4f28419497f9722a3daafe3b4186f6b6457e08380a380f35b51631e4fbdf760e01b8152908101849052602490fd5b8480fd5b8280fd5b5090346100f25760203660031901126100f257602092829135815260018452205490519042108152f35b838234610148578160031936011261014857905490516001600160a01b039091168152602090f35b5080fd5b83346101a657806003193601126101a6576101656101fe565b80546001600160a01b03198116825581906001600160a01b03167f8be0079c531659141344cd1fd0a4f28419497f9722a3daafe3b4186f6b6457e08280a380f35b80fd5b5090346100f257816003193601126100f2576101c36101fe565b35825260016020526024359082205580f35b929050346101fa5760203660031901126101fa57926020933581526001845220548152f35b8380fd5b6000546001600160a01b0316330361021257565b60405163118cdaa760e01b8152336004820152602490fdfea26469706673582212201789112c4c33223dc6a36756328419babb44b7565893185436127899d8eb0e8f64736f6c63430008140033","linkReferences":{}},"methodIdentifiers":{"lockStatus(uint256)":"d728f75c","owner()":"8da5cb5b","renounceOwnership()":"715018a6","setTokenLockStatus(uint256,uint256)":"08bbefef","tokenLockedTill(uint256)":"05b1603f","transferOwnership(address)":"f2fde38b"},"id":12}