{"abi":[{"type":"constructor","inputs":[{"name":"_router","type":"address","internalType":"address"},{"name":"gasLimit","type":"uint256","internalType":"uint256"}],"stateMutability":"nonpayable"},{"type":"receive","stateMutability":"payable"},{"type":"function","name":"acceptOwnership","inputs":[],"outputs":[],"stateMutability":"nonpayable"},{"type":"function","name":"addressToString","inputs":[{"name":"_address","type":"address","internalType":"address"}],"outputs":[{"name":"","type":"string","internalType":"string"}],"stateMutability":"pure"},{"type":"function","name":"allowlistDestinationChain","inputs":[{"name":"_destinationChainSelector","type":"uint64","internalType":"uint64"},{"name":"allowed","type":"bool","internalType":"bool"}],"outputs":[],"stateMutability":"nonpayable"},{"type":"function","name":"allowlistSender","inputs":[{"name":"_sender","type":"address","internalType":"address"},{"name":"allowed","type":"bool","internalType":"bool"}],"outputs":[],"stateMutability":"nonpayable"},{"type":"function","name":"allowlistSourceChain","inputs":[{"name":"_sourceChainSelector","type":"uint64","internalType":"uint64"},{"name":"allowed","type":"bool","internalType":"bool"}],"outputs":[],"stateMutability":"nonpayable"},{"type":"function","name":"allowlistedDestinationChains","inputs":[{"name":"","type":"uint64","internalType":"uint64"}],"outputs":[{"name":"","type":"bool","internalType":"bool"}],"stateMutability":"view"},{"type":"function","name":"allowlistedSenders","inputs":[{"name":"","type":"address","internalType":"address"}],"outputs":[{"name":"","type":"bool","internalType":"bool"}],"stateMutability":"view"},{"type":"function","name":"allowlistedSourceChains","inputs":[{"name":"","type":"uint64","internalType":"uint64"}],"outputs":[{"name":"","type":"bool","internalType":"bool"}],"stateMutability":"view"},{"type":"function","name":"asciiToUint","inputs":[{"name":"_asciiString","type":"string","internalType":"string"}],"outputs":[{"name":"","type":"uint256","internalType":"uint256"}],"stateMutability":"pure"},{"type":"function","name":"ccipReceive","inputs":[{"name":"message","type":"tuple","internalType":"struct Client.Any2EVMMessage","components":[{"name":"messageId","type":"bytes32","internalType":"bytes32"},{"name":"sourceChainSelector","type":"uint64","internalType":"uint64"},{"name":"sender","type":"bytes","internalType":"bytes"},{"name":"data","type":"bytes","internalType":"bytes"},{"name":"destTokenAmounts","type":"tuple[]","internalType":"struct Client.EVMTokenAmount[]","components":[{"name":"token","type":"address","internalType":"address"},{"name":"amount","type":"uint256","internalType":"uint256"}]}]}],"outputs":[],"stateMutability":"nonpayable"},{"type":"function","name":"createMessageStr","inputs":[{"name":"tokenId","type":"uint256","internalType":"uint256"},{"name":"nftOwner","type":"address","internalType":"address"},{"name":"senderContractAdd","type":"address","internalType":"address"},{"name":"receiverContractAdd","type":"address","internalType":"address"},{"name":"msgType","type":"string","internalType":"string"},{"name":"stats","type":"uint8[]","internalType":"uint8[]"}],"outputs":[{"name":"","type":"string","internalType":"string"}],"stateMutability":"pure"},{"type":"function","name":"getFeeNative","inputs":[{"name":"destinationChainSelector","type":"uint64","internalType":"uint64"},{"name":"receiver","type":"address","internalType":"address"},{"name":"_text","type":"string","internalType":"string"}],"outputs":[{"name":"fees","type":"uint256","internalType":"uint256"}],"stateMutability":"view"},{"type":"function","name":"getHash","inputs":[{"name":"contractAddress","type":"address","internalType":"address"}],"outputs":[{"name":"","type":"string","internalType":"string"}],"stateMutability":"view"},{"type":"function","name":"getLastReceivedMessageDetails","inputs":[],"outputs":[{"name":"messageId","type":"bytes32","internalType":"bytes32"},{"name":"text","type":"string","internalType":"string"}],"stateMutability":"view"},{"type":"function","name":"getMultipleHash","inputs":[{"name":"contractAddresses","type":"address[]","internalType":"address[]"}],"outputs":[{"name":"","type":"string[]","internalType":"string[]"}],"stateMutability":"view"},{"type":"function","name":"getRouter","inputs":[],"outputs":[{"name":"","type":"address","internalType":"address"}],"stateMutability":"view"},{"type":"function","name":"nftContract","inputs":[],"outputs":[{"name":"","type":"address","internalType":"contract IRPGItemNFT"}],"stateMutability":"view"},{"type":"function","name":"owner","inputs":[],"outputs":[{"name":"","type":"address","internalType":"address"}],"stateMutability":"view"},{"type":"function","name":"readMessageStr","inputs":[{"name":"_str","type":"string","internalType":"string"}],"outputs":[{"name":"messageParts","type":"string[]","internalType":"string[]"}],"stateMutability":"pure"},{"type":"function","name":"sendAcknowledgement","inputs":[{"name":"_destinationChainSelector","type":"uint64","internalType":"uint64"},{"name":"_receiver","type":"address","internalType":"address"},{"name":"_text","type":"string","internalType":"string"}],"outputs":[{"name":"messageId","type":"bytes32","internalType":"bytes32"}],"stateMutability":"nonpayable"},{"type":"function","name":"sendMessage","inputs":[{"name":"_destinationChainSelector","type":"uint64","internalType":"uint64"},{"name":"_receiver","type":"address","internalType":"address"},{"name":"_text","type":"string","internalType":"string"}],"outputs":[{"name":"messageId","type":"bytes32","internalType":"bytes32"}],"stateMutability":"payable"},{"type":"function","name":"setGasLimit","inputs":[{"name":"_limit","type":"uint256","internalType":"uint256"}],"outputs":[],"stateMutability":"nonpayable"},{"type":"function","name":"stringToAddress","inputs":[{"name":"_string","type":"string","internalType":"string"}],"outputs":[{"name":"","type":"address","internalType":"address"}],"stateMutability":"pure"},{"type":"function","name":"supportsInterface","inputs":[{"name":"interfaceId","type":"bytes4","internalType":"bytes4"}],"outputs":[{"name":"","type":"bool","internalType":"bool"}],"stateMutability":"view"},{"type":"function","name":"transferNft","inputs":[{"name":"_tokenId","type":"uint256","internalType":"uint256"},{"name":"senderNftContractAddress","type":"address","internalType":"address"},{"name":"destinationNftContractAddress","type":"address","internalType":"address"},{"name":"destinationChainId","type":"uint64","internalType":"uint64"},{"name":"_receiver","type":"address","internalType":"address"}],"outputs":[],"stateMutability":"payable"},{"type":"function","name":"transferOwnership","inputs":[{"name":"to","type":"address","internalType":"address"}],"outputs":[],"stateMutability":"nonpayable"},{"type":"function","name":"uintToASCII","inputs":[{"name":"_number","type":"uint256","internalType":"uint256"}],"outputs":[{"name":"","type":"string","internalType":"string"}],"stateMutability":"pure"},{"type":"function","name":"withdraw","inputs":[{"name":"_beneficiary","type":"address","internalType":"address"}],"outputs":[],"stateMutability":"nonpayable"},{"type":"function","name":"withdrawToken","inputs":[{"name":"_beneficiary","type":"address","internalType":"address"},{"name":"_token","type":"address","internalType":"address"}],"outputs":[],"stateMutability":"nonpayable"},{"type":"event","name":"MessageReceived","inputs":[{"name":"messageId","type":"bytes32","indexed":true,"internalType":"bytes32"},{"name":"sourceChainSelector","type":"uint64","indexed":true,"internalType":"uint64"},{"name":"sender","type":"address","indexed":false,"internalType":"address"},{"name":"text","type":"string","indexed":false,"internalType":"string"}],"anonymous":false},{"type":"event","name":"MessageSent","inputs":[{"name":"messageId","type":"bytes32","indexed":true,"internalType":"bytes32"},{"name":"destinationChainSelector","type":"uint64","indexed":true,"internalType":"uint64"},{"name":"receiver","type":"address","indexed":false,"internalType":"address"},{"name":"text","type":"string","indexed":false,"internalType":"string"},{"name":"feeToken","type":"address","indexed":false,"internalType":"address"},{"name":"fees","type":"uint256","indexed":false,"internalType":"uint256"}],"anonymous":false},{"type":"event","name":"OwnershipTransferRequested","inputs":[{"name":"from","type":"address","indexed":true,"internalType":"address"},{"name":"to","type":"address","indexed":true,"internalType":"address"}],"anonymous":false},{"type":"event","name":"OwnershipTransferred","inputs":[{"name":"from","type":"address","indexed":true,"internalType":"address"},{"name":"to","type":"address","indexed":true,"internalType":"address"}],"anonymous":false},{"type":"error","name":"DestinationChainNotAllowlisted","inputs":[{"name":"destinationChainSelector","type":"uint64","internalType":"uint64"}]},{"type":"error","name":"FailedToWithdrawEth","inputs":[{"name":"owner","type":"address","internalType":"address"},{"name":"target","type":"address","internalType":"address"},{"name":"value","type":"uint256","internalType":"uint256"}]},{"type":"error","name":"InvalidReceiverAddress","inputs":[]},{"type":"error","name":"InvalidRouter","inputs":[{"name":"router","type":"address","internalType":"address"}]},{"type":"error","name":"NotEnoughBalance","inputs":[{"name":"currentBalance","type":"uint256","internalType":"uint256"},{"name":"calculatedFees","type":"uint256","internalType":"uint256"}]},{"type":"error","name":"NothingToWithdraw","inputs":[]},{"type":"error","name":"SenderNotAllowlisted","inputs":[{"name":"sender","type":"address","internalType":"address"}]},{"type":"error","name":"SourceChainNotAllowlisted","inputs":[{"name":"sourceChainSelector","type":"uint64","internalType":"uint64"}]}],"bytecode":{"object":"0x60a034620000fe57601f62002c7e38819003918201601f19168301916001600160401b0383118484101762000103578084926040948552833981010312620000fe5780516001600160a01b03811691828203620000fe57602001519115620000e5576080523315620000a057600080546001600160a01b03191633179055600255604051612b6490816200011a823960805181818161037301526108960152f35b60405162461bcd60e51b815260206004820152601860248201527f43616e6e6f7420736574206f776e657220746f207a65726f00000000000000006044820152606490fd5b6040516335fdcccd60e21b815260006004820152602490fd5b600080fd5b634e487b7160e01b600052604160045260246000fdfe6080604052600436101561001b575b361561001957600080fd5b005b6000803560e01c806248a62d14611c6b57806301ffc9a714611c145780630a88e1a91461182b5780630eb5ad45146116b257806311388b97146115c757806315706fdf1461157a5780631da0b8fc14611555578063263596a51461151c5780633aeac4e1146114335780634030d521146113f657806351cff8d91461134b5780635e57966d1461131d5780636159ada1146112de57806375c67c66146112a157806379ba5097146111fd578063836c7419146111dd57806385572ffb146108625780638da5cb5b1461083b57806394f3a204146107f857806396d3b83d146107a5578063a74329d5146104a5578063aac1efda146103a2578063b0f479a11461035d578063d56d229d14610334578063db04fa49146102e1578063eab5b02c1461028c578063ee7d72b414610269578063f2fde38b146101b35763f7bfc50c14610165575061000e565b346101b05760203660031901126101b057600435906001600160401b0382116101b0576101ac6101a061019b3660048601611f40565b612585565b60405191829182611d65565b0390f35b80fd5b50346101b05760203660031901126101b0576101cd611df5565b6101d5612926565b6001600160a01b039081169033821461022457600180546001600160a01b031916831790558254167fed8889f560326eb138920d842192f0eb3dd22b4f139c87a2c57538e05bae12788380a380f35b60405162461bcd60e51b815260206004820152601760248201527f43616e6e6f74207472616e7366657220746f2073656c660000000000000000006044820152606490fd5b50346101b05760203660031901126101b057610283612926565b60043560025580f35b50346101b05760403660031901126101b0576102de6102a9611df5565b6102b1611f87565b906102ba612926565b60018060a01b031683526008602052604083209060ff801983541691151516179055565b80f35b50346101b05760403660031901126101b0576102de6102fe611e0b565b6001600160401b0361030e611f87565b91610317612926565b1683526007602052604083209060ff801983541691151516179055565b50346101b057806003193601126101b0576003546040516001600160a01b039091168152602090f35b50346101b057806003193601126101b0576040517f00000000000000000000000000000000000000000000000000000000000000006001600160a01b03168152602090f35b50346101b05760c03660031901126101b0576103bc611dc9565b906103c5611ddf565b606435906001600160a01b03821682036104a0576001600160401b039360843585811161049c576103fa903690600401611f40565b9360a4359586116101b057366023870112156101b05785600401359561041f87611f96565b9661042d6040519889611f04565b808852602092602460208a019260051b8401019236841161049857602401915b83831061047b576101ac6104678b8b8b8b8b600435612395565b604051918291602083526020830190611d40565b823560ff8116810361049457815291840191840161044d565b8280fd5b5080fd5b8480fd5b600080fd5b50346101b05760603660031901126101b0576104bf611e0b565b906104c8611dc9565b916001600160401b036044358181116107a1576104e9903690600401611f40565b908216918284526020936006855260ff60408220541615610788576001600160a01b039586169182156107765760405196838789015286885261052b88611ebb565b6040518780820152610552816105446040820189611d40565b03601f198101835282611f04565b60405161055e81611ee9565b6000815261057c6002546040519061057582611ee9565b81526129f5565b916040519a61058a8c611e8a565b8b52898b015260408a01528360608a0152608089015260405163b0f479a160e01b81528781600481305afa90811561073e578491610749575b501696604051916320487ded60e01b83528783806105e58585600484016120c1565b03818c5afa92831561073e57849361070f575b504783116106f0576040516396f4e9f960e01b815297988992899283918691839161062691600484016120c1565b03925af19586156106e5578296610690575b50918593917fd36445359b3c6e26c120659aef090ce0f2eb005cf9af450d11aa1225609b4f4d9361067a604051948594855260808b8601526080850190611d40565b91604084015260608301520390a3604051908152f35b9290939195508683813d83116106de575b6106ab8183611f04565b810103126104a05791519490927fd36445359b3c6e26c120659aef090ce0f2eb005cf9af450d11aa1225609b4f4d610638565b503d6106a1565b6040513d84823e3d90fd5b604051634787a10360e11b815247600482015260248101849052604490fd5b9092508781813d8311610737575b6107278183611f04565b810103126104a0575191386105f8565b503d61071d565b6040513d86823e3d90fd5b6107699150883d8a1161076f575b6107618183611f04565b810190612058565b386105c3565b503d610757565b60405163502ffa3f60e11b8152600490fd5b604051630a503cdb60e01b815260048101859052602490fd5b8380fd5b50346101b05760403660031901126101b0576102de6107c2611e0b565b6001600160401b036107d2611f87565b916107db612926565b1683526006602052604083209060ff801983541691151516179055565b50346101b05760203660031901126101b057600435906001600160401b0382116101b057602061083361082e3660048601611f40565b612327565b604051908152f35b50346101b057806003193601126101b057546040516001600160a01b039091168152602090f35b50346101b057600319906020368301126101b057600435916001600160401b0383116104985760a09083360301126101b0577f00000000000000000000000000000000000000000000000000000000000000006001600160a01b031633036111c557604051916108d183611e8a565b8060040135835260248101356001600160401b038116810361049457602084015260448101356001600160401b038111610494576109159060043691840101611f40565b604084015260648101356001600160401b0381116104945761093d9060043691840101611f40565b60608401526084810135906001600160401b03821161049457013660238201121561049857600481013561097081611f96565b9161097e6040519384611f04565b8183526024602084019260061b8201019036821161049c57602401915b81831061117d5750505060808301526001600160401b0360208301511660408301516109d760018060a01b039160208082518301019101612058565b1690808352600760205260ff604084205416156111655750808252600860205260ff6040832054161561114d57508151600455610a21606083015160208082518301019101612978565b9182516001600160401b03811161113957610a3d600554612216565b601f81116110da575b506020601f82116001146110595783948293949261104e575b50508160011b916000199060031b1c1916176005555b610a8061019b612250565b610a92610a8c82611ff7565b51612327565b610aa4610a9e83612004565b51612190565b90610ac0610ab184612014565b51610aba61209d565b90612a3b565b15610f83576001600160a01b03610ad9610a9e85612034565b16926040516335ca3dd760e21b8152826004820152602081602481885afa908115610f78578791610f59575b50610f05575b805160051015610eef5760ff610b2460c0830151612327565b1693815160061015610eef5760ff610b3f60e0840151612327565b16825160071015610eef5760ff610b5a610100850151612327565b1695835160081015610eef578860ff610b77610120870151612327565b1660405163620d1b0560e11b8152876004820152602081602481895afa908115610d7a578391610ed0575b506001600160a01b0316151580610e70575b610dbf575b9060209460c493926040519a8b9687956302ee978560e01b87528b600488015260018060a01b038d16602488015260448701526064860152608485015260a48401525af1938415610db457610c4e94610d85575b50610c26610a9e610c20610a9e84612024565b92612034565b9060405193610c3485611e8a565b600485526080366020870137610c486129d6565b93612395565b60206001600160401b038184015116610c736040850151838082518301019101612058565b60405163a74329d560e01b815260048101929092526001600160a01b03166024820152606060448201529182908190610cb0906064830190611d40565b038186305af18015610d7a57610d4f575b505b80517fb1e312a29937cc11967b0e4a346fef1ae132424ebaba9dc6d90249dba053e87c6001600160401b0360208401511692610d236060610d11604084015160208082518301019101612058565b92015160208082518301019101612978565b604080516001600160a01b039093168352602083018190528291610d4991830190611d40565b0390a380f35b602090813d8311610d73575b610d658183611f04565b810103126104a05738610cc1565b503d610d5b565b6040513d85823e3d90fd5b610da69060203d602011610dad575b610d9e8183611f04565b810190612077565b5038610c0d565b503d610d94565b6040513d88823e3d90fd5b60405163620d1b0560e11b815260048101889052602081602481895afa908115610d7a578391610e51575b50853b15610494576040516323b872dd60e01b81526001600160a01b0391821660048201529089166024820152604481018890528281606481838a5af18015610d7a57610e38575b50610bb9565b91610e4581929493611ed6565b6101b057909138610e32565b610e6a915060203d60201161076f576107618183611f04565b38610dea565b5060405163620d1b0560e11b815260048101889052602081602481895afa908115610d7a578391610eb1575b506001600160a01b0389811691161415610bb4565b610eca915060203d60201161076f576107618183611f04565b38610e9c565b610ee9915060203d60201161076f576107618183611f04565b38610ba2565b634e487b7160e01b600052603260045260246000fd5b833b15610f5557856040516308bbefef60e01b81528360048201528160248201528181604481838a5af180156106e557610f41575b5050610b0b565b610f4a90611ed6565b610f55578538610f3a565b8580fd5b610f72915060203d602011610dad57610d9e8183611f04565b38610b05565b6040513d89823e3d90fd5b5050610f9d610f9482949394612014565b51610aba6129d6565b1561101257610fc3610a8c6001600160a01b03610fbc610a9e85612024565b1692611ff7565b813b156104945782916044839260405194859384926308bbefef60e01b8452600484015260001960248401525af180156106e557611003575b5090610cc3565b61100c90611ed6565b38610ffc565b60405162461bcd60e51b8152602060048201526014602482015273556e6b6e6f776e206d657373616765207479706560601b6044820152606490fd5b015190503880610a5f565b600584527f036b6384b5eca791c62761152d0c79bb0604c104a5fb6f4eb0703f3154bb3db090601f198316855b8181106110c2575095836001959697106110a9575b505050811b01600555610a75565b015160001960f88460031b161c1916905538808061109b565b9192602060018192868b015181550194019201611086565b600584527f036b6384b5eca791c62761152d0c79bb0604c104a5fb6f4eb0703f3154bb3db0601f830160051c810160208410611132575b601f830160051c82018110611127575050610a46565b858155600101611111565b5080611111565b634e487b7160e01b83526041600452602483fd5b602490604051906338c08ef960e11b82526004820152fd5b602490604051906326bfad9160e21b82526004820152fd5b60408336031261049c5760405161119381611ebb565b83356001600160a01b03811681036111c157918160409360209352828601358382015281520192019161099b565b8680fd5b6040516335fdcccd60e21b8152336004820152602490fd5b50346101b05760203660031901126101b0576101ac6104676004356127e2565b50346101b057806003193601126101b0576001546001600160a01b0380821633036112635782546001600160a01b03198082163390811786559316600155167f8be0079c531659141344cd1fd0a4f28419497f9722a3daafe3b4186f6b6457e08380a380f35b60405162461bcd60e51b815260206004820152601660248201527526bab9ba10313290383937b837b9b2b21037bbb732b960511b6044820152606490fd5b50346101b05760203660031901126101b05760ff60406020926001600160401b036112ca611e0b565b168152600684522054166040519015158152f35b50346101b05760203660031901126101b05760209060ff906040906001600160a01b03611309611df5565b168152600884522054166040519015158152f35b50346101b05760203660031901126101b0576101ac6104676001600160a01b03611345611df5565b166127e2565b50346101b05760203660031901126101b057611365611df5565b61136d612926565b479081156113e4578280808085855af13d156113df573d61138d81611f25565b9061139b6040519283611f04565b81528460203d92013e5b156113ae578280f35b604051639d11f56360e01b81523360048201526001600160a01b039190911660248201526044810191909152606490fd5b6113a5565b604051630686827b60e51b8152600490fd5b50346101b05760203660031901126101b05760ff60406020926001600160401b0361141f611e0b565b168152600784522054166040519015158152f35b50346101b05760403660031901126101b05761144d611df5565b611455611dc9565b61145d612926565b6040516370a0823160e01b815230600482015260209290916001600160a01b039081168484602481845afa938415610db45786946114ed575b5083156113e457849286604492604051968795869463a9059cbb60e01b865216600485015260248401525af18015610d7a576114d0578280f35b816114e692903d10610dad57610d9e8183611f04565b5038808280f35b9093508481813d8311611515575b6115058183611f04565b81010312610f5557519238611496565b503d6114fb565b50346101b057806003193601126101b057600454611538612250565b906101ac6040519283928352604060208401526040830190611d40565b50346101b05760203660031901126101b0576101ac610467611575611df5565b6121e5565b50346101b05760203660031901126101b057600435906001600160401b0382116101b05760206115b56115b03660048601611f40565b612190565b6040516001600160a01b039091168152f35b50346101b0576115e7906115da36611e21565b90600295939554926126f1565b60405163b0f479a160e01b81526020938482600481305afa91821561073e5791611632939186938692611693575b506040518095819482936320487ded60e01b8452600484016120c1565b03916001600160a01b03165afa918215611687578092611657575b5050604051908152f35b9091508282813d8311611680575b61166f8183611f04565b810103126101b0575051388061164d565b503d611665565b604051903d90823e3d90fd5b6116ab919250843d861161076f576107618183611f04565b9038611615565b506116bc36611e21565b919392906001600160401b038216948585526020956006875260ff6040872054161561181357506001600160a01b0393818516156107765761170192600254926126f1565b9160405163b0f479a160e01b81528581600481305afa9081156117eb5785916117f6575b5016906040516320487ded60e01b81528581806117468786600484016120c1565b0381865afa9081156117eb5785916117be575b503481116117a05791611785939186936040518096819582946396f4e9f960e01b8452600484016120c1565b03925af1918215611687578092611657575050604051908152f35b60449060405190634787a10360e11b82523460048301526024820152fd5b90508581813d83116117e4575b6117d58183611f04565b8101031261049c575138611759565b503d6117cb565b6040513d87823e3d90fd5b61180d9150863d881161076f576107618183611f04565b38611725565b60249060405190630a503cdb60e01b82526004820152fd5b5060a03660031901126101b057600435611843611dc9565b61184b611ddf565b916064356001600160401b03811680910361049c576001600160a01b03608435818116949193908590036111c15783821695866bffffffffffffffffffffffff60a01b60035416176003556040519263620d1b0560e11b845282600485015260209760249689868981855afa958615611b43578b96611bf5575b5085168015611bba576040519063e985e9c560e01b8252600482015230888201528981604481855afa908115611b43578b91611b9d575b5015611b4e576040516335ca3dd760e21b81526004810185905289818981855afa908115611b43578b91611b26575b50611ad057906080879594939260405196878092633160a54560e21b82528760048301525afa938415611ac55789948b809781908293611a53575b506119c79860806040519961197a8b611e8a565b60048b5236908b013760ff61198e8a611ff7565b9116905260ff61199d89612004565b9116905260ff6119ac88612014565b9116905260ff6119bb87612024565b91169052610c4861209d565b611c2042014211611a405790611a048593926040519586948594630eb5ad4560e01b86526004860152840152606060448401526064830190611d40565b038134305af18015610d7a57611a18578280f35b813d8311611a39575b611a2b8183611f04565b810103126101b05738808280f35b503d611a21565b634e487b7160e01b865260116004528286fd5b975050505094506080843d608011611abd575b81611a7360809383611f04565b81010312611ab9576119c79484611a8a8b9661208f565b611a9587830161208f565b91611aae6060611aa76040840161208f565b920161208f565b919290919298611966565b8980fd5b3d9150611a66565b6040513d8c823e3d90fd5b60405162461bcd60e51b8152600481018a90526029818901527f546f6b656e206973206c6f636b656420616e642063616e6e6f74206265207472604482015268185b9cd9995c9c995960ba1b6064820152608490fd5b611b3d91508a3d8c11610dad57610d9e8183611f04565b3861192b565b6040513d8d823e3d90fd5b60405162461bcd60e51b8152600481018a90526022818901527f546f6b656e206973206e6f7420617070726f76656420666f72207472616e736660448201526132b960f11b6064820152608490fd5b611bb491508a3d8c11610dad57610d9e8183611f04565b386118fc565b60405162461bcd60e51b8152600481018b90526014818a015273151bdad95b88191bd95cc81b9bdd08195e1a5cdd60621b6044820152606490fd5b611c0d9196508a3d8c1161076f576107618183611f04565b94386118c5565b50346101b05760203660031901126101b05760043563ffffffff60e01b8116809103610498576020906385572ffb60e01b8114908115611c5a575b506040519015158152f35b6301ffc9a760e01b14905082611c4f565b50346101b05760203660031901126101b057600435906001600160401b03908183116101b057366023840112156101b05782600401359182116101b05760246005933660248560051b8301011161049457611cc584611fad565b94835b858110611cdd57604051806101ac8982611d65565b80821b83018401356001600160a01b0381168103610f555790611d016001926121e5565b611d0b828a612044565b52611d168189612044565b5001611cc8565b60005b838110611d305750506000910152565b8181015183820152602001611d20565b90602091611d5981518092818552858086019101611d1d565b601f01601f1916010190565b6020808201906020835283518092526040830192602060408460051b8301019501936000915b848310611d9b5750505050505090565b9091929394958480611db9600193603f198682030187528a51611d40565b9801930193019194939290611d8b565b602435906001600160a01b03821682036104a057565b604435906001600160a01b03821682036104a057565b600435906001600160a01b03821682036104a057565b600435906001600160401b03821682036104a057565b60606003198201126104a0576001600160401b0360043581811681036104a057926024356001600160a01b03811681036104a05792604435908382116104a057806023830112156104a05781600401359384116104a057602484830101116104a0576024019190565b60a081019081106001600160401b03821117611ea557604052565b634e487b7160e01b600052604160045260246000fd5b604081019081106001600160401b03821117611ea557604052565b6001600160401b038111611ea557604052565b602081019081106001600160401b03821117611ea557604052565b90601f801991011681019081106001600160401b03821117611ea557604052565b6001600160401b038111611ea557601f01601f191660200190565b81601f820112156104a057803590611f5782611f25565b92611f656040519485611f04565b828452602083830101116104a057816000926020809301838601378301015290565b6024359081151582036104a057565b6001600160401b038111611ea55760051b60200190565b90611fb782611f96565b611fc46040519182611f04565b8281528092611fd5601f1991611f96565b019060005b828110611fe657505050565b806060602080938501015201611fda565b805115610eef5760200190565b805160011015610eef5760400190565b805160021015610eef5760600190565b805160031015610eef5760800190565b805160041015610eef5760a00190565b8051821015610eef5760209160051b010190565b908160209103126104a057516001600160a01b03811681036104a05790565b908160209103126104a0575180151581036104a05790565b519060ff821682036104a057565b604051906120aa82611ebb565b60088252672a2920a729a322a960c11b6020830152565b909291926001600160401b036040911682526020916040838201526120f2855160a0604084015260e0830190611d40565b9161210e8487015193603f199485858303016060860152611d40565b604087015194848483030160808501528080875193848152019601926000905b83821061216757505050505060c06080612164959660018060a01b0360608201511660a085015201519282850301910152611d40565b90565b845180516001600160a01b0316895283015188840152968701969382019360019091019061212e565b61219990612327565b6001600160a01b0390818110156121ae571690565b60405162461bcd60e51b815260206004820152600f60248201526e496e76616c6964206164647265737360881b6044820152606490fd5b61216490803b6121f481611f25565b906122026040519283611f04565b80825260006020830180943c5190206127e2565b90600182811c92168015612246575b602083101461223057565b634e487b7160e01b600052602260045260246000fd5b91607f1691612225565b604051906000826005549161226483612216565b808352926020906001908181169081156122f25750600114612291575b505061228f92500383611f04565b565b91509260056000527f036b6384b5eca791c62761152d0c79bb0604c104a5fb6f4eb0703f3154bb3db0936000925b8284106122da575061228f9450505081016020013880612281565b855488850183015294850194879450928101926122bf565b9150506020925061228f94915060ff191682840152151560051b8201013880612281565b908151811015610eef570160200190565b90600091825b8151841015612390576123408483612316565b5160f81c600a9182810292818404149015171561237a5760ff90602f190181811161237a5716810180911161237a5760019093019261232d565b634e487b7160e01b600052601160045260246000fd5b925050565b929493919093600481510361252957612164946125146123e06123d26123d96123bf6029996127e2565b946001600160a01b0392839182166127e2565b97166127e2565b99166127e2565b926123f660ff6123ef83611ff7565b51166127e2565b61240460ff6123ef84612004565b9061242060ff6123ef61241a826123ef88612014565b95612024565b956040519b8c998a9761243f602099828b809451948593019101611d1d565b8b0199601d60f91b9a8b8a820152612460825180938c602185019101611d1d565b018a602182015261247a825180938b602285019101611d1d565b01896022820152612494825180938a602385019101611d1d565b018860238201526124ae8251809389602485019101611d1d565b018760248201526124c88251809388602585019101611d1d565b018660258201526124e28251809387602685019101611d1d565b018560268201526124fc8251809386602785019101611d1d565b01918460278401528351938491602885019101611d1d565b01906028820152036009810184520182611f04565b60405162461bcd60e51b815260206004820152602e60248201527f5374617473206172726179206d75737420636f6e7461696e2065786163746c7960448201526d20666f757220656c656d656e747360901b6064820152608490fd5b6040519061259282611ebb565b6001808352601d60f91b6020840152806000815b61268f575b506125b68291611fad565b9260009485935b6125cb575b50505050905090565b81516000199081810190811161237a57871015612689576125ed878385612a9b565b908114612681575b86810381811161237a57612608906127b0565b96846000915b83811061264b57509050810180911161237a5761264284919561263081612a2c565b9861263b828a612044565b5287612044565b509593956125bd565b6001600160f81b031961265e8288612316565b51169261267861266d82612a2c565b9460001a918c612316565b5301859061260e565b5081516125f5565b506125c2565b835192949260001980820193929091841161237a5786938110156126e7576126b8908587612a9b565b9081036126c857509091936125ab565b91506126d390612a2c565b84820180921161237a5791939190826125a6565b50509091936125ab565b9290600091604080519461270486611e8a565b6127726060809581895281608060209a828c82015282888201528a83820152015284519960018060a01b0316898b0152888a526127408a611ebb565b8385519485928b808501528188850152848401378181018301899052601f01601f191681010384810184520182611f04565b61279082519361278185611ee9565b86855283519061057582611ee9565b9582519761279d89611e8a565b8852870152850152830152608082015290565b906127ba82611f25565b6127c76040519182611f04565b82815280926127d8601f1991611f25565b0190602036910137565b806000917a184f03e93ff9f4daa797ed6e38ed64bf6a1f01000000000000000080821015612918575b506d04ee2d6d415b85acef810000000080831015612909575b50662386f26fc10000808310156128fa575b506305f5e100808310156128eb575b50612710808310156128dc575b5060648210156128cc575b600a809210156128c2575b60019081602161287a600187016127b0565b95860101905b61288c575b5050505090565b600019019083906f181899199a1a9b1b9c1cb0b131b232b360811b8282061a8353049182156128bd57919082612880565b612885565b9160010191612868565b919060646002910491019161285d565b60049193920491019138612852565b60089193920491019138612845565b60109193920491019138612836565b60209193920491019138612824565b60409350810491503861280b565b6000546001600160a01b0316330361293a57565b60405162461bcd60e51b815260206004820152601660248201527527b7363c9031b0b63630b1363290313c9037bbb732b960511b6044820152606490fd5b6020818303126104a0578051906001600160401b0382116104a0570181601f820112156104a05780516129aa81611f25565b926129b86040519485611f04565b818452602082840101116104a0576121649160208085019101611d1d565b604051906129e382611ebb565b600382526241434b60e81b6020830152565b604051906397a657c960e01b602083015251602482015260248152606081018181106001600160401b03821117611ea55760405290565b600019811461237a5760010190565b908151815103612a945760009060005b8351811015612a8b576001600160f81b031980612a688387612316565b511690612a758385612316565b511603612a8457600101612a4b565b5050905090565b50505050600190565b5050600090565b91906001926001825103612b18578392935b612abc575b5050505060001990565b8051841015612b13576001600160f81b031980612ad98684612316565b511690835115612afe5760208401511614612af8578280940193612aad565b50505090565b60246000634e487b7160e01b81526032600452fd5b612ab2565b634e487b7160e01b600052600160045260246000fdfea2646970667358221220e34faad877d526cdadf3abc052eeaed7c62fd4018bc30ef11e5347e56fb93d4364736f6c63430008180033","linkReferences":{}},"methodIdentifiers":{"acceptOwnership()":"79ba5097","addressToString(address)":"5e57966d","allowlistDestinationChain(uint64,bool)":"96d3b83d","allowlistSender(address,bool)":"eab5b02c","allowlistSourceChain(uint64,bool)":"db04fa49","allowlistedDestinationChains(uint64)":"75c67c66","allowlistedSenders(address)":"6159ada1","allowlistedSourceChains(uint64)":"4030d521","asciiToUint(string)":"94f3a204","ccipReceive((bytes32,uint64,bytes,bytes,(address,uint256)[]))":"85572ffb","createMessageStr(uint256,address,address,address,string,uint8[])":"aac1efda","getFeeNative(uint64,address,string)":"11388b97","getHash(address)":"1da0b8fc","getLastReceivedMessageDetails()":"263596a5","getMultipleHash(address[])":"0048a62d","getRouter()":"b0f479a1","nftContract()":"d56d229d","owner()":"8da5cb5b","readMessageStr(string)":"f7bfc50c","sendAcknowledgement(uint64,address,string)":"a74329d5","sendMessage(uint64,address,string)":"0eb5ad45","setGasLimit(uint256)":"ee7d72b4","stringToAddress(string)":"15706fdf","supportsInterface(bytes4)":"01ffc9a7","transferNft(uint256,address,address,uint64,address)":"0a88e1a9","transferOwnership(address)":"f2fde38b","uintToASCII(uint256)":"836c7419","withdraw(address)":"51cff8d9","withdrawToken(address,address)":"3aeac4e1"},"id":77}