{"abi":[{"type":"constructor","inputs":[{"name":"_router","type":"address","internalType":"address"},{"name":"gasLimit","type":"uint256","internalType":"uint256"}],"stateMutability":"nonpayable"},{"type":"receive","stateMutability":"payable"},{"type":"function","name":"acceptOwnership","inputs":[],"outputs":[],"stateMutability":"nonpayable"},{"type":"function","name":"addressToString","inputs":[{"name":"_address","type":"address","internalType":"address"}],"outputs":[{"name":"","type":"string","internalType":"string"}],"stateMutability":"pure"},{"type":"function","name":"allowlistDestinationChain","inputs":[{"name":"_destinationChainSelector","type":"uint64","internalType":"uint64"},{"name":"allowed","type":"bool","internalType":"bool"}],"outputs":[],"stateMutability":"nonpayable"},{"type":"function","name":"allowlistSender","inputs":[{"name":"_sender","type":"address","internalType":"address"},{"name":"allowed","type":"bool","internalType":"bool"}],"outputs":[],"stateMutability":"nonpayable"},{"type":"function","name":"allowlistSourceChain","inputs":[{"name":"_sourceChainSelector","type":"uint64","internalType":"uint64"},{"name":"allowed","type":"bool","internalType":"bool"}],"outputs":[],"stateMutability":"nonpayable"},{"type":"function","name":"allowlistedDestinationChains","inputs":[{"name":"","type":"uint64","internalType":"uint64"}],"outputs":[{"name":"","type":"bool","internalType":"bool"}],"stateMutability":"view"},{"type":"function","name":"allowlistedSenders","inputs":[{"name":"","type":"address","internalType":"address"}],"outputs":[{"name":"","type":"bool","internalType":"bool"}],"stateMutability":"view"},{"type":"function","name":"allowlistedSourceChains","inputs":[{"name":"","type":"uint64","internalType":"uint64"}],"outputs":[{"name":"","type":"bool","internalType":"bool"}],"stateMutability":"view"},{"type":"function","name":"asciiToUint","inputs":[{"name":"_asciiString","type":"string","internalType":"string"}],"outputs":[{"name":"","type":"uint256","internalType":"uint256"}],"stateMutability":"pure"},{"type":"function","name":"ccipReceive","inputs":[{"name":"message","type":"tuple","internalType":"struct Client.Any2EVMMessage","components":[{"name":"messageId","type":"bytes32","internalType":"bytes32"},{"name":"sourceChainSelector","type":"uint64","internalType":"uint64"},{"name":"sender","type":"bytes","internalType":"bytes"},{"name":"data","type":"bytes","internalType":"bytes"},{"name":"destTokenAmounts","type":"tuple[]","internalType":"struct Client.EVMTokenAmount[]","components":[{"name":"token","type":"address","internalType":"address"},{"name":"amount","type":"uint256","internalType":"uint256"}]}]}],"outputs":[],"stateMutability":"nonpayable"},{"type":"function","name":"createMessageStr","inputs":[{"name":"tokenId","type":"uint256","internalType":"uint256"},{"name":"nftOwner","type":"address","internalType":"address"},{"name":"senderContractAdd","type":"address","internalType":"address"},{"name":"receiverContractAdd","type":"address","internalType":"address"},{"name":"msgType","type":"string","internalType":"string"},{"name":"stats","type":"uint8[]","internalType":"uint8[]"}],"outputs":[{"name":"","type":"string","internalType":"string"}],"stateMutability":"pure"},{"type":"function","name":"getFeeNative","inputs":[{"name":"destinationChainSelector","type":"uint64","internalType":"uint64"},{"name":"receiver","type":"address","internalType":"address"},{"name":"_text","type":"string","internalType":"string"}],"outputs":[{"name":"fees","type":"uint256","internalType":"uint256"}],"stateMutability":"view"},{"type":"function","name":"getHash","inputs":[{"name":"contractAddress","type":"address","internalType":"address"}],"outputs":[{"name":"","type":"string","internalType":"string"}],"stateMutability":"view"},{"type":"function","name":"getLastReceivedMessageDetails","inputs":[],"outputs":[{"name":"messageId","type":"bytes32","internalType":"bytes32"},{"name":"text","type":"string","internalType":"string"}],"stateMutability":"view"},{"type":"function","name":"getMultipleHash","inputs":[{"name":"contractAddresses","type":"address[]","internalType":"address[]"}],"outputs":[{"name":"","type":"string[]","internalType":"string[]"}],"stateMutability":"view"},{"type":"function","name":"getRouter","inputs":[],"outputs":[{"name":"","type":"address","internalType":"address"}],"stateMutability":"view"},{"type":"function","name":"nftContract","inputs":[],"outputs":[{"name":"","type":"address","internalType":"contract IRPGItemNFT"}],"stateMutability":"view"},{"type":"function","name":"owner","inputs":[],"outputs":[{"name":"","type":"address","internalType":"address"}],"stateMutability":"view"},{"type":"function","name":"readMessageStr","inputs":[{"name":"_str","type":"string","internalType":"string"}],"outputs":[{"name":"messageParts","type":"string[]","internalType":"string[]"}],"stateMutability":"pure"},{"type":"function","name":"sendAcknowledgement","inputs":[{"name":"_destinationChainSelector","type":"uint64","internalType":"uint64"},{"name":"_receiver","type":"address","internalType":"address"},{"name":"_text","type":"string","internalType":"string"}],"outputs":[{"name":"messageId","type":"bytes32","internalType":"bytes32"}],"stateMutability":"nonpayable"},{"type":"function","name":"sendMessage","inputs":[{"name":"_destinationChainSelector","type":"uint64","internalType":"uint64"},{"name":"_receiver","type":"address","internalType":"address"},{"name":"_text","type":"string","internalType":"string"}],"outputs":[{"name":"messageId","type":"bytes32","internalType":"bytes32"}],"stateMutability":"payable"},{"type":"function","name":"setGasLimit","inputs":[{"name":"_limit","type":"uint256","internalType":"uint256"}],"outputs":[],"stateMutability":"nonpayable"},{"type":"function","name":"stringToAddress","inputs":[{"name":"_string","type":"string","internalType":"string"}],"outputs":[{"name":"","type":"address","internalType":"address"}],"stateMutability":"pure"},{"type":"function","name":"supportsInterface","inputs":[{"name":"interfaceId","type":"bytes4","internalType":"bytes4"}],"outputs":[{"name":"","type":"bool","internalType":"bool"}],"stateMutability":"view"},{"type":"function","name":"transferNft","inputs":[{"name":"_tokenId","type":"uint256","internalType":"uint256"},{"name":"senderNftContractAddress","type":"address","internalType":"address"},{"name":"destinationNftContractAddress","type":"address","internalType":"address"},{"name":"destinationChainId","type":"uint64","internalType":"uint64"},{"name":"_receiver","type":"address","internalType":"address"}],"outputs":[],"stateMutability":"payable"},{"type":"function","name":"transferOwnership","inputs":[{"name":"to","type":"address","internalType":"address"}],"outputs":[],"stateMutability":"nonpayable"},{"type":"function","name":"uintToASCII","inputs":[{"name":"_number","type":"uint256","internalType":"uint256"}],"outputs":[{"name":"","type":"string","internalType":"string"}],"stateMutability":"pure"},{"type":"function","name":"withdraw","inputs":[{"name":"_beneficiary","type":"address","internalType":"address"}],"outputs":[],"stateMutability":"nonpayable"},{"type":"function","name":"withdrawToken","inputs":[{"name":"_beneficiary","type":"address","internalType":"address"},{"name":"_token","type":"address","internalType":"address"}],"outputs":[],"stateMutability":"nonpayable"},{"type":"event","name":"MessageReceived","inputs":[{"name":"messageId","type":"bytes32","indexed":true,"internalType":"bytes32"},{"name":"sourceChainSelector","type":"uint64","indexed":true,"internalType":"uint64"},{"name":"sender","type":"address","indexed":false,"internalType":"address"},{"name":"text","type":"string","indexed":false,"internalType":"string"}],"anonymous":false},{"type":"event","name":"MessageSent","inputs":[{"name":"messageId","type":"bytes32","indexed":true,"internalType":"bytes32"},{"name":"destinationChainSelector","type":"uint64","indexed":true,"internalType":"uint64"},{"name":"receiver","type":"address","indexed":false,"internalType":"address"},{"name":"text","type":"string","indexed":false,"internalType":"string"},{"name":"feeToken","type":"address","indexed":false,"internalType":"address"},{"name":"fees","type":"uint256","indexed":false,"internalType":"uint256"}],"anonymous":false},{"type":"event","name":"OwnershipTransferRequested","inputs":[{"name":"from","type":"address","indexed":true,"internalType":"address"},{"name":"to","type":"address","indexed":true,"internalType":"address"}],"anonymous":false},{"type":"event","name":"OwnershipTransferred","inputs":[{"name":"from","type":"address","indexed":true,"internalType":"address"},{"name":"to","type":"address","indexed":true,"internalType":"address"}],"anonymous":false},{"type":"error","name":"DestinationChainNotAllowlisted","inputs":[{"name":"destinationChainSelector","type":"uint64","internalType":"uint64"}]},{"type":"error","name":"FailedToWithdrawEth","inputs":[{"name":"owner","type":"address","internalType":"address"},{"name":"target","type":"address","internalType":"address"},{"name":"value","type":"uint256","internalType":"uint256"}]},{"type":"error","name":"InvalidReceiverAddress","inputs":[]},{"type":"error","name":"InvalidRouter","inputs":[{"name":"router","type":"address","internalType":"address"}]},{"type":"error","name":"NotEnoughBalance","inputs":[{"name":"currentBalance","type":"uint256","internalType":"uint256"},{"name":"calculatedFees","type":"uint256","internalType":"uint256"}]},{"type":"error","name":"NothingToWithdraw","inputs":[]},{"type":"error","name":"SenderNotAllowlisted","inputs":[{"name":"sender","type":"address","internalType":"address"}]},{"type":"error","name":"SourceChainNotAllowlisted","inputs":[{"name":"sourceChainSelector","type":"uint64","internalType":"uint64"}]}],"bytecode":{"object":"0x60a034620000fe57601f62002cc938819003918201601f19168301916001600160401b0383118484101762000103578084926040948552833981010312620000fe5780516001600160a01b03811691828203620000fe57602001519115620000e5576080523315620000a057600080546001600160a01b03191633179055600255604051612baf90816200011a823960805181818161037301526108960152f35b60405162461bcd60e51b815260206004820152601860248201527f43616e6e6f7420736574206f776e657220746f207a65726f00000000000000006044820152606490fd5b6040516335fdcccd60e21b815260006004820152602490fd5b600080fd5b634e487b7160e01b600052604160045260246000fdfe6080604052600436101561001b575b361561001957600080fd5b005b6000803560e01c806248a62d14611cb657806301ffc9a714611c5f5780630a88e1a9146118255780630eb5ad45146116ae57806311388b97146115c857806315706fdf1461157b5780631da0b8fc14611556578063263596a51461151d5780633aeac4e1146114345780634030d521146113f757806351cff8d91461134c5780635e57966d1461131e5780636159ada1146112df57806375c67c66146112a257806379ba5097146111fe578063836c7419146111de57806385572ffb146108625780638da5cb5b1461083b57806394f3a204146107f857806396d3b83d146107a5578063a74329d5146104a5578063aac1efda146103a2578063b0f479a11461035d578063d56d229d14610334578063db04fa49146102e1578063eab5b02c1461028c578063ee7d72b414610269578063f2fde38b146101b35763f7bfc50c14610165575061000e565b346101b05760203660031901126101b057600435906001600160401b0382116101b0576101ac6101a061019b3660048601611f8b565b6125d0565b60405191829182611db0565b0390f35b80fd5b50346101b05760203660031901126101b0576101cd611e40565b6101d5612971565b6001600160a01b039081169033821461022457600180546001600160a01b031916831790558254167fed8889f560326eb138920d842192f0eb3dd22b4f139c87a2c57538e05bae12788380a380f35b60405162461bcd60e51b815260206004820152601760248201527f43616e6e6f74207472616e7366657220746f2073656c660000000000000000006044820152606490fd5b50346101b05760203660031901126101b057610283612971565b60043560025580f35b50346101b05760403660031901126101b0576102de6102a9611e40565b6102b1611fd2565b906102ba612971565b60018060a01b031683526008602052604083209060ff801983541691151516179055565b80f35b50346101b05760403660031901126101b0576102de6102fe611e56565b6001600160401b0361030e611fd2565b91610317612971565b1683526007602052604083209060ff801983541691151516179055565b50346101b057806003193601126101b0576003546040516001600160a01b039091168152602090f35b50346101b057806003193601126101b0576040517f00000000000000000000000000000000000000000000000000000000000000006001600160a01b03168152602090f35b50346101b05760c03660031901126101b0576103bc611e14565b906103c5611e2a565b606435906001600160a01b03821682036104a0576001600160401b039360843585811161049c576103fa903690600401611f8b565b9360a4359586116101b057366023870112156101b05785600401359561041f87611fe1565b9661042d6040519889611f4f565b808852602092602460208a019260051b8401019236841161049857602401915b83831061047b576101ac6104678b8b8b8b8b6004356123e0565b604051918291602083526020830190611d8b565b823560ff8116810361049457815291840191840161044d565b8280fd5b5080fd5b8480fd5b600080fd5b50346101b05760603660031901126101b0576104bf611e56565b906104c8611e14565b916001600160401b036044358181116107a1576104e9903690600401611f8b565b908216918284526020936006855260ff60408220541615610788576001600160a01b039586169182156107765760405196838789015286885261052b88611f19565b6040518780820152610552816105446040820189611d8b565b03601f198101835282611f4f565b60405161055e81611f34565b6000815261057c6002546040519061057582611f34565b8152612a40565b916040519a61058a8c611efe565b8b52898b015260408a01528360608a0152608089015260405163b0f479a160e01b81528781600481305afa90811561073e578491610749575b501696604051916320487ded60e01b83528783806105e585856004840161210c565b03818c5afa92831561073e57849361070f575b504783116106f0576040516396f4e9f960e01b8152979889928992839186918391610626916004840161210c565b03925af19586156106e5578296610690575b50918593917fd36445359b3c6e26c120659aef090ce0f2eb005cf9af450d11aa1225609b4f4d9361067a604051948594855260808b8601526080850190611d8b565b91604084015260608301520390a3604051908152f35b9290939195508683813d83116106de575b6106ab8183611f4f565b810103126104a05791519490927fd36445359b3c6e26c120659aef090ce0f2eb005cf9af450d11aa1225609b4f4d610638565b503d6106a1565b6040513d84823e3d90fd5b604051634787a10360e11b815247600482015260248101849052604490fd5b9092508781813d8311610737575b6107278183611f4f565b810103126104a0575191386105f8565b503d61071d565b6040513d86823e3d90fd5b6107699150883d8a1161076f575b6107618183611f4f565b8101906120a3565b386105c3565b503d610757565b60405163502ffa3f60e11b8152600490fd5b604051630a503cdb60e01b815260048101859052602490fd5b8380fd5b50346101b05760403660031901126101b0576102de6107c2611e56565b6001600160401b036107d2611fd2565b916107db612971565b1683526006602052604083209060ff801983541691151516179055565b50346101b05760203660031901126101b057600435906001600160401b0382116101b057602061083361082e3660048601611f8b565b612372565b604051908152f35b50346101b057806003193601126101b057546040516001600160a01b039091168152602090f35b50346101b057600319906020368301126101b057600435916001600160401b0383116104985760a09083360301126101b0577f00000000000000000000000000000000000000000000000000000000000000006001600160a01b031633036111c657604051916108d183611efe565b8060040135835260248101356001600160401b03811681036104a057602084015260448101356001600160401b038111610494576109159060043691840101611f8b565b604084015260648101356001600160401b0381116104945761093d9060043691840101611f8b565b60608401526084810135906001600160401b03821161049457013660238201121561049857600481013561097081611fe1565b9161097e6040519384611f4f565b8183526024602084019260061b8201019036821161049c57602401915b8183106111815750505060808301526001600160401b0360208301511660408301516109d760018060a01b0391602080825183010191016120a3565b1690808352600760205260ff604084205416156111695750808252600860205260ff6040832054161561115157508151600455610a216060830151602080825183010191016129c3565b9182516001600160401b03811161113d57610a3d600554612261565b601f81116110de575b506020601f821160011461105d57839482939492611052575b50508160011b916000199060031b1c1916176005555b610a8061019b61229b565b610a92610a8c82612042565b51612372565b610aa4610a9e8361204f565b516121db565b90610ac0610ab18461205f565b51610aba6120e8565b90612a86565b15610f83576001600160a01b03610ad9610a9e8561207f565b16926040516335ca3dd760e21b8152826004820152602081602481885afa908115610f78578791610f59575b50610f05575b805160051015610eef5760ff610b2460c0830151612372565b1693815160061015610eef5760ff610b3f60e0840151612372565b16825160071015610eef5760ff610b5a610100850151612372565b1695835160081015610eef578860ff610b77610120870151612372565b1660405163620d1b0560e11b8152876004820152602081602481895afa908115610d7a578391610ed0575b506001600160a01b0316151580610e70575b610dbf575b9060209460c493926040519a8b9687956302ee978560e01b87528b600488015260018060a01b038d16602488015260448701526064860152608485015260a48401525af1938415610db457610c4e94610d85575b50610c26610a9e610c20610a9e8461206f565b9261207f565b9060405193610c3485611efe565b600485526080366020870137610c48612a21565b936123e0565b60206001600160401b038184015116610c7360408501518380825183010191016120a3565b60405163a74329d560e01b815260048101929092526001600160a01b03166024820152606060448201529182908190610cb0906064830190611d8b565b038186305af18015610d7a57610d4f575b505b80517fb1e312a29937cc11967b0e4a346fef1ae132424ebaba9dc6d90249dba053e87c6001600160401b0360208401511692610d236060610d116040840151602080825183010191016120a3565b920151602080825183010191016129c3565b604080516001600160a01b039093168352602083018190528291610d4991830190611d8b565b0390a380f35b602090813d8311610d73575b610d658183611f4f565b810103126104a05738610cc1565b503d610d5b565b6040513d85823e3d90fd5b610da69060203d602011610dad575b610d9e8183611f4f565b8101906120c2565b5038610c0d565b503d610d94565b6040513d88823e3d90fd5b60405163620d1b0560e11b815260048101889052602081602481895afa908115610d7a578391610e51575b50853b15610494576040516323b872dd60e01b81526001600160a01b0391821660048201529089166024820152604481018890528281606481838a5af18015610d7a57610e38575b50610bb9565b91610e4581929493611ed5565b6101b057909138610e32565b610e6a915060203d60201161076f576107618183611f4f565b38610dea565b5060405163620d1b0560e11b815260048101889052602081602481895afa908115610d7a578391610eb1575b506001600160a01b0389811691161415610bb4565b610eca915060203d60201161076f576107618183611f4f565b38610e9c565b610ee9915060203d60201161076f576107618183611f4f565b38610ba2565b634e487b7160e01b600052603260045260246000fd5b833b15610f5557856040516308bbefef60e01b81528360048201528160248201528181604481838a5af180156106e557610f41575b5050610b0b565b610f4a90611ed5565b610f55578538610f3a565b8580fd5b610f72915060203d602011610dad57610d9e8183611f4f565b38610b05565b6040513d89823e3d90fd5b5050610f9a610f918261205f565b51610aba612a21565b15611016578290610fc2610a8c6001600160a01b03610fbb610a9e8561206f565b1692612042565b813b156104945782916044839260405194859384926308bbefef60e01b8452600484015260001960248401525af180156106e557611002575b5050610cc3565b61100b90611ed5565b610498578138610ffb565b60405162461bcd60e51b8152602060048201526014602482015273556e6b6e6f776e206d657373616765207479706560601b6044820152606490fd5b015190503880610a5f565b600584527f036b6384b5eca791c62761152d0c79bb0604c104a5fb6f4eb0703f3154bb3db090601f198316855b8181106110c6575095836001959697106110ad575b505050811b01600555610a75565b015160001960f88460031b161c1916905538808061109f565b9192602060018192868b01518155019401920161108a565b600584527f036b6384b5eca791c62761152d0c79bb0604c104a5fb6f4eb0703f3154bb3db0601f830160051c810160208410611136575b601f830160051c8201811061112b575050610a46565b858155600101611115565b5080611115565b634e487b7160e01b83526041600452602483fd5b602490604051906338c08ef960e11b82526004820152fd5b602490604051906326bfad9160e21b82526004820152fd5b60408336031261049c576040519061119882611f19565b8335906001600160a01b03821682036104a0578260209260409452828601358382015281520192019161099b565b6040516335fdcccd60e21b8152336004820152602490fd5b50346101b05760203660031901126101b0576101ac61046760043561282d565b50346101b057806003193601126101b0576001546001600160a01b0380821633036112645782546001600160a01b03198082163390811786559316600155167f8be0079c531659141344cd1fd0a4f28419497f9722a3daafe3b4186f6b6457e08380a380f35b60405162461bcd60e51b815260206004820152601660248201527526bab9ba10313290383937b837b9b2b21037bbb732b960511b6044820152606490fd5b50346101b05760203660031901126101b05760ff60406020926001600160401b036112cb611e56565b168152600684522054166040519015158152f35b50346101b05760203660031901126101b05760209060ff906040906001600160a01b0361130a611e40565b168152600884522054166040519015158152f35b50346101b05760203660031901126101b0576101ac6104676001600160a01b03611346611e40565b1661282d565b50346101b05760203660031901126101b057611366611e40565b61136e612971565b479081156113e5578280808085855af13d156113e0573d61138e81611f70565b9061139c6040519283611f4f565b81528460203d92013e5b156113af578280f35b604051639d11f56360e01b81523360048201526001600160a01b039190911660248201526044810191909152606490fd5b6113a6565b604051630686827b60e51b8152600490fd5b50346101b05760203660031901126101b05760ff60406020926001600160401b03611420611e56565b168152600784522054166040519015158152f35b50346101b05760403660031901126101b05761144e611e40565b611456611e14565b61145e612971565b6040516370a0823160e01b815230600482015260209290916001600160a01b039081168484602481845afa938415610db45786946114ee575b5083156113e557849286604492604051968795869463a9059cbb60e01b865216600485015260248401525af18015610d7a576114d1578280f35b816114e792903d10610dad57610d9e8183611f4f565b5038808280f35b9093508481813d8311611516575b6115068183611f4f565b810103126104a057519238611497565b503d6114fc565b50346101b057806003193601126101b05760045461153961229b565b906101ac6040519283928352604060208401526040830190611d8b565b50346101b05760203660031901126101b0576101ac610467611576611e40565b612230565b50346101b05760203660031901126101b057600435906001600160401b0382116101b05760206115b66115b13660048601611f8b565b6121db565b6040516001600160a01b039091168152f35b50346101b0576115e8906115db36611e6c565b906002959395549261273c565b60405163b0f479a160e01b81526020938482600481305afa91821561073e579161163393918693869261168f575b506040518095819482936320487ded60e01b84526004840161210c565b03916001600160a01b03165afa9182156116835791611656575b50604051908152f35b90508181813d831161167c575b61166d8183611f4f565b810103126104a057513861164d565b503d611663565b604051903d90823e3d90fd5b6116a7919250843d861161076f576107618183611f4f565b9038611616565b506116b836611e6c565b919392906001600160401b038216948585526020956006875260ff6040872054161561180d57506001600160a01b039381851615610776576116fd926002549261273c565b9160405163b0f479a160e01b81528581600481305afa9081156117e55785916117f0575b5016906040516320487ded60e01b815285818061174287866004840161210c565b0381865afa9081156117e55785916117b8575b5034811161179a5791611781939186936040518096819582946396f4e9f960e01b84526004840161210c565b03925af191821561168357916116565750604051908152f35b60449060405190634787a10360e11b82523460048301526024820152fd5b90508581813d83116117de575b6117cf8183611f4f565b810103126104a0575138611755565b503d6117c5565b6040513d87823e3d90fd5b6118079150863d881161076f576107618183611f4f565b38611721565b60249060405190630a503cdb60e01b82526004820152fd5b5060a03660031901126101b05760043561183d611e14565b90611846611e2a565b6064356001600160401b03811680910361049c576001600160a01b0360843581811694919390859003611c5b5783861690816bffffffffffffffffffffffff60a01b60035416176003556040519663620d1b0560e11b885283600489015260209760249689828981885afa918215611b17578b92611c3c575b5081168015611c01576040519063e985e9c560e01b8252600482015230888201528981604481885afa908115611b17578b91611be4575b5015611b95576040516335ca3dd760e21b81526004810186905289818981885afa908115611b17578b91611b78575b50611b2257604051633160a54560e21b815260048101869052926080848981885afa928315611b17578a938c809681908293611aa5575b506119c4976080604051986119708a611efe565b60048a5236908a013760ff61198489612042565b9116905260ff6119938861204f565b9116905260ff6119a28761205f565b9116905260ff6119b18661206f565b911690526119bd6120e8565b92876123e0565b91611c20420190814211611a9257908891833b15610494576044908360405195869485936308bbefef60e01b855260048501528a8401525af18015610f7857611a77575b5090611a3b8593926040519586948594630eb5ad4560e01b86526004860152840152606060448401526064830190611d8b565b038134305af18015610d7a57611a4f578280f35b813d8311611a70575b611a628183611f4f565b810103126104a05738808280f35b503d611a58565b8593929196611a88611a3b92611ed5565b9691929350611a08565b634e487b7160e01b895260116004528589fd5b965050505093506080833d608011611b0f575b81611ac560809383611f4f565b81010312611b0b576119c49383611adc8c956120da565b611ae78683016120da565b91611b006060611af9604084016120da565b92016120da565b91929091929761195c565b8a80fd5b3d9150611ab8565b6040513d8d823e3d90fd5b60405162461bcd60e51b8152600481018a90526029818901527f546f6b656e206973206c6f636b656420616e642063616e6e6f74206265207472604482015268185b9cd9995c9c995960ba1b6064820152608490fd5b611b8f91508a3d8c11610dad57610d9e8183611f4f565b38611925565b60405162461bcd60e51b8152600481018a90526022818901527f546f6b656e206973206e6f7420617070726f76656420666f72207472616e736660448201526132b960f11b6064820152608490fd5b611bfb91508a3d8c11610dad57610d9e8183611f4f565b386118f6565b60405162461bcd60e51b8152600481018b90526014818a015273151bdad95b88191bd95cc81b9bdd08195e1a5cdd60621b6044820152606490fd5b611c549192508a3d8c1161076f576107618183611f4f565b90386118bf565b8680fd5b50346101b05760203660031901126101b05760043563ffffffff60e01b8116809103610498576020906385572ffb60e01b8114908115611ca5575b506040519015158152f35b6301ffc9a760e01b14905082611c9a565b50346101b05760203660031901126101b057600435906001600160401b03908183116101b057366023840112156101b05782600401359182116101b05760246005933660248560051b8301011161049457611d1084611ff8565b94835b858110611d2857604051806101ac8982611db0565b80821b83018401356001600160a01b0381168103610f555790611d4c600192612230565b611d56828a61208f565b52611d61818961208f565b5001611d13565b60005b838110611d7b5750506000910152565b8181015183820152602001611d6b565b90602091611da481518092818552858086019101611d68565b601f01601f1916010190565b6020808201906020835283518092526040830192602060408460051b8301019501936000915b848310611de65750505050505090565b9091929394958480611e04600193603f198682030187528a51611d8b565b9801930193019194939290611dd6565b602435906001600160a01b03821682036104a057565b604435906001600160a01b03821682036104a057565b600435906001600160a01b03821682036104a057565b600435906001600160401b03821682036104a057565b60606003198201126104a0576001600160401b0360043581811681036104a057926024356001600160a01b03811681036104a05792604435908382116104a057806023830112156104a05781600401359384116104a057602484830101116104a0576024019190565b6001600160401b038111611ee857604052565b634e487b7160e01b600052604160045260246000fd5b60a081019081106001600160401b03821117611ee857604052565b604081019081106001600160401b03821117611ee857604052565b602081019081106001600160401b03821117611ee857604052565b90601f801991011681019081106001600160401b03821117611ee857604052565b6001600160401b038111611ee857601f01601f191660200190565b81601f820112156104a057803590611fa282611f70565b92611fb06040519485611f4f565b828452602083830101116104a057816000926020809301838601378301015290565b6024359081151582036104a057565b6001600160401b038111611ee85760051b60200190565b9061200282611fe1565b61200f6040519182611f4f565b8281528092612020601f1991611fe1565b019060005b82811061203157505050565b806060602080938501015201612025565b805115610eef5760200190565b805160011015610eef5760400190565b805160021015610eef5760600190565b805160031015610eef5760800190565b805160041015610eef5760a00190565b8051821015610eef5760209160051b010190565b908160209103126104a057516001600160a01b03811681036104a05790565b908160209103126104a0575180151581036104a05790565b519060ff821682036104a057565b604051906120f582611f19565b60088252672a2920a729a322a960c11b6020830152565b909291926001600160401b0360409116825260209160408382015261213d855160a0604084015260e0830190611d8b565b916121598487015193603f199485858303016060860152611d8b565b604087015194848483030160808501528080875193848152019601926000905b8382106121b257505050505060c060806121af959660018060a01b0360608201511660a085015201519282850301910152611d8b565b90565b845180516001600160a01b03168952830151888401529687019693820193600190910190612179565b6121e490612372565b6001600160a01b0390818110156121f9571690565b60405162461bcd60e51b815260206004820152600f60248201526e496e76616c6964206164647265737360881b6044820152606490fd5b6121af90803b61223f81611f70565b9061224d6040519283611f4f565b80825260006020830180943c51902061282d565b90600182811c92168015612291575b602083101461227b57565b634e487b7160e01b600052602260045260246000fd5b91607f1691612270565b60405190600082600554916122af83612261565b8083529260209060019081811690811561233d57506001146122dc575b50506122da92500383611f4f565b565b91509260056000527f036b6384b5eca791c62761152d0c79bb0604c104a5fb6f4eb0703f3154bb3db0936000925b82841061232557506122da94505050810160200138806122cc565b8554888501830152948501948794509281019261230a565b915050602092506122da94915060ff191682840152151560051b82010138806122cc565b908151811015610eef570160200190565b90600091825b81518410156123db5761238b8483612361565b5160f81c600a918281029281840414901517156123c55760ff90602f19018181116123c5571681018091116123c557600190930192612378565b634e487b7160e01b600052601160045260246000fd5b925050565b9294939190936004815103612574576121af9461255f61242b61241d61242461240a60299961282d565b946001600160a01b03928391821661282d565b971661282d565b991661282d565b9261244160ff61243a83612042565b511661282d565b61244f60ff61243a8461204f565b9061246b60ff61243a6124658261243a8861205f565b9561206f565b956040519b8c998a9761248a602099828b809451948593019101611d68565b8b0199601d60f91b9a8b8a8201526124ab825180938c602185019101611d68565b018a60218201526124c5825180938b602285019101611d68565b018960228201526124df825180938a602385019101611d68565b018860238201526124f98251809389602485019101611d68565b018760248201526125138251809388602585019101611d68565b0186602582015261252d8251809387602685019101611d68565b018560268201526125478251809386602785019101611d68565b01918460278401528351938491602885019101611d68565b01906028820152036009810184520182611f4f565b60405162461bcd60e51b815260206004820152602e60248201527f5374617473206172726179206d75737420636f6e7461696e2065786163746c7960448201526d20666f757220656c656d656e747360901b6064820152608490fd5b604051906125dd82611f19565b6001808352601d60f91b6020840152806000815b6126da575b506126018291611ff8565b9260009485935b612616575b50505050905090565b8151600019908181019081116123c5578710156126d457612638878385612ae6565b9081146126cc575b8681038181116123c557612653906127fb565b96846000915b8381106126965750905081018091116123c55761268d84919561267b81612a77565b98612686828a61208f565b528761208f565b50959395612608565b6001600160f81b03196126a98288612361565b5116926126c36126b882612a77565b9460001a918c612361565b53018590612659565b508151612640565b5061260d565b83519294926000198082019392909184116123c557869381101561273257612703908587612ae6565b90810361271357509091936125f6565b915061271e90612a77565b8482018092116123c55791939190826125f1565b50509091936125f6565b9290600091604080519461274f86611efe565b6127bd6060809581895281608060209a828c82015282888201528a83820152015284519960018060a01b0316898b0152888a5261278b8a611f19565b8385519485928b808501528188850152848401378181018301899052601f01601f191681010384810184520182611f4f565b6127db8251936127cc85611f34565b86855283519061057582611f34565b958251976127e889611efe565b8852870152850152830152608082015290565b9061280582611f70565b6128126040519182611f4f565b8281528092612823601f1991611f70565b0190602036910137565b806000917a184f03e93ff9f4daa797ed6e38ed64bf6a1f01000000000000000080821015612963575b506d04ee2d6d415b85acef810000000080831015612954575b50662386f26fc1000080831015612945575b506305f5e10080831015612936575b5061271080831015612927575b506064821015612917575b600a8092101561290d575b6001908160216128c5600187016127fb565b95860101905b6128d7575b5050505090565b600019019083906f181899199a1a9b1b9c1cb0b131b232b360811b8282061a835304918215612908579190826128cb565b6128d0565b91600101916128b3565b91906064600291049101916128a8565b6004919392049101913861289d565b60089193920491019138612890565b60109193920491019138612881565b6020919392049101913861286f565b604093508104915038612856565b6000546001600160a01b0316330361298557565b60405162461bcd60e51b815260206004820152601660248201527527b7363c9031b0b63630b1363290313c9037bbb732b960511b6044820152606490fd5b6020818303126104a0578051906001600160401b0382116104a0570181601f820112156104a05780516129f581611f70565b92612a036040519485611f4f565b818452602082840101116104a0576121af9160208085019101611d68565b60405190612a2e82611f19565b600382526241434b60e81b6020830152565b604051906397a657c960e01b602083015251602482015260248152606081018181106001600160401b03821117611ee85760405290565b60001981146123c55760010190565b908151815103612adf5760009060005b8351811015612ad6576001600160f81b031980612ab38387612361565b511690612ac08385612361565b511603612acf57600101612a96565b5050905090565b50505050600190565b5050600090565b91906001926001825103612b63578392935b612b07575b5050505060001990565b8051841015612b5e576001600160f81b031980612b248684612361565b511690835115612b495760208401511614612b43578280940193612af8565b50505090565b60246000634e487b7160e01b81526032600452fd5b612afd565b634e487b7160e01b600052600160045260246000fdfea264697066735822122001654dc050e523499e05f27da6532fc4f412e470382ebb8dda9d0c6ddc9ef03d64736f6c63430008180033","linkReferences":{}},"methodIdentifiers":{"acceptOwnership()":"79ba5097","addressToString(address)":"5e57966d","allowlistDestinationChain(uint64,bool)":"96d3b83d","allowlistSender(address,bool)":"eab5b02c","allowlistSourceChain(uint64,bool)":"db04fa49","allowlistedDestinationChains(uint64)":"75c67c66","allowlistedSenders(address)":"6159ada1","allowlistedSourceChains(uint64)":"4030d521","asciiToUint(string)":"94f3a204","ccipReceive((bytes32,uint64,bytes,bytes,(address,uint256)[]))":"85572ffb","createMessageStr(uint256,address,address,address,string,uint8[])":"aac1efda","getFeeNative(uint64,address,string)":"11388b97","getHash(address)":"1da0b8fc","getLastReceivedMessageDetails()":"263596a5","getMultipleHash(address[])":"0048a62d","getRouter()":"b0f479a1","nftContract()":"d56d229d","owner()":"8da5cb5b","readMessageStr(string)":"f7bfc50c","sendAcknowledgement(uint64,address,string)":"a74329d5","sendMessage(uint64,address,string)":"0eb5ad45","setGasLimit(uint256)":"ee7d72b4","stringToAddress(string)":"15706fdf","supportsInterface(bytes4)":"01ffc9a7","transferNft(uint256,address,address,uint64,address)":"0a88e1a9","transferOwnership(address)":"f2fde38b","uintToASCII(uint256)":"836c7419","withdraw(address)":"51cff8d9","withdrawToken(address,address)":"3aeac4e1"},"id":74}