{"abi":[{"type":"constructor","inputs":[{"name":"initialOwner","type":"address","internalType":"address"}],"stateMutability":"nonpayable"},{"type":"function","name":"approve","inputs":[{"name":"to","type":"address","internalType":"address"},{"name":"tokenId","type":"uint256","internalType":"uint256"}],"outputs":[],"stateMutability":"nonpayable"},{"type":"function","name":"balanceOf","inputs":[{"name":"owner","type":"address","internalType":"address"}],"outputs":[{"name":"","type":"uint256","internalType":"uint256"}],"stateMutability":"view"},{"type":"function","name":"getApproved","inputs":[{"name":"tokenId","type":"uint256","internalType":"uint256"}],"outputs":[{"name":"","type":"address","internalType":"address"}],"stateMutability":"view"},{"type":"function","name":"isApprovedForAll","inputs":[{"name":"owner","type":"address","internalType":"address"},{"name":"operator","type":"address","internalType":"address"}],"outputs":[{"name":"","type":"bool","internalType":"bool"}],"stateMutability":"view"},{"type":"function","name":"name","inputs":[],"outputs":[{"name":"","type":"string","internalType":"string"}],"stateMutability":"view"},{"type":"function","name":"owner","inputs":[],"outputs":[{"name":"","type":"address","internalType":"address"}],"stateMutability":"view"},{"type":"function","name":"ownerOf","inputs":[{"name":"tokenId","type":"uint256","internalType":"uint256"}],"outputs":[{"name":"","type":"address","internalType":"address"}],"stateMutability":"view"},{"type":"function","name":"renounceOwnership","inputs":[],"outputs":[],"stateMutability":"nonpayable"},{"type":"function","name":"safeMint","inputs":[{"name":"to","type":"address","internalType":"address"}],"outputs":[],"stateMutability":"nonpayable"},{"type":"function","name":"safeMintRPG","inputs":[],"outputs":[],"stateMutability":"nonpayable"},{"type":"function","name":"safeTransferFrom","inputs":[{"name":"from","type":"address","internalType":"address"},{"name":"to","type":"address","internalType":"address"},{"name":"tokenId","type":"uint256","internalType":"uint256"}],"outputs":[],"stateMutability":"nonpayable"},{"type":"function","name":"safeTransferFrom","inputs":[{"name":"from","type":"address","internalType":"address"},{"name":"to","type":"address","internalType":"address"},{"name":"tokenId","type":"uint256","internalType":"uint256"},{"name":"data","type":"bytes","internalType":"bytes"}],"outputs":[],"stateMutability":"nonpayable"},{"type":"function","name":"setApprovalForAll","inputs":[{"name":"operator","type":"address","internalType":"address"},{"name":"approved","type":"bool","internalType":"bool"}],"outputs":[],"stateMutability":"nonpayable"},{"type":"function","name":"supportsInterface","inputs":[{"name":"interfaceId","type":"bytes4","internalType":"bytes4"}],"outputs":[{"name":"","type":"bool","internalType":"bool"}],"stateMutability":"view"},{"type":"function","name":"symbol","inputs":[],"outputs":[{"name":"","type":"string","internalType":"string"}],"stateMutability":"view"},{"type":"function","name":"tokenURI","inputs":[{"name":"tokenId","type":"uint256","internalType":"uint256"}],"outputs":[{"name":"","type":"string","internalType":"string"}],"stateMutability":"view"},{"type":"function","name":"transferFrom","inputs":[{"name":"from","type":"address","internalType":"address"},{"name":"to","type":"address","internalType":"address"},{"name":"tokenId","type":"uint256","internalType":"uint256"}],"outputs":[],"stateMutability":"nonpayable"},{"type":"function","name":"transferOwnership","inputs":[{"name":"newOwner","type":"address","internalType":"address"}],"outputs":[],"stateMutability":"nonpayable"},{"type":"event","name":"Approval","inputs":[{"name":"owner","type":"address","indexed":true,"internalType":"address"},{"name":"approved","type":"address","indexed":true,"internalType":"address"},{"name":"tokenId","type":"uint256","indexed":true,"internalType":"uint256"}],"anonymous":false},{"type":"event","name":"ApprovalForAll","inputs":[{"name":"owner","type":"address","indexed":true,"internalType":"address"},{"name":"operator","type":"address","indexed":true,"internalType":"address"},{"name":"approved","type":"bool","indexed":false,"internalType":"bool"}],"anonymous":false},{"type":"event","name":"OwnershipTransferred","inputs":[{"name":"previousOwner","type":"address","indexed":true,"internalType":"address"},{"name":"newOwner","type":"address","indexed":true,"internalType":"address"}],"anonymous":false},{"type":"event","name":"Transfer","inputs":[{"name":"from","type":"address","indexed":true,"internalType":"address"},{"name":"to","type":"address","indexed":true,"internalType":"address"},{"name":"tokenId","type":"uint256","indexed":true,"internalType":"uint256"}],"anonymous":false},{"type":"error","name":"ERC721IncorrectOwner","inputs":[{"name":"sender","type":"address","internalType":"address"},{"name":"tokenId","type":"uint256","internalType":"uint256"},{"name":"owner","type":"address","internalType":"address"}]},{"type":"error","name":"ERC721InsufficientApproval","inputs":[{"name":"operator","type":"address","internalType":"address"},{"name":"tokenId","type":"uint256","internalType":"uint256"}]},{"type":"error","name":"ERC721InvalidApprover","inputs":[{"name":"approver","type":"address","internalType":"address"}]},{"type":"error","name":"ERC721InvalidOperator","inputs":[{"name":"operator","type":"address","internalType":"address"}]},{"type":"error","name":"ERC721InvalidOwner","inputs":[{"name":"owner","type":"address","internalType":"address"}]},{"type":"error","name":"ERC721InvalidReceiver","inputs":[{"name":"receiver","type":"address","internalType":"address"}]},{"type":"error","name":"ERC721InvalidSender","inputs":[{"name":"sender","type":"address","internalType":"address"}]},{"type":"error","name":"ERC721NonexistentToken","inputs":[{"name":"tokenId","type":"uint256","internalType":"uint256"}]},{"type":"error","name":"OwnableInvalidOwner","inputs":[{"name":"owner","type":"address","internalType":"address"}]},{"type":"error","name":"OwnableUnauthorizedAccount","inputs":[{"name":"account","type":"address","internalType":"address"}]}],"bytecode":{"object":"0x608034620003b257601f906001600160401b0390601f1990620015223881900385810184168301858111848210176200039c57839282916040528339602092839181010312620003b257516001600160a01b03948582169491859003620003b2576200006a620003b7565b92600784526626bcaa37b5b2b760c91b8185015262000088620003b7565b9060038252624d544b60e81b818301528451958487116200039c576000968754966001978881811c9116801562000391575b858210146200037d579081878493116200032a575b508490878311600114620002c9578a92620002bd575b5050600019600383901b1c191690871b1787555b8251948511620002a95785548681811c911680156200029e575b838210146200028a5790818587969594931162000231575b5081938511600114620001cc5750508592620001c0575b5050600019600383901b1c191690821b1790555b8115620001a857600680546001600160a01b0319811684179091556040519316907f8be0079c531659141344cd1fd0a4f28419497f9722a3daafe3b4186f6b6457e09080a361114a9081620003d88239f35b60249060405190631e4fbdf760e01b82526004820152fd5b01519050388062000142565b869593929193168588528388209388905b828210620002175750508411620001fd575b505050811b01905562000156565b015160001960f88460031b161c19169055388080620001ef565b8484015186558897909501949384019390810190620001dd565b9091929394508688528288208580880160051c82019285891062000280575b9188978a9297969594930160051c01915b828110620002715750506200012b565b8a815588975089910162000261565b9250819262000250565b634e487b7160e01b88526022600452602488fd5b90607f169062000113565b634e487b7160e01b87526041600452602487fd5b015190503880620000e5565b90848a9416918b8052868c20928c5b88828210620003135750508411620002f9575b505050811b018755620000f9565b015160001960f88460031b161c19169055388080620002eb565b8385015186558d97909501949384019301620002d8565b909150898052848a208780850160051c82019287861062000373575b918b91869594930160051c01915b82811062000364575050620000cf565b8c81558594508b910162000354565b9250819262000346565b634e487b7160e01b8a52602260045260248afd5b90607f1690620000ba565b634e487b7160e01b600052604160045260246000fd5b600080fd5b60408051919082016001600160401b038111838210176200039c5760405256fe60806040908082526004918236101561001757600080fd5b600092833560e01c92836301ffc9a7146109f25750826306fdde0314610927578263081812fc146108ea578263095ea7b31461080e57826323b872dd146107f657826340d097c3146107c457826342842e0e146107955782636352211e1461076157826370a082311461070c578263715018a6146106af5782638da5cb5b1461068657826395d89b411461057f578263a22cb465146104de578263b88d4fde1461044d578263c87b56dd14610202578263e985e9c5146101b0578263f2fde38b1461011b57505063f45df6df146100ed57600080fd5b3461011857806003193601126101185761011560075461010c81610ec5565b60075533610eea565b80f35b80fd5b909150346101ac5760203660031901126101ac57610137610aa5565b90610140610b7b565b6001600160a01b03918216928315610196575050600654826bffffffffffffffffffffffff60a01b821617600655167f8be0079c531659141344cd1fd0a4f28419497f9722a3daafe3b4186f6b6457e08380a380f35b51631e4fbdf760e01b8152908101849052602490fd5b8280fd5b8382346101fe57806003193601126101fe5760ff816020936101d0610aa5565b6101d8610ac0565b6001600160a01b0391821683526005875283832091168252855220549151911615158152f35b5080fd5b8382346101fe576020918260031936011261011857833561022281610d46565b508251946060860186811067ffffffffffffffff82111761043a57845260318652848601907f68747470733a2f2f6769746875622e636f6d2f666f756e6472792d72732f666f8252703ab732393c97b4b9b9bab2b9979b99989960791b8588015282839185947a184f03e93ff9f4daa797ed6e38ed64bf6a1f010000000000000000908181101561042d575b5050876d04ee2d6d415b85acef81000000008085101561041f575b5050662386f26fc1000080841015610410575b506305f5e10080841015610401575b50612710808410156103f3575b505060648210156103e3575b600a809210156103d9575b6001908160218187019661033a61032589610b5f565b986103328c519a8b610b3d565b808a52610b5f565b888c019990601f1901368b3750870101905b6103a3575b6103758961039f8a610390838f8d8d6103848e87519a8b9551809288880190610a5d565b84019151809386840190610a5d565b01038087520185610b3d565b51928284938452830190610a80565b0390f35b600019019083906f181899199a1a9b1b9c1cb0b131b232b360811b8282061a8353049182156103d45791908261034c565b610351565b926001019261030f565b9290606460029104910192610304565b9401939091049088806102f8565b600891959304920193896102eb565b601091959304920193896102dc565b95019490920491878a6102c9565b88965004925089806102ae565b634e487b7160e01b845260418252602484fd5b9150346101ac5760803660031901126101ac57610468610aa5565b610470610ac0565b60443591856064359567ffffffffffffffff87116101fe57366023880112156101fe57860135956104ac6104a388610b5f565b96519687610b3d565b86865236602488830101116101fe57866101159760246020930183890137860101526104d9838383610ba7565b610d81565b9150346101ac57806003193601126101ac576104f8610aa5565b906024359182151580930361057b576001600160a01b03169283156105665750338452600560205280842083855260205280842060ff1981541660ff8416179055519081527f17307eab39ab6107e8899845ad3d59bd9653f200f220920489ca2b5937696c3160203392a380f35b836024925191630b61174360e31b8352820152fd5b8480fd5b9083346101185780600319360112610118578151918160019283549384811c9181861695861561067c575b6020968785108114610669578899509688969785829a5291826000146106425750506001146105e7575b50505061039f9291610390910385610b3d565b91908693508083527fb10e2d527612073b26eecdfd717e6a320cf44b4afac2b0732d9fcbe2b7fa0cf65b82841061062a575050508201018161039061039f6105d4565b8054848a018601528895508794909301928101610611565b60ff19168782015293151560051b86019093019350849250610390915061039f90506105d4565b634e487b7160e01b835260228a52602483fd5b92607f16926105aa565b8382346101fe57816003193601126101fe5760065490516001600160a01b039091168152602090f35b83346101185780600319360112610118576106c8610b7b565b600680546001600160a01b0319811690915581906001600160a01b03167f8be0079c531659141344cd1fd0a4f28419497f9722a3daafe3b4186f6b6457e08280a380f35b908334610118576020366003190112610118576001600160a01b0361072f610aa5565b1692831561074c5750806020938392526003845220549051908152f35b91516322718ad960e21b815291820152602490fd5b909150346101ac5760203660031901126101ac5735825260026020908152918190205490516001600160a01b039091168152f35b8382346101fe57610115906107a936610ad6565b919251926107b684610b0b565b8584526104d9838383610ba7565b8334610118576020366003190112610118576101156107e1610aa5565b600754906107ee82610ec5565b600755610eea565b83346101185761011561080836610ad6565b91610ba7565b9150346101ac57806003193601126101ac57610828610aa5565b9160243561083581610d46565b331515806108d7575b806108ae575b610898576001600160a01b039485169482918691167f8c5be1e5ebec7d5bd14f71427d1e84f3dd0314c0f7b2291e5b200ac8c7c3b9258880a48452602052822080546001600160a01b031916909117905580f35b835163a9fbf51f60e01b81523381850152602490fd5b506001600160a01b03811686526005602090815284872033885290528386205460ff1615610844565b506001600160a01b03811633141561083e565b909150346101ac5760203660031901126101ac5791826020933561090d81610d46565b50825283528190205490516001600160a01b039091168152f35b90833461011857806003193601126101185781519181825492600184811c918186169586156109e8575b6020968785108114610669578899509688969785829a52918260001461064257505060011461098d5750505061039f9291610390910385610b3d565b91908693508280527f290decd9548b62a8d60345a988386fc84ba6bc95484008f6362f93160ef3e5635b8284106109d0575050508201018161039061039f6105d4565b8054848a0186015288955087949093019281016109b7565b92607f1692610951565b8491346101ac5760203660031901126101ac573563ffffffff60e01b81168091036101ac57602092506380ac58cd60e01b8114908115610a4c575b8115610a3b575b5015158152f35b6301ffc9a760e01b14905083610a34565b635b5e139f60e01b81149150610a2d565b60005b838110610a705750506000910152565b8181015183820152602001610a60565b90602091610a9981518092818552858086019101610a5d565b601f01601f1916010190565b600435906001600160a01b0382168203610abb57565b600080fd5b602435906001600160a01b0382168203610abb57565b6060906003190112610abb576001600160a01b03906004358281168103610abb57916024359081168103610abb579060443590565b6020810190811067ffffffffffffffff821117610b2757604052565b634e487b7160e01b600052604160045260246000fd5b90601f8019910116810190811067ffffffffffffffff821117610b2757604052565b67ffffffffffffffff8111610b2757601f01601f191660200190565b6006546001600160a01b03163303610b8f57565b60405163118cdaa760e01b8152336004820152602490fd5b6001600160a01b039182169290918315610d2d57600092828452826020956002875260409684888820541696879133151580610c97575b509060027fddf252ad1be2c89b69c2b068fc378daa952ba7f163c4a11628f55a4df523b3ef9284610c64575b858352600381528b8320805460010190558683525289812080546001600160a01b0319168517905580a41692838303610c435750505050565b6064945051926364283d7b60e01b8452600484015260248301526044820152fd5b600087815260046020526040902080546001600160a01b0319169055848352600381528b83208054600019019055610c0a565b91939450915080610cec575b15610cb357859291879138610bde565b878688610cd0576024915190637e27328960e01b82526004820152fd5b604491519063177e802f60e01b82523360048301526024820152fd5b503387148015610d11575b80610ca35750858252600481523385898420541614610ca3565b5086825260058152878220338352815260ff8883205416610cf7565b604051633250574960e11b815260006004820152602490fd5b6000818152600260205260409020546001600160a01b0316908115610d69575090565b60249060405190637e27328960e01b82526004820152fd5b813b610d8e575b50505050565b604051630a85bd0160e11b8082523360048301526001600160a01b03928316602483015260448201949094526080606482015260209592909116939092908390610ddc906084830190610a80565b039285816000958187895af1849181610e85575b50610e50575050503d600014610e48573d610e0a81610b5f565b90610e186040519283610b3d565b81528091843d92013e5b80519283610e4357604051633250574960e11b815260048101849052602490fd5b019050fd5b506060610e22565b919450915063ffffffff60e01b1603610e6d575038808080610d88565b60249060405190633250574960e11b82526004820152fd5b9091508681813d8311610ebe575b610e9d8183610b3d565b8101031261057b57516001600160e01b03198116810361057b579038610df0565b503d610e93565b6000198114610ed45760010190565b634e487b7160e01b600052601160045260246000fd5b6040805192610ef884610b0b565b60008085526001600160a01b03948486169491929185156110fc57828452602096600288528585205416838782151592836110c9575b81885260038b528888208054600101905582885260028b5288882080546001600160a01b031916831790557fddf252ad1be2c89b69c2b068fc378daa952ba7f163c4a11628f55a4df523b3ef8880a46110b1573b610f8f575b505050505050565b85610fcd918596979894955180938192630a85bd0160e11b968784523360048501528960248501526044840152608060648401526084830190610a80565b0381878a5af1849181611071575b5061103a575050503d600014611032573d610ff581610b5f565b9061100284519283610b3d565b81528091853d92013e5b8051938461102c578251633250574960e11b815260048101859052602490fd5b84925001fd5b50606061100c565b919550915063ffffffff60e01b160361105a575050388080808080610f87565b602492505190633250574960e11b82526004820152fd5b9091508781813d83116110aa575b6110898183610b3d565b8101031261057b57516001600160e01b03198116810361057b579038610fdb565b503d61107f565b84516339e3563760e11b815260048101859052602490fd5b600083815260046020526040902080546001600160a01b031916905580885260038b528888208054600019019055610f2e565b8451633250574960e11b815260048101859052602490fdfea26469706673582212208590a4d8bdc887ffd4d8500070198b8199d6d1d7b8fca02af5a8ef1e16276ba164736f6c63430008140033","linkReferences":{}},"methodIdentifiers":{"approve(address,uint256)":"095ea7b3","balanceOf(address)":"70a08231","getApproved(uint256)":"081812fc","isApprovedForAll(address,address)":"e985e9c5","name()":"06fdde03","owner()":"8da5cb5b","ownerOf(uint256)":"6352211e","renounceOwnership()":"715018a6","safeMint(address)":"40d097c3","safeMintRPG()":"f45df6df","safeTransferFrom(address,address,uint256)":"42842e0e","safeTransferFrom(address,address,uint256,bytes)":"b88d4fde","setApprovalForAll(address,bool)":"a22cb465","supportsInterface(bytes4)":"01ffc9a7","symbol()":"95d89b41","tokenURI(uint256)":"c87b56dd","transferFrom(address,address,uint256)":"23b872dd","transferOwnership(address)":"f2fde38b"},"id":14}