{"abi":[{"type":"constructor","inputs":[{"name":"name","type":"string","internalType":"string"},{"name":"symbol","type":"string","internalType":"string"}],"stateMutability":"nonpayable"},{"type":"function","name":"allowance","inputs":[{"name":"owner","type":"address","internalType":"address"},{"name":"spender","type":"address","internalType":"address"}],"outputs":[{"name":"","type":"uint256","internalType":"uint256"}],"stateMutability":"view"},{"type":"function","name":"approve","inputs":[{"name":"spender","type":"address","internalType":"address"},{"name":"amount","type":"uint256","internalType":"uint256"}],"outputs":[{"name":"","type":"bool","internalType":"bool"}],"stateMutability":"nonpayable"},{"type":"function","name":"balanceOf","inputs":[{"name":"account","type":"address","internalType":"address"}],"outputs":[{"name":"","type":"uint256","internalType":"uint256"}],"stateMutability":"view"},{"type":"function","name":"decimals","inputs":[],"outputs":[{"name":"","type":"uint8","internalType":"uint8"}],"stateMutability":"view"},{"type":"function","name":"decreaseAllowance","inputs":[{"name":"spender","type":"address","internalType":"address"},{"name":"subtractedValue","type":"uint256","internalType":"uint256"}],"outputs":[{"name":"","type":"bool","internalType":"bool"}],"stateMutability":"nonpayable"},{"type":"function","name":"increaseAllowance","inputs":[{"name":"spender","type":"address","internalType":"address"},{"name":"addedValue","type":"uint256","internalType":"uint256"}],"outputs":[{"name":"","type":"bool","internalType":"bool"}],"stateMutability":"nonpayable"},{"type":"function","name":"name","inputs":[],"outputs":[{"name":"","type":"string","internalType":"string"}],"stateMutability":"view"},{"type":"function","name":"symbol","inputs":[],"outputs":[{"name":"","type":"string","internalType":"string"}],"stateMutability":"view"},{"type":"function","name":"totalSupply","inputs":[],"outputs":[{"name":"","type":"uint256","internalType":"uint256"}],"stateMutability":"view"},{"type":"function","name":"transfer","inputs":[{"name":"to","type":"address","internalType":"address"},{"name":"amount","type":"uint256","internalType":"uint256"}],"outputs":[{"name":"","type":"bool","internalType":"bool"}],"stateMutability":"nonpayable"},{"type":"function","name":"transferAndCall","inputs":[{"name":"to","type":"address","internalType":"address"},{"name":"amount","type":"uint256","internalType":"uint256"},{"name":"data","type":"bytes","internalType":"bytes"}],"outputs":[{"name":"success","type":"bool","internalType":"bool"}],"stateMutability":"nonpayable"},{"type":"function","name":"transferFrom","inputs":[{"name":"from","type":"address","internalType":"address"},{"name":"to","type":"address","internalType":"address"},{"name":"amount","type":"uint256","internalType":"uint256"}],"outputs":[{"name":"","type":"bool","internalType":"bool"}],"stateMutability":"nonpayable"},{"type":"event","name":"Approval","inputs":[{"name":"owner","type":"address","indexed":true,"internalType":"address"},{"name":"spender","type":"address","indexed":true,"internalType":"address"},{"name":"value","type":"uint256","indexed":false,"internalType":"uint256"}],"anonymous":false},{"type":"event","name":"Transfer","inputs":[{"name":"from","type":"address","indexed":true,"internalType":"address"},{"name":"to","type":"address","indexed":true,"internalType":"address"},{"name":"value","type":"uint256","indexed":false,"internalType":"uint256"}],"anonymous":false},{"type":"event","name":"Transfer","inputs":[{"name":"from","type":"address","indexed":true,"internalType":"address"},{"name":"to","type":"address","indexed":true,"internalType":"address"},{"name":"value","type":"uint256","indexed":false,"internalType":"uint256"},{"name":"data","type":"bytes","indexed":false,"internalType":"bytes"}],"anonymous":false}],"bytecode":{"object":"0x6080604052346200031d5762000e42803803806200001d8162000322565b9283398101906040818303126200031d5780516001600160401b03908181116200031d57836200004f91840162000348565b91602093848201518381116200031d576200006b920162000348565b82518281116200021d576003918254916001958684811c9416801562000312575b88851014620002fc578190601f94858111620002a6575b5088908583116001146200023f5760009262000233575b505060001982861b1c191690861b1783555b80519384116200021d5760049586548681811c9116801562000212575b82821014620001fd57838111620001b2575b508092851160011462000144575093839491849260009562000138575b50501b92600019911b1c19161790555b604051610a879081620003bb8239f35b01519350388062000118565b92919084601f1981168860005285600020956000905b898383106200019757505050106200017c575b50505050811b01905562000128565b01519060f884600019921b161c19169055388080806200016d565b8587015189559097019694850194889350908101906200015a565b87600052816000208480880160051c820192848910620001f3575b0160051c019087905b828110620001e6575050620000fb565b60008155018790620001d6565b92508192620001cd565b602288634e487b7160e01b6000525260246000fd5b90607f1690620000e9565b634e487b7160e01b600052604160045260246000fd5b015190503880620000ba565b90889350601f19831691876000528a6000209260005b8c8282106200028f575050841162000276575b505050811b018355620000cc565b015160001983881b60f8161c1916905538808062000268565b8385015186558c9790950194938401930162000255565b90915085600052886000208580850160051c8201928b8610620002f2575b918a91869594930160051c01915b828110620002e2575050620000a3565b600081558594508a9101620002d2565b92508192620002c4565b634e487b7160e01b600052602260045260246000fd5b93607f16936200008c565b600080fd5b6040519190601f01601f191682016001600160401b038111838210176200021d57604052565b919080601f840112156200031d5782516001600160401b0381116200021d576020906200037e601f8201601f1916830162000322565b928184528282870101116200031d5760005b818110620003a657508260009394955001015290565b85810183015184820184015282016200039056fe608060408181526004918236101561001657600080fd5b600092833560e01c91826306fdde031461064657508163095ea7b31461061c57816318160ddd146105fd57816323b872dd14610533578163313ce5671461051757816339509351146104b05781634000aea01461031e57816370a08231146102e757816395d89b41146101cc578163a457c2d71461012457508063a9059cbb146100f45763dd62ed3e146100a957600080fd5b346100f057806003193601126100f057806020926100c5610778565b6100cd610793565b6001600160a01b0391821683526001865283832091168252845220549051908152f35b5080fd5b50346100f057806003193601126100f05760209061011d610113610778565b60243590336107e1565b5160018152f35b905082346101c957826003193601126101c95761013f610778565b918360243592338152600160205281812060018060a01b03861682526020522054908282106101785760208561011d858503873361094f565b608490602086519162461bcd60e51b8352820152602560248201527f45524332303a2064656372656173656420616c6c6f77616e63652062656c6f77604482015264207a65726f60d81b6064820152fd5b80fd5b8284346101c957806003193601126101c95781519181845492600184811c918186169586156102dd575b60209687851081146102ca579087899a92868b999a9b5291826000146102a0575050600114610245575b858861024189610232848a03856107a9565b51928284938452830190610738565b0390f35b815286935091907f8a35acfbc15ff81a39ae7d344fd709f28e8600b4aa8c65c6b64bfe7fe36bd19b5b828410610288575050508201018161023261024188610220565b8054848a01860152889550879490930192810161026e565b60ff19168882015294151560051b8701909401945085935061023292506102419150899050610220565b634e487b7160e01b835260228a52602483fd5b92607f16926101f6565b5050346100f05760203660031901126100f05760209181906001600160a01b0361030f610778565b16815280845220549051908152f35b9050346104ac5760603660031901126104ac57610339610778565b9260249182356044359567ffffffffffffffff918288116104925736602389011215610492578784013583811161049a57875198610381601f8301601f19166020018b6107a9565b818a5236888383010111610496578187928960209301838d01378a0101526103aa8183336107e1565b8651818152602081018890526001600160a01b0383169290839033907fe19260aff97b920c7df27010903aeb9c8d2be5d310a2c67824cf3f15396e4c1690806103f5818e018f610738565b0390a33b610408575b6020875160018152f35b819695963b156104925796849187988388996104499951998a9586948593635260769b60e11b8552338c860152840152606060448401526064830190610738565b03925af180156104885761045f575b80806103fe565b831161047657505060209250815238808080610458565b634e487b7160e01b8252604190528390fd5b85513d85823e3d90fd5b8480fd5b8680fd5b634e487b7160e01b8652604185528686fd5b8280fd5b8284346101c957816003193601126101c9576104ca610778565b338252600160209081528383206001600160a01b03831684529052828220546024358101929083106105045760208461011d85853361094f565b634e487b7160e01b815260118552602490fd5b5050346100f057816003193601126100f0576020905160128152f35b839150346100f05760603660031901126100f05761054f610778565b610557610793565b91846044359460018060a01b038416815260016020528181203382526020522054906000198203610591575b60208661011d8787876107e1565b8482106105ba57509183916105af6020969561011d9503338361094f565b919394819350610583565b606490602087519162461bcd60e51b8352820152601d60248201527f45524332303a20696e73756666696369656e7420616c6c6f77616e63650000006044820152fd5b5050346100f057816003193601126100f0576020906002549051908152f35b5050346100f057806003193601126100f05760209061011d61063c610778565b602435903361094f565b8484346100f057816003193601126100f0578160035492600184811c9181861695861561072e575b60209687851081146102ca578899509688969785829a5291826000146107075750506001146106ab575b50505061024192916102329103856107a9565b9190869350600383527fc2575a0e9e593c00f959f8c92f12db2869c3395a3b0502d05e2516446f71f85b5b8284106106ef5750505082010181610232610241610698565b8054848a0186015288955087949093019281016106d6565b60ff19168782015293151560051b8601909301935084925061023291506102419050610698565b92607f169261066e565b919082519283825260005b848110610764575050826000602080949584010152601f8019910116010190565b602081830181015184830182015201610743565b600435906001600160a01b038216820361078e57565b600080fd5b602435906001600160a01b038216820361078e57565b90601f8019910116810190811067ffffffffffffffff8211176107cb57604052565b634e487b7160e01b600052604160045260246000fd5b6001600160a01b039081169182156108fc57169182156108ab5760008281528060205260408120549180831061085757604082827fddf252ad1be2c89b69c2b068fc378daa952ba7f163c4a11628f55a4df523b3ef958760209652828652038282205586815220818154019055604051908152a3565b60405162461bcd60e51b815260206004820152602660248201527f45524332303a207472616e7366657220616d6f756e7420657863656564732062604482015265616c616e636560d01b6064820152608490fd5b60405162461bcd60e51b815260206004820152602360248201527f45524332303a207472616e7366657220746f20746865207a65726f206164647260448201526265737360e81b6064820152608490fd5b60405162461bcd60e51b815260206004820152602560248201527f45524332303a207472616e736665722066726f6d20746865207a65726f206164604482015264647265737360d81b6064820152608490fd5b6001600160a01b03908116918215610a0057169182156109b05760207f8c5be1e5ebec7d5bd14f71427d1e84f3dd0314c0f7b2291e5b200ac8c7c3b925918360005260018252604060002085600052825280604060002055604051908152a3565b60405162461bcd60e51b815260206004820152602260248201527f45524332303a20617070726f766520746f20746865207a65726f206164647265604482015261737360f01b6064820152608490fd5b60405162461bcd60e51b8152602060048201526024808201527f45524332303a20617070726f76652066726f6d20746865207a65726f206164646044820152637265737360e01b6064820152608490fdfea2646970667358221220a33a1c37866a27715eaaadd376056f727245756a5417176c0a10b6db3925c1c764736f6c63430008130033","linkReferences":{}},"methodIdentifiers":{"allowance(address,address)":"dd62ed3e","approve(address,uint256)":"095ea7b3","balanceOf(address)":"70a08231","decimals()":"313ce567","decreaseAllowance(address,uint256)":"a457c2d7","increaseAllowance(address,uint256)":"39509351","name()":"06fdde03","symbol()":"95d89b41","totalSupply()":"18160ddd","transfer(address,uint256)":"a9059cbb","transferAndCall(address,uint256,bytes)":"4000aea0","transferFrom(address,address,uint256)":"23b872dd"},"id":16}