{"abi":[{"type":"constructor","inputs":[{"name":"_router","type":"address","internalType":"address"},{"name":"_link","type":"address","internalType":"address"}],"stateMutability":"nonpayable"},{"type":"receive","stateMutability":"payable"},{"type":"function","name":"acceptOwnership","inputs":[],"outputs":[],"stateMutability":"nonpayable"},{"type":"function","name":"allowlistDestinationChain","inputs":[{"name":"_destinationChainSelector","type":"uint64","internalType":"uint64"},{"name":"allowed","type":"bool","internalType":"bool"}],"outputs":[],"stateMutability":"nonpayable"},{"type":"function","name":"allowlistSender","inputs":[{"name":"_sender","type":"address","internalType":"address"},{"name":"allowed","type":"bool","internalType":"bool"}],"outputs":[],"stateMutability":"nonpayable"},{"type":"function","name":"allowlistSourceChain","inputs":[{"name":"_sourceChainSelector","type":"uint64","internalType":"uint64"},{"name":"allowed","type":"bool","internalType":"bool"}],"outputs":[],"stateMutability":"nonpayable"},{"type":"function","name":"allowlistedDestinationChains","inputs":[{"name":"","type":"uint64","internalType":"uint64"}],"outputs":[{"name":"","type":"bool","internalType":"bool"}],"stateMutability":"view"},{"type":"function","name":"allowlistedSenders","inputs":[{"name":"","type":"address","internalType":"address"}],"outputs":[{"name":"","type":"bool","internalType":"bool"}],"stateMutability":"view"},{"type":"function","name":"allowlistedSourceChains","inputs":[{"name":"","type":"uint64","internalType":"uint64"}],"outputs":[{"name":"","type":"bool","internalType":"bool"}],"stateMutability":"view"},{"type":"function","name":"ccipReceive","inputs":[{"name":"message","type":"tuple","internalType":"struct Client.Any2EVMMessage","components":[{"name":"messageId","type":"bytes32","internalType":"bytes32"},{"name":"sourceChainSelector","type":"uint64","internalType":"uint64"},{"name":"sender","type":"bytes","internalType":"bytes"},{"name":"data","type":"bytes","internalType":"bytes"},{"name":"destTokenAmounts","type":"tuple[]","internalType":"struct Client.EVMTokenAmount[]","components":[{"name":"token","type":"address","internalType":"address"},{"name":"amount","type":"uint256","internalType":"uint256"}]}]}],"outputs":[],"stateMutability":"nonpayable"},{"type":"function","name":"getLastReceivedMessageDetails","inputs":[],"outputs":[{"name":"messageId","type":"bytes32","internalType":"bytes32"},{"name":"text","type":"string","internalType":"string"}],"stateMutability":"view"},{"type":"function","name":"getRouter","inputs":[],"outputs":[{"name":"","type":"address","internalType":"address"}],"stateMutability":"view"},{"type":"function","name":"owner","inputs":[],"outputs":[{"name":"","type":"address","internalType":"address"}],"stateMutability":"view"},{"type":"function","name":"sendMessagePayLINK","inputs":[{"name":"_destinationChainSelector","type":"uint64","internalType":"uint64"},{"name":"_receiver","type":"address","internalType":"address"},{"name":"_text","type":"string","internalType":"string"}],"outputs":[{"name":"messageId","type":"bytes32","internalType":"bytes32"}],"stateMutability":"nonpayable"},{"type":"function","name":"sendMessagePayNative","inputs":[{"name":"_destinationChainSelector","type":"uint64","internalType":"uint64"},{"name":"_receiver","type":"address","internalType":"address"},{"name":"_text","type":"string","internalType":"string"}],"outputs":[{"name":"messageId","type":"bytes32","internalType":"bytes32"}],"stateMutability":"nonpayable"},{"type":"function","name":"supportsInterface","inputs":[{"name":"interfaceId","type":"bytes4","internalType":"bytes4"}],"outputs":[{"name":"","type":"bool","internalType":"bool"}],"stateMutability":"view"},{"type":"function","name":"transferOwnership","inputs":[{"name":"to","type":"address","internalType":"address"}],"outputs":[],"stateMutability":"nonpayable"},{"type":"function","name":"withdraw","inputs":[{"name":"_beneficiary","type":"address","internalType":"address"}],"outputs":[],"stateMutability":"nonpayable"},{"type":"function","name":"withdrawToken","inputs":[{"name":"_beneficiary","type":"address","internalType":"address"},{"name":"_token","type":"address","internalType":"address"}],"outputs":[],"stateMutability":"nonpayable"},{"type":"event","name":"MessageReceived","inputs":[{"name":"messageId","type":"bytes32","indexed":true,"internalType":"bytes32"},{"name":"sourceChainSelector","type":"uint64","indexed":true,"internalType":"uint64"},{"name":"sender","type":"address","indexed":false,"internalType":"address"},{"name":"text","type":"string","indexed":false,"internalType":"string"}],"anonymous":false},{"type":"event","name":"MessageSent","inputs":[{"name":"messageId","type":"bytes32","indexed":true,"internalType":"bytes32"},{"name":"destinationChainSelector","type":"uint64","indexed":true,"internalType":"uint64"},{"name":"receiver","type":"address","indexed":false,"internalType":"address"},{"name":"text","type":"string","indexed":false,"internalType":"string"},{"name":"feeToken","type":"address","indexed":false,"internalType":"address"},{"name":"fees","type":"uint256","indexed":false,"internalType":"uint256"}],"anonymous":false},{"type":"event","name":"OwnershipTransferRequested","inputs":[{"name":"from","type":"address","indexed":true,"internalType":"address"},{"name":"to","type":"address","indexed":true,"internalType":"address"}],"anonymous":false},{"type":"event","name":"OwnershipTransferred","inputs":[{"name":"from","type":"address","indexed":true,"internalType":"address"},{"name":"to","type":"address","indexed":true,"internalType":"address"}],"anonymous":false},{"type":"error","name":"DestinationChainNotAllowlisted","inputs":[{"name":"destinationChainSelector","type":"uint64","internalType":"uint64"}]},{"type":"error","name":"FailedToWithdrawEth","inputs":[{"name":"owner","type":"address","internalType":"address"},{"name":"target","type":"address","internalType":"address"},{"name":"value","type":"uint256","internalType":"uint256"}]},{"type":"error","name":"InvalidReceiverAddress","inputs":[]},{"type":"error","name":"InvalidRouter","inputs":[{"name":"router","type":"address","internalType":"address"}]},{"type":"error","name":"NotEnoughBalance","inputs":[{"name":"currentBalance","type":"uint256","internalType":"uint256"},{"name":"calculatedFees","type":"uint256","internalType":"uint256"}]},{"type":"error","name":"NothingToWithdraw","inputs":[]},{"type":"error","name":"SenderNotAllowlisted","inputs":[{"name":"sender","type":"address","internalType":"address"}]},{"type":"error","name":"SourceChainNotAllowlisted","inputs":[{"name":"sourceChainSelector","type":"uint64","internalType":"uint64"}]}],"bytecode":{"object":"0x60a0346200011257601f62001a3a38819003918201601f19168301916001600160401b038311848410176200011757808492604094855283398101031262000112576200005a602062000052836200012d565b92016200012d565b906001600160a01b039081811615620000f9576080523315620000b45760018060a01b03199133836000541617600055169060075416176007556040516118f7908162000143823960805181818161027201526103690152f35b60405162461bcd60e51b815260206004820152601860248201527f43616e6e6f7420736574206f776e657220746f207a65726f00000000000000006044820152606490fd5b6040516335fdcccd60e21b815260006004820152602490fd5b600080fd5b634e487b7160e01b600052604160045260246000fd5b51906001600160a01b0382168203620001125756fe60c0604081815260049182361015610022575b505050361561002057600080fd5b005b600090608091808352803560e01c91826301ffc9a71461139a5750508063263596a5146112a55780633aeac4e1146110e85780634030d521146110aa57806351cff8d9146110275780636159ada114610fe757806375c67c6614610faa57806379ba509714610ef75780637b77dd0414610a9157806381568a061461079057806385572ffb146103285780638da5cb5b146102ff57806396d3b83d146102a5578063b0f479a11461025c578063db04fa4914610207578063eab5b02c146101b05763f2fde38b0361001257346101ac5760203660031901126101ac57610106611438565b9261010f6115e6565b6001600160a01b0393841692338414610169575050816bffffffffffffffffffffffff60a01b600154161760015551918254167fed8889f560326eb138920d842192f0eb3dd22b4f139c87a2c57538e05bae12788380a380f35b906020606492519162461bcd60e51b8352820152601760248201527f43616e6e6f74207472616e7366657220746f2073656c660000000000000000006044820152fd5b5180fd5b50346101ac57816003193601126101ac57610204906101cd611438565b906101d66114d2565b916101df6115e6565b60018060a01b03168151526006602052519283209060ff801983541691151516179055565b80f35b50346101ac57816003193601126101ac5761020490610224611453565b906001600160401b036102356114d2565b9261023e6115e6565b168151526005602052519283209060ff801983541691151516179055565b50346101ac575190816003193601126102a157517f00000000000000000000000000000000000000000000000000000000000000006001600160a01b03168152602090f35b5080fd5b5091346102fa57816003193601126102fa5761020491926102c4611453565b916001600160401b036102d56114d2565b936102de6115e6565b16825152602052519283209060ff801983541691151516179055565b825180fd5b50346101ac575190816003193601126102a157905490516001600160a01b039091168152602090f35b509190346102fa57600319906020368301811361078b578335906001600160401b03938483116107865760a0908336030112610781576001600160a01b03927f00000000000000000000000000000000000000000000000000000000000000008416330361076c5780519461039c866114e1565b83870135865260249586850135968288168803610767578482019788526044860135838111610762576103d4908a369189010161159f565b98848301998a526064870135848111610758576103f6908236918a010161159f565b966060840197885260848101359085821161075d57013660238201121561075857818101359085821161074457865191610435898260051b0184611563565b808352848984019160061b8301019136831161073f578b8f938f938f90918b928a8e9601905b8282106106ec575050509061048591869760ff96978c0152511694518c8082518301019101611638565b16938381515260058b5251205416156106d95750808c51526006875260ff868d51205416156106c7575082516002556104c7875187808251830101910161175c565b918251918583116106b35750506003916104e183546117ba565b601f811161064d575b508b51908c8892601f851160011461059a5750948795948461057495610564957fb1e312a29937cc11967b0e4a346fef1ae132424ebaba9dc6d90249dba053e87c9e9d9c9a956105889c99519261058f575b50508160011b9160001990841b1c19161790555b519a51169a51858082518301019101611638565b955184808251830101910161175c565b928151968796168652850152830190611413565b0390a35180f35b01519050388061053c565b859052517fc2575a0e9e593c00f959f8c92f12db2869c3395a3b0502d05e2516446f71f85b929190601f198516905b818110610636575094600185610564957fb1e312a29937cc11967b0e4a346fef1ae132424ebaba9dc6d90249dba053e87c9e9d9c9a958c9a95610574996105889e9b1061061e575b505050811b019055610550565b015160001983861b60f8161c19169055388080610611565b92938a6001819287860151815501950193016105c9565b838d51527fc2575a0e9e593c00f959f8c92f12db2869c3395a3b0502d05e2516446f71f85b601f840160051c8101918985106106a9575b601f0160051c01908d51905b82811061069e5750506104ea565b818155600101610690565b9091508190610684565b8c51634e487b7160e01b9052604190528b51fd5b85516338c08ef960e11b815291820152fd5b86516326bfad9160e21b81529283015250fd5b9594509550955050508236031261073f5788519061070982611512565b8235908d8216820361073957828c928c9452828501358382015281520191018b8f938f938f90918c948c9361045b565b508f5180fd5b8e5180fd5b838d604185634e487b7160e01b8351525251fd5b8b5180fd5b8c5180fd5b8a5180fd5b895180fd5b516335fdcccd60e21b81523381870152602490fd5b855180fd5b865180fd5b845180fd5b509034610a8c576107a036611469565b939290946107ac6115e6565b6001600160401b038216928382515260209688885260ff86845120541615610a75576001600160a01b03918216938415610a655790839187516107ee816114e1565b6060938185809352828d820152828b8201528151838201520152875193868b8601528a855261081c85611512565b8851808c018c90528b9061084581610837818e018f8961173b565b03601f198101835282611563565b8a51906108518261152d565b885182528b516108608161152d565b62030d4081528c51936397a657c960e01b908501525160248401526024835261088883611548565b8b5197610894896114e1565b88528d8801528a87015286518587015286860152885163b0f479a160e01b81528b818e81305afa908115610a2c57838e9388938f938b5191610a38575b5016936108ef8d51998a9384936320487ded60e01b85528401611657565b0381855afa958615610a2c578751966109fd575b504786116109e057908b9291868b519e8f94859384926396f4e9f960e01b845283019161092f92611657565b03925af19788156109d457899a859a9798999a519a61099c575b509161098a7fd36445359b3c6e26c120659aef090ce0f2eb005cf9af450d11aa1225609b4f4d96949286948c99978c5198899889528801528587019161173b565b9251898501528301520390a351908152f35b9199509581813d81116109cd575b6109b48183611563565b810103126109c8575197899561098a610949565b835180fd5b503d6109aa565b875185513d90823e3d90fd5b8951634787a10360e11b815247818f015260248101879052604490fd5b9095508b81813d8311610a25575b610a158183611563565b8101031261078657519438610903565b503d610a0b565b8a5188513d90823e3d90fd5b610a589150843d8611610a5e575b610a508183611563565b810190611638565b386108d1565b503d610a46565b865163502ffa3f60e11b81528a90fd5b8551630a503cdb60e01b8152808a01869052602490fd5b505180fd5b50346101ac57610aa036611469565b92610aac9491946115e6565b6001600160401b0381169485835152602060a0528760205260ff87845120541615610ee0576001600160a01b039484861615610ed0578560075416986060858a51610af6816114e1565b8281528260a051820152828c8201528151838201520152885187871660a05182015260a0518152610b2681611512565b895160a05180820152610b40816108378d8201878961173b565b8a51610b4b8161152d565b875181528b5191610b5b8361152d565b62030d4083528c51926397a657c960e01b60a05185015251602484015260248352610b8583611548565b8c5193610b91856114e1565b845260a0518401528b8301528b606083015286820152895163b0f479a160e01b815260a051818481305afa908115610ec457875191610ea5575b508a51956320487ded60e01b875260a0518780610beb8685898401611657565b03818d86165afa968715610d9957885197610e6c575b508c8c516370a0823160e01b9182825230878301528160248160a051935afa908115610e60578a5191610e2e575b508811610da557508b5163095ea7b360e01b815260a0516001600160a01b03848d1616868301908152602081018a9052919e90918f91908290819060400103918c51905af19c8d15610d9957610ca29d610d6a575b508b51809d819482936396f4e9f960e01b845260a051978401611657565b03918a895191165af1988915610d5e57845199610d1a575b5091610d038694927fd36445359b3c6e26c120659aef090ce0f2eb005cf9af450d11aa1225609b4f4d96948b9860075416948b519788971687528060a05188015286019161173b565b918884015260608301520390a35190815260a05190f35b909594939291985060a0513d8111610d57575b610d378183611563565b8160a05191810103126102fa575197939492939192909190610d03610cba565b503d610d2d565b885185513d90823e3d90fd5b610d8b9060a0513d8111610d92575b610d838183611563565b810190611723565b5038610c84565b503d610d79565b8c5189513d90823e3d90fd5b84888f928f8c94815192835230858401528260248160a051935afa918215610e2257855192610dea575b5051634787a10360e11b815292830152602482015260449150fd5b90915060a0513d8111610e1b575b610e028183611563565b8160a051918101031261078b5760449450519085610dcf565b503d610df8565b815186513d90823e3d90fd5b905060a0513d8111610e59575b610e458183611563565b8160a0519181010312610767575138610c2f565b503d610e3b565b8e518b513d90823e3d90fd5b90965060a0513d8111610e9e575b610e848183611563565b8160a0519181010312610e9957519538610c01565b875180fd5b503d610e7a565b610ebe915060a0513d8111610a5e57610a508183611563565b38610bcb565b8b5188513d90823e3d90fd5b875163502ffa3f60e11b81528990fd5b8651630a503cdb60e01b8152808901879052602490fd5b508290346101ac57805180600319360112610fa757506001546001600160a01b03939092908484163303610f6b5750505180546001600160a01b031980821633908117845593166001559092167f8be0079c531659141344cd1fd0a4f28419497f9722a3daafe3b4186f6b6457e08380a380f35b906020606492519162461bcd60e51b8352820152601660248201527526bab9ba10313290383937b837b9b2b21037bbb732b960511b6044820152fd5b80fd5b5091346102fa5760203660031901126102fa578160209360ff926001600160401b03610fd4611453565b1682515285525120541690519015158152f35b509034610a8c576020366003190112610a8c5760209160ff9082906001600160a01b03611012611438565b16815152600685525120541690519015158152f35b509190346102fa5760203660031901126102fa57611043611438565b61104b6115e6565b4791821561109b57845180808086865af16110646117f4565b501561106f57845180f35b51639d11f56360e01b815233938101939093526001600160a01b03166024830152604482015260649150fd5b51630686827b60e51b81528390fd5b509034610a8c576020366003190112610a8c5760ff816020936001600160401b036110d3611453565b16815152600585525120541690519015158152f35b509190346102fa57806003193601126102fa57611103611438565b906024356001600160a01b0381169081900361078b576111216115e6565b81516370a0823160e01b81523085820152602093908481602481865afa9081156112995787519161126c575b50801561125c57835163a9059cbb60e01b8682019081526001600160a01b039390931660248201526044808201929092529081526111df929091611192606484611563565b84519261119e84611512565b8684527f5361666545524332303a206c6f772d6c6576656c2063616c6c206661696c6564878501528851918291519082855af16111d96117f4565b91611824565b805190816111ec57855180f35b83806111fc938301019101611723565b15611208578080855180f35b5162461bcd60e51b815291820152602a60248201527f5361666545524332303a204552433230206f7065726174696f6e20646964206e6044820152691bdd081cdd58d8d9595960b21b606482015260849150fd5b8351630686827b60e51b81528690fd5b90508481813d8311611292575b6112838183611563565b8101031261078657513861114d565b503d611279565b845188513d90823e3d90fd5b50346101ac57805180600319360112610fa75760025491835191906003546112cc816117ba565b808552916001918083169081156113705750600114611312575b505050906112f98161130e930382611563565b83519384938452806020850152830190611413565b0390f35b8051600390525192507fc2575a0e9e593c00f959f8c92f12db2869c3395a3b0502d05e2516446f71f85b5b8284106113585750505081016020016112f98261130e6112e6565b8054602085870181019190915290930192810161133d565b86955061130e969350602092506112f994915060ff191682840152151560051b82010192936112e6565b85346113ec5760203660031901126113ec573563ffffffff60e01b81168091036113ec57602092506385572ffb60e01b81149081156113db575b5015158152f35b6301ffc9a760e01b149050836113d4565b8280fd5b60005b8381106114035750506000910152565b81810151838201526020016113f3565b9060209161142c815180928185528580860191016113f0565b601f01601f1916010190565b600435906001600160a01b038216820361144e57565b600080fd5b600435906001600160401b038216820361144e57565b606060031982011261144e576001600160401b03600435818116810361144e57926024356001600160a01b038116810361144e57926044359083821161144e578060238301121561144e57816004013593841161144e576024848301011161144e576024019190565b60243590811515820361144e57565b60a081019081106001600160401b038211176114fc57604052565b634e487b7160e01b600052604160045260246000fd5b604081019081106001600160401b038211176114fc57604052565b602081019081106001600160401b038211176114fc57604052565b606081019081106001600160401b038211176114fc57604052565b90601f801991011681019081106001600160401b038211176114fc57604052565b6001600160401b0381116114fc57601f01601f191660200190565b81601f8201121561144e578035906115b682611584565b926115c46040519485611563565b8284526020838301011161144e57816000926020809301838601378301015290565b6000546001600160a01b031633036115fa57565b60405162461bcd60e51b815260206004820152601660248201527527b7363c9031b0b63630b1363290313c9037bbb732b960511b6044820152606490fd5b9081602091031261144e57516001600160a01b038116810361144e5790565b906001600160401b039093929316815260406020918183820152611686855160a08484015260e0830190611413565b916116a28487015193603f199485858303016060860152611413565b8187015194848483030160808501528080875193848152019601926000905b8382106116fa57505050505060c060806116f7959660018060a01b0360608201511660a085015201519282850301910152611413565b90565b845180516001600160a01b031689528301518884015296870196938201936001909101906116c1565b9081602091031261144e5751801515810361144e5790565b908060209392818452848401376000828201840152601f01601f1916010190565b60208183031261144e578051906001600160401b03821161144e570181601f8201121561144e57805161178e81611584565b9261179c6040519485611563565b8184526020828401011161144e576116f791602080850191016113f0565b90600182811c921680156117ea575b60208310146117d457565b634e487b7160e01b600052602260045260246000fd5b91607f16916117c9565b3d1561181f573d9061180582611584565b916118136040519384611563565b82523d6000602084013e565b606090565b919290156118865750815115611838575090565b3b156118415790565b60405162461bcd60e51b815260206004820152601d60248201527f416464726573733a2063616c6c20746f206e6f6e2d636f6e74726163740000006044820152606490fd5b8251909150156118995750805190602001fd5b60405162461bcd60e51b8152602060048201529081906118bd906024830190611413565b0390fdfea264697066735822122007d41ddbafc86d0a6d11c72a4163f6f101ae831f0b1c6f8d13ebf48aeec210f064736f6c63430008130033","linkReferences":{}},"methodIdentifiers":{"acceptOwnership()":"79ba5097","allowlistDestinationChain(uint64,bool)":"96d3b83d","allowlistSender(address,bool)":"eab5b02c","allowlistSourceChain(uint64,bool)":"db04fa49","allowlistedDestinationChains(uint64)":"75c67c66","allowlistedSenders(address)":"6159ada1","allowlistedSourceChains(uint64)":"4030d521","ccipReceive((bytes32,uint64,bytes,bytes,(address,uint256)[]))":"85572ffb","getLastReceivedMessageDetails()":"263596a5","getRouter()":"b0f479a1","owner()":"8da5cb5b","sendMessagePayLINK(uint64,address,string)":"7b77dd04","sendMessagePayNative(uint64,address,string)":"81568a06","supportsInterface(bytes4)":"01ffc9a7","transferOwnership(address)":"f2fde38b","withdraw(address)":"51cff8d9","withdrawToken(address,address)":"3aeac4e1"},"id":15}