{"abi":[{"type":"constructor","inputs":[{"name":"_link","type":"address","internalType":"address"},{"name":"_router","type":"address","internalType":"address"}],"stateMutability":"nonpayable"},{"type":"function","name":"send","inputs":[{"name":"receiver","type":"address","internalType":"address"},{"name":"someText","type":"string","internalType":"string"},{"name":"destinationChainSelector","type":"uint64","internalType":"uint64"},{"name":"_token","type":"address","internalType":"address"},{"name":"_amount","type":"uint256","internalType":"uint256"}],"outputs":[{"name":"messageId","type":"bytes32","internalType":"bytes32"}],"stateMutability":"nonpayable"}],"bytecode":{"object":"0x608034608657601f61066638819003918201601f19168301916001600160401b03831184841017608b578084926040948552833981010312608657604b602060458360a1565b920160a1565b600080546001600160a01b039384166001600160a01b031991821617909155600180549290931691161790556040516105b190816100b58239f35b600080fd5b634e487b7160e01b600052604160045260246000fd5b51906001600160a01b038216820360865756fe6080604052600436101561001257600080fd5b60003560e01c6321ad6d801461002757600080fd5b346103145760a0366003190112610314576004356001600160a01b03811690819003610314576024359067ffffffffffffffff8211610314573660238301121561031457816004013567ffffffffffffffff81116103b85760405192610097601f8301601f19166020018561040e565b81845236602483830101116103145781600092602460209301838701378401015260443567ffffffffffffffff81168103610314576064356001600160a01b038116919082900361031457608435926040928351956100f6858861040e565b60018752601f19850160005b8181106103ce575050956101758596976101679651610120816103f2565b84815289602082015261013284610430565b5261013c83610430565b50875194602086015260208552610153888661040e565b875196879160208084015289830190610453565b03601f19810187528661040e565b60018060a01b03600054169086519560a087019487861067ffffffffffffffff8711176103b85761020695895287526020870152868601526060850152602095869186516101c3848261040e565b60008082526080880191909152600154885163095ea7b360e01b81526001600160a01b039091166004820152602481019390935291938492839182906044820190565b03925af180156103565761039d575b5060015483516320487ded60e01b81526001600160a01b03909116908581806102428787600484016104ac565b0381855afa90811561039257908691600091610361575b5060008054875163095ea7b360e01b81526001600160a01b0395861660048201526024810193909352919384921690829081604481015b03925af1801561035657916102d2949391869361032b575b5060018060a01b036001541690600085518097819582946396f4e9f960e01b8452600484016104ac565b03925af1918215610320576000926102ec575b5051908152f35b9091508281813d8311610319575b610304818361040e565b81010312610314575190386102e5565b600080fd5b503d6102fa565b50513d6000823e3d90fd5b61034a90843d861161034f575b610342818361040e565b810190610494565b6102a8565b503d610338565b84513d6000823e3d90fd5b82819392503d831161038b575b610378818361040e565b8101031261031457518590610290610259565b503d61036e565b85513d6000823e3d90fd5b6103b390853d871161034f57610342818361040e565b610215565b634e487b7160e01b600052604160045260246000fd5b60209087516103dc816103f2565b6000815260008382015282828c01015201610102565b6040810190811067ffffffffffffffff8211176103b857604052565b90601f8019910116810190811067ffffffffffffffff8211176103b857604052565b80511561043d5760200190565b634e487b7160e01b600052603260045260246000fd5b919082519283825260005b84811061047f575050826000602080949584010152601f8019910116010190565b8060208092840101518282860101520161045e565b90816020910312610314575180151581036103145790565b9067ffffffffffffffff90939293168152604060208201526104f36104dd845160a0604085015260e0840190610453565b6020850151838203603f19016060850152610453565b90604084015191603f198282030160808301526020808451928381520193019060005b81811061055057505050608061054d939460018060a01b0360608201511660a084015201519060c0603f1982850301910152610453565b90565b825180516001600160a01b03168652602090810151818701526040909501949092019160010161051656fea26469706673582212201113faa14f7403882e8073776fa345a8eb8f2a4bf3f184f7308e1a9eed20ad9464736f6c634300081a0033","linkReferences":{}},"methodIdentifiers":{"send(address,string,uint64,address,uint256)":"21ad6d80"},"id":3}